:02000002D0002C
:1040000000400D0098080E00000006000D0005019C
:0840100004019A080000000001
:0440180088F10D001E
:1040200009480A49884208B505D0094A824202D0A7
:10403000121A08F0ABFF0748074A0021121A08F0CD
:10404000CDFF014808BD00BFA8DF032084050E0096
:1040500090E2032090E20320F0E7032070B5074EC2
:10406000074C08F095F8A41BA4080025A54200D130
:1040700070BD56F8043B98470135F7E744050E003C
:1040800078050E0001F024B908B501F0FDFCBDE88B
:10409000084008F035B804F0ADBF04F0ABBF04F041
:1040A000B1BF000008B5034A00210C2004F01EFE39
:1040B000FEE700BF0D890D000078B0FA80F04009DE
:1040C00070470123037070477047006A0368DB681C
:1040D00018470000014B1A60704700BFE0DF032063
:1040E000044B00229A60044B03221A70034B0122F6
:1040F0001A70704740E30320CCE3032064E30320FD
:10410000024A01239371024A13707047D8E30320D7
:104110000CE40320014B01221A7070470DE40320C8
:1041200003681847012A03D0022A03D000207047F1
:104130000160FBE70B680360F8E7000010B5054B72
:104140001A7B054B044653F8221007F088FA2046E4
:1041500010BD00BFD8E30320A8DF032008B5044941
:1041600007F036FB18B1034B03221A70012008BD7B
:10417000E0F10D00CCE3032010B5034B03600446CF
:1041800003F0FDF8204610BD9CF80D0010B5044664
:10419000FFF7F2FF2046102108F050F9204610BD2D
:1041A000436913B183690C301847704713B5002178
:1041B0000446084604F012FB0023204601A901939F
:1041C00004F024FB019C0CB1012323710021012088
:1041D00004F004FB2CB1236820469B689847002319
:1041E000237102B010BD08B501F0E4FF10B904F06E
:1041F00041FEF9E7BDE8084001F0DCBF08B500204A
:1042000004F070FE28B104F045FE80F00100C0B259
:1042100008BD0120FCE70023042204F01BBE0000BF
:1042200030B585B00346144668460D469847029857
:10423000206004F0DFFE286050B12268009908F089
:10424000A5FE0024684607F0BFF9204605B030BD42
:10425000004CF7E7FCFEFFFF37B59DF818501D43F3
:104260008DF800503C23044605F022FA204603B0A6
:1042700030BD00000A4B10B50446036006F038F963
:10428000214606F036FB07F0F3FE07F0E5FE204678
:10429000044B40F8043B06F019FA204610BD00BF5D
:1042A00084F80D006CF80D0010B50446FFF7E2FF2E
:1042B0002046242108F0C2F8204610BD00234068A3
:1042C0001A46194604F05EBE10B58368044613B161
:1042D000032201469847204610BD000037B5134B16
:1042E000036004468068C8B100256FF00043CDE943
:1042F000003502212B462A4604F090FAA068294690
:1043000004F0DCFA237903F0FF0513B104F04EFA50
:10431000F8E7A068294604F071FAA56004F10C00E2
:10432000FFF7D2FF204603B030BD00BF58F80D00A4
:1043300010B50446FFF7D2FF20461C2108F07EF896
:10434000204610BD38B5044620252A46002108F035
:1043500045FE6571204638BDF8B5037D05460F461C
:1043600016468BB10368DB6883B19A88012A06D0B0
:104370009B68F9E79B684BB19A88012AFAD12BB167
:104380009A89BA42F6D19E732846F8BD0A49102090
:1043900008F056F8044668B11022002108F01EFE0D
:1043A000064B23600123A3802B69A360A781A6731A
:1043B0002C61E9E72875E7E778020E00100003009A
:1043C00070B5037D05460E46CBB10368DB6823B1AB
:1043D0009A88042A17D09B68F9E70C49102008F046
:1043E0002FF8044668B11022002108F0F7FD084BB1
:1043F00023600423A3802B692C61C4E9023628467C
:1044000070BD2875FBE7DE60F9E700BF78020E009B
:1044100010000300002004F091BA00000246014899
:1044200005F01EB835940D00F0B58C4600251449F2
:10443000057104468560016092E8030085B002AF13
:1044400004F10C0687E8030096E8030082E8030005
:1044500097E8030086E803009168A0696161D1686C
:104460009560D060A161CDE90035064A23466146DA
:1044700004F1080004F0BAF9204605B0F0BD00BF11
:1044800058F80D00AD410D0008B5806828B1002135
:1044900004F004FA003818BF012008BD0EB410B5AE
:1044A0008DB00FAA016852F8044B0392002320201C
:1044B000CDE90403CDE900421E2004AA04F026FC45
:1044C0000DB0BDE8104003B070470EB410B58DB00C
:1044D0000FAA016852F8044B039200232020CDE973
:1044E0000403CDE90042322004AA04F00FFC0DB011
:1044F000BDE8104003B0704737B504689DF8185008
:104500008DF800308DF8045024683C23A04703B098
:1045100030BD000070B592B012B3012A28D001322C
:1045200021D1214B214C002506261D70266107F064
:1045300068FC1F4A00903346402102A804F082FD27
:1045400003F09AF91B4B8DF800501B781A4902AA08
:10455000FFF7D2FF94F82030013384F8203002E0D6
:10456000114B01221A70154B01221A7012B070BD46
:104570000D4B0E4D002404261C702E6107F041FCEB
:104580000B4A00903346402102A804F05BFD03F083
:1045900073F9084B8DF800401B78074902AAFFF712
:1045A000ABFF85F82040DEE770E3032040E3032003
:1045B00015F20D00DCE2032037F20D0064E3032066
:1045C00030B5C9B007F01DFC144B0790144C1A8D80
:1045D0000692226905921A690492E2680392197B95
:1045E000104A52F8212002929B680193A3680E4A58
:1045F00000934FF48071636808A804F023FD002540
:1046000003F03AF9094B8DF800501B78084908AAC5
:10461000FFF772FF256149B030BD00BFD8E303202A
:1046200040E30320A8DF03204AF20D00DCE2032070
:10463000D0F20D0013B5012101A806F086FE0B4B48
:10464000DB68243B402B01A84FF001040AD906F097
:104650000FFF074B1C73002401A806F085FE2046BF
:1046600002B010BD06F0EDFEF6E700BF40E3032008
:10467000D8E3032030B5194D0FCD99B004AC0FC469
:104680000FCD0FC495E8030084E8030014490EA879
:1046900004F088FD0EA804F0D8FD04460EA804F02E
:1046A000EFFD0EA810EE105A04F01AFE18AB10EE33
:1046B000100A03EB840408F035F8CDE9020128461E
:1046C00008F030F8CDE90001064A54F8503C06489D
:1046D000402104F0B7FC19B030BD00BFB0F80D00A8
:1046E00064E40320EDF20D0090E2032000000000DE
:1046F00008B50F2007F011FEB0F5C87F05DA3220AB
:1047000004F0FCFC0F2007F008FE07F0F9FF20A3DF
:10471000D3E9002308F05EF808F054FBDFED147ACB
:1047200007EE100A67EE277A17EE900A07F0FAFFF5
:10473000104B002207F096FE0F4B002208F04AF8BB
:1047400008F0F8FA07F0DCFF0C4B002208F042F802
:104750000B4B002208F068F90A4B002207F084FE98
:1047600008F0E8FA084BD860084B01221A7008BD1F
:10477000000080390000E03F000059400000224066
:10478000000014400000404040E3032064E30320A5
:104790006666666666660A4000B591B06846FFF7D1
:1047A000D1FD08A8FFF7CEFD002108A804F034FBD6
:1047B000134B5979A1B141F2D833ADF80630114B02
:1047C000029341F27003ADF80C30009B43F4007388
:1047D00000930021684604F01FFB11B05DF804FB54
:1047E00041F27003ADF80630074B029341F210031B
:1047F000ADF80C30009B43F400730093EAE700BF70
:10480000D8E303202602260284038403314B1A696D
:10481000D3ED057AFF2ABAEE087A88BF0022F4EEBB
:10482000C77A88BF1A61F1EE10FA06D4B2EE087AA0
:10483000F4EEC77AF1EE10FA01DD274A5A61D3EDA2
:10484000067AF5EEC07AF1EE10FA06D4B0EE007AF0
:10485000F4EEC77AF1EE10FA02DD4FF07E529A6163
:104860001A7F198DD3ED0B7A0C2A84BF00221A7798
:104870005A7F0C3A0C2A84BF18225A77174A1268BA
:10488000914288BF0021F5EEC07A88BF19850121C9
:10489000F1EE10FA597106D49FED117AF4EEC77A51
:1048A000F1EE10FA01DD0F49D962196BB1F57A7F8B
:1048B00084BF4FF4967119630B4B198B8A4204D253
:1048C00000221A83094B01221A70094B01221A7027
:1048D000704700BFD8E303200000A0C0CCDF032056
:1048E0000000C8420000204140E3032064E30320AD
:1048F0000CE4032013B51B4CA38BB3F5C05F0AD1A6
:1049000019491A4808F0B7FB1749194802B0BDE821
:10491000104008F0B0BB237F164A1448082104F069
:1049200091FB637F134A1248082104F08BFBA379A3
:104930001022ABB11049114808F0DDFB236B104A7F
:104940001048102104F07EFBE06A07F0EBFE0E4AEF
:10495000CDE9000108210D4804F074FB02B010BD40
:104960000B49E8E7D8E3032006F30D00D6DF032068
:10497000C4DF032009F30D0013F30D00B4E303209B
:104980001DF30D000EE4032028F30D001EE40320A8
:104990000FF30D0070B592B007F033FA184C194BB5
:1049A000206094F82000184E00251D610121642329
:1049B000022825612583E361317017D92A4608460C
:1049C00004F0EEF9256107F01CFA104A00902B461E
:1049D000402102A804F036FB02F04EFF0C4B8DF88C
:1049E00000501B780B4902AAFFF786FD0A4A0023F4
:1049F00084F8203001233370137012B070BD00BFF3
:104A000040E30320D8E3032064E3032015F20D0004
:104A1000DCE2032037F20D000CE4032038B5046813
:104A200005467CB16368013B63605BB9236820463F
:104A30009B689847A368013BA3601BB92368204685
:104A4000DB689847284638BD10B51A4A1A4C1268D8
:104A5000238D013293428CB025D900232385238DE9
:104A6000164A202104A804F0EDFA154804A9FFF71E
:104A700015FD237983B1E37873B1FFF7B4FB00230D
:104A80008DF800300F4B10491B7802A804AAFFF7DD
:104A9000E3FB03A8FFF7C2FF0C4A012313700C4A83
:104AA00013700CB010BD0B4A118B994238BF1383A1
:104AB000D5E700BFCCDF0320D8E3032031F30D009E
:104AC00038E50320DCE2032046F30D000CE403206C
:104AD00064E3032040E3032030B50B781F4D95B00D
:104AE0000C46C3B91E4904A808F0C5FA2B7983B156
:104AF000EB7873B1FFF777FB00238DF80030194B8B
:104B000019491B7802A804AAFFF7A6FB03A8FFF720
:104B100085FF15B030BD084608F022FAC8280DD12F
:104B2000124904A808F0A7FA07F06BF9104B2862A5
:104B300001221A700F4B00221A70D7E7204608F0A6
:104B40000FFAC928ECD0204608F00AFA0A4A0346B0
:104B5000402104A804F076FAC8E700BFD8E3032098
:104B60004FF30D00DCE2032086F30D0057F30D0038
:104B70000CE403206FE3032069F30D001FB50C491B
:104B800006F026FE88B100238DF80030094B0A4A52
:104B90001B780A4902A8FFF75FFB03A8FFF73EFF57
:104BA00007480A2101F0F0FE012005B05DF804FB82
:104BB000E0F10D00DCE2032093F30D0093F70D000C
:104BC000ECE2032030B51D4985B0054606F000FE35
:104BD0000446D8B11A4D01246C71FFF7DDFD194B65
:104BE0001C70EB7813B9012005B030BD164B174A85
:104BF0001B788DF80030164B1B78164902A8FFF77A
:104C00002BFB03A8FFF70AFF2046EDE712492846D1
:104C100006F0DEFD0028E7D0094D0A4B6C71012437
:104C20001C70FFF7B9FDEB78002BDCD0064B0B4A6C
:104C30001B788DF80030064B1B78DEE7E0F10D00A5
:104C4000D8E303200CE40320DDE20320ABF30D00E6
:104C5000DCE20320D8F30D000DF30D00C2F30D00CC
:104C600030B51B4985B0054606F0B2FD0446C8B113
:104C7000184B194A01241C71DB78147013B90120F8
:104C800005B030BD154B164A1B788DF80030154B1A
:104C90001B78154902A8FFF7DFFA03A8FFF7BEFE4D
:104CA0002046EDE71149284606F092FD0028E7D09E
:104CB000084B094A1C71DB7801241470002BDED0EC
:104CC000064B0B4A1B788DF80030064B1B78E0E74B
:104CD000E0F10D00D8E303200CE40320DDE2032023
:104CE000DDF30D00DCE20320D8F30D000DF30D0021
:104CF000EEF30D0000B50D4B0D4A1B7FC5B04FF410
:104D0000807104A804F09EF90A4B0B491B788DF8BA
:104D100000300A4B04AA1B7802A8FFF79DFA03A8EB
:104D2000FFF77CFE012045B05DF804FBD8E30320CB
:104D300003F40D00DDE20320E3F40D00DCE20320C8
:104D400013B50A22006801A909F0F8F817280CD851
:104D5000074C2077FFF7CEFD064B01201870E37853
:104D60000BB1FFF7C7FF02B010BD0020FBE700BF8B
:104D7000D8E303200CE4032030B5C7B000680A2252
:104D800003A909F0DBF818281FD8114D6877FFF741
:104D9000B1FD104B104A01241C704FF480716B7FE1
:104DA00006A804F04FF9EB786BB10C4B0C491B785B
:104DB0008DF800300B4B04A81B7806AAFFF74CFABD
:104DC00005A8FFF72BFE204600E0002047B030BDCD
:104DD000D8E303200CE4032017F40D00DDE20320E8
:104DE000E3F40D00DCE2032030B5204985B0054630
:104DF00006F0EEFCB8B11D49284606F0E9FC044671
:104E0000C8B91B49284606F0E3FC40B1194DAC7106
:104E1000FFF770FDEB7833BB174B05221A70174B69
:104E20000120187005E01249284606F0D1FC002840
:104E3000E1D105B030BD0F4C0123A371FFF75AFD3E
:104E4000E378002BEBD001F0B5F900238DF80030AA
:104E50000B4B0C4A1B780C4902A8FFF7FDF903A87D
:104E6000FFF7DCFDDBE78DF80040F1E7E0F10D0036
:104E70000DF30D00D8E30320CCE303200CE4032062
:104E8000DCE20320B4E30320D8F30D0070B5414BFE
:104E900000228CB05868114604F064F808B1FFF79E
:104EA000E9FBFFF725FC002203A90720039203F08A
:104EB00045FFB8B9039C0CB1236923B9364A0021D8
:104EC0000A2003F013FF0023ADF812300C23ADF8D5
:104ED000103002AB059304230693236904AA012131
:104EE000204698472D4C0028A8BF02982073FFF752
:104EF000A1FBA37953B14FF4FA7004F0FFF82848EE
:104F000004F049FE4FF4FA7004F0F8F8244804F075
:104F1000DDFDFDEEC07A17EE903A402BC4ED027A2B
:104F200009DC237B012B06D104A8FFF70BFA002133
:104F300004A803F071FF1B4DA368EA691A4E93425F
:104F4000BEBF0122EB6132701D2B1FDC0123E37118
:104F5000A3794BB9154904A806F081FB04A8FFF713
:104F600043FF04A806F030FB132007F0D6F96423B2
:104F700000930023194640F68A6204F0B3F80C4A05
:104F800068600123137033700CB070BD0023E371AF
:104F9000EAE700BF64E403200D890D00D8E3032095
:104FA00084E3032040E3032064E30320E0F10D00E9
:104FB0000CE4032070B586B0006803A908F0EAFE8F
:104FC000B5EEC00AF1EE10FA24D4DFED137AB4EE98
:104FD000E70AF1EE10FACCBF012600261ADC0F4BCF
:104FE0000F4D01241C7085ED0B0AFFF783FC2B7914
:104FF0006BB1EB785BB10B4B8DF8006004A81B78AC
:10500000094A0A49FFF728F905A8FFF707FD2046D6
:1050100006B070BD0024FAE70000C8420CE403208B
:10502000D8E30320DCE203201EE4032097F50D0003
:1050300070B586B000680A2203A908F07FFF07EE6A
:10504000900AF8EEE77AF5EEC07AF1EE10FA26D47F
:105050009FED147AF4EEC77AF1EE10FACCBF012678
:1050600000261CDC104B114DFDEEE77A01241C706C
:10507000C5ED0C7AFFF73EFC2B796BB1EB785BB199
:105080000B4B8DF8006004A81B780A4A0A49FFF709
:10509000E3F805A8FFF7C2FC204606B070BD002467
:1050A000FAE700BF00007A440CE40320D8E30320B1
:1050B000DCE203200EE403201DF50D0030B5164C94
:1050C000164D2278164902EB02132A788FB002EBB4
:1050D00002120A440B4400922821124A04A803F049
:1050E000B1FF2B782370104B1A799AB1DB786BB132
:1050F0000E4B0F491B788DF800300E4B02A81B7821
:1051000004AAFFF7A9F803A8FFF788FC0A4804A936
:10511000FFF7C4F90FB030BDC4E30320CCE3032094
:10512000E4DF03202EF40D00D8E30320DDE20320AA
:105130003CF40D00DCE2032038E503202DE9F047C4
:10514000244B254A1B782549254C86B002A88DF8AA
:105150000030244B1B78FFF77FF8002503A8FFF7EA
:105160005DFC257103F096FE10B1284603F0B2FEF7
:10517000FFF750F94FF0000A054647F22F584FF05D
:105180000009FFF747F9461B61EB0A07B94508BF5D
:10519000B04505D3FFF732F810B903F06BFEF0E726
:1051A000FFF72CF8637913B9A368462B09DC0E4985
:1051B00002A806F054FA02A8FFF716FE02A806F0AD
:1051C00003FAFFF7E7FB094B01221A7006B0BDE8AE
:1051D000F08700BFDDE203204DF40D0055F40D0013
:1051E000D8E30320DCE20320E0F10D000CE403200F
:1051F00070B5D0E900531426044606FB0356AE42B0
:1052000004D0284606F0E0F91435F8E7206803F0EA
:10521000F9FE204670BD38B503681446DD683423B6
:10522000A847204638BD000010B51F4CE37886B073
:1052300073B1FEF7D8FF00238DF800301B4B1C4ADA
:105240001B781C4902A8FFF707F803A8FFF7E6FB45
:1052500019481A49FFF722F901232370042000237B
:105260002371A370E37107F045F8D8B1144902A87F
:1052700006F0F5F902A8FFF7B7FD02A806F0A4F9B9
:10528000104B63614FF07E53A36141F20463A3832B
:1052900001210023044A0C4861712385FFF7BBFFFD
:1052A00006B010BD0949E2E7D8E30320DCE20320A1
:1052B00063F40D00D8F30D0038E503207BF40D00F6
:1052C000E0F10D000000A0C074E303200DF30D0019
:1052D000F0B50021B9B0082006F0E2FF002104205B
:1052E00006F0DEFF0121072006F0DAFF012107208A
:1052F00006F0E7FF04A8002403F0D4FD00237D227C
:1053000018A904A806F08BFABF4923462246CDE926
:10531000004418A803F0D6FDBC4A234600214FF4F0
:10532000807003F02DFDBA4A234600214FF48020FF
:1053300003F026FD23460222B649B74803F08AFD52
:10534000B649B748FEF767FFB649B7482346022279
:1053500003F080FD23460222B449B54803F07AFDEC
:10536000B449B548FEF757FF23460222B349B44873
:1053700003F070FDB349B448FEF74DFFB349B4489C
:10538000FEF749FFB349B448FEF745FF2346022222
:10539000B249B34803F05EFDB249B348FEF73BFFA4
:1053A0000C23CDE90844ADF82030B04BB0490A9346
:1053B000042208ABAF4803F04DFDAF49AF48FEF7FC
:1053C0002AFFAF49AF48FEF726FFAF49AF48FFF7C6
:1053D00025F8AF49AF48FFF721F8AF49AF48FFF7CD
:1053E0001DF8AF49AF48FFF719F8AF49AF48FFF7CD
:1053F00015F8AF49AF48FFF711F8AF49AF48FFF7CD
:105400000DF8AF49AF48FFF709F8AF49AF48FFF7CC
:1054100005F8AF49AF48FFF701F8AF49AF48FEF7CD
:10542000FDFF0125032241F2883308A8CDE90823B6
:10543000ADF8285004F03FF8A948082329464381D5
:1054400001F060FC7C21A648A64D01F043F92246FC
:10545000214608A8089403F041FA089B142B40F059
:10546000BF802B6901332B619F48A04E04F09CFB49
:105470004FF4FA7003F042FE9B4804F08CFB9C480A
:1054800001F094FF00219A4801230DF10F0201F071
:10549000CFFF9DF80F10012900F04281944801F0E0
:1054A0008FFF944A92480423002102F00CF8012354
:1054B0008F480DF10F02002101F0BAFF9DF80F3067
:1054C000012B00F09880012333708B4CFFF79EF97D
:1054D00094F82030022B1AD9002211460727012008
:1054E00003F05EFC276106F08CFC844A00903B468A
:1054F000402108A803F0A6FD02F0BEF900238DF8B4
:1055000000307F4B7F491B7808AAFEF7F5FF95ED29
:10551000060A06F02DFB00F063FE002800F00C8167
:1055200006F044FB95ED050A06F002FB06F0A2FC2E
:10553000074606F066FC381A07F0E2F830A3D3E914
:10554000002307F071FA704ACDE900010A214548AD
:1055500003F078FD02F090F902F092FB02F08CF972
:10556000002102F065FB02F087F9602102F074FB74
:10557000FFF7C0F9FFF710F9042006F0BBFE08B9E9
:10558000FFF752FE06F05AFC00210746206806F09D
:10559000B3FA874201D0FFF7FDF9FFF777FC06F079
:1055A00041FC2B7F984207DB06F03CFC6B7F984266
:1055B000BEBF564B564A1A6033780BB9022333707C
:1055C000544B5549554801221A70FEF767FF0021D8
:1055D000072006F076FE04A805F0F6FF39B0F0BD0E
:1055E0002246214608A8089403F078F9089B8C2BE2
:1055F0007FF43AAF35E7FFF717FE66E7AFF30080B9
:10560000000000000020AC40D94A0D0015450D00F7
:10561000D5400D0044E3032093F40D0090E20320F5
:10562000A0F40D00E8E30320A7F40D004CE30320F1
:10563000B2F40D00D0DF0320BEF40D00E0E3032040
:10564000C6F40D00B4E30320D1F40D00D6DF03202F
:105650007CF50D00C4DF0320DEF40D0050E30320D1
:10566000E8F40D0065E30320EFF40D0021420D0086
:105670003D410D00FAF40D001EE4032009F50D0074
:105680000EE4032015F50D007D4B0D0026F50D00F1
:105690005D410D0030F50D00E94D0D0038F50D00B0
:1056A000C54B0D0045F50D00614C0D0050F50D008A
:1056B00021620D005DF50D0069630D006AF50D00B6
:1056C000414D0D0078F50D00794D0D0085F50D006B
:1056D000B54F0D008FF50D0031500D00A1F50D00F7
:1056E000ECE20320D8E3032084E30320CCE303208F
:1056F00074E30320D8F80D0040E3032015F20D00F9
:10570000DCE2032037F20D00B2F50D00D0E30320F8
:10571000E09304000CE40320BCF50D0038E5032001
:10572000074A0848342301F083FE074A054824232A
:10573000502101F07DFEC8E606F044FAF2E600BF13
:10574000D8E3032074E3032040E303208842F8B544
:1057500004460D46164616D9904215D2A2F11406FB
:10576000751AA1F114072C44B7421CD02CB1314654
:10577000204605F0A5FF337C2374304605F024FF56
:10578000143E143CF0E70ED0B5420CD02CB12946A3
:10579000204605F095FF2B7C2374284605F014FF66
:1057A00014351434F0E7F8BD2DE9F0410023C0E9C9
:1057B000003383604F689F4204460E4623DD4FF05E
:1057C000140808FB07F003F015FC0546D8B1D4E92E
:1057D000001208FB0212FFF7B9FF206803F012FC69
:1057E0002560A760D6E9007308FB0378B84508D0A8
:1057F0003946284605F07EFF3B7C2B741437143560
:10580000F4E7736863602046BDE8F081F0B5544B5F
:10581000544E01251D70544B08228FB01A7006F0AB
:10582000E9FC00231A460D2106F0ECFC06F0E2FC30
:1058300000231A46062106F0EDFC4C4B002464229E
:105840001C83DA6183F82040494B4A4A1C609C80E3
:105850009C719A60022003F083FA2146284603F0E7
:1058600097FA2946042003F031F8434B1A46191DD4
:1058700042F8091BA3F809409470404A1D75C3E91A
:1058800003445A601C7206F091FD234601464FF412
:105890000052304601F080FD394B336006F086FD42
:1058A00069220146374800F017FE2146364804F0C9
:1058B000BFF8CDE90144039406F0DAFB334C064609
:1058C00001A904A8FFF770FF274604A907A8FFF75E
:1058D0006BFF2F4B47F8043B07A90AA8FFF764FFAB
:1058E0000AAA2946384605F05EF90AA8FFF780FCA7
:1058F00007A8FFF77DFC274B2360266204A8FFF76B
:1059000077FC254B236006F0B3FB4FF4165106F0ED
:105910009FFB04F0EDFD214605F0D7F801A8FFF745
:1059200067FC1E4B1E4E1F4C1F490A930AAA2B46AA
:105930001E480D960C94FEF777FD0AA8FEF7C4FCEE
:105940001B4B1C490A930AAA2B461B48CDE90C465F
:10595000FEF76AFD0AA8FEF7B7FC0FB0F0BD00BF66
:10596000DCE2032074E30320DDE2032040E30320B4
:10597000D0E203200000FFFF28E303201000030013
:105980009CF80D00ECE2032084E3032090E3032065
:105990006CF80D002C010E0084F80D0001410D0083
:1059A00021410D0025410D0040771B000CE3032031
:1059B000E1400D00C027090028E403202DE9F04F45
:1059C0002C492D4885B0FEF769FD4FF0000A01A86B
:1059D000CDE901AAADF80CA003F053FDFEF71AFDC6
:1059E00043F6972883464FF00009FEF713FDB0EB0E
:1059F0000B0661EB0A07B94508BFB04505D303F0B4
:105A000049FA10B103F036FAEFE71C4E03F042FA00
:105A100000220221706803F09DFA3046FEF74EFC2A
:105A2000FEF7F8FC4FF0000A074647F22F584FF0F8
:105A30000009FEF7EFFCC41B61EB0A05A94508BF8E
:105A4000A04506D3304605F0EDFB10B903F012FA7D
:105A5000EFE70A4805F0E6FB094B0022DA70094B34
:105A6000012404201C7004F091F9204605B0BDE823
:105A7000F08F00BFCDF50D0038E5032064E403206E
:105A8000D8E303200CE403202DE9F043A94DAA4CF0
:105A90002B78AA4FDFF80083013B97B0092B00F267
:105AA0009B80DFE813F07A020A00F20039022C0131
:105AB00015011102320099002303A14B1B78022B20
:105AC00001D0FFF7FBFAA3796BB102F027FF9D4BE2
:105AD0001B68C01A9C4B1B68984204D99B4B9B685F
:105AE0000BB908232B709A4B1B780BB10A232B7030
:105AF00006F098F9974B06460021186805F0F4FF68
:105B0000864269D003232B7066E08D4B1B78082BEF
:105B100001D0FFF7D3FA9048FEF7B6FC00285BD11E
:105B20008E48FEF7B1FC002856D1E378002B00F038
:105B3000A280FFF743FFE3780BB1FFF73FFF824BF3
:105B400087484FF47A7200214FF002091A6085F8F5
:105B5000009000F0BFFD06F054F94FF4616690FB31
:105B6000F6F303FB16067F4BC6F561661A7DB6F5A4
:105B7000616FA8BF4FF461660AB183F808900022F4
:105B800004217848FEF7E8FB4FF47A717143FEF781
:105B900017FC744903A805F0EDFE4FF0FF31704883
:105BA00000F098FD704803F0FFFF039B002B69D0C5
:105BB0009A88012A66D19B89042B63D16B4906A878
:105BC00005F04DFD06A8FFF70FF906A805F0FCFC4F
:105BD000039808B103F016FA614801F073F901F077
:105BE0004BFE01F039FD98F800303BB1524A604855
:105BF0000121FFF710FB002388F800303B783BB110
:105C00002423524A5A48502101F05DFC00233B7086
:105C1000584B1B68002B1FDB574A402106A803F096
:105C200011FA564806A9FEF739FCE37873B1FEF77E
:105C3000DAFA00238DF80030514B52491B7803A843
:105C400006AAFEF709FB04A8FEF7E8FE4FF4FA6087
:105C500003F054FA05F08AFEE3784BB103F01AF929
:105C600030B90523E070484944482B70FEF716FC14
:105C700017B0BDE8F083454805F0D4FA00283FF49A
:105C800058AF58E702232B70A2E72D4B1B78032B4C
:105C900001D0FFF713FAFFF7F9F806F0C3F8237FF6
:105CA000984213DD06F0BEF8637F98420EDA274A69
:105CB00094ED0B7AD2ED017AF8EEE77AF4EEC77A3A
:105CC000F1EE10FA42BF012393603B7006231AE7FE
:105CD0001B4B1B78062B01D0FFF7F0F906F091F86B
:105CE0001C4B1860FFF7D2F806F09CF8237F98420F
:105CF00001D1FFF723FAFEF763FC052303E7104BFE
:105D00001B78052B6DD0224E337000232385FFF7BF
:105D1000D5F9E378002B41D1E379002B51D0042051
:105D200006F0E8FA00284CD01A491448FEF7B6FBF2
:105D300084E000BFCCE30320D8E3032064E3032026
:105D4000C4E30320D4E30320D0E3032040E3032093
:105D500070E303208CE3032028E403200CE30320FA
:105D6000ECE2032028E3032084E303200DF30D007D
:105D700074E30320E0DF0320EAF70D0038E5032099
:105D8000DCE2032009F80D0010F80D0064E40320A4
:105D9000DEE203201DF60D000CE4032003F07AF888
:105DA0000028B9D09E499F48FEF778FB9E4B9F4A3A
:105DB0001A6002F0B3FD9E4B186006233370072370
:105DC000A1E6A379002B3BD102F0A8FD994B186006
:105DD0009948002340681A46194603F0CBF803F0AF
:105DE00051F802F09BFD934B1B68C01A4FF47A7375
:105DF000B0FBF3F0208503F04DF8002837D00123E5
:105E0000E37005F0FEFF884B884A1A60606202F07A
:105E100085FD874B1860FEF717FE88498148FEF71D
:105E20003DFB0023009386494FF0FF3302220420FC
:105E300003F082FF834B1B78062BC0D0022362E65F
:105E4000042006F057FA0028BED0A368322B08DDE4
:105E5000A368412BB8DC05F0E5FFC307B4D57A4948
:105E600063E705F0DFFF8207F2D078495DE7784B02
:105E7000228D1B689A427FF6AFAE764BE07002220D
:105E80001A61FEF7E1FD74496648FEF707FBFFF76C
:105E900095FD63794BB1714906A805F0E0FB06A8B2
:105EA000FEF7A2FF06A805F08FFB05F0AAFF636AC4
:105EB000C01A42F630239842C0D901232B7002F059
:105EC0002DFD674B186087E6664B674E1B78072BE6
:105ED00007D002F023FD654B186001233370FFF7F4
:105EE000EDF8337833B904232B7001233B7088F825
:105EF000003071E602F012FD5C4B1B68C01A47F2DD
:105F000030539842F1D902F009FD554B1860514BBE
:105F100003221A610123E7E7524B1B78042B01D0BF
:105F2000FFF7CCF84B4B524ED3F80890B9F1000F65
:105F300025D03C484F49FEF7B1FA4F4B986858B10D
:105F40006FF00041236B0022CDE900124FF47A710B
:105F50004B43032102F062FC236B484A202106A830
:105F600003F070F800238DF8003003A8337844491B
:105F700006AAFEF771F904A8FEF750FD5EE7414955
:105F80002848FEF78BFA8DF8009006A833783D4A32
:105F90003849FEF761F907A8EEE7324B1B78012B71
:105FA00001D0FFF78BF802F0B9FC2D4B1B6803F50D
:105FB000EA4330338342BFF40FAE05F022FF636A39
:105FC000C01AB0F5E15F13D905F01BFF6062FFF75F
:105FD000F5FC2D4A2D480121FFF71DF911482C49E8
:105FE000FEF773FA642003F089F805F0BFFCF3E5CF
:105FF0002269E378032A53DC7BB1FEF7F4F8254BE2
:10600000254A1B788DF80030194B24491B7806A8C7
:10601000FEF722F907A8FEF701FD4FF4FA60E2E768
:10602000F6F50D0038E50320D0E30320E0930400EB
:10603000D4E30320E4E2032064E40320A6F60D0089
:1060400015410D00DEE2032074F60D0043F60D004D
:10605000CCDF032040E30320C2F60D00E0F10D0089
:10606000C8E30320C4E303206FE30320E0E203203E
:10607000DCE20320E0F60D0028E40320E9F60D0041
:10608000F9F60D000CF70D00D8E3032074E30320AC
:106090002CF70D00DDE2032059F70D0074F70D0019
:1060A0007BB1FEF7A0F8314B314A1B788DF80030F8
:1060B000304B31491B7806A8FEF7CEF807A8FEF74B
:1060C000ADFC4FF4FA6003F019F8FFF777FC0023FA
:1060D0002A4A2B4823610121FFF79DF8642003F031
:1060E0000DF81E21274800F04FFC75E5264B1B7864
:1060F0000A2B09D002F012FC244B254918602548D0
:10610000FEF7CCF9FEF7DAFF234B1B780BB92349D6
:106110000BE602F003FC1D4B1B68C01A204B984293
:106120007FF65AAD1F4E20491A484FF00509FEF779
:10613000B5F9C6F8109005F064FE1C4A00904B4675
:10614000402106A802F07EFF01F096FB00238DF8A7
:106150000030084B16491B7806AAFEF7CDF996F8D1
:106160002030013386F8203068E600BFDDE20320EE
:106170007AF70D00DCE2032074F70D00D8E303206A
:1061800074E30320ECE20320C4E30320E8E20320ED
:1061900099F70D0038E5032070E30320B6F70D00F2
:1061A000BF27090040E30320D0F70D0015F20D00D2
:1061B00037F20D0008B502F0B1FBB0F57A7F34BFBD
:1061C0000020012008BD08B5002002F08BFE28B198
:1061D00002F060FE80F00100C0B208BD0120FCE7C3
:1061E00038B505F02BFE054605F03CFE044605F0EB
:1061F00031FE231F062B0ED9E31E082B0DD80138C4
:106200002D1A04D50B2C14BF0020012038BD072DFA
:1062100003DD032CF7E70120F8E70020F6E7000094
:106220002DE9F047CAB0804602F034FE10B10020DC
:1062300002F050FE002002F081FB4FF0000A814680
:1062400047F22F560027002002F078FBB0EB09043C
:1062500061EB0A05AF4208BFA64205D3FFF7B3FFC3
:1062600010B902F007FEEEE7FFF7ADFFD8F8000027
:106270000A2203A907F062FE00F10C03DBB2182B1F
:1062800059D844B207EE904A2F4FB8EEE70A0125DD
:1062900087ED050A05F04CFC2C4B1D7005F0EAFD5E
:1062A000064605F0AEFD301A06F02AFA24A3D3E91B
:1062B000002306F0B9FB264ACDE9000125480A2152
:1062C00002F0C0FEFB78002B37D02346224C234A35
:1062D0004FF480710AA802F0B5FE23788DF80030E3
:1062E00006A81F493C230AAA03F0E2F907A8FEF713
:1062F00095FBFFF75FFF10B902F0BCFDF9E7FFF770
:1063000059FF05F07EFD0246C31706A805F076FC8E
:106310002378069A12498DF8003004A83C2303F034
:10632000C7F905A8FEF77AFB06A805F04DF901208C
:106330004AB0BDE8F0870020FAE72846F8E700BF3A
:10634000000000000020AC40D8E303200CE4032050
:10635000B2F50D0065E3032044E40320DCF80D00F2
:10636000E3F40D000000000030B52DED028BCBB042
:10637000044605F046FD0A22054603A9206807F0F9
:10638000DDFDC3B2022B67D843B208EE103AB8EE77
:10639000C88AB0EE480A05F0EBFB354B83ED068A60
:1063A000344B01221A7018EE100A06F0BBF9324A7B
:1063B000CDE900014FF480710AA802F043FE05F018
:1063C00003FD20B1FFF70CFF58B305F0EFFB05F01C
:1063D00051FD044605F015FD201A06F091F922A39F
:1063E000D3E9002306F020FB244ACDE900010A216D
:1063F000234802F027FE02F04DFD58B3214C2249FC
:1064000023788DF8003006A83C230AAA03F050F93F
:1064100007A8FEF703FBFFF7CDFE28B902F02AFD1F
:10642000F9E705F0CFFBD2E7FFF7C4FE2A46EB17EA
:1064300006A805F0E3FB2378069A13498DF800308F
:1064400004A83C2303F034F905A8FEF7E7FA06A8F0
:1064500005F0BAF8012000E000204BB0BDEC028B43
:1064600030BD00BFAFF30080000000000020AC4052
:10647000D8E303200CE40320F0F80D00B2F50D0082
:1064800065E3032044E40320E3F40D00014B012203
:106490001A70704744E40320704710B52021044669
:1064A00005F0CCFF204610BD0EB410B58DB00FAA7C
:1064B000016852F8044B039200232020CDE9040325
:1064C000CDE90042012004AA02F020FC0DB0BDE895
:1064D000104003B07047000010B50272FF224281E5
:1064E0000022C0E9032242610276C261024A034CE3
:1064F0001060C0E9004110BD4CE4032050FB0D00CA
:106500002DE9F8439DF820800446894616461F462B
:10651000B8F1000F02D0406803F0FAFB217A6068FE
:1065200003F0D3FB6068036849469B68984760683E
:10653000002103F0E9FB054600BB0123217A6068D6
:106540003A4603F0B0FB8742034609D13744BE42C6
:106550001CD0606803685B69984706F8010BF6E792
:106560000B490C484A46FDF7B0FFB8F1000F02D0C6
:10657000606803F0D6FB2846BDE8F8830346064969
:1065800004484A46FDF7A1FF0025EEE70125ECE7A8
:1065900001F90D0048E4032026F90D0007B500932A
:1065A0000123FFF7ADFF03B05DF804FB73B543892A
:1065B000FF2B044610D0194E194D02F0AFF9B0F57B
:1065C0007A7F09D2608905F095FE012804D0314612
:1065D0002846FDF763FFF0E701230DF107022821AC
:1065E0002046FFF7DBFF30B90D480E49FDF756FF97
:1065F000002002B070BD9DF80730182BF4D10123A4
:106600000DF1070229212046FFF7C8FF0028EBD033
:106610009DF80730052BE7D1EBE700BF4AF90D00E5
:1066200048E403205FF90D0007B5134600228DF8FA
:1066300007200DF10702FFF7B1FF9DF8070003B037
:106640005DF804FB2DE9F0419DF8188004460F46E3
:1066500015461E46B8F1000F02D0406803F058FB03
:10666000217A606803F031FB6068036839469B68F3
:1066700098472E44B542606805D0036815F8011BA1
:106680009B689847F6E7012103F03EFB034670B193
:10669000084909483A46FDF718FF0025B8F1000FF0
:1066A00002D0606803F03DFB2846BDE8F08101257B
:1066B000F4E700BF6CF90D0048E403201FB58DF826
:1066C0000F2000930DF10F020123FFF7BBFF05B070
:1066D0005DF804FBF8B50A460C4605461A491B4806
:1066E000FDF7DCFE002CB8BFEC687CB90123224624
:1066F0001B212846FFF7E2FF1549024606461348CC
:10670000FFF7D2FEEC606C613046F8BD032C19DD5A
:10671000A7101F2FA8BF1F27BA0062F07C02012319
:10672000D2B21B212846FFF7C9FF3A460346094962
:1067300006460648FFF7B8FE4FF4FA635F43EC6085
:106740006F61E1E70127E7E791F90D0048E40320D5
:106750009BF90D00B7F90D000B4607490246086882
:1067600048B1002B08BFB2F5006F04D1C36813B164
:106770000021FFF7AFBF70474CE403202DE9FF4134
:106780009DF82880054616461F46B8F1000F04D034
:106790004068019103F0BCFA0199019100230DF1C9
:1067A0000F022846FFF7FAFE044660B19DF80F304D
:1067B00003EA06023A43934205D001990023284692
:1067C000FFF77CFF0446B8F1000F02D0686803F0C1
:1067D000A8FA204604B0BDE8F08113B514460DF1C7
:1067E0000702FFF7DBFE28B19DF807301C420CBF03
:1067F0000120002002B010BD13B514460DF10702B0
:10680000FFF7CCFE28B19DF807301C4214BF0120D1
:10681000002002B010BD07B5D2430093D2B20023CE
:10682000FFF7ACFF03B05DF804FB000037B50123B0
:106830000DF107020F210446FFF7B0FE054638B9F7
:106840001E491F48AD22FDF740FE284603B030BD6B
:106850009DF8073013F0200F4FF001030BD02022DA
:10686000E3610F212046FFF7D6FF164A1649144868
:10687000FDF714FEE9E7082217212046FFF7BCFFC9
:1068800018B10223114AE361F0E79DF807301A07B7
:1068900009D50323E361082201230F212046FFF7D6
:1068A000BAFF0B4AE2E75B07CFD50422E26101237E
:1068B0000F212046FFF7AFFF064AD7E70AFA0D007F
:1068C00048E40320DBF90D0029FA0D00E4F90D007E
:1068D000F4F90D0004FA0D0007B500931346FF22EA
:1068E000FFF74CFF03B05DF804FB0000F8B50F465E
:1068F0001646012300220F210546FFF7DFFE04465E
:1069000038B94FF425721E491E48FDF7DEFD2046BA
:10691000F8BD0123232218212846FFF7CFFE0446A5
:1069200010B940F29B22EEE7FF2FA8BFFF27012FEF
:10693000B8BF01270123FAB219212846FFF7BEFE8E
:10694000044610B94FF42A72DDE701230822122110
:106950002846FFF7C1FF044610B940F2AF22D2E744
:10696000002E4FF0010314BF8322822218212846F3
:10697000FFF7A4FE04460028C9D140F2B922C2E7BD
:106980003AFA0D0048E403202DE9F7430A4605468C
:106990000F464F484F49FDF781FD00212846FFF77C
:1069A00099FE044648B940F2F7124B494848FDF7B2
:1069B0008CFD204603B0BDE8F08301231A46302148
:1069C0002846FFF789FF044610B940F20522ECE79C
:1069D0001022012311462846FFF71DFF044610B977
:1069E0004FF40372E1E70123262213212846FFF723
:1069F00065FE044610B940F21322D6E70126009640
:106A00003346FC2211212846FFF7B8FE044610B990
:106A100040F21B22C9E7002239462846FFF766FFED
:106A2000044610B940F22222BFE7009602237722E3
:106A300010212846FFF7A2FE044610B940F22B228F
:106A4000B3E7334604221C212846FFF745FF0446DE
:106A500010B940F23222A8E700961823E322112150
:106A60002846FFF78BFE044610B940F239229CE716
:106A70003346C02217212846FFF720FE044610B9EE
:106A80004FF4107291E701F049FFDFF85490DFF8FE
:106A900040804FF47A7106464F4301F03FFF801B60
:106AA000B8420ED2012217212846FFF7BDFD494604
:106AB00002464046FDF7F2FC4FF47A7002F01EFBEE
:106AC000EBE706490248FDF700FD04F04FFF70E7D1
:106AD00048E4032065FA0D005AFA0D008BFA0D0008
:106AE00076FA0D002DE9F3479DF828A005460C46DF
:106AF00091461F46BAF1000F02D0406803F008F932
:106B000007B3202F3E4628BF20267F2C26D83319D6
:106B1000802B01D9C4F18006012304223F2128469D
:106B2000FFF779FE002364F07F0100934A46334665
:106B3000C9B22846FFF7E4FC804628B13444BF1BA5
:106B4000B144DDE74FF00108BAF1000F02D06868E8
:106B500003F0E7F8404602B0BDE8F08701230422C5
:106B60003F212846FFF7B8FEDCE72DE9F3479DF803
:106B700028A005460C4691461F46BAF1000F02D0E8
:106B8000406803F0C5F807B31F2F3E4628BF1F26F5
:106B90007F2C26D83319802B01D9C4F1800601231C
:106BA00004223F212846FFF736FE002364F07F01D0
:106BB00000934A463346C9B22846FFF743FD804654
:106BC00028B13444BF1BB144DDE74FF00108BAF1EE
:106BD000000F02D0686803F0A4F8404602B0BDE898
:106BE000F087012304223F212846FFF775FEDCE7EA
:106BF00030B585B00D68D1E9043203954D68029532
:106C00008D680195C96800910133044902F26C72E4
:106C1000044604F03DFE204605B030BD9DFA0D004F
:106C200003110A2200F00F0002FB0300704738B581
:106C3000044600781546FFF7F3FF08606078FFF719
:106C4000EFFF4860A078FFF7EBFF8860E078FFF780
:106C5000E7FFC8602079FFF7E3FF013808612DB92D
:106C6000651D2878FFF7DCFF886138BD6079FFF784
:106C7000D7FF6430A51D4861F3E7000070B501231C
:106C800088B00D461A4610210446FFF7A6FDF0B164
:106C900008230126204600960DEB03020021FFF792
:106CA0002FFC044698B1324629460DF10900FFF742
:106CB000BEFF04A8FFF79CFF0848049A0849FDF7A7
:106CC000EDFB04A804F080FC204608B070BD24222F
:106CD0000021284606F082F90024F5E748E4032065
:106CE000BBFA0D0030B58BB00D4601A9FFF7C6FF0A
:106CF000044620B101A802F0EDF9C5E900012046E3
:106D00000BB030BD10B5044688B011B1406802F038
:106D1000ADFF2046FFF74AFC70B32046FFF786FD23
:106D200001231A4610212046FFF757FDD8B105F080
:106D30004BF8C0B902A92046FFF7D4FFDDE90201F4
:106D400004F048FF0F4B10491B68009304A8DDE9CD
:106D5000022304F0F7FF0D48049A0D49FDF79EFB4E
:106D600004A804F031FC0B4A002300214FF400601A
:106D700002F006F808B010BD07490448FDF7A5FB6E
:106D8000F1E700BFA8E003208CE5032048E40320DE
:106D9000C9FA0D0059670D00E6FA0D000A2290FBB2
:106DA000F2F302FB130093FBF2F102FB113140EA14
:106DB0000110C0B2704770B5054600680C46164613
:106DC000FFF7ECFF20706868FFF7E8FF6070A868C5
:106DD000FFF7E4FFA070E868FFF7E0FFE0702869C4
:106DE0000130FFF7DBFF20712EB9661DA869FFF7A0
:106DF000D5FF307070BD6A69642392FBF3F003FB2A
:106E00001020FFF7CBFFA61D6071EFE7F0B587B04C
:106E1000054602A816460C46FFF7EAFE1E48029AEF
:106E20001E49FDF73BFB02A804F0CEFB16B16868D3
:106E300002F06EFF204601220DF1090100278DF8B6
:106E40000870FFF7B8FF01231A4610212846FFF704
:106E500043FD0446E8B1082300970DEB03023946D1
:106E60002846FFF7EFFB044660B101231A461021C4
:106E70002846FFF7D0FC16B1686802F052FF2046A2
:106E800007B0F0BD4FF48D7205490348FDF71DFBB7
:106E9000F1E74FF48F72F7E748E40320FEFA0D00A4
:106EA0000CFB0D0013B504466846CDE9002306F03F
:106EB0005BF89DF8102001462046FFF7A7FF02B0BF
:106EC00010BD0000F0B5057E89B0044675BB04F026
:106ED0007BFF58B30026002704A92846CDE90467A4
:106EE00002F008F810B30125257604F08AFF00951A
:106EF0000246C3172046CDE90223FFF7D3FF02A9BC
:106F00002046CDE90267FFF7EDFE124B12491B68E0
:106F1000009304A8DDE9022304F014FF0F48049A4B
:106F20000F49FDF7BBFA04A804F04EFB636973B187
:106F300001F0F4FC2369C01A6369984207D301F099
:106F4000EDFC4FF0FF3120612046FFF7C3FB09B095
:106F5000F0BD00BFA8E003208CE5032048E4032037
:106F600027FB0D00014B024A1A60704748E40320DA
:106F70003DFB0D00022A06D0032A02D0012A00D1CF
:106F80000160002070470B680360FAE710B5012329
:106F900003748368044643B1C0689847012363744F
:106FA0000020BDE8104001F081BC00680028F5D049
:106FB00083680BB905F04EFAC368EEE738B505688B
:106FC000044635B12846FDF77FF91021284605F023
:106FD00035FA20461421BDE8384005F02FBA10B527
:106FE00003680446ABB1586801F0D8FB88B9236840
:106FF0005A7C12B9586801F0E1FB2368586801F027
:10700000E5FB20680023236018B1BDE81040FFF7BE
:10701000D5BF10BD054A026000224260027380F8AD
:10702000BD22C0F8C822C0F8D02270477CFB0D00FA
:1070300010B5074C236843B94FF43570FDF72BF8B2
:10704000034608B1FFF7E6FF2360206810BD00BFCC
:1070500050E4032038B50446406890B102232373FE
:10706000FFF7BDFF656855B12846FFF7B8FF2868F0
:1070700008B1FFF7A3FF0421284605F0DFF900233C
:10708000636038BD10B5054B03600446FFF7E2FFAF
:1070900004F53070FDF718F9204610BD7CFB0D009B
:1070A00010B50446FFF7EEFF20464FF4357105F0AA
:1070B000C5F9204610BDF0B5044689B000F10D06B3
:1070C00000F14E07237B1BB9012002F017F8F9E706
:1070D000237B022B62D0A06801F0B0FBA06801F016
:1070E000B5FB94F8BD328DF800303A463C2331466A
:1070F00006A802F0DDFA069D6B7833B9237B022BDC
:1071000003D0012001F0FAFFF5E7D4F8C8321BB331
:10711000002001F04DFE20B16B7813B901F0AAFEFA
:10712000FAE72B78D4F8D0220592591E4B424B41F6
:107130008DF80B30D4F8C832CDE903670BB905F0F0
:1071400089F905AB0093D4F8CC5204AB03AA0DF136
:107150000B0104F53070A847A06801F06FFB237B9A
:10716000022B15D0D4F8C8320025C4F8D05233B160
:1071700004F53071032208469847C4E9B25500234C
:10718000A068237301F062FB07A8FDF747FC99E7AD
:10719000A06801F05BFB07A8FDF740FC09B0F0BD5B
:1071A0000068FFF788BF13B50B460246D0E900011F
:1071B0006C4684E8030093E8030082E8030094E847
:1071C000030083E8030002B010BD00002DE9F7437F
:1071D00006468846142026491746994605F030F998
:1071E000044630B10022C0E90022C0E90222027444
:1071F00042743460002C31D01D49102005F020F974
:10720000054668B10023836001463846FFF7CBFF8F
:10721000BB68AA68BA60AB60EA68FB68EB60FA60BA
:107220002768256037B13846FDF74EF810213846FB
:1072300005F004F93068036883B10A9B4A46CDE93A
:10724000000341460B4B043001F0A0FA30B933681B
:107250001B7C4BB9012001F051FBF8E7306800239B
:10726000336008B1FFF7AAFE304603B0BDE8F083F3
:1072700078020E008D6F0D0030B5436887B004466C
:10728000C3B9083001F0D2FA0B4B059304200B4B25
:1072900002940493FCF7FFFE054638B14FF44063B7
:1072A00000930749022302AAFFF790FF656002A836
:1072B000FDF70AF807B030BDA1710D00756F0D0024
:1072C00060FB0D002DE9F043044685B080680C9FFB
:1072D00098460D46164601F0B1FA63681BB1237B50
:1072E00003F0FF0933B1A06801F0B0FA002005B047
:1072F000BDE8F083A06801F0A9FA002D3DD041223D
:10730000294604F10D0005F0F6FE84F84D908EB389
:1073100040F26F22314604F14E0005F0ECFE84F895
:10732000BC9200230293BB6804F530753BB1022286
:10733000394668469847FB680393BB680293294621
:107340006846FFF730FF029BD4F8C822C4F8C83261
:10735000039B02926846D4F8CC22C4F8CC32039244
:10736000FCF7B2FF0D9BC4F8D032012084F8BD8237
:107370002073BCE784F84E60D3E72846B7E7704730
:1073800010B51021044605F059F8204610BD0368D9
:10739000C9B29B681847000030B5034DC0E902230D
:1073A000C0E9005130BD00BFB8FB0D00406802F0DD
:1073B0005DBC10B50446006802F0B3FC204610BD69
:1073C0002DE9F0418AB004464068019002F0A0FC2B
:1073D0001E22002102A8A76805F000FE0026EFB1DA
:1073E00023681E2FB84628BF4FF01E08DD6802AA8A
:1073F000434631462046A847054658B90A480B4936
:107400003246FDF74BF801A8FFF7D3FF28460AB034
:10741000BDE8F081A7EB08074644E0E701A8FFF7C5
:10742000C8FF0125F2E700BF38E5032084FB0D000B
:107430002DE9F7430446406801900D4616461F4665
:1074400002F066FCA7B1E168606841F0500102F00B
:1074500040FC290A6068FFF79AFF29466068FFF739
:1074600096FF6068002102F04FFC48B1002400E064
:10747000012401A8FFF79DFF204603B0BDE8F0837B
:10748000202F217B6068B84628BF4FF020080123D9
:10749000424641F0500102F006FC04F087FF036809
:1074A0001B6998474045E1DB06EB080904F07EFFC5
:1074B00003685B69984706F8010B4E45F6D14544D1
:1074C000A7EB0807BEE72DE9F74F04464068019097
:1074D0000E4690461D4602F01BFC4FF00109B9F123
:1074E000000F2AD04DB3E168606841F0500102F00E
:1074F000F0FB310A6068FFF74AFF60683146FFF72A
:1075000046FFA5F11E0A4746A6EB080B606817F870
:10751000011B0368013D9B68984755450BEB070627
:10752000B84601D0002DF1D16068012102F0ECFBDA
:107530000028D7D04FF00009D1E701A8FFF739FFA5
:10754000484603B0BDE8F08F2DE9F0438BB00E46FE
:1075500015468046406801901C4602F0D9FBAE42B9
:1075600029D2264425448CB11E2C2746D8F8003059
:1075700028BF1E27F61BD3F8089002AA3B463146C7
:107580004046ED1BC84748B9002400E0012401A88B
:10759000FFF70FFF20460BB0BDE8F083D8F80030AE
:1075A00002AAD3F80C9029463B464046C84700281B
:1075B000EAD0E41BD7E7E9D9002CE7D0D8F80030AF
:1075C0001E2C274628BF1E27D3F8089002AA3B4648
:1075D00031464046C8470028D6D0D8F8003002AA25
:1075E000D3F80C9029463B464046C8470028CBD0EC
:1075F0003E443D44E41BDFE703680A7883F8B1208A
:10760000012183F8B0107047022A06D0032A02D065
:10761000012A00D10160002070470B680360FAE77F
:10762000012A034602D1016000207047022A04BFEC
:10763000D1E90001C3E90001F6E710B4426803464E
:10764000541001EB6200D20748BF0A591B685DF86D
:10765000044B48BFD3581847D0F8C83001461BB177
:10766000D0F8CC30C030184770470000F8B5124D44
:107670000846002A18BF15460F461E4605F021FD94
:10768000402817D8284605F01CFD40F26E2398428A
:1076900010D84330FCF701FD044648B1394600F8E4
:1076A000016B05F0E8FC294604F1420005F0E3FC1B
:1076B0002046F8BD0024FBE7F5000E00F0B59FB0B2
:1076C0000A4600230E46011D08A800F0F1FD0898A7
:1076D000002106F057FC054608A803F075FF002DB1
:1076E00060D008A9284606F03BFC0C9B2E492F4889
:1076F0003246FEF7D9FE00221146284606F038FC35
:10770000082206A9284606F051FC0C9F4A2F39DDB5
:10771000274B069A9A4235D1264B079A9A4231D185
:10772000A7F1080210460592FCF7B7FC0446C0B169
:1077300027440146059A284606F038FC17F8093C0C
:10774000ABB9631C1846059305F0BBFC3F28059BAD
:107750000DD804F142020092174914483246FEF750
:10776000A3FE284606F0F4FB20461FB0F0BD1349E7
:107770000E483246FEF798FE4321204604F05EFE96
:107780000024EEE7BDF81E3002939DF81D300193F2
:107790009DF81C3000930A49069B04483246FEF7C8
:1077A00083FEEDE72C46DFE7CCFB0D0054E403201D
:1077B0006376B63101084100E0FB0D0002FC0D00CC
:1077C00030FC0D002DE9F8438046294B48F8043B76
:1077D0000446404600F084FC022264230025C4E9EC
:1077E0001B230823E367C4E92055C4E92255C4E9F3
:1077F0002455C4E92655A5672020FCF74CFCE66F0C
:10780000A067013E760800EB860907464FF400703A
:10781000FCF741FC00F50073C4E92503C4F8883087
:107820004FF4FA614FF47A73C4E92D1347F23053E1
:1078300047F82600C4F88400C4F88000C4F890001B
:10784000C4E92855C4E92A550A49C4F88C90C4F8FB
:107850009C90A4F8B05084F8B250C4F8BC30C4F87E
:10786000C850404600F082FC2046BDE8F88300BFC7
:1078700074FE0D0075FC0D0038B5064C23683BB94D
:10788000D020FCF708FC054608B1FFF79BFF2560F8
:10789000206838BD58E4032010B5D1E9002386B034
:1078A0000021044604910AB9D90705D5CDE9022380
:1078B0000F4B05930F4B049302AB93E803006A460A
:1078C00082E8030094E8030083E8030092E80300E1
:1078D000049A84E80300A168A260059A04911846FE
:1078E000E168E2600591FCF7EFFC204606B010BDB0
:1078F0003B760D0021760D0013B5044601F0CAFA5F
:1079000080B101F00BF8D4F8B430C4F8AC30064BB9
:10791000C4F8A80000936946002304F1C000019355
:10792000FFF7BAFF02B010BD657A0D0010B503680D
:107930000446586F00F0AAFF204610BD10B502693A
:107940008368043A9342044602D00433A36010BD16
:10795000C068FCF7A4FB63691A1D62615B68E360A1
:1079600003F500722261F1E72DE9F04F87B004467C
:107970000190406FDFF8A890DFF8A8A000F07EFF2C
:10798000DFF8A4B0D4F88030D4F89020934205D129
:1079900001A8FFF7CBFF07B0BDE8F08F04F1780036
:1079A00004F104081F68FFF7C9FF404600F074FEA9
:1079B000002302464146064602A800F079FC0298E0
:1079C00040F2022106F0DEFA054602A803F0FCFDB3
:1079D000CDB108220DEB02012846CDE9029A06F04E
:1079E000F7FA07F1420005F06CFB394600F143025B
:1079F000284606F0EDFA284606F0AAFA074832466D
:107A00005946FEF751FD3146404600F085FE002FF5
:107A1000B8D04321384604F011FDB1E754E4032007
:107A20006376B6310108410083FC0D00002908BFD0
:107A3000B0F5006F38B505D0002908BF40280BD13C
:107A4000092A09D105490648FEF72EFDFFF714FF64
:107A5000BDE83840FFF788BF38BD00BFA0FC0D006F
:107A600054E4032070B586B0044601F013FA48B917
:107A7000404B02A9CDE9023004F1C000FFF70CFF32
:107A800006B070BD00F04AFFD4F8A830C01AD4F890
:107A9000AC309842F4D394F8B2100029F0D1261DEE
:107AA000304600F005FE0146C4F8A400002850D07E
:107AB0002046FFF703FE0546C4F8A000002833D097
:107AC00000F02CFF02AD00262B4BC4F8A80029467D
:107AD00004F1C00002930396FFF7DEFED4E92830DC
:107AE00003F1420200922549254AA4F8B060B04251
:107AF00008BF0A46013323492348FEF7D5FCFFF7A8
:107B000097FAD4F8A020214B0593CDE900561146F1
:107B10001F4B0294049311F8013B4232FFF7D2FB52
:107B20002846FCF7D1FBABE7D4F8A4201949164846
:107B3000FCF7B4FC0121304600F0BAFDD4F8A410E3
:107B40002A46304600F0F0FBD4F8A030002BB7D125
:107B500096E7D4F88030D4F890209A4207D01B687A
:107B6000C4F8A03004F17800FFF7E8FEECE7C4F8B1
:107B7000A00085E7F9780D00157F0D00CFFC0D0002
:107B800070FF0D00F0FC0D0054E40320F9750D00AA
:107B900009760D00D3FC0D00C368CA689B1A9B10C0
:107BA0005A1ED0E900301B1A9B1003EBC2138868E1
:107BB0000A68801A03EBA000704700002DE9F3412A
:107BC00004460190406F00F059FE04F1800104F179
:107BD0009000FFF7E1FFE36E834202D22046FFF7F9
:107BE000C3FEDFF84880104F261D304600F0AEFD82
:107BF000236F984205DC01A8FFF798FE02B0BDE8AC
:107C0000F0810121304600F053FD05460028ECD0FC
:107C100001460022304600F087FB2A46414638469E
:107C2000FCF73CFCE1E700BF54E403200FFD0D002E
:107C300010B5D0F8C830C16604460A4633B10448CE
:107C40000449FEF731FC2046FFF7B8FF204610BD7F
:107C500054E4032022FD0D0010B5D0F8C8300167B0
:107C600004460A4633B104480449FEF71DFC204689
:107C7000FFF7A4FF204610BD54E4032037FD0D009C
:107C800013B50446002001F0A3F8012805D01249DD
:107C90001248FCF71AFC02B010BD04F1740000F0A9
:107CA000DDFD0F4A002300214FF4046001F068F865
:107CB000FFF7BEF9FFF7E0FA201D00F075FC204643
:107CC000FFF77CFF074B00936946002304F1C000D7
:107CD0000193FFF7E1FDDEE74DFD0D0054E40320C5
:107CE0002D7A0D00F9780D0070B50368044663B174
:107CF000436A45691E1DAE4204D955F8040BFCF7D2
:107D0000CEF9F8E72068FCF7CAF9204670BD2DE9E6
:107D1000F04706468946406A71697368471A09EB5D
:107D2000A7050135B3EB450F144627D95D1B6D0838
:107D30003268AD000CB14FEA89042C441444031D91
:107D4000A142A3EB010213D9994202D0204605F0CB
:107D50002BF974612368F36003F500733361E31951
:107D60007362E359F36103F500733362BDE8F08792
:107D70009942EED0381D801A2044E8E703F102084A
:107D80004B452CBF9844C844B8F1005F01D304F0C0
:107D90005BFB4FEA8800FCF77EF9A8EB05056D0850
:107DA0008246AD000CB14FEA8904726A71690432EF
:107DB0002C449142544403D0521A204605F0F4F862
:107DC0003068FCF76CF9C6E900A8C2E72DE9F0417C
:107DD00086B004469DF830509DF834302B430F4652
:107DE0001646FFF743FC0546002842D0434B444962
:107DF0004448002E18BF33463A46FEF755FB606FE5
:107E0000059400F03BFDD4F89820D4F89030043A63
:107E1000934204F1780804F1900604F180072BD016
:107E200003B11D60D4F890300433251DC4F89030A0
:107E3000284600F08BFC394603903046FFF7ACFE35
:107E4000029001F027F8DDE9023200902E492D481A
:107E5000FEF72AFB284600F079FC00283ED0204699
:107E6000FFF782FD2046FFF7A9FE05A8FFF75EFD9C
:107E7000012006B0BDE8F08139463046FFF78CFEA0
:107E80006FF06043984202D1204804F0E0FAD4F841
:107E90009C30A26F9A1AE36FA3EBA203012B04D8C4
:107EA000002201214046FFF732FF4FF40070D4F862
:107EB0009C80FCF7F0F8C8F80400D4F8903003B1C7
:107EC0001D60D4F89C301A1DC4F89C205B68C4F86F
:107ED000943003F50072C4F89820A6E7394630467E
:107EE000FFF75AFEE36E8342B9D300F0D3FF0028B8
:107EF000B5D007490348FEF7D7FAB3E7F5000E00FF
:107F000070FD0D0054E40320C8FD0D0098FD0D0028
:107F1000F4FD0D0073B590F8B0300446002B41D04D
:107F200090F8B130D0F8A420002B3DD052495348EE
:107F3000FEF7BAFAD4F8A430D3B1261D002130469A
:107F400000F0B6FBD4F8A430984205460DD10121CB
:107F5000304600F0ADFB00222946304600F0E4F93F
:107F6000474946482A46FEF79FFA0023C4F8A43042
:107F7000D4F8A00010B1432104F060FA0023C4F843
:107F8000A030D4F8B830C4F8AC303E4B009369460A
:107F9000002304F1C0000193FFF77EFC00F0BEFC5B
:107FA000C4F8A80002B070BD37493448FEF77CFA27
:107FB000D4F8BC30C4F8AC30D4F8A4304BB1D4F809
:107FC000A00010B1432104F039FA0023C4F8A03016
:107FD000DBE7606F009400F051FCD4E9203293425B
:107FE00013D0D4F8A02043F8042CD4F88030043BFC
:107FF000C4F880306846FFF799FC24491F48FEF713
:1080000053FA2046FFF7B0FCBFE704F1800104F10A
:108010009000FFF7C1FD6FF06043984204F17805CE
:1080200002D11B4804F013FAD4F88C20A36F9A42B3
:1080300004D1012211462846FFF769FE4FF4007073
:10804000D4F88C50FCF727F845F8040CD4F88C30A1
:108050001A1FC4F88C2053F8043CC4F8843003F58C
:108060000072C4F8882003F5FE72C4F88020D4F8AA
:10807000A020C3F8FC21BDE707FE0D0054E4032057
:108080001AFE0D00657A0D002AFE0D003CFE0D0063
:1080900098FD0D00014B024A1A60704754E403201A
:1080A00063FE0D0010B5074B044640F8C03BFCF7DB
:1080B0000BF904F17800FFF717FE201D00F0B2F96C
:1080C000204610BD74FE0D0010B50446FFF7EAFF10
:1080D0002046D02104F0B2F9204610BD012070479F
:1080E000F8B51F4D1F4B0446294640F8043B03F0EA
:1080F000B6FA1D4904F1140003F0B1FA294604F15F
:10810000240003F0ACFA0023C4E90E33C4E91233AF
:10811000C4E91433C4E91633C4E9183384F834309D
:108120002364082363642020FBF7B5FF656C20649B
:10813000013D6D0800EB850706464FF40070FBF724
:10814000AAFF00F50073C4E9170346F82500E064B0
:10815000A064A0656765236567662046F8BD00BF1B
:10816000F5000E0080FF0D0080FE0D007FB5051D9F
:108170000446284603F0D1FA0E49684603F06FFA28
:108180006946284603F036FB0646684603F01CFAAB
:108190006EB1E3680022013B2946684603F058FBB4
:1081A0006946284603F0B1FA684603F00DFA204606
:1081B00004B070BD85FE0D0010B5C36B044613B945
:1081C0003C3000F033FBE06BBDE8104000F036BB04
:1081D000C06B00F03BBB000010B596B0694604468A
:1081E00000F0C4FCD0B9019B5B04224606D51549BA
:1081F0001548FCF753F9012016B010BD1248134979
:10820000FCF763F9204605F0DBFE40F2FF11204643
:1082100000F0B4FC80B90E492246E9E700F032FFD5
:108220000368022BF1D000F02DFF0A4902680648CE
:10823000FCF74BF90020DFE700F024FF0649026855
:10824000F5E700BF92FE0D005CE40320AFFE0D00D9
:10825000E0FE0D00CCFE0D00EFFE0D0038B515461A
:10826000044603F0FCF94DB12B783BB1044920469C
:1082700003F07CFA2946204603F078FA204638BD00
:10828000EC010E007FB505460E461C46496968465E
:1082900003F0FEFA009904B9746A22462846FFF7F3
:1082A000DDFF684603F090F9284604B070BD000079
:1082B00070B50C468EB01A49CDE90032054603F080
:1082C000CEF9E069E16801440431284603F09AF9E7
:1082D000211D06A803F00EFA124902A803F0BFF907
:1082E00002A906A803F053FADDE90032064621464A
:1082F0000AA8FFF7C7FF0AA9304603F048FA01466B
:10830000284603F0E8F90AA803F05EF902A803F092
:108310005BF906A803F058F928460EB070BD00BFFF
:10832000F5000E0085FE0D002DE9F04713468EB0D6
:1083300005460F46002A4AD0406800F02FFC06464A
:10834000002841D0DFF8B0A0DFF8A490DFF8A480C7
:10835000304600F02BFC002833D0827A082AF7D16F
:1083600000F10B04696901AA204600F063FE0128B0
:10837000EED1019B9F42EBD1291D06A803F0BAF96B
:1083800051460AA803F06BF90AA906A803F0FFF901
:10839000214603F008FA014602A803F0ABF90AA847
:1083A00003F012F906A803F00FF9029805F008FE91
:1083B0004046029A4946FEF777F802A803F004F90E
:1083C000C6E7304600F0FAFB0EB0BDE8F0870A467B
:1083D00001460AA8FFF76CFF0A9805F0F1FD0A9A1A
:1083E00003490448FEF760F80AA803F0EDF8EBE74C
:1083F00087FE0D005CE4032085FE0D0070B5036868
:10840000044663B1436A45691E1DAE4204D955F85E
:10841000040BFBF744FEF8E72068FBF740FE20461C
:1084200070BD000010B5094B044640F8403BFFF713
:10843000E5FF04F1240003F0C7F804F1140003F091
:10844000C3F8201D03F0C0F8204610BD80FF0D00CA
:1084500010B50446FFF7E6FF2046682103F0EEFF63
:10846000204610BDC368CA689B1A9B105A1ED0E9EB
:1084700000301B1A9B1003EBC21388680A68801A2D
:1084800003EBA000704700002DE9F0470446884642
:1084900000F108011830FFF7E5FF6FF060439842E4
:1084A00002D1374803F0D3FF626A20686368111A6B
:1084B000A3EBA101012921D86169571ABE10B51C8F
:1084C000B3EB450F36D95D1B6D0800EB8505131D19
:1084D000A942A3EB010227D9994202D0284604F011
:1084E00063FD65612B68E36003F500732361EB199D
:1084F0006362EB59E36103F5007323624FF400708C
:10850000656AFBF7C8FD6860A36913B1D8F800205D
:108510001A60636A1A1D62625B68E36103F50072A8
:108520002262A361BDE8F0879942DAD0381D801A33
:108530002844D4E703F10209012B2CBF994409F127
:108540000109B9F1005F01D303F07EFF4FEA890012
:10855000FBF7A1FD626A6169A9EB050504326D08AC
:108560009142824600EB850503D0521A284604F05A
:108570001BFD2068FBF793FDC4E900A9B1E700BF2C
:1085800098FD0D0038B5056A8269043DAA4203468C
:1085900006D00AB1096811609A6904329A6138BD3F
:1085A000FFF772FFFBE700002DE9F047C368012BDE
:1085B00086B0044608D834493448FBF786FF0026C5
:1085C000304606B0BDE8F0874068FFF705FE064676
:1085D0000028F4D0636962682D492C48FDF764FFD8
:1085E000606800F0DBFA07460028E8D00023DFF8D7
:1085F000A490DFF89880A363384600F0D7FA0546C8
:10860000002839D0837A082BF6D10B35616901AA8D
:10861000284600F00FFD0128EED1E36A7BB1294620
:1086200002A803F01CF804F1240102A803F0E2F808
:10863000824602A802F0C8FFBAF1000FDCD023681E
:1086400029469B68204698470028D5D0019AA36BFD
:108650009342B8BFA2632B4649464046FDF724FF2C
:108660002046FFF7A9FD04F1400001A9FFF78AFFAA
:108670002046FFF7ADFDBFE7384600F09FFA012323
:1086800084F834309CE700BF05FF0D005CE4032054
:108690001AFF0D0036FF0D0010B590F83430044677
:1086A0000BB9FFF781FFA06B0130A06310BD000084
:1086B00070B590F8343004460E460BB9FFF774FFDE
:1086C0002046FFF779FDA36CA26D93421ED01D6872
:1086D0002EB1226D043A93420CD00433A364204699
:1086E000FFF776FD25B10A490A482A46FDF7DCFE68
:1086F000284670BDE06CFBF7D2FC636D1A1D626505
:108700005B68E36403F500722265E7E70025E6E7AE
:108710004CFF0D005CE4032013B590F83430019158
:1087200004460BB9FFF740FF019BA26B9A42B8BF0A
:10873000A3632046FFF740FD01A904F14000FFF7C5
:1087400021FF2046FFF744FD02B010BD38B50446B6
:10875000FFF732FD04F1480104F15800FFF782FEF3
:1087600005462046FFF734FD284638BD014B024A36
:108770001A6070475CE4032069FF0D0008B5024BE6
:108780001B685B6C019308BD7402030008B5024BC3
:108790001B685B68019308BD4802030008B5024BE3
:1087A0001B689B68019308BD4802030008B5024B93
:1087B0001B68DB68019308BD4802030008B5024B43
:1087C0001B681B69019308BD4802030008B5024BF2
:1087D0001B685B69019308BD4802030008B5024BA2
:1087E0001B68DB69019308BD4802030008B5024B12
:1087F0001B681B6A019308BD4802030008B5024BC1
:108800001B685B6A019308BD4802030008B5024B70
:108810001B689B6A019308BD4802030008B5024B20
:108820001B68DB6A019308BD4802030008B5024BD0
:108830001B681B6B019308BD4802030008B5024B7F
:108840001B689B6B019308BD4802030008B5024BEF
:108850001B681B6C019308BD4802030008B5024B5E
:108860001B685B6C019308BD4802030008B5024B0E
:108870001B689B6C019308BD4802030008B5024BBE
:108880001B68DB6C019308BD4802030008B5024B6E
:108890001B685B6D019308BD4802030008B5024BDD
:1088A0001B689B6D019308BD4802030008B5024B8D
:1088B0001B68DB6E019308BD4802030008B5024B3C
:1088C0001B681B6F019308BD4802030008B5024BEB
:1088D0001B685B6E019308BD3402030008B5024BB0
:1088E0001B68DB6E019308BD3402030008B5024B20
:1088F0001B685B68019308BD1802030008B5024BB2
:108900001B689B68019308BD1802030008B5024B61
:108910001B68DB68019308BD1802030008B5024B11
:108920001B685B69019308BD1802030008B5024B80
:108930001B689B6D019308BD1802030008B5024B2C
:108940001B68DB6D019308BD1802030008B5024BDC
:108950001B685B6E019308BD1802030008B5024B4B
:108960001B689B6E019308BD1802030008B5024BFB
:108970001B685B68019308BD2C02030008B5024B1D
:108980001B689B68019308BD2C02030008B5024BCD
:108990001B68DB68019308BD2C02030008B5024B7D
:1089A0001B681B69019308BD2C02030008B5024B2C
:1089B0001B685B69019308BD2C02030008B5024BDC
:1089C0001B689B69019308BD2C02030008B5024B8C
:1089D0001B68DB69019308BD2C02030008B5024B3C
:1089E0001B681B6B019308BD2C02030008B5024BEA
:1089F0001B68DB68019308BD2802030008B5024B21
:108A00001B689B69019308BD2802030008B5024B4F
:108A10001B68DB69019308BD2802030008B5024BFF
:108A20001B681B6A019308BD2802030008B5024BAE
:108A30001B685B6A019308BD2802030008B5024B5E
:108A40001B689B6A019308BD2802030008B5024B0E
:108A50001B68DB6A019308BD2802030008B5024BBE
:108A60001B681B6B019308BD2802030008B5024B6D
:108A70001B685B6B019308BD2802030008B5024B1D
:108A80001B681B6C019308BD2802030008B5024B4C
:108A90001B689B6C019308BD2802030008B5024BBC
:108AA0001B68DB6C019308BD2802030008B5024B6C
:108AB0001B681B6D019308BD2802030008B5024B1B
:108AC0001B685B69019308BD6402030008B5024B93
:108AD0001B689B68019308BD6802030008B5024B40
:108AE0001B68DB68019308BD6802030008B5024BF0
:108AF0001B68DB69019308BD3002030008B5024B17
:108B00001B681B6A019308BD3002030008B5024BC5
:108B10001B681B68019308BD8402030008B5024B63
:108B20001B685B68019308BD8402030008B5024B13
:108B30001B689B68019308BD8402030008B5024BC3
:108B40001B68DB68019308BD8402030008B5024B73
:108B50001B685B69019308BD8402030008B5024BE2
:108B60001B681B6A019308BD8402030008B5024B11
:108B70001B685B6A019308BD8402030008B5024BC1
:108B80001B689B6A019308BD8402030008B5024B71
:108B90001B681B6B019308BD8402030008B5024BE0
:108BA0001B68DB6B019308BD8402030008B5024B10
:108BB0001B681B6C019308BD8402030008B5024BBF
:108BC0001B685B6D019308BD8402030008B5024B6E
:108BD0001B681B68019308BD3C02030008B5024BEB
:108BE0001B689B68019308BD3C02030008B5024B5B
:108BF0001B68DB68019308BD3C02030008B5024B0B
:108C00001B681B69019308BD3C02030008B5024BB9
:108C10001B685B69019308BD3C02030008B5024B69
:108C20001B689B69019308BD3C02030008B5024B19
:108C30001B68DB69019308BD3C02030008B5024BC9
:108C40001B681B6A019308BD3C02030008B5024B78
:108C50001B689B6A019308BD3C02030008B5024BE8
:108C60001B68DB6A019308BD3C02030008B5024B98
:108C70001B681B68019308BD4C02030008B5024B3A
:108C80001B685B68019308BD4C02030008B5024BEA
:108C90001B689B68019308BD4C02030008B5024B9A
:108CA0001B681B69019308BD4C02030008B5024B09
:108CB0001B685B69019308BD4C02030008B5024BB9
:108CC0001B689B69019308BD4C02030008B5024B69
:108CD0001B68DB69019308BD4C02030008B5024B19
:108CE0001B681B6A019308BD4C02030008B5024BC8
:108CF0001B685B6B019308BD6002030008B5024B63
:108D00001B681B6D019308BD6002030008B5024B90
:108D10001B685B6D019308BD6002030008B5024B40
:108D20001B68DB6E019308BD6002030008B5024BAF
:108D30001B681B6F019308BD6002030008B5034B5D
:108D40001B68D3F89830019308BD0000600203004F
:108D500008B5024B1B681B68019308BD2002030085
:108D600008B5024B1B685B68019308BD2002030035
:108D700008B5024B1B685B69019308BD2002030024
:108D800008B5024B1B681B6A019308BD2002030053
:108D900008B5024B1B68DB6A019308BD2002030083
:108DA00008B5024B1B689B6B019308BD20020300B2
:108DB00008B5024B1B68DB6C019308BD2002030061
:108DC00008B5024B1B685B6D019308BD20020300D0
:108DD00008B5024B1B689B6D019308BD2002030080
:108DE00008B5024B1B68DB6D019308BD2002030030
:108DF00008B5034B1B68D3F88830019308BD000009
:108E00002002030008B5034B1B68D3F8943001938C
:108E100008BD00002002030008B5034B1B68D3F80F
:108E2000A830019308BD00002002030008B5034BE1
:108E30001B68D3F8AC30019308BD0000200203008A
:108E400008B5034B1B68D3F8B030019308BD000090
:108E50002002030008B5024B1B681B68019308BD84
:108E60004402030008B5024B1B685B68019308BD10
:108E70004402030008B5024B1B689B68019308BDC0
:108E80004402030008B5024B1B68DB68019308BD70
:108E90004402030008B5024B1B685B69019308BDDF
:108EA0004402030008B5024B1B68DB69019308BD4F
:108EB0004402030008B5024B1B681B6A019308BDFE
:108EC0004402030008B5024B1B685B6A019308BDAE
:108ED0004402030008B5024B1B68DB6A019308BD1E
:108EE0004402030008B5024B1B681B6B019308BDCD
:108EF0004402030008B5024B1B685B6B019308BD7D
:108F00004402030008B5024B1B689B6B019308BD2C
:108F10004402030008B5024B1B68DB6B019308BDDC
:108F20004402030008B5024B1B685B6C019308BD4B
:108F30004402030008B5024B1B685B68019308BD3F
:108F40004002030008B5024B1B689B68019308BDF3
:108F50004002030008B5024B1B68DB68019308BDA3
:108F60004002030008B5024B1B681B69019308BD52
:108F70004002030008B5024B1B685B69019308BD02
:108F80004002030008B5024B1B689B69019308BDB2
:108F90004002030008B5024B1B68DB69019308BD62
:108FA0004002030008B5024B1B681B6A019308BD11
:108FB0004002030008B5024B1B681B6B019308BD00
:108FC0004002030008B5024B1B685B6B019308BDB0
:108FD0004002030008B5024B1B681B6C019308BDDF
:108FE0004002030008B5024B1B685B6C019308BD8F
:108FF0004002030008B5024B1B681B68019308BDC3
:109000001C02030008B5024B1B685B68019308BD96
:109010001C02030008B5024B1B689B68019308BD46
:109020001C02030008B5024B1B681B69019308BDB5
:109030001C02030008B5024B1B685B69019308BD65
:109040001C02030008B5024B1B68DB69019308BDD5
:109050001C02030008B5024B1B685B6A019308BD44
:109060001C02030008B5024B1B68DB6A019308BDB4
:109070001C02030008B5024B1B681B6B019308BD63
:109080001C02030008B5024B1B68DB6B019308BD93
:109090001C02030008B5024B1B685B6C019308BD02
:1090A0001C02030008B5024B1B689B6C019308BDB2
:1090B0001C02030008B5024B1B68DB6C019308BD62
:1090C0001C02030008B5024B1B681B6D019308BD11
:1090D0001C02030008B5024B1B685B6D019308BDC1
:1090E0001C0203008A4210B507D0029C401AE41A01
:1090F0006043521A90FBF2F0184410BD0021FFF7B4
:1091000037BE10B5836804460BB903F0A3F9C368F2
:109110009847A3681BB10322214620469847204662
:109120001021BDE8104003F089B90B68036013B14A
:109130005A6801325A607047024800230360FFF703
:109140008DBB00BF60E40320002240681146FFF79A
:1091500009BF002240681146FFF724BF0022406883
:109160001146FFF72FBF40680022FFF723BF40687A
:10917000002281F00101FFF70DBF002340681A466D
:109180001946FFF7F7BE002240681146FFF7DABE26
:10919000406800220221FFF7DDBE002340681A4626
:1091A000FFF7C8BEF0B51B4B036000250F463033F8
:1091B0001826C0E9025589B0436032462946044664
:1091C000103003F00BFF78682A462946FFF7CAFEE5
:1091D00018B9A060204609B0F0BD2946324602A861
:1091E000CDE9005503F0FAFE02A96846ADF8086023
:1091F000FFF7C4FA10B10123A360EBE7009B019ACB
:10920000A360E2600BB90223A36002A9204600F02C
:10921000C0F8DFE7D0FF0D00084B10B52824224628
:109220001846002103F0DAFE054B04804FF0FF32B0
:10923000426004225A60034A1A6010BD6CE40320A5
:1092400064E4032094FF0D007047007D7047037DA8
:109250004BB18369B3F1004F05D0006AB0F1004013
:1092600018BF012070470020704703681B6A184729
:1092700010B52821044603F0E1F8204610BD000097
:10928000037D7BB1C369002B0CDB07EE903A9FEDA9
:10929000077AF8EEE77A87EE870ADFED057A20EEA7
:1092A000270A7047BFEE000A704700BF00FF7F47E4
:1092B0000000C842037D63B18369B3F1004F08D059
:1092C00007EE903A9FED047AF8EEE77A87EE870A88
:1092D00070479FED020A70470000C842000000007E
:1092E000037D7BB1436A002B0CDB07EE903A9FEDC8
:1092F000077AF8EEE77A87EE870ADFED057A20EE47
:10930000270A7047BFEE000A704700BF00FF7F4783
:109310000000C842037D63B1036AB3F1004F08D077
:1093200007EE903A9FED047AF8EEE77A87EE870A27
:1093300070479FED020A70470000C842000000001D
:1093400070B50C1E06460ADA2D2102F0CEF86142F5
:1093500005460A22304602F0D7F8284470BD21465F
:109360000025F6E770B50C46054681682046FFF7F4
:10937000E7FF2C210646204602F0B7F8E9680644CC
:109380002046FFF7DDFF304470BDA0F10400FFF779
:10939000E9BF30B50D4600F110040FCD0FC495E8BC
:1093A000030084E80300012030BD704700207047AF
:1093B00010B51021044603F041F8204610BD08B551
:1093C000FFF7F6FF08BD30B500224FF69C7402602F
:1093D00084808D888C800C68858004600A6030BD34
:1093E00010B504460068FFF70DFE204610BD38B5E5
:1093F000C468F4B12378022B03D104F10C00FFF709
:10940000EFFF656835B12846FAF75EFF1021284660
:1094100003F014F8A56835B12846FAF755FF102176
:10942000284603F00BF820461421BDE8384003F02D
:1094300005B838BD10B588B00446684602F00FF98B
:10944000694604A802F056F904A8A047044604A8F7
:1094500002F0BAF8684602F0B7F8204608B010BD2E
:109460001FB50023CDE90201019210241A46694676
:109470001846ADF80230ADF80040FFF7F3FC04B039
:1094800010BD1FB50C23ADF8043003688DF806300D
:10949000037A8DF80730436802930021437AADF8D0
:1094A0000D1001A88DF80F108DF80C30FFF73AFD64
:1094B00005B05DF804FB1FB50C22ADF8042002686E
:1094C0008DF80620027A8DF8072042680292002368
:1094D000427A8DF80C20194601AA0220ADF80D3011
:1094E0008DF80F30FFF70EFD05B05DF804FB73B586
:1094F0000E46044656F8043B00930D4601A831463B
:10950000FFF713FE019A009B6260236001A800230D
:1095100001930093FBF782FA3046FBF77FFA284667
:10952000082102F08BFF204602B070BD826810B5A2
:109530000AB902F08FFFBDE81040C368184708B5AC
:10954000006800F11001FFF7F1FF08BD826810B557
:109550000AB902F07FFFBDE81040C368184708B59C
:10956000006800F11001FFF7F1FF08BD38B50023D6
:109570000446036010200D46FAF78DFD28B1012343
:10958000C0E90133024B0360C5602060204638BD4E
:109590000C000E0038B5002383608B6804460D462E
:1095A0002BB102229847EB68E360AB68A3602046CA
:1095B00038BD0000F0B589B004686846FFF703FFC6
:1095C0004FF00203D4E84F2F002A03D1C4E8413FF3
:1095D0000029F7D125D104F10C0569462846FFF78B
:1095E000F2FEBFF35B8F01236370002004F10803D8
:1095F000BFF35B8F53E8006F43E80002002AF9D104
:10960000BFF35B8F6EB1FFF7D3FB78B129463046CD
:10961000FFF78CFF3046FAF757FE1021304602F074
:109620000DFF6846FFF7DCFE09B0F0BD314602A829
:10963000FFF7B0FFE068B4F9105008B103F024FD63
:1096400006901020ADF81C50FAF725FD0546E8B14C
:10965000002787601820FAF71EFD044688B10146EE
:10966000876002A8FDF79FFD049BA268A360059B8D
:10967000049206A9E268E36004F110000592FFF786
:10968000A2FE084BEB60084B2C60AB6006A8FFF70E
:10969000A7FE02A8FAF718FE002229460348FFF7A2
:1096A0008FFBB7E73F950D00D5970D0003910D0097
:1096B0002DE9F0478AB005469DF848900C461746BC
:1096C0009846FFF7E7FB07AE824638BB4FF62E738E
:1096D000059005A93046ADF81830FFF774FE142048
:1096E000FAF7D9FC044648B1022303700123C0E90C
:1096F00001AA437031460C30FFF765FE284621462B
:1097000040F8044BFFF732FF3046FFF769FE05A82B
:10971000FFF766FE28460AB0BDE8F0870C234FF03D
:10972000000A1420CDE908AA0793FAF7B4FC014611
:1097300028B1C0E901AA80F800A080F801A004A81F
:109740000391FFF713FF224B08930820FAF7A3FCBD
:10975000824628B1039B40F8043B04A9FFF7E5FCCF
:1097600000965FFA89F3424639462046CDF824A098
:10977000FFF7A0FBB8B9039B5B7803F0FF0293B936
:109780004FF69C7305A903A80592ADF81830FFF7B2
:1097900011FF05A8FFF724FE05A80999FFF7A7FE0A
:1097A00006A8FBF73BF9039B059304A906A8FFF75E
:1097B000BCFC059B069A2B606A60002306A80693F2
:1097C0000593FBF72BF904A8FBF728F9A2E700BFE4
:1097D00099980D00022AF8B5054607D0032A18D03B
:1097E000012A01D10B6803600020F8BD18200E6823
:1097F000FAF751FC044650B13146FFF7CBFE306911
:10980000B6F9147008B103F03FFC2061A7822C6008
:10981000EAE70468002CE7D004F11000FFF7E0FD50
:109820002046FAF751FD1821204602F007FEDBE73B
:1098300038B5002383608B6804460D462BB10222A5
:109840009847EB68E360AB68A360204638BD022A06
:1098500070B5044607D0032A12D0012A01D10B6843
:109860000360002070BD14200E68FAF714FC054652
:1098700020B13146FFF7DCFF337C2B742560F0E725
:109880000468002CEDD02046FAF71EFD1421204676
:1098900002F0D4FDE5E70000F0B589B004460D46BE
:1098A00001A81146FFF723FEA4B124B21DB128463A
:1098B00003F0EAFB054601A803A90395ADF81040A3
:1098C000FFF778FE03A8FFF78BFD02A8FBF7A6F8C9
:1098D00009B0F0BD019D0123D5E84F2F002A03D127
:1098E000C5E8413F0029F7D1EFD12B73BFF35B8F60
:1098F0006B702B1DBFF35B8F53E8006F43E8004292
:10990000002AF9D1BFF35B8F002EDED02046FFF78F
:109910004FFA074660B105F10C013046FFF716FE1D
:109920003046FAF7D1FC1021304602F087FDCCE733
:10993000314603A8FFF77CFF2B7B8DF81C301020ED
:10994000FAF7A9FB0546D0B187601420FAF7A3FB0C
:10995000044678B18760014603A8FDF724FC059B07
:10996000A268A360069B0592E268E3609DF81C3044
:1099700006922374064BEB60064B2C60AB6003A889
:10998000FAF7A2FC002229460348FFF719FAC7E7B5
:109990005F950D004F980D0003910D000022406867
:1099A0001146FFF7FFBA002240681146FFF70ABBD5
:1099B00040680022FFF7FEBA4068002281F00101F2
:1099C000FFF7E8BA002340681A461946FFF7DABAEB
:1099D000002340681A461946FFF7CCBA00224068B7
:1099E0001146FFF7BFBA002240681146FFF7AABA36
:1099F000406800220221FFF7ADBA002340681A46F2
:109A0000FFF798BA024B03225A60024A1A60704765
:109A100094E4032028000E00006800F079B910B526
:109A20000446016002710AB1FFF7F6FF204610BD3F
:109A300013B50446019102F0DDFC019A014620466F
:109A4000FFF7EDFF204602B010BD006800F069B9D5
:109A50002DE9FF4104460D4617461E46FFF7DCFF81
:109A600036238DF800300023206801934FF0010861
:109A70000A23694603938DF8088000F02DF92068C9
:109A8000036829469B6898472068414600F03CF9E6
:109A9000054640B16FF09F052046FFF7D6FF2846E8
:109AA00004B0BDE8F081022320680193694600F00C
:109AB000E3F80228EED1206803685B6998473870A4
:109AC000206803685B6998473070E5E707B50023B5
:109AD0008DF806308DF807300DF106020DF1070301
