:02000002D0002C
:1040000000400D0078080E00000006000D000501BC
:0840100004019A080000000001
:0440180078F10D002E
:1040200009480A49884208B505D0094A824202D0A7
:10403000121A08F0A3FF0748074A0021121A08F0D5
:10404000C5FF014808BD00BFA8DF032064050E00BE
:1040500090E2032090E20320F0E7032070B5074EC2
:10406000074C08F08DF8A41BA4080025A54200D138
:1040700070BD56F8043B98470135F7E72C050E0054
:1040800060050E0001F038B908B501F015FDBDE876
:10409000084008F02DB804F0A5BF04F0A3BF04F059
:1040A000A9BF000008B5034A00210C2004F016FE49
:1040B000FEE700BFFD880D000078B0FA80F04009EF
:1040C00070470123037070477047006A0368DB681C
:1040D00018470000014B1A60704700BFE0DF032063
:1040E000044B00229A60044B03221A70034B0122F6
:1040F0001A70704740E30320CCE3032064E30320FD
:10410000024A01239371024A13707047D8E30320D7
:104110000CE40320014B01221A7070470DE40320C8
:1041200003681847012A03D0022A03D000207047F1
:104130000160FBE70B680360F8E7000010B5054B72
:104140001A7B054B044653F8221007F080FA2046EC
:1041500010BD00BFD8E30320A8DF032008B5044941
:1041600007F02EFB18B1034B03221A70012008BD83
:10417000D0F10D00CCE3032010B5034B03600446DF
:1041800003F01DF9204610BDACF80D0010B5044633
:10419000FFF7F2FF2046102108F048F9204610BD35
:1041A000436913B183690C301847704713B5002178
:1041B0000446084604F00AFB0023204601A90193A7
:1041C00004F01CFB019C0CB1012323710021012090
:1041D00004F0FCFA2CB1236820469B689847002322
:1041E000237102B010BD08B502F002F810B904F056
:1041F00039FEF9E7BDE8084001F0FABF08B5002034
:1042000004F068FE28B104F03DFE80F00100C0B269
:1042100008BD0120FCE70023042204F013BE0000C7
:1042200030B585B00346144668460D469847029857
:10423000206004F0D7FE286050B12268009908F091
:104240009DFE0024684607F0B7F9204605B030BD52
:10425000004CF7E7FCFEFFFF37B59DF818501D43F3
:104260008DF800503C23044605F01AFA204603B0AE
:1042700030BD00000A4B10B50446036006F030F96B
:10428000214606F02EFB07F0EBFE07F0DDFE204690
:10429000044B40F8043B06F011FA204610BD00BF65
:1042A00094F80D007CF80D0010B50446FFF7E2FF0E
:1042B0002046242108F0BAF8204610BD00234068AB
:1042C0001A46194604F056BE10B58368044613B169
:1042D000032201469847204610BD000037B5134B16
:1042E000036004468068C8B100256FF00043CDE943
:1042F000003502212B462A4604F088FAA068294698
:1043000004F0D4FA237903F0FF0513B104F046FA60
:10431000F8E7A068294604F069FAA56004F10C00EA
:10432000FFF7D2FF204603B030BD00BF68F80D0094
:1043300010B50446FFF7D2FF20461C2108F076F89E
:10434000204610BD38B5044620252A46002108F035
:104350003DFE6571204638BDF8B5037D05460F4624
:1043600016468BB10368DB6883B19A88012A06D0B0
:104370009B68F9E79B684BB19A88012AFAD12BB167
:104380009A89BA42F6D19E732846F8BD0A49102090
:1043900008F04EF8044668B11022002108F016FE1D
:1043A000064B23600123A3802B69A360A781A6731A
:1043B0002C61E9E72875E7E760020E0010000300B2
:1043C00070B5037D05460E46CBB10368DB6823B1AB
:1043D0009A88042A17D09B68F9E70C49102008F046
:1043E00027F8044668B11022002108F0EFFD084BC1
:1043F00023600423A3802B692C61C4E9023628467C
:1044000070BD2875FBE7DE60F9E700BF60020E00B3
:1044100010000300002004F089BA000002460148A1
:1044200005F016B825940D00F0B58C46002514490A
:10443000057104468560016092E8030085B002AF13
:1044400004F10C0687E8030096E8030082E8030005
:1044500097E8030086E803009168A0696161D1686C
:104460009560D060A161CDE90035064A23466146DA
:1044700004F1080004F0B2F9204605B0F0BD00BF19
:1044800068F80D00AD410D0008B5806828B1002125
:1044900004F0FCF9003818BF012008BD0EB410B5B7
:1044A0008DB00FAA016852F8044B0392002320201C
:1044B000CDE90403CDE900421E2004AA04F01EFC4D
:1044C0000DB0BDE8104003B070470EB410B58DB00C
:1044D0000FAA016852F8044B039200232020CDE973
:1044E0000403CDE90042322004AA04F007FC0DB019
:1044F000BDE8104003B0704737B504689DF8185008
:104500008DF800308DF8045024683C23A04703B098
:1045100030BD000070B592B012B3012A28D001322C
:1045200021D1214B214C002506261D70266107F064
:1045300060FC1F4A00903346402102A804F07AFD37
:1045400003F0BAF91B4B8DF800501B781A4902AAE8
:10455000FFF7D2FF94F82030013384F8203002E0D6
:10456000114B01221A70154B01221A7012B070BD46
:104570000D4B0E4D002404261C702E6107F039FCF3
:104580000B4A00903346402102A804F053FD03F08B
:1045900093F9084B8DF800401B78074902AAFFF7F2
:1045A000ABFF85F82040DEE770E3032040E3032003
:1045B00005F20D00DCE2032027F20D0064E3032086
:1045C00030B5C9B007F015FC144B0790144C1A8D88
:1045D0000692226905921A690492E2680392197B95
:1045E000104A52F8212002929B680193A3680E4A58
:1045F00000934FF48071636808A804F01BFD002548
:1046000003F05AF9094B8DF800501B78084908AAA5
:10461000FFF772FF256149B030BD00BFD8E303202A
:1046200040E30320A8DF03203AF20D00DCE2032080
:10463000C0F20D0013B5012101A806F07EFE0B4B60
:10464000DB68243B402B01A84FF001040AD906F097
:1046500007FF074B1C73002401A806F07DFE2046CF
:1046600002B010BD06F0E5FEF6E700BF40E3032010
:10467000D8E3032030B5194D0FCD99B004AC0FC469
:104680000FCD0FC495E8030084E8030014490EA879
:1046900004F080FD0EA804F0D0FD04460EA804F03E
:1046A000E7FD0EA810EE105A04F012FE18AB10EE43
:1046B000100A03EB840408F02DF8CDE90201284626
:1046C00008F028F8CDE90001064A54F8503C0648A5
:1046D000402104F0AFFC19B030BD00BFC0F80D00A0
:1046E00064E40320DDF20D0090E2032000000000EE
:1046F00008B50F2007F009FEB0F5C87F05DA3220B3
:1047000004F0F4FC0F2007F000FE07F0F1FF20A3F7
:10471000D3E9002308F056F808F04CFBDFED147ADB
:1047200007EE100A67EE277A17EE900A07F0F2FFFD
:10473000104B002207F08EFE0F4B002208F042F8CB
:1047400008F0F0FA07F0D4FF0C4B002208F03AF81A
:104750000B4B002208F060F90A4B002207F07CFEA8
:1047600008F0E0FA084BD860084B01221A7008BD27
:10477000000080390000E03F000059400000224066
:10478000000014400000404040E3032064E30320A5
:104790006666666666660A4000B591B06846FFF7D1
:1047A000D1FD08A8FFF7CEFD002108A804F02CFBDE
:1047B000134B5979A1B141F2D833ADF80630114B02
:1047C000029341F27003ADF80C30009B43F4007388
:1047D00000930021684604F017FB11B05DF804FB5C
:1047E00041F27003ADF80630074B029341F210031B
:1047F000ADF80C30009B43F400730093EAE700BF70
:10480000D8E303202602260284038403314B1A696D
:10481000D3ED057AFF2ABAEE087A88BF0022F4EEBB
:10482000C77A88BF1A61F1EE10FA06D4B2EE087AA0
:10483000F4EEC77AF1EE10FA01DD274A5A61D3EDA2
:10484000067AF5EEC07AF1EE10FA06D4B0EE007AF0
:10485000F4EEC77AF1EE10FA02DD4FF07E529A6163
:104860001A7F198DD3ED0B7A0C2A84BF00221A7798
:104870005A7F0C3A0C2A84BF18225A77174A1268BA
:10488000914288BF0021F5EEC07A88BF19850121C9
:10489000F1EE10FA597106D49FED117AF4EEC77A51
:1048A000F1EE10FA01DD0F49D962196BB1F57A7F8B
:1048B00084BF4FF4967119630B4B198B8A4204D253
:1048C00000221A83094B01221A70094B01221A7027
:1048D000704700BFD8E303200000A0C0CCDF032056
:1048E0000000C8420000204140E3032064E30320AD
:1048F0000CE4032013B51A4CA38BB3F5C05F20D191
:104900001849194808F0AFFB1649184808F0ABFBE6
:10491000A379102213B31649164808F0E4FB236B61
:10492000154A1648102104F085FBE06A07F0F2FEF4
:10493000134ACDE900010821124804F07BFB02B0C4
:1049400010BD237F104A0848082104F073FB637FE1
:104950000D4A0648082104F06DFBD9E70B49DBE757
:10496000D8E30320F6F20D00D6DF0320C4DF0320D6
:1049700003F30D00B4E303200DF30D000EE4032058
:1049800018F30D001EE40320F9F20D00FFF20D00F4
:1049900070B592B007F02DFA184C194B206094F8BE
:1049A0002000184E00251D61012164230228256185
:1049B0002583E361317017D92A46084604F0E8F9E7
:1049C000256107F016FA104A00902B46402102A8F4
:1049D00004F030FB02F070FF0C4B8DF800501B7898
:1049E0000B4902AAFFF788FD0A4A002384F8203009
:1049F00001233370137012B070BD00BF40E3032079
:104A0000D8E3032064E3032005F20D00DCE2032079
:104A100027F20D000CE4032038B5046805467CB18C
:104A20006368013B63605BB9236820469B689847D5
:104A3000A368013BA3601BB923682046DB68984745
:104A4000284638BD10B51A4A1A4C1268238D013217
:104A500093428CB025D900232385238D164A20212B
:104A600004A804F0E7FA154804A9FFF717FD237915
:104A700083B1E37873B1FFF7B6FB00238DF8003004
:104A80000F4B10491B7802A804AAFFF7E5FB03A807
:104A9000FFF7C2FF0C4A012313700C4A13700CB0CD
:104AA00010BD0B4A118B994238BF1383D5E700BF65
:104AB000CCDF0320D8E3032021F30D0038E50320E9
:104AC000DCE2032036F30D000CE4032064E3032052
:104AD00040E3032030B50B781F4D95B00C46C3B9A9
:104AE0001E4904A808F0BFFA2B7983B1EB7873B1A3
:104AF000FFF779FB00238DF80030194B19491B781B
:104B000002A804AAFFF7A8FB03A8FFF785FF15B0CA
:104B100030BD084608F01CFAC8280DD1124904A877
:104B200008F0A1FA07F065F9104B286201221A700B
:104B30000F4B00221A70D7E7204608F009FAC9285F
:104B4000ECD0204608F004FA0A4A0346402104A8A3
:104B500004F070FAC8E700BFD8E303203FF30D006C
:104B6000DCE2032076F30D0047F30D000CE4032094
:104B70006FE3032059F30D001FB50C4906F020FE2A
:104B800088B100238DF80030094B0A4A1B780A4986
:104B900002A8FFF761FB03A8FFF73EFF07480A21C1
:104BA00001F012FF012005B05DF804FBD0F10D000B
:104BB000DCE2032083F30D00A5F70D00ECE20320F7
:104BC00030B51D4985B0054606F0FAFD0446D8B15A
:104BD0001A4D01246C71FFF7DFFD194B1C70EB7847
:104BE00013B9012005B030BD164B174A1B788DF85C
:104BF0000030164B1B78164902A8FFF72DFB03A8BF
:104C0000FFF70AFF2046EDE71249284606F0D8FDD7
:104C10000028E7D0094D0A4B6C7101241C70FFF786
:104C2000BBFDEB78002BDCD0064B0B4A1B788DF8D4
:104C30000030064B1B78DEE7D0F10D00D8E30320EF
:104C40000CE40320DDE203209BF30D00DCE20320F3
:104C5000C8F30D00FDF20D00B2F30D0030B51B4995
:104C600085B0054606F0ACFD0446C8B1184B194A9C
:104C700001241C71DB78147013B9012005B030BD1C
:104C8000154B164A1B788DF80030154B1B781549CB
:104C900002A8FFF7E1FA03A8FFF7BEFE2046EDE702
:104CA0001149284606F08CFD0028E7D0084B094A38
:104CB0001C71DB7801241470002BDED0064B0B4AEC
:104CC0001B788DF80030064B1B78E0E7D0F10D0023
:104CD000D8E303200CE40320DDE20320CDF30D0034
:104CE000DCE20320C8F30D00FDF20D00DEF30D0041
:104CF00000B50D4B0D4A1B7FC5B04FF4807104A861
:104D000004F098F90A4B0B491B788DF800300A4BD8
:104D100004AA1B7802A8FFF79FFA03A8FFF77CFEFE
:104D2000012045B05DF804FBD8E30320F3F30D0048
:104D3000DDE20320F5F40D00DCE2032013B50A22C6
:104D4000006801A909F0F2F817280CD8074C207761
:104D5000FFF7D0FD064B01201870E3780BB1FFF789
:104D6000C7FF02B010BD0020FBE700BFD8E303205F
:104D70000CE4032030B5C7B000680A2203A909F08B
:104D8000D5F818281FD8114D6877FFF7B3FD104BE1
:104D9000104A01241C704FF480716B7F06A804F048
:104DA00049F9EB786BB10C4B0C491B788DF800304E
:104DB0000B4B04A81B7806AAFFF74EFA05A8FFF7CD
:104DC0002BFE204600E0002047B030BDD8E3032092
:104DD0000CE4032007F40D00DDE20320F5F40D00E0
:104DE000DCE2032030B5214985B0054606F0E8FC39
:104DF000B8B11E49284606F0E3FC0446C8B91C4970
:104E0000284606F0DDFC40B11A4DAC71FFF772FD8B
:104E1000EB7833BB184B05221A70184B0120187021
:104E200005E01349284606F0CBFC0028E1D105B087
:104E300030BD104C0123A371FFF75CFDE378002B1C
:104E4000EBD001F0D5F900238DF800300C4B0D4A62
:104E50001B780D4902A8FFF7FFF903A8FFF7DCFD57
:104E6000DBE701F0C5F98DF80040EFE7D0F10D0068
:104E7000FDF20D00D8E30320CCE303200CE4032073
:104E8000DCE20320B4E30320C8F30D0070B5012178
:104E90008CB0112007F00DFA4FF47A7004F026F967
:104EA000424B00225868114604F054F808B1FFF74D
:104EB000E1FBFFF71DFC002203A90720039203F08A
:104EC00035FFB8B9039C0CB1236923B9384A0021D6
:104ED0000A2003F003FF0023ADF812300C23ADF8D5
:104EE000103002AB059304230693236904AA012121
:104EF000204698472F4C0028A8BF02982073FFF740
:104F000099FBA37953B14FF4FA7004F0EFF82A48F3
:104F100004F039FE4FF4FA7004F0E8F8264804F083
:104F2000CDFDFDEEC07A17EE903A402BC4ED027A2B
:104F300009DC237B012B06D104A8FFF703FA00212B
:104F400004A803F061FF1D4DA368EA691C4E93425B
:104F5000BEBF0122EB6132701D2B23DC0123E37104
:104F6000A3794BB9174904A806F071FB04A8FFF711
:104F700039FF04A806F020FB132007F0C6F96423CC
:104F800000930023194640F68A6204F0A3F800213A
:104F90006860112007F08DF90B4A012313703370FC
:104FA0000CB070BD0023E371E6E700BF64E40320AA
:104FB000FD880D00D8E3032084E3032040E30320B1
:104FC00064E30320D0F10D000CE4032030B587B07A
:104FD000006803A908F0D6FEB5EEC00AF1EE10FA9B
:104FE0002AD4DFED167AB4EEE70AF1EE10FACCBF60
:104FF0000125002520DC124C84ED0B0AFFF77AFC1A
:10500000E378A3B1D4ED0B7A0E4BF5EE407AF1EED6
:1050100010FA1B7807BF0C4A0C490D4A0D498DF850
:10502000005004A8FFF718F905A8FFF7F5FC0A4B94
:105030000120187007B030BD0020FBE70000C84217
:10504000D8E30320DCE203201EF40D0039F40D0048
:105050001EE40320A9F50D000CE4032030B587B051
:1050600000680A2203A908F061FF07EE900AF8EE33
:10507000E77AF5EEC07AF1EE10FA23D49FED127ABA
:10508000F4EEC77AF1EE10FACCBF0125002519DC49
:105090000E4CFDEEE77AC4ED0C7AFFF72BFCE378BB
:1050A0005BB10B4B8DF8005004A81B78094A0A49E4
:1050B000FFF7D2F805A8FFF7AFFC084B01201870E6
:1050C00007B030BD0020FBE700007A44D8E303209E
:1050D000DCE203200EE403202FF50D000CE4032096
:1050E00030B5164C164D2278164902EB02132A7879
:1050F0008FB002EB02120A440B4400922821124A9C
:1051000004A803F097FF2B782370104B1A799AB1FB
:10511000DB786BB10E4B0F491B788DF800300E4BCE
:1051200002A81B7804AAFFF797F803A8FFF774FCFE
:105130000A4804A9FFF7B2F90FB030BDC4E3032059
:10514000CCE30320E4DF032040F40D00D8E3032088
:10515000DDE203204EF40D00DCE2032038E50320FD
:105160002DE9F047244B254A1B782549254C86B06C
:1051700002A88DF80030244B1B78FFF76DF800254E
:1051800003A8FFF749FC257103F07CFE10B1284607
:1051900003F098FEFFF73EF94FF0000A054647F28C
:1051A0002F584FF00009FFF735F9461B61EB0A074E
:1051B000B94508BFB04505D3FFF720F810B903F093
:1051C00051FEF0E7FFF71AF8637913B9A368462B8D
:1051D00009DC0E4902A806F03AFA02A8FFF702FE1F
:1051E00002A806F0E9F9FFF7D3FB094B01221A7078
:1051F00006B0BDE8F08700BFDDE203205FF40D00DC
:1052000067F40D00D8E30320DCE20320D0F10D00A9
:105210000CE4032070B5D0E900531426044606FBC5
:105220000356AE4204D0284606F0C6F91435F8E716
:10523000206803F0DFFE204670BD38B503681446D1
:10524000DD683423A847204638BD000010B51F4C48
:10525000E37886B073B1FEF7C6FF00238DF8003007
:105260001B4B1C4A1B781C4902A8FEF7F5FF03A83C
:10527000FFF7D2FB19481A49FFF710F901232370F1
:10528000042000232371A370E37107F02BF8D8B139
:10529000144902A806F0DBF902A8FFF7A3FD02A853
:1052A00006F08AF9104B63614FF07E53A3614FF40F
:1052B000C053A38301210023044A0C486171238554
:1052C000FFF7BBFF06B010BD0949E2E7D8E30320B2
:1052D000DCE2032075F40D00C8F30D0038E503206F
:1052E0008DF40D00D0F10D000000A0C074E3032088
:1052F000FDF20D0000000000F0B54FF4FA60B9B007
:1053000003F0F4FE0021082006F0C2FF0021042073
:1053100006F0BEFF0121072006F0BAFF012111208F
:1053200006F0B6FF0121072006F0C3FF002111207F
:1053300006F0BFFF04A8002403F0ACFD00237D228B
:1053400018A904A806F063FABB4923462246CDE912
:10535000004418A803F0AEFDB84A234600214FF4DC
:10536000807003F005FDB64A234600214FF48020EB
:1053700003F0FEFC4FF47A7003F0B8FE23460222DD
:10538000B049B14803F05EFDB049B148FEF743FFB4
:10539000B049B1482346022203F054FD23460222BD
:1053A000AE49AF4803F04EFDAE49AF48FEF733FFBC
:1053B00023460222AD49AE4803F044FDAD49AE4854
:1053C000FEF729FFAD49AE48FEF725FFAD49AE48CF
:1053D000FEF721FF23460222AC49AD4803F032FD1F
:1053E000AC49AD48FEF717FF0C23CDE90844ADF8F2
:1053F0002030AA4BAA490A93042208ABA94803F01B
:1054000021FDA949A948FEF706FFA949A948FEF7C9
:1054100002FFA949A948FFF701F8A949A948FEF7E1
:10542000FDFFA949A948FEF7F9FFA949A948FEF7D8
:10543000F5FFA949A948FEF7F1FFA949A948FEF7D8
:10544000EDFFA949A948FEF7E9FFA949A948FEF7D8
:10545000E5FFA949A948FEF7E1FFA949A948FEF7D8
:10546000DDFFA949A948FEF7D9FF0125032241F232
:10547000883308A8CDE90823ADF8285004F013F8C4
:10548000A34808232946438101F05CFC7C21A04805
:10549000A04D01F03FF92246214608A8089403F0E8
:1054A00015FA089B142B40F0B5802B6901332B6152
:1054B00099489A4E04F070FB4FF4FA7003F016FE10
:1054C000954804F060FB964801F090FF0021944855
:1054D00001230DF10F0201F0CBFF9DF80F10012900
:1054E00000F036818E4801F08BFF8E4A8C480423F1
:1054F000002102F008F8012389480DF10F02002174
:1055000001F0B6FF9DF80F30012B00F08E800123D3
:105510003370854CFFF77AF902F0CEF902F0A8FB60
:1055200094F82030022B1AD90022114607270120B7
:1055300003F02EFC276106F05CFC7C4A00903B46A1
:10554000402108A803F076FD02F0B6F900238DF89B
:105550000030774B77491B7808AAFEF7CDFF95ED11
:10556000060A06F0FDFA00F059FE002800F0FC8063
:1055700006F014FB95ED050A06F0D2FA06F072FC6F
:10558000074606F036FC381A07F0B2F828A3D3E92C
:10559000002307F041FA684ACDE900013D480A219D
:1055A00003F048FD042006F09DFE08B9FFF74EFE0B
:1055B000FFF7A0F9FFF7F0F806F038FC00210746E6
:1055C000206806F091FA874201D0FFF7E1F9FFF772
:1055D0005DFC06F01FFC2B7F984207DB06F01AFCEF
:1055E0006B7F9842BEBF554B554A1A6033780BB952
:1055F00002233370534B5449544801221A70FEF76A
:105600004DFF0021072006F054FE04A805F0D4FF4A
:1056100039B0F0BD2246214608A8089403F056F997
:10562000089B8C2B7FF444AF3FE7FFF70FFE70E73A
:10563000000000000020AC40D54A0D0015450D00CB
:10564000D5400D0044E30320A5F40D0090E20320B3
:10565000B2F40D00E8E30320B9F40D004CE303209D
:10566000C4F40D00D0DF0320D0F40D00E0E30320EC
:10567000D8F40D00B4E30320E3F40D00D6DF0320DB
:105680008EF50D00C4DF0320F0F40D0050E303207D
:10569000FAF40D0065E3032001F50D0021420D0031
:1056A0003D410D000CF50D001EE403201BF50D001F
:1056B0000EE4032027F50D00794B0D0038F50D00A1
:1056C0005D410D0042F50D00E54D0D004AF50D0060
:1056D000C14B0D0057F50D005D4C0D0062F50D003E
:1056E00061620D006FF50D00A9630D007CF50D00E2
:1056F0003D4D0D008AF50D00754D0D0097F50D001F
:10570000CD4F0D00A1F50D005D500D00B3F50D005E
:10571000ECE20320D8E3032084E30320CCE303205E
:1057200074E30320E8F80D0040E3032005F20D00C8
:10573000DCE2032027F20D00C4F50D00D0E30320C6
:10574000E09304000CE40320CEF50D0038E50320BF
:10575000074A0848342301F08BFE074A05482423F2
:10576000502101F085FED4E606F024FA02E700BFDE
:10577000D8E3032074E3032040E303208842F8B514
:1057800004460D46164616D9904215D2A2F11406CB
:10579000751AA1F114072C44B7421CD02CB1314624
:1057A000204605F085FF337C2374304605F004FF66
:1057B000143E143CF0E70ED0B5420CD02CB1294673
:1057C000204605F075FF2B7C2374284605F0F4FE77
:1057D00014351434F0E7F8BD2DE9F0410023C0E999
:1057E000003383604F689F4204460E4623DD4FF02E
:1057F000140808FB07F003F0F5FB0546D8B1D4E91F
:10580000001208FB0212FFF7B9FF206803F0F2FB59
:105810002560A760D6E9007308FB0378B84508D077
:105820003946284605F05EFF3B7C2B74143714354F
:10583000F4E7736863602046BDE8F081F0B5544B2F
:10584000544E01251D70544B08228FB01A7006F07B
:10585000C9FC00231A460D2106F0CCFC06F0C2FC60
:1058600000231A460A2106F0CDFC4C4B002464228A
:105870001C83DA6183F82040494B4A4A1C609C80B3
:105880009C719A60022003F063FA2146284603F0D7
:1058900077FA2946042003F011F8434B1A46191DE4
:1058A00042F8091BA3F809409470404A1D75C3E9EA
:1058B00003445A601C7206F071FD234601464FF402
:1058C0000052304601F088FD394B336006F066FD2A
:1058D00069220146374800F01FFE2146364804F091
:1058E0009FF8CDE90144039406F0BAFB334C064619
:1058F00001A904A8FFF770FF274604A907A8FFF72E
:105900006BFF2F4B47F8043B07A90AA8FFF764FF7A
:105910000AAA2946384605F03EF90AA8FFF77AFC9C
:1059200007A8FFF777FC274B2360266204A8FFF740
:1059300071FC254B236006F093FB4FF4165106F0E3
:105940007FFB04F0CDFD214605F0B7F801A8FFF775
:1059500061FC1E4B1E4E1F4C1F490A930AAA2B4680
:105960001E480D960C94FEF75FFD0AA8FEF7ACFCEE
:105970001B4B1C490A930AAA2B461B48CDE90C462F
:10598000FEF752FD0AA8FEF79FFC0FB0F0BD00BF66
:10599000DCE2032074E30320DDE2032040E3032084
:1059A000D0E203200000FFFF28E3032010000300E3
:1059B000ACF80D00ECE2032084E3032090E3032025
:1059C0007CF80D0014010E0094F80D0001410D004B
:1059D00021410D0025410D0040771B000CE3032001
:1059E000E1400D00C027090028E403202DE9F04F15
:1059F0002C492D4885B0FEF751FD4FF0000A01A853
:105A0000CDE901AAADF80CA003F033FDFEF702FDCD
:105A100043F6972883464FF00009FEF7FBFCB0EBF6
:105A20000B0661EB0A07B94508BFB04505D303F083
:105A300029FA10B103F016FAEFE71C4E03F022FA30
:105A400000220221706803F07DFA3046FEF736FC32
:105A5000FEF7E0FC4FF0000A074647F22F584FF0E0
:105A60000009FEF7D7FCC41B61EB0A05A94508BF76
:105A7000A04506D3304605F0CDFB10B903F0F2F98E
:105A8000EFE70A4805F0C6FB094B0022DA70094B24
:105A9000012404201C7004F071F9204605B0BDE813
:105AA000F08F00BFDFF50D0038E5032064E403202C
:105AB000D8E303200CE403202DE9F043A04DA14CD2
:105AC0002B78A14FDFF8D482013B97B0092B00F26D
:105AD0009B80DFE813F081020A00F7003A026501BB
:105AE0001E011202320099002703984B1B78022BEB
:105AF00001D0FFF7F5FAA3796BB102F007FF944BE1
:105B00001B68C01A934B1B68984204D9924B9B6840
:105B10000BB908232B70914B1B780BB10A232B7008
:105B200006F078F98E4B06460021186805F0D4FF80
:105B3000864269D003232B7066E0844B1B78082BC8
:105B400001D0FFF7CDFA8748FEF79EFC00285BD115
:105B50008548FEF799FC002856D1E378002B00F029
:105B6000A780FFF743FFE3780BB1FFF73FFF794BC7
:105B70007E484FF47A7200214FF002091A6085F8CE
:105B8000009000F0C7FD06F034F94FF4616690FB19
:105B9000F6F303FB1606764BC6F561661A7DB6F57D
:105BA000616FA8BF4FF461660AB183F808900022C4
:105BB00004216F48FEF7D0FB4FF47A717143FEF772
:105BC000FFFB6B4903A805F0CDFE4FF0FF3167489E
:105BD00000F0A0FD674803F0DFFF039B002B6ED0B1
:105BE0009A88012A6BD19B89042B68D1624906A847
:105BF00005F02DFD06A8FFF7F5F806A805F0DCFC7A
:105C0000039808B103F0F6F9584801F07BF901F068
:105C100053FE01F041FD98F800303BB1494A574826
:105C20000121FFF70AFB002388F800303B783BB1E5
:105C30002423494A5148502101F065FC00233B7060
:105C40004F4B1B68002B1FDB4E4A402106A803F078
:105C5000F1F94D4806A9FEF721FCE37873B1FEF790
:105C6000C2FA00238DF80030484B49491B7803A83D
:105C700006AAFEF7F1FA04A8FEF7CEFE4FF4FA608A
:105C800003F034FA05F06AFEE3780BB9A37963B93F
:105C900003F0F8F848B92B78052B06D00523E070FF
:105CA0003C4939482B70FEF7F9FB17B0BDE8F0838B
:105CB000394805F0AFFA00283FF453AF53E7022309
:105CC0002B709DE7214B1B78032B01D0FFF708FABF
:105CD000FFF7DCF806F09EF8237F1F4E984205DCA4
:105CE0000023B36001233B70062324E706F092F8FB
:105CF000637F9842F4DAD6ED017A94ED0B7AF8EEF0
:105D0000E77AF4EEC77AF1EE10FA4CBF01230023D4
:105D1000E7E70E4B1B78062B01D0FFF7E1F906F001
:105D200068F80F4B1860FFF7B1F806F073F8237F9F
:105D3000984201D1FFF714FAFEF742FC0523FAE678
:105D4000CCE30320D8E3032064E30320C4E303206F
:105D5000D4E30320D0E3032040E3032070E30320D7
:105D60008CE3032028E403200CE30320ECE203206F
:105D700028E3032084E30320FDF20D0074E30320F5
:105D8000E0DF0320FCF70D0038E50320DCE2032010
:105D90001BF80D0022F80D0064E403200CE403203E
:105DA000A34B1B78052B35D0A24E337000232385DF
:105DB000FFF796F9E37853B9E379DBB1042006F0F5
:105DC00091FAB8B19C499D48FEF768FB4FE003F09B
:105DD00059F80028F0D09A499848FEF75FFB994B94
:105DE000994A1A6002F092FD984B186006233370AE
:105DF0000723A0E6A379002B3BD102F087FD944B4B
:105E000018609448002340681A46194603F0AAF81F
:105E100003F030F802F07AFD8D4B1B68C01A4FF486
:105E20007A73B0FBF3F0208503F02CF8002837D00C
:105E30000123E37005F0DDFF824B834A1A60606244
:105E400002F064FD814B1860FEF7FCFD82497B483F
:105E5000FEF724FB0023009380494FF0FF3302221A
:105E6000042003F061FF734B1B78062BC0D0022384
:105E700061E6042006F036FA0028BED0A368322B73
:105E800008DDA368412BB8DC05F0C4FFC307B4D517
:105E9000734998E705F0BEFF8207F2D0714992E797
:105EA000714B228D1B689A427FF6AEAE6F4BE0704D
:105EB00002221A61FEF7C6FD6D496048FEF7EEFA50
:105EC000FFF794FD63794BB16A4906A805F0BFFB63
:105ED00006A8FEF787FF06A805F06EFB05F089FF10
:105EE000636AC01A42F630239842C0D901232B704E
:105EF00002F00CFD604B186086E64D4B5F4E1B7840
:105F0000072B07D002F002FD5D4B186001233370B0
:105F1000FFF7E6F8337833B904232B7001233B7085
:105F200088F8003070E602F0F1FC554B1B68C01A8F
:105F300047F230539842F1D902F0E8FC4E4B18601A
:105F40004A4B03221A610123E7E7394B1B78042BE4
:105F500001D0FFF7C5F8454B9E6836B3374849492D
:105F6000FEF79CFA484B986858B16FF00041236BDC
:105F70000022CDE900124FF47A714B43032102F065
:105F800045FC236B414A202106A803F053F8002367
:105F90008DF800303E4B3F491B7803A806AAFEF758
:105FA0005BF904A8FEF738FD61E73B492348FEF79B
:105FB00075FAD4ED0B7AF5EEC07AF1EE10FA7FF7B0
:105FC00056AF334B8DF8006006A81B78324A2D4936
:105FD000FEF742F907A8E5E7154B1B78012B01D026
:105FE000FFF77EF802F092FC234B1B6803F5EA43AF
:105FF00030338342BFF408AE05F0FBFE636AC01A7B
:10600000B0F5E15F50D905F0F4FE6062FFF7EEFCF9
:10601000224A23480121FFF710F908482149FEF7D9
:1060200054FA642003F062F805F098FCECE500BF38
:10603000C4E30320DEE203202FF60D0038E5032041
:1060400008F60D00D0E30320E0930400D4E303201E
:10605000E4E2032064E40320B8F60D0015410D00CE
:1060600086F60D0055F60D00CCDF032040E303203B
:10607000D4F60D00D0F10D00C8E303206FE3032038
:10608000E0E20320F2F60D0028E40320FBF60D0009
:10609000DCE203200BF70D001EF70D00D8E3032010
:1060A00074E303203EF70D002269E378032A13DC32
:1060B0007BB1FEF798F83B4B3B4A1B788DF80030DC
:1060C0003A4B3B491B7806A8FEF7C6F807A8FEF72F
:1060D000A3FC4FF4FA60A5E77BB1FEF784F8314BDF
:1060E000344A1B788DF80030304B31491B7806A8B4
:1060F000FEF7B2F807A8FEF78FFC4FF4FA6002F043
:10610000F5FFFFF773FC00232B4A2C482361012184
:10611000FFF793F8642002F0E9FF1E21284800F001
:1061200053FC71E5274B1B780A2B09D002F0EEFBDC
:10613000254B264918602648FEF7B0F9FEF7D0FF38
:10614000244B1B780BB924493DE602F0DFFB1E4BC4
:106150001B68C01A214B98427FF656AD204E21494C
:106160001B484FF00509FEF799F9C6F8109005F0A5
:1061700040FE1D4A00904B46402106A802F05AFFFF
:1061800001F09AFB00238DF80030084B17491B786B
:1061900006AAFEF7B1F996F82030013386F82030D0
:1061A00065E600BFDDE203206BF70D00DCE20320B3
:1061B00086F70D008CF70D00D8E3032074E303206D
:1061C000ECE20320C4E30320E8E20320ABF70D0078
:1061D00038E5032070E30320C8F70D00BF2709004E
:1061E00040E30320E2F70D0005F20D0027F20D0059
:1061F00008B502F08BFBB0F57A7F34BF0020012098
:1062000008BD08B5002002F065FE28B102F03AFE94
:1062100080F00100C0B208BD0120FCE738B505F0F0
:1062200005FE054605F016FE044605F00BFE231F8D
:10623000062B0FD9E31E082B0ED80138281A002888
:1062400004DC0B2C14BF0020012038BD072803DD1F
:10625000032CF7E70120F8E70020F6E70000000034
:106260002DE9F047CAB0804602F00CFE10B10020C4
:1062700002F028FE002002F059FB4FF0000A814690
:1062800047F22F560027002002F050FBB0EB090424
:1062900061EB0A05AF4208BFA64205D3FFF7B1FF85
:1062A00010B902F0DFFDEEE7FFF7ABFFD8F8000012
:1062B0000A2203A907F03AFE00F10C03DBB2182B07
:1062C00059D844B207EE904A2F4FB8EEE70A01259D
:1062D00087ED050A05F024FC2C4B1D7005F0C2FD6E
:1062E000064605F086FD301A06F002FA24A3D3E92B
:1062F000002306F091FB264ACDE9000125480A213A
:1063000002F098FEFB78002B37D02346224C234A1C
:106310004FF480710AA802F08DFE23788DF80030CA
:1063200006A81F493C230AAA03F0BAF907A8FEF7FA
:1063300073FBFFF75DFF10B902F094FDF9E7FFF77B
:1063400057FF05F056FD0246C31706A805F04EFCA0
:106350002378069A12498DF8003004A83C2303F0F4
:106360009FF905A8FEF758FB06A805F025F90120BE
:106370004AB0BDE8F0870020FAE72846F8E700BFFA
:10638000000000000020AC40D8E303200CE4032010
:10639000C4F50D0065E3032044E40320ECF80D0090
:1063A000F5F40D000000000030B52DED028BCBB0F0
:1063B000044605F01EFD0A22054603A9206807F0E1
:1063C000B5FDC3B2022B67D843B208EE103AB8EE5F
:1063D000C88AB0EE480A05F0C3FB354B83ED068A48
:1063E000344B01221A7018EE100A06F093F9324A63
:1063F000CDE900014FF480710AA802F01BFE05F000
:10640000DBFC20B1FFF70AFF58B305F0C7FB05F02E
:1064100029FD044605F0EDFC201A06F069F922A3D7
:10642000D3E9002306F0F8FA244ACDE900010A2155
:10643000234802F0FFFD02F025FD58B3214C22490C
:1064400023788DF8003006A83C230AAA03F028F927
:1064500007A8FEF7E1FAFFF7CBFE28B902F002FD2C
:10646000F9E705F0A7FBD2E7FFF7C2FE2A46EB17D4
:1064700006A805F0BBFB2378069A13498DF8003077
:1064800004A83C2303F00CF905A8FEF7C5FA06A8FA
:1064900005F092F8012000E000204BB0BDEC028B2B
:1064A00030BD00BFAFF30080000000000020AC4012
:1064B000D8E303200CE4032000F90D00C4F50D001F
:1064C00065E3032044E40320F5F40D00014B0122B1
:1064D0001A70704744E40320704710B52021044629
:1064E00005F0A4FF204610BD0EB410B58DB00FAA64
:1064F000016852F8044B039200232020CDE90403E5
:10650000CDE90042012004AA02F0F8FB0DB0BDE87D
:10651000104003B07047000010B50272FF224281A4
:106520000022C0E9032242610276C261024A034CA2
:106530001060C0E9004110BD4CE4032060FB0D0079
:106540002DE9F8439DF820800446894616461F46EB
:10655000B8F1000F02D0406803F0D2FB217A6068E6
:1065600003F0ABFB6068036849469B689847606826
:10657000002103F0C1FB054600BB0123217A6068BE
:106580003A4603F088FB8742034609D13744BE42AE
:106590001CD0606803685B69984706F8010BF6E752
:1065A0000B490C484A46FDF790FFB8F1000F02D0A6
:1065B000606803F0AEFB2846BDE8F8830346064951
:1065C00004484A46FDF781FF0025EEE70125ECE788
:1065D00011F90D0048E4032036F90D0007B50093CA
:1065E0000123FFF7ADFF03B05DF804FB73B54389EA
:1065F000FF2B044610D0194E194D02F087F9B0F563
:106600007A7F09D2608905F06DFE012804D03146F9
:106610002846FDF743FFF0E701230DF1070228218B
:106620002046FFF7DBFF30B90D480E49FDF736FF76
:10663000002002B070BD9DF80730182BF4D1012363
:106640000DF1070229212046FFF7C8FF0028EBD0F3
:106650009DF80730052BE7D1EBE700BF5AF90D0095
:1066600048E403206FF90D0007B5134600228DF8AA
:1066700007200DF10702FFF7B1FF9DF8070003B0F7
:106680005DF804FB2DE9F0419DF8188004460F46A3
:1066900015461E46B8F1000F02D0406803F030FBEB
:1066A000217A606803F009FB6068036839469B68DB
:1066B00098472E44B542606805D0036815F8011B61
:1066C0009B689847F6E7012103F016FB034670B17B
:1066D000084909483A46FDF7F8FE0025B8F1000FD1
:1066E00002D0606803F015FB2846BDE8F081012563
:1066F000F4E700BF7CF90D0048E403201FB58DF8D6
:106700000F2000930DF10F020123FFF7BBFF05B02F
:106710005DF804FBF8B50A460C4605461A491B48C5
:10672000FDF7BCFE002CB8BFEC687CB90123224603
:106730001B212846FFF7E2FF15490246064613488B
:10674000FFF7D2FEEC606C613046F8BD032C19DD1A
:10675000A7101F2FA8BF1F27BA0062F07C020123D9
:10676000D2B21B212846FFF7C9FF3A460346094922
:1067700006460648FFF7B8FE4FF4FA635F43EC6045
:106780006F61E1E70127E7E7A1F90D0048E4032085
:10679000ABF90D00C7F90D000B4607490246086822
:1067A00048B1002B08BFB2F5006F04D1C36813B124
:1067B0000021FFF7AFBF70474CE403202DE9FF41F4
:1067C0009DF82880054616461F46B8F1000F04D0F4
:1067D0004068019103F094FA0199019100230DF1B1
:1067E0000F022846FFF7FAFE044660B19DF80F300D
:1067F00003EA06023A43934205D001990023284652
:10680000FFF77CFF0446B8F1000F02D0686803F080
:1068100080FA204604B0BDE8F08113B514460DF1AE
:106820000702FFF7DBFE28B19DF807301C420CBFC2
:106830000120002002B010BD13B514460DF107026F
:10684000FFF7CCFE28B19DF807301C4214BF012091
:10685000002002B010BD07B5D2430093D2B200238E
:10686000FFF7ACFF03B05DF804FB000037B5012370
:106870000DF107020F210446FFF7B0FE054638B9B7
:106880001E491F48AD22FDF720FE284603B030BD4B
:106890009DF8073013F0200F4FF001030BD020229A
:1068A000E3610F212046FFF7D6FF164A1649144828
:1068B000FDF7F4FDE9E7082217212046FFF7BCFFAA
:1068C00018B10223114AE361F0E79DF807301A0777
:1068D00009D50323E361082201230F212046FFF796
:1068E000BAFF0B4AE2E75B07CFD50422E26101233E
:1068F0000F212046FFF7AFFF064AD7E71AFA0D002F
:1069000048E40320EBF90D0039FA0D00F4F90D000D
:1069100004FA0D0014FA0D0007B500931346FF2288
:10692000FFF74CFF03B05DF804FB0000F8B50F461D
:106930001646012300220F210546FFF7DFFE04461D
:1069400038B94FF425721E491E48FDF7BEFD20469A
:10695000F8BD0123232218212846FFF7CFFE044665
:1069600010B940F29B22EEE7FF2FA8BFFF27012FAF
:10697000B8BF01270123FAB219212846FFF7BEFE4E
:10698000044610B94FF42A72DDE7012308221221D0
:106990002846FFF7C1FF044610B940F2AF22D2E704
:1069A000002E4FF0010314BF8322822218212846B3
:1069B000FFF7A4FE04460028C9D140F2B922C2E77D
:1069C0004AFA0D0048E403202DE9F7430A4605463C
:1069D0000F464F484F49FDF761FD00212846FFF75C
:1069E00099FE044648B940F2F7124B494848FDF772
:1069F0006CFD204603B0BDE8F08301231A46302128
:106A00002846FFF789FF044610B940F20522ECE75B
:106A10001022012311462846FFF71DFF044610B936
:106A20004FF40372E1E70123262213212846FFF7E2
:106A300065FE044610B940F21322D6E701260096FF
:106A40003346FC2211212846FFF7B8FE044610B950
:106A500040F21B22C9E7002239462846FFF766FFAD
:106A6000044610B940F22222BFE7009602237722A3
:106A700010212846FFF7A2FE044610B940F22B224F
:106A8000B3E7334604221C212846FFF745FF04469E
:106A900010B940F23222A8E700961823E322112110
:106AA0002846FFF78BFE044610B940F239229CE7D6
:106AB0003346C02217212846FFF720FE044610B9AE
:106AC0004FF4107291E701F021FFDFF85490DFF8E6
:106AD00040804FF47A7106464F4301F017FF801B48
:106AE000B8420ED2012217212846FFF7BDFD4946C4
:106AF00002464046FDF7D2FC4FF47A7002F0F6FAF7
:106B0000EBE706490248FDF7E0FC04F027FF70E7D9
:106B100048E4032075FA0D006AFA0D009BFA0D0097
:106B200086FA0D002DE9F3479DF828A005460C468E
:106B300091461F46BAF1000F02D0406803F0E0F81A
:106B400007B3202F3E4628BF20267F2C26D8331996
:106B5000802B01D9C4F18006012304223F2128465D
:106B6000FFF779FE002364F07F0100934A46334625
:106B7000C9B22846FFF7E4FC804628B13444BF1B65
:106B8000B144DDE74FF00108BAF1000F02D06868A8
:106B900003F0BFF8404602B0BDE8F08701230422AD
:106BA0003F212846FFF7B8FEDCE72DE9F3479DF8C3
:106BB00028A005460C4691461F46BAF1000F02D0A8
:106BC000406803F09DF807B31F2F3E4628BF1F26DD
:106BD0007F2C26D83319802B01D9C4F180060123DC
:106BE00004223F212846FFF736FE002364F07F0190
:106BF00000934A463346C9B22846FFF743FD804614
:106C000028B13444BF1BB144DDE74FF00108BAF1AD
:106C1000000F02D0686803F07CF8404602B0BDE87F
:106C2000F087012304223F212846FFF775FEDCE7A9
:106C300030B585B00D68D1E9043203954D680295F1
:106C40008D680195C96800910133044902F26C72A4
:106C5000044604F015FE204605B030BDADFA0D0027
:106C600003110A2200F00F0002FB0300704738B541
:106C7000044600781546FFF7F3FF08606078FFF7D9
:106C8000EFFF4860A078FFF7EBFF8860E078FFF740
:106C9000E7FFC8602079FFF7E3FF013808612DB9ED
:106CA000651D2878FFF7DCFF886138BD6079FFF744
:106CB000D7FF6430A51D4861F3E7000070B50123DC
:106CC00088B00D461A4610210446FFF7A6FDF0B124
:106CD00008230126204600960DEB03020021FFF752
:106CE0002FFC044698B1324629460DF10900FFF702
:106CF000BEFF04A8FFF79CFF0848049A0849FDF767
:106D0000CDFB04A804F058FC204608B070BD242236
:106D10000021284606F05AF90024F5E748E403204C
:106D2000CBFA0D0030B58BB00D4601A9FFF7C6FFB9
:106D3000044620B101A802F0C5F9C5E900012046CA
:106D40000BB030BD10B5044688B011B1406802F0F8
:106D500085FF2046FFF74AFC70B32046FFF786FD0B
:106D600001231A4610212046FFF757FDD8B105F040
:106D700023F8C0B902A92046FFF7D4FFDDE90201DC
:106D800004F020FF0F4B10491B68009304A8DDE9B5
:106D9000022304F0CFFF0D48049A0D49FDF77EFB56
:106DA00004A804F009FC0B4A002300214FF4006002
:106DB00001F0DEFF08B010BD07490448FDF785FB70
:106DC000F1E700BFA8E003208CE5032048E403209E
:106DD000D9FA0D0099670D00F6FA0D000A2290FB12
:106DE000F2F302FB130093FBF2F102FB113140EAD4
:106DF0000110C0B2704770B5054600680C461646D3
:106E0000FFF7ECFF20706868FFF7E8FF6070A86884
:106E1000FFF7E4FFA070E868FFF7E0FFE070286983
:106E20000130FFF7DBFF20712EB9661DA869FFF75F
:106E3000D5FF307070BD6A69642392FBF3F003FBE9
:106E40001020FFF7CBFFA61D6071EFE7F0B587B00C
:106E5000054602A816460C46FFF7EAFE1E48029AAF
:106E60001E49FDF71BFB02A804F0A6FB16B16868DB
:106E700002F046FF204601220DF1090100278DF89E
:106E80000870FFF7B8FF01231A4610212846FFF7C4
:106E900043FD0446E8B1082300970DEB0302394691
:106EA0002846FFF7EFFB044660B101231A46102184
:106EB0002846FFF7D0FC16B1686802F02AFF20468A
:106EC00007B0F0BD4FF48D7205490348FDF7FDFA98
:106ED000F1E74FF48F72F7E748E403200EFB0D0053
:106EE0001CFB0D0013B504466846CDE9002306F0EF
:106EF00033F89DF8102001462046FFF7A7FF02B0A7
:106F000010BD0000F0B5057E89B0044675BB04F0E5
:106F100053FF58B30026002704A92846CDE904678B
:106F200001F0E0FF10B30125257604F062FF009523
:106F30000246C3172046CDE90223FFF7D3FF02A97B
:106F40002046CDE90267FFF7EDFE124B12491B68A0
:106F5000009304A8DDE9022304F0ECFE0F48049A34
:106F60000F49FDF79BFA04A804F026FB636973B18F
:106F700001F0CCFC2369C01A6369984207D301F081
:106F8000C5FC4FF0FF3120612046FFF7C3FB09B07D
:106F9000F0BD00BFA8E003208CE5032048E40320F7
:106FA00037FB0D00014B024A1A60704748E403208A
:106FB0004DFB0D00022A06D0032A02D0012A00D17F
:106FC0000160002070470B680360FAE710B50123E9
:106FD00003748368044643B1C0689847012363740F
:106FE0000020BDE8104001F059BC00680028F5D031
:106FF00083680BB905F026FAC368EEE738B5056873
:10700000044635B12846FDF75FF91021284605F002
:107010000DFA20461421BDE8384005F007BA10B536
:1070200003680446ABB1586801F0B0FB88B9236827
:107030005A7C12B9586801F0B9FB2368586801F00E
:10704000BDFB20680023236018B1BDE81040FFF7A6
:10705000D5BF10BD054A026000224260027380F86D
:10706000BD22C0F8C822C0F8D02270478CFB0D00AA
:1070700010B5074C236843B94FF43570FDF70BF892
:10708000034608B1FFF7E6FF2360206810BD00BF8C
:1070900050E4032038B50446406890B102232373BE
:1070A000FFF7BDFF656855B12846FFF7B8FF2868B0
:1070B00008B1FFF7A3FF0421284605F0B7F9002324
:1070C000636038BD10B5054B03600446FFF7E2FF6F
:1070D00004F53070FDF7F8F8204610BD8CFB0D006C
:1070E00010B50446FFF7EEFF20464FF4357105F06A
:1070F0009DF9204610BDF0B5044689B000F10D069B
:1071000000F14E07237B1BB9012001F0EFFFF9E7E7
:10711000237B022B62D0A06801F088FBA06801F0FD
:107120008DFB94F8BD328DF800303A463C23314651
:1071300006A802F0B5FA069D6B7833B9237B022BC3
:1071400003D0012001F0D2FFF5E7D4F8C8321BB319
:10715000002001F025FE20B16B7813B901F082FE0A
:10716000FAE72B78D4F8D0220592591E4B424B41B6
:107170008DF80B30D4F8C832CDE903670BB905F0B0
:1071800061F905AB0093D4F8CC5204AB03AA0DF11E
:107190000B0104F53070A847A06801F047FB237B82
:1071A000022B15D0D4F8C8320025C4F8D05233B120
:1071B00004F53071032208469847C4E9B25500230C
:1071C000A068237301F03AFB07A8FDF725FC99E7B7
:1071D000A06801F033FB07A8FDF71EFC09B0F0BD65
:1071E0000068FFF788BF13B50B460246D0E90001DF
:1071F0006C4684E8030093E8030082E8030094E807
:10720000030083E8030002B010BD00002DE9F7433E
:1072100006468846142026491746994605F008F97F
:10722000044630B10022C0E90022C0E90222027403
:1072300042743460002C31D01D49102005F0F8F85C
:10724000054668B10023836001463846FFF7CBFF4F
:10725000BB68AA68BA60AB60EA68FB68EB60FA607A
:107260002768256037B13846FDF72EF810213846DB
:1072700005F0DCF83068036883B10A9B4A46CDE923
:10728000000341460B4B043001F078FA30B9336803
:107290001B7C4BB9012001F029FBF8E73068002383
:1072A000336008B1FFF7AAFE304603B0BDE8F083B3
:1072B00060020E00CD6F0D0030B5436887B0044604
:1072C000C3B9083001F0AAFA0B4B059304200B4B0D
:1072D00002940493FCF7DFFE054638B14FF4406397
:1072E00000930749022302AAFFF790FF656002A8F6
:1072F000FCF7EAFF07B030BDE1710D00B56F0D007E
:1073000070FB0D002DE9F043044685B080680C9FAA
:1073100098460D46164601F089FA63681BB1237B37
:1073200003F0FF0933B1A06801F088FA002005B02E
:10733000BDE8F083A06801F081FA002D3DD0412224
:10734000294604F10D0005F0CEFE84F84D908EB371
:1073500040F26F22314604F14E0005F0C4FE84F87D
:10736000BC9200230293BB6804F530753BB1022246
:10737000394668469847FB680393BB6802932946E1
:107380006846FFF730FF029BD4F8C822C4F8C83221
:10739000039B02926846D4F8CC22C4F8CC32039204
:1073A000FCF792FF0D9BC4F8D032012084F8BD8217
:1073B0002073BCE784F84E60D3E72846B7E77047F0
:1073C00010B51021044605F031F8204610BD0368C1
:1073D000C9B29B681847000030B5034DC0E90223CD
:1073E000C0E9005130BD00BFC8FB0D00406802F08D
:1073F00035BC10B50446006802F08BFC204610BD79
:107400002DE9F0418AB004464068019002F078FC12
:107410001E22002102A8A76805F0D8FD0026EFB1C2
:1074200023681E2FB84628BF4FF01E08DD6802AA49
:10743000434631462046A847054658B90A480B49F5
:107440003246FDF72BF801A8FFF7D3FF28460AB014
:10745000BDE8F081A7EB08074644E0E701A8FFF785
:10746000C8FF0125F2E700BF38E5032094FB0D00BB
:107470002DE9F7430446406801900D4616461F4625
:1074800002F03EFCA7B1E168606841F0500102F0F3
:1074900018FC290A6068FFF79AFF29466068FFF721
:1074A00096FF6068002102F027FC48B1002400E04C
:1074B000012401A8FFF79DFF204603B0BDE8F0833B
:1074C000202F217B6068B84628BF4FF02008012399
:1074D000424641F0500102F0DEFB04F05FFF03681A
:1074E0001B6998474045E1DB06EB080904F056FFAD
:1074F00003685B69984706F8010B4E45F6D1454491
:10750000A7EB0807BEE72DE9F74F04464068019056
:107510000E4690461D4602F0F3FB4FF00109B9F10B
:10752000000F2AD04DB3E168606841F0500102F0CD
:10753000C8FB310A6068FFF74AFF60683146FFF711
:1075400046FFA5F11E0A4746A6EB080B606817F830
:10755000011B0368013D9B68984755450BEB0706E7
:10756000B84601D0002DF1D16068012102F0C4FBC2
:107570000028D7D04FF00009D1E701A8FFF739FF65
:10758000484603B0BDE8F08F2DE9F0438BB00E46BE
:1075900015468046406801901C4602F0B1FBAE42A1
:1075A00029D2264425448CB11E2C2746D8F8003019
:1075B00028BF1E27F61BD3F8089002AA3B46314687
:1075C0004046ED1BC84748B9002400E0012401A84B
:1075D000FFF70FFF20460BB0BDE8F083D8F800306E
:1075E00002AAD3F80C9029463B464046C8470028DB
:1075F000EAD0E41BD7E7E9D9002CE7D0D8F800306F
:107600001E2C274628BF1E27D3F8089002AA3B4607
:1076100031464046C8470028D6D0D8F8003002AAE4
:10762000D3F80C9029463B464046C8470028CBD0AB
:107630003E443D44E41BDFE703680A7883F8B12049
:10764000012183F8B0107047022A06D0032A02D025
:10765000012A00D10160002070470B680360FAE73F
:10766000012A034602D1016000207047022A04BFAC
:10767000D1E90001C3E90001F6E710B4426803460E
:10768000541001EB6200D20748BF0A591B685DF82D
:10769000044B48BFD3581847D0F8C83001461BB137
:1076A000D0F8CC30C030184770470000F8B5124D04
:1076B0000846002A18BF15460F461E4605F0F9FC7D
:1076C000402817D8284605F0F4FC40F26E23984273
:1076D00010D84330FCF7E1FC044648B1394600F8C5
:1076E000016B05F0C0FC294604F1420005F0BBFC2B
:1076F0002046F8BD0024FBE7DD000E00F0B59FB08A
:107700000A4600230E46011D08A800F0C9FD08988E
:10771000002106F02FFC054608A803F04DFF002DC0
:1077200060D008A9284606F013FC0C9B2E492F4870
:107730003246FEF7D9FE00221146284606F010FC1C
:10774000082206A9284606F029FC0C9F4A2F39DD9D
:10775000274B069A9A4235D1264B079A9A4231D145
:10776000A7F1080210460592FCF797FC0446C0B149
:1077700027440146059A284606F010FC17F8093CF4
:10778000ABB9631C1846059305F093FC3F28059B95
:107790000DD804F142020092174914483246FEF710
:1077A000A3FE284606F0CCFB20461FB0F0BD1349CF
:1077B0000E483246FEF798FE4321204604F036FE7E
:1077C0000024EEE7BDF81E3002939DF81D300193B2
:1077D0009DF81C3000930A49069B04483246FEF788
:1077E00083FEEDE72C46DFE7DCFB0D0054E40320CD
:1077F0006376B63101084100F0FB0D0012FC0D006C
:1078000040FC0D002DE9F8438046294B48F8043B25
:107810000446404600F05CFC022264230025C4E9D3
:107820001B230823E367C4E92055C4E92255C4E9B2
:107830002455C4E92655A5672020FCF72CFCE66FEB
:10784000A067013E760800EB860907464FF40070FA
:10785000FCF721FC00F50073C4E92503C4F8883067
:107860004FF4FA614FF47A73C4E92D1347F23053A1
:1078700047F82600C4F88400C4F88000C4F89000DB
:10788000C4E92855C4E92A550A49C4F88C90C4F8BB
:107890009C90A4F8B05084F8B250C4F8BC30C4F83E
:1078A000C850404600F05AFC2046BDE8F88300BFAF
:1078B0005CFE0D0085FC0D0038B5064C23683BB915
:1078C000D020FCF7E8FB054608B1FFF79BFF2560D9
:1078D000206838BD58E4032010B5D1E9002386B0F4
:1078E0000021044604910AB9D90705D5CDE9022340
:1078F0000F4B05930F4B049302AB93E803006A46CA
:1079000082E8030094E8030083E8030092E80300A0
:10791000049A84E80300A168A260059A04911846BD
:10792000E168E2600591FCF7CFFC204606B010BD8F
:107930007B760D0061760D0013B5044601F0A2FAC6
:1079400080B100F0E3FFD4F8B430C4F8AC30064B9B
:10795000C4F8A80000936946002304F1C000019315
:10796000FFF7BAFF02B010BDA57A0D0010B503688D
:107970000446586F00F082FF204610BD10B5026922
:107980008368043A9342044602D00433A36010BDD6
:10799000C068FCF784FB63691A1D62615B68E36081
:1079A00003F500722261F1E72DE9F04F87B004463C
:1079B0000190406FDFF8A890DFF8A8A000F056FF14
:1079C000DFF8A4B0D4F88030D4F89020934205D1E9
:1079D00001A8FFF7CBFF07B0BDE8F08F04F17800F6
:1079E00004F104081F68FFF7C9FF404600F04CFE91
:1079F000002302464146064602A800F051FC0298C8
:107A000040F2022106F0B6FA054602A803F0D4FDC2
:107A1000CDB108220DEB02012846CDE9029A06F00D
:107A2000CFFA07F1420005F044FB394600F143026A
:107A3000284606F0C5FA284606F082FA074832467C
:107A40005946FEF751FD3146404600F05DFE002FDD
:107A5000B8D04321384604F0E9FCB1E754E40320F0
:107A60006376B6310108410093FC0D00002908BF80
:107A7000B0F5006F38B505D0002908BF40280BD1FC
:107A8000092A09D105490648FEF72EFDFFF714FF24
:107A9000BDE83840FFF788BF38BD00BFB0FC0D001F
:107AA00054E4032070B586B0044601F0EBF948B900
:107AB000404B02A9CDE9023004F1C000FFF70CFFF2
:107AC00006B070BD00F022FFD4F8A830C01AD4F878
:107AD000AC309842F4D394F8B2100029F0D1261DAE
:107AE000304600F0DDFD0146C4F8A400002850D067
:107AF0002046FFF703FE0546C4F8A000002833D057
:107B000000F004FF02AD00262B4BC4F8A800294664
:107B100004F1C00002930396FFF7DEFED4E928309B
:107B200003F1420200922549254AA4F8B060B04210
:107B300008BF0A46013323492348FEF7D5FCFFF767
:107B400097FAD4F8A020214B0593CDE900561146B1
:107B50001F4B0294049311F8013B4232FFF7D2FB12
:107B60002846FCF7B1FBABE7D4F8A4201949164826
:107B7000FCF794FC0121304600F092FDD4F8A410EB
:107B80002A46304600F0C8FBD4F8A030002BB7D10D
:107B900096E7D4F88030D4F890209A4207D01B683A
:107BA000C4F8A03004F17800FFF7E8FEECE7C4F871
:107BB000A00085E739790D00057F0D00DFFC0D0081
:107BC00058FF0D0000FD0D0054E4032039760D0030
:107BD00049760D00E3FC0D00C368CA689B1A9B1030
:107BE0005A1ED0E900301B1A9B1003EBC2138868A1
:107BF0000A68801A03EBA000704700002DE9F341EA
:107C000004460190406F00F031FE04F1800104F160
:107C10009000FFF7E1FFE36E834202D22046FFF7B8
:107C2000C3FEDFF84880104F261D304600F086FD69
:107C3000236F984205DC01A8FFF798FE02B0BDE86B
:107C4000F0810121304600F02BFD05460028ECD0E4
:107C500001460022304600F05FFB2A464146384686
:107C6000FCF71CFCE1E700BF54E403201FFD0D00FE
:107C700013B50446002001F0A3F8012805D01249ED
:107C80001248FCF722FC02B010BD04F1740000F0B1
:107C9000DDFD0F4A002300214FF4046001F068F875
:107CA000FFF7E6F9FFF708FB201D00F075FC204602
:107CB000FFF7A4FF074B00936946002304F1C000BF
:107CC0000193FFF709FEDEE732FD0D0054E40320C7
:107CD0006D7A0D0039790D0070B50368044663B103
:107CE000436A45691E1DAE4204D955F8040BFCF7E2
:107CF000D6F9F8E72068FCF7D2F9204670BD2DE9E7
:107D0000F04706468946406A71697368471A09EB6D
:107D1000A7050135B3EB450F144627D95D1B6D0848
:107D20003268AD000CB14FEA89042C441444031DA1
:107D3000A142A3EB010213D9994202D0204605F0DB
:107D40002BF974612368F36003F500733361E31961
:107D50007362E359F36103F500733362BDE8F087A2
:107D60009942EED0381D801A2044E8E703F102085A
:107D70004B452CBF9844C844B8F1005F01D304F0D0
:107D80005BFB4FEA8800FCF786F9A8EB05056D0858
:107D90008246AD000CB14FEA8904726A71690432FF
:107DA0002C449142544403D0521A204605F0F4F872
:107DB0003068FCF774F9C6E900A8C2E72DE9F04184
:107DC00086B004469DF830509DF834302B430F4662
:107DD0001646FFF76BFC0546002842D0434B44494A
:107DE0004448002E18BF33463A46FEF77DFB606FCD
:107DF000059400F03BFDD4F89820D4F89030043A74
:107E0000934204F1780804F1900604F180072BD026
:107E100003B11D60D4F890300433251DC4F89030B0
:107E2000284600F08BFC394603903046FFF7D4FE1D
:107E3000029001F027F8DDE9023200902E492D482A
:107E4000FEF752FB284600F079FC00283ED0204681
:107E5000FFF7AAFD2046FFF7D1FE05A8FFF786FD34
:107E6000012006B0BDE8F08139463046FFF7B4FE88
:107E70006FF06043984202D1204804F0E0FAD4F851
:107E80009C30A26F9A1AE36FA3EBA203012B04D8D4
:107E9000002201214046FFF732FF4FF40070D4F872
:107EA0009C80FCF7F8F8C8F80400D4F8903003B1CF
:107EB0001D60D4F89C301A1DC4F89C205B68C4F87F
:107EC000943003F50072C4F89820A6E7394630468E
:107ED000FFF782FEE36E8342B9D300F0D3FF0028A0
:107EE000B5D007490348FEF7FFFAB3E7DD000E00FF
:107EF00055FD0D0054E40320ADFD0D007DFD0D008A
:107F0000D9FD0D0073B590F8B0300446002B41D078
:107F100090F8B130D0F8A420002B3DD052495348FE
:107F2000FEF7E2FAD4F8A430D3B1261D0021304682
:107F300000F0B6FBD4F8A430984205460DD10121DB
:107F4000304600F0ADFB00222946304600F0E4F94F
:107F5000474946482A46FEF7C7FA0023C4F8A4302A
:107F6000D4F8A00010B1432104F060FA0023C4F853
:107F7000A030D4F8B830C4F8AC303E4B009369461A
:107F8000002304F1C0000193FFF7A6FC00F0BEFC43
:107F9000C4F8A80002B070BD37493448FEF7A4FA0F
:107FA000D4F8BC30C4F8AC30D4F8A4304BB1D4F819
:107FB000A00010B1432104F039FA0023C4F8A03026
:107FC000DBE7606F009400F051FCD4E9203293426B
:107FD00013D0D4F8A02043F8042CD4F88030043B0C
:107FE000C4F880306846FFF7C1FC24491F48FEF7FB
:107FF0007BFA2046FFF7D8FCBFE704F1800104F1CB
:108000009000FFF7E9FD6FF06043984204F17805B6
:1080100002D11B4804F013FAD4F88C20A36F9A42C3
:1080200004D1012211462846FFF769FE4FF4007083
:10803000D4F88C50FCF72FF845F8040CD4F88C30A9
:108040001A1FC4F88C2053F8043CC4F8843003F59C
:108050000072C4F8882003F5FE72C4F88020D4F8BA
:10806000A020C3F8FC21BDE7ECFD0D0054E4032083
:10807000FFFD0D00A57A0D000FFE0D0021FE0D0085
:108080007DFD0D00014B024A1A60704754E4032045
:1080900048FE0D0010B5074B044640F8C03BFCF706
:1080A00013F904F17800FFF717FE201D00F0B2F974
:1080B000204610BD5CFE0D0010B50446FFF7EAFF38
:1080C0002046D02104F0B2F9204610BD01207047AF
:1080D000F8B51F4D1F4B0446294640F8043B03F0FA
:1080E000B6FA1D4904F1140003F0B1FA294604F16F
:1080F000240003F0ACFA0023C4E90E33C4E91233C0
:10810000C4E91433C4E91633C4E9183384F83430AD
:108110002364082363642020FBF7BDFF656C2064A3
:10812000013D6D0800EB850706464FF40070FBF734
:10813000B2FF00F50073C4E9170346F82500E064B8
:10814000A064A0656765236567662046F8BD00BF2B
:10815000DD000E0068FF0D0068FE0D007FB5051DF7
:108160000446284603F0D1FA0E49684603F06FFA38
:108170006946284603F036FB0646684603F01CFABB
:108180006EB1E3680022013B2946684603F058FBC4
:108190006946284603F0B1FA684603F00DFA204616
:1081A00004B070BD6DFE0D0010B5C36B044613B96D
:1081B0003C3000F033FBE06BBDE8104000F036BB14
:1081C000C06B00F03BBB000010B596B0694604469A
:1081D00000F0C4FCD0B9019B5B04224606D51549CA
:1081E0001548FCF75BF9012016B010BD1248134981
:1081F000FCF76BF9204605F0DBFE40F2FF1120464C
:1082000000F0B4FC80B90E492246E9E700F032FFE5
:108210000368022BF1D000F02DFF0A4902680648DE
:10822000FCF753F90020DFE700F024FF064902685D
:10823000F5E700BF7AFE0D005CE4032097FE0D0019
:10824000C8FE0D00B4FE0D00D7FE0D0038B5154672
:10825000044603F0FCF94DB12B783BB104492046AC
:1082600003F07CFA2946204603F078FA204638BD10
:10827000D4010E007FB505460E461C464969684686
:1082800003F0FEFA009904B9746A22462846FFF703
:10829000DDFF684603F090F9284604B070BD000089
:1082A00070B50C468EB01A49CDE90032054603F090
:1082B000CEF9E069E16801440431284603F09AF9F7
:1082C000211D06A803F00EFA124902A803F0BFF917
:1082D00002A906A803F053FADDE90032064621465A
:1082E0000AA8FFF7C7FF0AA9304603F048FA01467B
:1082F000284603F0E8F90AA803F05EF902A803F0A3
:108300005BF906A803F058F928460EB070BD00BF0F
:10831000DD000E006DFE0D002DE9F04713468EB016
:1083200005460F46002A4AD0406800F02FFC06465A
:10833000002841D0DFF8B0A0DFF8A490DFF8A480D7
:10834000304600F02BFC002833D0827A082AF7D17F
:1083500000F10B04696901AA204600F063FE0128C0
:10836000EED1019B9F42EBD1291D06A803F0BAF97B
:1083700051460AA803F06BF90AA906A803F0FFF911
:10838000214603F008FA014602A803F0ABF90AA857
:1083900003F012F906A803F00FF9029805F008FEA1
:1083A0004046029A4946FEF79FF802A803F004F9F6
:1083B000C6E7304600F0FAFB0EB0BDE8F0870A468B
:1083C00001460AA8FFF76CFF0A9805F0F1FD0A9A2A
:1083D00003490448FEF788F80AA803F0EDF8EBE734
:1083E0006FFE0D005CE403206DFE0D0070B50368A8
:1083F000044663B1436A45691E1DAE4204D955F86F
:10840000040BFBF74CFEF8E72068FBF748FE20461C
:1084100070BD000010B5094B044640F8403BFFF723
:10842000E5FF04F1240003F0C7F804F1140003F0A1
:10843000C3F8201D03F0C0F8204610BD68FF0D00F2
:1084400010B50446FFF7E6FF2046682103F0EEFF73
:10845000204610BDC368CA689B1A9B105A1ED0E9FB
:1084600000301B1A9B1003EBC21388680A68801A3D
:1084700003EBA000704700002DE9F0470446884652
:1084800000F108011830FFF7E5FF6FF060439842F4
:1084900002D1374803F0D3FF626A20686368111A7B
:1084A000A3EBA101012921D86169571ABE10B51C9F
:1084B000B3EB450F36D95D1B6D0800EB8505131D29
:1084C000A942A3EB010227D9994202D0284604F021
:1084D00063FD65612B68E36003F500732361EB19AD
:1084E0006362EB59E36103F5007323624FF400709C
:1084F000656AFBF7D0FD6860A36913B1D8F8002066
:108500001A60636A1A1D62625B68E36103F50072B8
:108510002262A361BDE8F0879942DAD0381D801A43
:108520002844D4E703F10209012B2CBF994409F137
:108530000109B9F1005F01D303F07EFF4FEA890022
:10854000FBF7A9FD626A6169A9EB050504326D08B4
:108550009142824600EB850503D0521A284604F06A
:108560001BFD2068FBF79BFDC4E900A9B1E700BF34
:108570007DFD0D0038B5056A8269043DAA420346B7
:1085800006D00AB1096811609A6904329A6138BD4F
:10859000FFF772FFFBE700002DE9F047C368012BEE
:1085A00086B0044608D834493448FBF78EFF0026CD
:1085B000304606B0BDE8F0874068FFF705FE064686
:1085C0000028F4D0636962682D492C48FDF78CFFC0
:1085D000606800F0DBFA07460028E8D00023DFF8E7
:1085E000A490DFF89880A363384600F0D7FA0546D8
:1085F000002839D0837A082BF6D10B35616901AA9E
:10860000284600F00FFD0128EED1E36A7BB1294630
:1086100002A803F01CF804F1240102A803F0E2F818
:10862000824602A802F0C8FFBAF1000FDCD023682E
:1086300029469B68204698470028D5D0019AA36B0D
:108640009342B8BFA2632B4649464046FDF74CFF14
:108650002046FFF7A9FD04F1400001A9FFF78AFFBA
:108660002046FFF7ADFDBFE7384600F09FFA012333
:1086700084F834309CE700BFEDFE0D005CE403207D
:1086800002FF0D001EFF0D0010B590F834300446B7
:108690000BB9FFF781FFA06B0130A06310BD000094
:1086A00070B590F8343004460E460BB9FFF774FFEE
:1086B0002046FFF779FDA36CA26D93421ED01D6882
:1086C0002EB1226D043A93420CD00433A3642046A9
:1086D000FFF776FD25B10A490A482A46FDF704FF4F
:1086E000284670BDE06CFBF7DAFC636D1A1D62650D
:1086F0005B68E36403F500722265E7E70025E6E7BF
:1087000034FF0D005CE4032013B590F83430019180
:1087100004460BB9FFF740FF019BA26B9A42B8BF1A
:10872000A3632046FFF740FD01A904F14000FFF7D5
:1087300021FF2046FFF744FD02B010BD38B50446C6
:10874000FFF732FD04F1480104F15800FFF782FE03
:1087500005462046FFF734FD284638BD014B024A46
:108760001A6070475CE4032051FF0D0008B5024B0E
:108770001B685B6C019308BD7402030008B5024BD3
:108780001B685B68019308BD4802030008B5024BF3
:108790001B689B68019308BD4802030008B5024BA3
:1087A0001B68DB68019308BD4802030008B5024B53
:1087B0001B681B69019308BD4802030008B5024B02
:1087C0001B685B69019308BD4802030008B5024BB2
:1087D0001B68DB69019308BD4802030008B5024B22
:1087E0001B681B6A019308BD4802030008B5024BD1
:1087F0001B685B6A019308BD4802030008B5024B81
:108800001B689B6A019308BD4802030008B5024B30
:108810001B68DB6A019308BD4802030008B5024BE0
:108820001B681B6B019308BD4802030008B5024B8F
:108830001B689B6B019308BD4802030008B5024BFF
:108840001B681B6C019308BD4802030008B5024B6E
:108850001B685B6C019308BD4802030008B5024B1E
:108860001B689B6C019308BD4802030008B5024BCE
:108870001B68DB6C019308BD4802030008B5024B7E
:108880001B685B6D019308BD4802030008B5024BED
:108890001B689B6D019308BD4802030008B5024B9D
:1088A0001B68DB6E019308BD4802030008B5024B4C
:1088B0001B681B6F019308BD4802030008B5024BFB
:1088C0001B685B6E019308BD3402030008B5024BC0
:1088D0001B68DB6E019308BD3402030008B5024B30
:1088E0001B685B68019308BD1802030008B5024BC2
:1088F0001B689B68019308BD1802030008B5024B72
:108900001B68DB68019308BD1802030008B5024B21
:108910001B685B69019308BD1802030008B5024B90
:108920001B689B6D019308BD1802030008B5024B3C
:108930001B68DB6D019308BD1802030008B5024BEC
:108940001B685B6E019308BD1802030008B5024B5B
:108950001B689B6E019308BD1802030008B5024B0B
:108960001B685B68019308BD2C02030008B5024B2D
:108970001B689B68019308BD2C02030008B5024BDD
:108980001B68DB68019308BD2C02030008B5024B8D
:108990001B681B69019308BD2C02030008B5024B3C
:1089A0001B685B69019308BD2C02030008B5024BEC
:1089B0001B689B69019308BD2C02030008B5024B9C
:1089C0001B68DB69019308BD2C02030008B5024B4C
:1089D0001B681B6B019308BD2C02030008B5024BFA
:1089E0001B68DB68019308BD2802030008B5024B31
:1089F0001B689B69019308BD2802030008B5024B60
:108A00001B68DB69019308BD2802030008B5024B0F
:108A10001B681B6A019308BD2802030008B5024BBE
:108A20001B685B6A019308BD2802030008B5024B6E
:108A30001B689B6A019308BD2802030008B5024B1E
:108A40001B68DB6A019308BD2802030008B5024BCE
:108A50001B681B6B019308BD2802030008B5024B7D
:108A60001B685B6B019308BD2802030008B5024B2D
:108A70001B681B6C019308BD2802030008B5024B5C
:108A80001B689B6C019308BD2802030008B5024BCC
:108A90001B68DB6C019308BD2802030008B5024B7C
:108AA0001B681B6D019308BD2802030008B5024B2B
:108AB0001B685B69019308BD6402030008B5024BA3
:108AC0001B689B68019308BD6802030008B5024B50
:108AD0001B68DB68019308BD6802030008B5024B00
:108AE0001B68DB69019308BD3002030008B5024B27
:108AF0001B681B6A019308BD3002030008B5024BD6
:108B00001B681B68019308BD8402030008B5024B73
:108B10001B685B68019308BD8402030008B5024B23
:108B20001B689B68019308BD8402030008B5024BD3
:108B30001B68DB68019308BD8402030008B5024B83
:108B40001B685B69019308BD8402030008B5024BF2
:108B50001B681B6A019308BD8402030008B5024B21
:108B60001B685B6A019308BD8402030008B5024BD1
:108B70001B689B6A019308BD8402030008B5024B81
:108B80001B681B6B019308BD8402030008B5024BF0
:108B90001B68DB6B019308BD8402030008B5024B20
:108BA0001B681B6C019308BD8402030008B5024BCF
:108BB0001B685B6D019308BD8402030008B5024B7E
:108BC0001B681B68019308BD3C02030008B5024BFB
:108BD0001B689B68019308BD3C02030008B5024B6B
:108BE0001B68DB68019308BD3C02030008B5024B1B
:108BF0001B681B69019308BD3C02030008B5024BCA
:108C00001B685B69019308BD3C02030008B5024B79
:108C10001B689B69019308BD3C02030008B5024B29
:108C20001B68DB69019308BD3C02030008B5024BD9
:108C30001B681B6A019308BD3C02030008B5024B88
:108C40001B689B6A019308BD3C02030008B5024BF8
:108C50001B68DB6A019308BD3C02030008B5024BA8
:108C60001B681B68019308BD4C02030008B5024B4A
:108C70001B685B68019308BD4C02030008B5024BFA
:108C80001B689B68019308BD4C02030008B5024BAA
:108C90001B681B69019308BD4C02030008B5024B19
:108CA0001B685B69019308BD4C02030008B5024BC9
:108CB0001B689B69019308BD4C02030008B5024B79
:108CC0001B68DB69019308BD4C02030008B5024B29
:108CD0001B681B6A019308BD4C02030008B5024BD8
:108CE0001B685B6B019308BD6002030008B5024B73
:108CF0001B681B6D019308BD6002030008B5024BA1
:108D00001B685B6D019308BD6002030008B5024B50
:108D10001B68DB6E019308BD6002030008B5024BBF
:108D20001B681B6F019308BD6002030008B5034B6D
:108D30001B68D3F89830019308BD0000600203005F
:108D400008B5024B1B681B68019308BD2002030095
:108D500008B5024B1B685B68019308BD2002030045
:108D600008B5024B1B685B69019308BD2002030034
:108D700008B5024B1B681B6A019308BD2002030063
:108D800008B5024B1B68DB6A019308BD2002030093
:108D900008B5024B1B689B6B019308BD20020300C2
:108DA00008B5024B1B68DB6C019308BD2002030071
:108DB00008B5024B1B685B6D019308BD20020300E0
:108DC00008B5024B1B689B6D019308BD2002030090
:108DD00008B5024B1B68DB6D019308BD2002030040
:108DE00008B5034B1B68D3F88830019308BD000019
:108DF0002002030008B5034B1B68D3F8943001939D
:108E000008BD00002002030008B5034B1B68D3F81F
:108E1000A830019308BD00002002030008B5034BF1
:108E20001B68D3F8AC30019308BD0000200203009A
:108E300008B5034B1B68D3F8B030019308BD0000A0
:108E40002002030008B5024B1B681B68019308BD94
:108E50004402030008B5024B1B685B68019308BD20
:108E60004402030008B5024B1B689B68019308BDD0
:108E70004402030008B5024B1B68DB68019308BD80
:108E80004402030008B5024B1B685B69019308BDEF
:108E90004402030008B5024B1B68DB69019308BD5F
:108EA0004402030008B5024B1B681B6A019308BD0E
:108EB0004402030008B5024B1B685B6A019308BDBE
:108EC0004402030008B5024B1B68DB6A019308BD2E
:108ED0004402030008B5024B1B681B6B019308BDDD
:108EE0004402030008B5024B1B685B6B019308BD8D
:108EF0004402030008B5024B1B689B6B019308BD3D
:108F00004402030008B5024B1B68DB6B019308BDEC
:108F10004402030008B5024B1B685B6C019308BD5B
:108F20004402030008B5024B1B685B68019308BD4F
:108F30004002030008B5024B1B689B68019308BD03
:108F40004002030008B5024B1B68DB68019308BDB3
:108F50004002030008B5024B1B681B69019308BD62
:108F60004002030008B5024B1B685B69019308BD12
:108F70004002030008B5024B1B689B69019308BDC2
:108F80004002030008B5024B1B68DB69019308BD72
:108F90004002030008B5024B1B681B6A019308BD21
:108FA0004002030008B5024B1B681B6B019308BD10
:108FB0004002030008B5024B1B685B6B019308BDC0
:108FC0004002030008B5024B1B681B6C019308BDEF
:108FD0004002030008B5024B1B685B6C019308BD9F
:108FE0004002030008B5024B1B681B68019308BDD3
:108FF0001C02030008B5024B1B685B68019308BDA7
:109000001C02030008B5024B1B689B68019308BD56
:109010001C02030008B5024B1B681B69019308BDC5
:109020001C02030008B5024B1B685B69019308BD75
:109030001C02030008B5024B1B68DB69019308BDE5
:109040001C02030008B5024B1B685B6A019308BD54
:109050001C02030008B5024B1B68DB6A019308BDC4
:109060001C02030008B5024B1B681B6B019308BD73
:109070001C02030008B5024B1B68DB6B019308BDA3
:109080001C02030008B5024B1B685B6C019308BD12
:109090001C02030008B5024B1B689B6C019308BDC2
:1090A0001C02030008B5024B1B68DB6C019308BD72
:1090B0001C02030008B5024B1B681B6D019308BD21
:1090C0001C02030008B5024B1B685B6D019308BDD1
:1090D0001C0203008A4210B507D0029C401AE41A11
:1090E0006043521A90FBF2F0184410BD0021FFF7C4
:1090F00037BE10B5836804460BB903F0A3F9C36803
:109100009847A3681BB10322214620469847204672
:109110001021BDE8104003F089B90B68036013B15A
:109120005A6801325A607047024800230360FFF713
:109130008DBB00BF60E40320002240681146FFF7AA
:1091400009BF002240681146FFF724BF0022406893
:109150001146FFF72FBF40680022FFF723BF40688A
:10916000002281F00101FFF70DBF002340681A467D
:109170001946FFF7F7BE002240681146FFF7DABE36
:10918000406800220221FFF7DDBE002340681A4636
:10919000FFF7C8BEF0B51B4B036000250F46303308
:1091A0001826C0E9025589B0436032462946044674
:1091B000103003F00BFF78682A462946FFF7CAFEF5
:1091C00018B9A060204609B0F0BD2946324602A871
:1091D000CDE9005503F0FAFE02A96846ADF8086033
:1091E000FFF7C4FA10B10123A360EBE7009B019ADB
:1091F000A360E2600BB90223A36002A9204600F03D
:10920000C0F8DFE7B8FF0D00084B10B52824224650
:109210001846002103F0DAFE054B04804FF0FF32C0
:10922000426004225A60034A1A6010BD6CE40320B5
:1092300064E403207CFF0D007047007D7047037DD0
:109240004BB18369B3F1004F05D0006AB0F1004023
:1092500018BF012070470020704703681B6A184739
:1092600010B52821044603F0E1F8204610BD0000A7
:10927000037D7BB1C369002B0CDB07EE903A9FEDB9
:10928000077AF8EEE77A87EE870ADFED057A20EEB7
:10929000270A7047BFEE000A704700BF00FF7F47F4
:1092A0000000C842037D63B18369B3F1004F08D069
:1092B00007EE903A9FED047AF8EEE77A87EE870A98
:1092C00070479FED020A70470000C842000000008E
:1092D000037D7BB1436A002B0CDB07EE903A9FEDD8
:1092E000077AF8EEE77A87EE870ADFED057A20EE57
:1092F000270A7047BFEE000A704700BF00FF7F4794
:109300000000C842037D63B1036AB3F1004F08D087
:1093100007EE903A9FED047AF8EEE77A87EE870A37
:1093200070479FED020A70470000C842000000002D
:1093300070B50C1E06460ADA2D2102F0CEF8614205
:1093400005460A22304602F0D7F8284470BD21466F
:109350000025F6E770B50C46054681682046FFF704
:10936000E7FF2C210646204602F0B7F8E9680644DC
:109370002046FFF7DDFF304470BDA0F10400FFF789
:10938000E9BF30B50D4600F110040FCD0FC495E8CC
:10939000030084E80300012030BD704700207047BF
:1093A00010B51021044603F041F8204610BD08B561
:1093B000FFF7F6FF08BD30B500224FF69C7402603F
:1093C00084808D888C800C68858004600A6030BD44
:1093D00010B504460068FFF70DFE204610BD38B5F5
:1093E000C468F4B12378022B03D104F10C00FFF719
:1093F000EFFF656835B12846FAF766FF1021284669
:1094000003F014F8A56835B12846FAF75DFF10217E
:10941000284603F00BF820461421BDE8384003F03D
:1094200005B838BD10B588B00446684602F00FF99B
:10943000694604A802F056F904A8A047044604A807
:1094400002F0BAF8684602F0B7F8204608B010BD3E
:109450001FB50023CDE90201019210241A46694686
:109460001846ADF80230ADF80040FFF7F3FC04B049
:1094700010BD1FB50C23ADF8043003688DF806301D
:10948000037A8DF80730436802930021437AADF8E0
:109490000D1001A88DF80F108DF80C30FFF73AFD74
:1094A00005B05DF804FB1FB50C22ADF8042002687E
:1094B0008DF80620027A8DF8072042680292002378
:1094C000427A8DF80C20194601AA0220ADF80D3021
:1094D0008DF80F30FFF70EFD05B05DF804FB73B596
:1094E0000E46044656F8043B00930D4601A831464B
:1094F000FFF713FE019A009B6260236001A800231E
:1095000001930093FBF788FA3046FBF785FA28466B
:10951000082102F08BFF204602B070BD826810B5B2
:109520000AB902F08FFFBDE81040C368184708B5BC
:10953000006800F11001FFF7F1FF08BD826810B567
:109540000AB902F07FFFBDE81040C368184708B5AC
:10955000006800F11001FFF7F1FF08BD38B50023E6
:109560000446036010200D46FAF795FD28B101234B
:10957000C0E90133024B0360C5602060204638BD5E
:10958000F4FF0D0038B5002383608B6804460D4658
:109590002BB102229847EB68E360AB68A3602046DA
:1095A00038BD0000F0B589B004686846FFF703FFD6
:1095B0004FF00203D4E84F2F002A03D1C4E8413F03
:1095C0000029F7D125D104F10C0569462846FFF79B
:1095D000F2FEBFF35B8F01236370002004F10803E8
:1095E000BFF35B8F53E8006F43E80002002AF9D114
:1095F000BFF35B8F6EB1FFF7D3FB78B129463046DE
:10960000FFF78CFF3046FAF75FFE1021304602F07C
:109610000DFF6846FFF7DCFE09B0F0BD314602A839
:10962000FFF7B0FFE068B4F9105008B103F024FD73
:1096300006901020ADF81C50FAF72DFD0546E8B154
:10964000002787601820FAF726FD044688B10146F6
:10965000876002A8FDF7C7FD049BA268A360059B75
:10966000049206A9E268E36004F110000592FFF796
:10967000A2FE084BEB60084B2C60AB6006A8FFF71E
:10968000A7FE02A8FAF720FE002229460348FFF7AA
:109690008FFBB7E72F950D00C5970D00F3900D00D8
:1096A0002DE9F0478AB005469DF848900C461746CC
:1096B0009846FFF7E7FB07AE824638BB4FF62E739E
:1096C000059005A93046ADF81830FFF774FE142058
:1096D000FAF7E1FC044648B1022303700123C0E914
:1096E00001AA437031460C30FFF765FE284621463B
:1096F00040F8044BFFF732FF3046FFF769FE05A83C
:10970000FFF766FE28460AB0BDE8F0870C234FF04D
:10971000000A1420CDE908AA0793FAF7BCFC014619
:1097200028B1C0E901AA80F800A080F801A004A82F
:109730000391FFF713FF224B08930820FAF7ABFCC5
:10974000824628B1039B40F8043B04A9FFF7E5FCDF
:1097500000965FFA89F3424639462046CDF824A0A8
:10976000FFF7A0FBB8B9039B5B7803F0FF0293B946
:109770004FF69C7305A903A80592ADF81830FFF7C2
:1097800011FF05A8FFF724FE05A80999FFF7A7FE1A
:1097900006A8FBF741F9039B059304A906A8FFF768
:1097A000BCFC059B069A2B606A60002306A8069302
:1097B0000593FBF731F904A8FBF72EF9A2E700BFE8
:1097C00089980D00022AF8B5054607D0032A18D05B
:1097D000012A01D10B6803600020F8BD18200E6833
:1097E000FAF759FC044650B13146FFF7CBFE306919
:1097F000B6F9147008B103F03FFC2061A7822C6019
:10980000EAE70468002CE7D004F11000FFF7E0FD60
:109810002046FAF759FD1821204602F007FEDBE743
:1098200038B5002383608B6804460D462BB10222B5
:109830009847EB68E360AB68A360204638BD022A16
:1098400070B5044607D0032A12D0012A01D10B6853
:109850000360002070BD14200E68FAF71CFC05465A
:1098600020B13146FFF7DCFF337C2B742560F0E735
:109870000468002CEDD02046FAF726FD142120467E
:1098800002F0D4FDE5E70000F0B589B004460D46CE
:1098900001A81146FFF723FEA4B124B21DB128464A
:1098A00003F0EAFB054601A803A90395ADF81040B3
:1098B000FFF778FE03A8FFF78BFD02A8FBF7ACF8D3
:1098C00009B0F0BD019D0123D5E84F2F002A03D137
:1098D000C5E8413F0029F7D1EFD12B73BFF35B8F70
:1098E0006B702B1DBFF35B8F53E8006F43E80042A2
:1098F000002AF9D1BFF35B8F002EDED02046FFF7A0
:109900004FFA074660B105F10C013046FFF716FE2D
:109910003046FAF7D9FC1021304602F087FDCCE73B
:10992000314603A8FFF77CFF2B7B8DF81C301020FD
:10993000FAF7B1FB0546D0B187601420FAF7ABFB0C
:10994000044678B18760014603A8FDF74CFC059BEF
:10995000A268A360069B0592E268E3609DF81C3054
:1099600006922374064BEB60064B2C60AB6003A899
:10997000FAF7AAFC002229460348FFF719FAC7E7BD
:109980004F950D003F980D00F3900D0000224068A8
:109990001146FFF7FFBA002240681146FFF70ABBE5
:1099A00040680022FFF7FEBA4068002281F0010102
:1099B000FFF7E8BA002340681A461946FFF7DABAFB
:1099C000002340681A461946FFF7CCBA00224068C7
:1099D0001146FFF7BFBA002240681146FFF7AABA46
:1099E000406800220221FFF7ADBA002340681A4602
:1099F000FFF798BA024B03225A60024A1A60704776
:109A000094E4032010000E00006800F079B910B54E
:109A10000446016002710AB1FFF7F6FF204610BD4F
:109A200013B50446019102F0DDFC019A014620467F
:109A3000FFF7EDFF204602B010BD006800F069B9E5
:109A40002DE9FF4104460D4617461E46FFF7DCFF91
:109A500036238DF800300023206801934FF0010871
:109A60000A23694603938DF8088000F02DF92068D9
:109A7000036829469B6898472068414600F03CF9F6
:109A8000054640B16FF09F052046FFF7D6FF2846F8
:109A900004B0BDE8F081022320680193694600F01C
:109AA000E3F80228EED1206803685B6998473870B4
:109AB000206803685B6998473070E5E707B50023C5
:109AC0008DF806308DF807300DF106020DF1070311
:109AD0000421FFF7B5FFB0B99DF8070002F008FEBA
