:02000002D0002C
:1040000000400D0098080E00000006000D0005019C
:0840100004019A080000000001
:0440180088F10D001E
:1040200009480A49884208B505D0094A824202D0A7
:10403000121A08F0ABFF0748074A0021121A08F0CD
:10404000CDFF014808BD00BFA8DF032084050E0096
:1040500090E2032090E20320F0E7032070B5074EC2
:10406000074C08F095F8A41BA4080025A54200D130
:1040700070BD56F8043B98470135F7E74C050E0034
:1040800080050E0001F01CB908B501F0FBFCBDE88D
:10409000084008F035B804F0ADBF04F0ABBF04F041
:1040A000B1BF000008B5034A00210C2004F01EFE39
:1040B000FEE700BF0D890D000078B0FA80F04009DE
:1040C00070470123037070477047006A0368DB681C
:1040D00018470000014B1A60704700BFE0DF032063
:1040E000044B00229A60044B06221A70034B0122F3
:1040F0001A70704740E30320CCE3032064E30320FD
:10410000024A01239371024A13707047D8E30320D7
:104110000CE40320014B01221A7070470DE40320C8
:1041200003681847012A03D0022A03D000207047F1
:104130000160FBE70B680360F8E7000010B5054B72
:104140001A7B054B044653F8221007F088FA2046E4
:1041500010BD00BFD8E30320A8DF032008B5044941
:1041600007F036FB18B1034B03221A70012008BD7B
:10417000E0F10D00CCE3032010B5034B03600446CF
:1041800003F0FDF8204610BDA4F80D0010B504465C
:10419000FFF7F2FF2046102108F050F9204610BD2D
:1041A000436913B183690C301847704713B5002178
:1041B0000446084604F012FB0023204601A901939F
:1041C00004F024FB019C0CB1012323710021012088
:1041D00004F004FB2CB1236820469B689847002319
:1041E000237102B010BD08B501F0E2FF10B904F070
:1041F00041FEF9E7BDE8084001F0DABF08B508491B
:1042000007F0E6FA002350B1064A1361064A13612B
:10421000064A1370064B01201870064B187008BD33
:10422000E0F10D00D8E3032040E303206FE3032017
:1042300064E303200CE4032008B5002004F052FEE0
:1042400028B104F027FE80F00100C0B208BD0120B3
:10425000FCE70023042204F0FDBD000030B585B06A
:104260000346144668460D4698470298206004F0BD
:10427000C1FE286050B12268009908F087FE002432
:10428000684607F0A1F9204605B030BD004CF7E7BD
:10429000FCFEFFFF37B59DF818501D438DF8005008
:1042A0003C23044605F004FA204603B030BD00006C
:1042B0000A4B10B50446036006F01AF9214606F0D1
:1042C00018FB07F0D5FE07F0C7FE2046044B40F868
:1042D000043B06F0FBF9204610BD00BF8CF80D0032
:1042E00074F80D0010B50446FFF7E2FF20462421C4
:1042F00008F0A4F8204610BD002340681A4619466D
:1043000004F040BE10B58368044613B10322014691
:104310009847204610BD000037B5134B0360044694
:104320008068C8B100256FF00043CDE90035022157
:104330002B462A4604F072FAA068294604F0BEFA19
:10434000237903F0FF0513B104F030FAF8E7A06811
:10435000294604F053FAA56004F10C00FFF7D2FFE0
:10436000204603B030BD00BF60F80D0010B5044614
:10437000FFF7D2FF20461C2108F060F8204610BD50
:1043800038B5044620252A46002108F027FE65712D
:10439000204638BDF8B5037D05460F4616468BB15D
:1043A0000368DB6883B19A88012A06D09B68F9E725
:1043B0009B684BB19A88012AFAD12BB19A89BA42EB
:1043C000F6D19E732846F8BD0A49102008F038F847
:1043D000044668B11022002108F000FE064B23605D
:1043E0000123A3802B69A360A781A6732C61E9E751
:1043F0002875E7E780020E001000030070B5037D0A
:1044000005460E46CBB10368DB6823B19A88042ABF
:1044100017D09B68F9E70C49102008F011F8044602
:1044200068B11022002108F0D9FD084B2360042355
:10443000A3802B692C61C4E90236284670BD28751B
:10444000FBE7DE60F9E700BF80020E00100003000A
:10445000002004F073BA00000246014805F000B8DD
:1044600035940D00F0B58C460025144905710446BD
:104470008560016092E8030085B002AF04F10C068C
:1044800087E8030096E8030082E8030097E803004A
:1044900086E803009168A0696161D1689560D06089
:1044A000A161CDE90035064A2346614604F10800C2
:1044B00004F09CF9204605B0F0BD00BF60F80D0087
:1044C000AD410D0008B5806828B1002104F0E6F97F
:1044D000003818BF012008BD0EB410B58DB00FAA6A
:1044E000016852F8044B039200232020CDE9040315
:1044F000CDE900421E2004AA04F008FC0DB0BDE87E
:10450000104003B070470EB410B58DB00FAA01680B
:1045100052F8044B039200232020CDE90403CDE997
:104520000042322004AA04F0F1FB0DB0BDE81040B7
:1045300003B0704737B504689DF818508DF8003007
:104540008DF8045024683C23A04703B030BD000020
:1045500070B592B012B3012A28D0013221D1214B7B
:10456000214C002506261D70266107F04AFC1F4AD3
:1045700000903346402102A804F064FD03F07CF96A
:104580001B4B8DF800501B781A4902AAFFF7D2FF87
:1045900094F82030013384F8203002E0114B0122DE
:1045A0001A70154B01221A7012B070BD0D4B0E4DD2
:1045B000002404261C702E6107F023FC0B4A009097
:1045C0003346402102A804F03DFD03F055F9084BA5
:1045D0008DF800401B78074902AAFFF7ABFF85F86A
:1045E0002040DEE770E3032040E3032015F20D00D6
:1045F000DCE2032037F20D0064E3032030B5C9B0DC
:1046000007F0FFFB144B0790144C1A8D0692226999
:1046100005921A690492E2680392197B104A52F8D3
:10462000212002929B680193A3680E4A00934FF4E5
:104630008071636808A804F005FD002503F01CF9EB
:10464000094B8DF800501B78084908AAFFF772FF44
:10465000256149B030BD00BFD8E3032040E303200B
:10466000A8DF03204AF20D00DCE20320D0F20D00A7
:1046700013B5012101A806F068FE0B4BDB68243B53
:10468000402B01A84FF001040AD906F0F1FE074BB8
:104690001C73002401A806F067FE204602B010BD7E
:1046A00006F0CFFEF6E700BF40E30320D8E3032087
:1046B00030B5194D0FCD99B004AC0FC40FCD0FC458
:1046C00095E8030084E8030014490EA804F06AFD8D
:1046D0000EA804F0BAFD04460EA804F0D1FD0EA801
:1046E00010EE105A04F0FCFD18AB10EE100A03EBAC
:1046F000840408F017F8CDE90201284608F012F802
:10470000CDE90001064A54F8503C0648402104F027
:1047100099FC19B030BD00BFB8F80D0064E4032067
:10472000E8F20D0090E2032008B50F2007F0F5FD38
:10473000B0F5C87F05DA322004F0E0FC0F2007F066
:10474000ECFD07F0DDFF20A3D3E9002308F042F8D9
:1047500008F038FBDFED147A07EE100A67EE277ACF
:1047600017EE900A07F0DEFF104B002207F07AFEEA
:104770000F4B002208F02EF808F0DCFA07F0C0FF1B
:104780000C4B002208F026F80B4B002208F04CF9E5
:104790000A4B002207F068FE08F0CCFA084BD860FC
:1047A000084B01221A7008BD000080390000E03F6C
:1047B000000059400000224000001440000040402A
:1047C00040E3032064E303206666666666660A408B
:1047D00000B591B06846FFF7D3FD08A8FFF7D0FDFC
:1047E000002108A804F018FB134B5979A1B141F23C
:1047F000D833ADF80630114B029341F27003ADF897
:104800000C30009B43F4007300930021684604F0D1
:1048100003FB11B05DF804FB41F27003ADF8063004
:10482000074B029341F21003ADF80C30009B43F4A8
:1048300000730093EAE700BFD8E303208403000479
:1048400084038403244B1A69D3ED057AFF2ABAEE58
:10485000087A88BF0022F4EEC77A88BF1A61F1EEA9
:1048600010FA06D4B2EE087AF4EEC77AF1EE10FA36
:1048700001DD1A4A5A61D3ED067AF5EEC07AF1EEFF
:1048800010FA06D4B0EE007AF4EEC77AF1EE10FA20
:1048900002DD4FF07E529A611A7F0C2A84BF0022FB
:1048A0001A775A7F0C3A0C2A84BF18225A770C4A7E
:1048B00011681A8D8A4284BF00221A8501225A711A
:1048C000084B188B81423FBF00211983064B1A7099
:1048D000064B01221A707047D8E303200000A0C0E5
:1048E000CCDF032040E3032064E303200CE4032037
:1048F00010B5134CA38BB3F5C05F09D11149124811
:1049000008F0B9FBBDE810400E49104808F0B3BBF1
:10491000237F0F4A0C48082104F094FB637F0C4A64
:104920000A48082104F08EFBA37910222BB1094913
:104930000948BDE8104008F0DEBB0849F8E700BFB1
:10494000D8E3032001F30D00D6DF0320C4DF0320EA
:1049500004F30D000EF30D00B4E303200AF30D0081
:1049600070B592B007F04DFA184C194B206094F8CE
:104970002000184E00251D610121642302282561B5
:104980002583E361317017D92A46084604F008FAF6
:10499000256107F036FA104A00902B46402102A804
:1049A00004F050FB02F068FF0C4B8DF800501B78B0
:1049B0000B4902AAFFF7BEFD0A4A002384F8203003
:1049C00001233370137012B070BD00BF40E30320A9
:1049D000D8E3032064E3032015F20D00DCE203209A
:1049E00037F20D000CE4032038B5046805467CB1AD
:1049F0006368013B63605BB9236820469B68984706
:104A0000A368013BA3601BB923682046DB68984775
:104A1000284638BD10B51A4A1A4C1268238D013247
:104A200093428CB025D900232385238D164A20215B
:104A300004A804F007FB154804A9FFF74DFD2379EE
:104A400083B1E37873B1FFF7CEFB00238DF800301C
:104A50000F4B10491B7802A804AAFFF71BFC03A800
:104A6000FFF7C2FF0C4A012313700C4A13700CB0FD
:104A700010BD0B4A118B994238BF1383D5E700BF95
:104A8000CCDF0320D8E3032018F30D0038E5032022
:104A9000DCE203202DF30D000CE4032064E303208B
:104AA00040E3032030B50B781F4D95B00C46C3B9D9
:104AB0001E4904A808F0DFFA2B7983B1EB7873B1B3
:104AC000FFF791FB00238DF80030194B19491B7833
:104AD00002A804AAFFF7DEFB03A8FFF785FF15B0C5
:104AE00030BD084608F03CFAC8280DD1124904A888
:104AF00008F0C1FA07F085F9104B286201221A70FC
:104B00000F4B00221A70D7E7204608F029FAC9286F
:104B1000ECD0204608F024FA0A4A0346402104A8B3
:104B200004F090FAC8E700BFD8E3032036F30D0085
:104B3000DCE203206DF30D003EF30D000CE40320D6
:104B40006FE3032050F30D001FB50C4906F040FE43
:104B500088B100238DF80030094B0A4A1B780A49B6
:104B600002A8FFF797FB03A8FFF73EFF07480A21BB
:104B700001F00AFF012005B05DF804FBE0F10D0033
:104B8000DCE203207AF30D009AF70D00ECE203203B
:104B900030B51D4985B0054606F01AFE0446D8B169
:104BA0001A4D01246C71FFF713FE194B1C70EB7842
:104BB00013B9012005B030BD164B174A1B788DF88C
:104BC0000030164B1B78164902A8FFF763FB03A8B9
:104BD000FFF70AFF2046EDE71249284606F0F8FDE8
:104BE0000028E7D0094D0A4B6C7101241C70FFF7B7
:104BF000EFFDEB78002BDCD0064B0B4A1B788DF8D1
:104C00000030064B1B78DEE7E0F10D00D8E303200F
:104C10000CE40320DDE2032092F30D00DCE203202C
:104C2000BFF30D0008F30D00A9F30D0030B51B49CB
:104C300085B0054606F0CCFD0446C8B1184B194AAC
:104C400001241C71DB78147013B9012005B030BD4C
:104C5000154B164A1B788DF80030154B1B781549FB
:104C600002A8FFF717FB03A8FFF7BEFE2046EDE7FB
:104C70001149284606F0ACFD0028E7D0084B094A48
:104C80001C71DB7801241470002BDED0064B0B4A1C
:104C90001B788DF80030064B1B78E0E7E0F10D0043
:104CA000D8E303200CE40320DDE20320C4F30D006D
:104CB000DCE20320BFF30D0008F30D00D5F30D0077
:104CC00000B50D4B0D4A1B7FC5B04FF4807104A891
:104CD00004F0B8F90A4B0B491B788DF800300A4BE9
:104CE00004AA1B7802A8FFF7D5FA03A8FFF77CFEF9
:104CF000012045B05DF804FBD8E30320EAF30D0082
:104D0000DDE20320DEF40D00DCE2032013B50A220D
:104D1000006801A909F012F917280CD8074C207770
:104D2000FFF7E6FD064B01201870E3780BB1FFF7A3
:104D3000C7FF02B010BD0020FBE700BFD8E303208F
:104D40000CE4032030B5C7B000680A2203A909F0BB
:104D5000F5F818281FD8114D6877FFF7C9FD104BDB
:104D6000104A01241C704FF480716B7F06A804F078
:104D700069F9EB786BB10C4B0C491B788DF800305E
:104D80000B4B04A81B7806AAFFF784FA05A8FFF7C7
:104D90002BFE204600E0002047B030BDD8E30320C2
:104DA0000CE40320FEF30D00DDE20320DEF40D0031
:104DB000DCE2032030B5204985B0054606F008FD49
:104DC000B8B11D49284606F003FD0446C8B91B4981
:104DD000284606F0FDFC40B1194DAC71FFF788FD87
:104DE000EB7833BB174B05221A70174B0120187054
:104DF00005E01249284606F0EBFC0028E1D105B099
:104E000030BD0F4C0123A371FFF772FDE378002B37
:104E1000EBD001F0CDF900238DF800300B4B0C4A9C
:104E20001B780C4902A8FFF735FA03A8FFF7DCFD51
:104E3000DBE78DF80040F1E7E0F10D0008F30D002D
:104E4000D8E30320CCE303200CE40320DCE20320BE
:104E5000B4E30320BFF30D0070B5414B00228CB0CA
:104E60005868114604F07EF808B1FFF721FCFFF7FF
:104E70005BFC002203A90720039203F05FFFB8B98F
:104E8000039C0CB1236923B9364A00210A2003F0A0
:104E90002DFF0023ADF812300C23ADF8103002AB1B
:104EA000059304230693236904AA01212046984709
:104EB0002D4C0028A8BF02982073FFF7D9FBA379D7
:104EC00053B14FF4FA7004F019F9284804F063FE66
:104ED0004FF4FA7004F012F9244804F0F7FDFDEEE7
:104EE000C07A17EE903A402BC4ED027A09DC237B9E
:104EF000012B06D104A8FFF743FA002104A803F010
:104F00008BFF1B4DA368EA691A4E9342BEBF012274
:104F1000EB6132701D2B1FDC0123E371A3794BB9C8
:104F2000154904A806F09BFB04A8FFF743FF04A85B
:104F300006F04AFB132007F0F0F9642300930023E6
:104F4000194640F68A6204F0CDF80C4A68600123E5
:104F5000137033700CB070BD0023E371EAE700BF3B
:104F600064E403200D890D00D8E3032084E30320CB
:104F700040E3032064E30320E0F10D000CE4032090
:104F800070B586B0006803A908F004FFB5EEC00A4A
:104F9000F1EE10FA2DD4DFED187AB4EEE70AF1EE57
:104FA00010FACCBF0126002623DC144B144D01243B
:104FB0001C7010EE100A85ED0B0A07F0B3FB114AC6
:104FC000CDE900011048082104F03CF82B796BB1C1
:104FD000EB785BB10D4B8DF8006004A81B780A4A92
:104FE0000B49FFF757F905A8FFF7FEFC204606B06E
:104FF00070BD0024FAE700BF0000C8420CE40320A3
:10500000D8E3032015F40D001EE40320DCE20320A6
:105010009EF50D0070B586B000680A2203A908F05D
:105020008DFF07EE900AF8EEE77AF5EEC07AF1EE22
:1050300010FA2BD49FED167AF4EEC77AF1EE10FA3F
:10504000CCBF0126002621DCFDEEE77A114A124D85
:105050001248C5ED0C7A012417EE903A1470102115
:105060000F4A03F0EFFF2B796BB1EB785BB10D4B7F
:105070008DF8006004A81B78084A0B49FFF70AF96D
:1050800005A8FFF7B1FC204606B070BD0024FAE782
:1050900000007A440CE40320D8E303200EE403204C
:1050A0001EF40D00DCE2032018F50D0030B5164C9F
:1050B000164D2278164902EB02132A788FB002EBC4
:1050C00002120A440B4400922821124A04A803F059
:1050D000B9FF2B782370104B1A799AB1DB786BB13A
:1050E0000E4B0F491B788DF800300E4B02A81B7831
:1050F00004AAFFF7CFF803A8FFF776FC0A4804A933
:10510000FFF7EAF90FB030BDC4E30320CCE303207E
:10511000E4DF032029F40D00D8E30320DDE20320BF
:1051200037F40D00DCE2032038E503202DE9F047D9
:10513000244B254A1B782549254C86B002A88DF8BA
:105140000030244B1B78FFF7A5F8002503A8FFF7D4
:105150004BFC257103F09EFE10B1284603F0BAFE09
:10516000FFF776F94FF0000A054647F22F584FF047
:105170000009FFF76DF9461B61EB0A07B94508BF47
:10518000B04505D3FFF758F810B903F073FEF0E708
:10519000FFF752F8637913B9A368462B09DC0E496F
:1051A00002A806F05CFA02A8FFF704FE02A806F0C7
:1051B0000BFAFFF7D5FB094B01221A7006B0BDE8C8
:1051C000F08700BFDDE2032048F40D0050F40D002D
:1051D000D8E30320DCE20320E0F10D000CE403201F
:1051E00070B5D0E900531426044606FB0356AE42C0
:1051F00004D0284606F0E8F91435F8E7206803F0F3
:1052000001FF204670BD38B503681446DD683423BD
:10521000A847204638BD000010B51F4CE37886B083
:1052200073B1FEF7E0FF00238DF800301B4B1C4AE2
:105230001B781C4902A8FFF72DF803A8FFF7D4FB41
:1052400019481A49FFF748F9012323700420002365
:105250002371A370E37107F04DF8D8B1144902A887
:1052600006F0FDF902A8FFF7A5FD02A806F0ACF9CB
:10527000104B63614FF07E53A36141F20463A3833B
:1052800001210023044A0C4861712385FFF7BBFF0D
:1052900006B010BD0949E2E7D8E30320DCE20320B1
:1052A0005EF40D00BFF30D0038E5032076F40D0029
:1052B000E0F10D000000A0C074E3032008F30D002E
:1052C000F0B50021B9B0082006F0EAFF0021042063
:1052D00006F0E6FF0121072006F0E2FF012107208A
:1052E00006F0EFFF04A8002403F0DCFD00237D227C
:1052F00018A904A806F093FABF4923462246CDE92F
:10530000004418A803F0DEFDBC4A234600214FF4F8
:10531000807003F035FDBA4A234600214FF4802007
:1053200003F02EFD23460222B649B74803F092FD52
:10533000B649B748FEF78DFFB649B7482346022263
:1053400003F088FD23460222B449B54803F082FDEC
:10535000B449B548FEF77DFF23460222B349B4485D
:1053600003F078FDB349B448FEF773FFB349B4487E
:10537000FEF76FFFB349B448FEF76BFF23460222E6
:10538000B249B34803F066FDB249B348FEF761FF86
:105390000C23CDE90844ADF82030B04BB0490A9356
:1053A000042208ABAF4803F055FDAF49AF48FEF704
:1053B00050FFAF49AF48FEF74CFFAF49AF48FFF78A
:1053C0004BF8AF49AF48FFF747F8AF49AF48FFF791
:1053D00043F8AF49AF48FFF73FF8AF49AF48FFF791
:1053E0003BF8AF49AF48FFF737F8AF49AF48FFF791
:1053F00033F8AF49AF48FFF72FF8AF49AF48FFF791
:105400002BF8AF49AF48FFF727F8AF49AF48FFF790
:1054100023F8AF49AF48FFF71FF80125032241F2F7
:10542000883308A8CDE90823ADF8285004F043F8E4
:10543000A94808232946438101F064FC7C21A64841
:10544000A64D01F047F92246214608A8089403F02A
:1054500045FA089B142B40F0BF802B6901332B6168
:105460009F48A04E04F0A0FB4FF4FA7003F046FEF4
:105470009B4804F090FB9C4801F098FF00219A485B
:1054800001230DF10F0201F0D3FF9DF80F10012948
:1054900000F04581944801F093FF944A9248042318
:1054A000002102F010F801238F480DF10F020021B6
:1054B00001F0BEFF9DF80F30012B00F02D8101237C
:1054C00033708B4CFFF7BEF994F82030022B1AD9B9
:1054D000002211460727012003F062FC276106F035
:1054E00090FC844A00903B46402108A803F0AAFDA6
:1054F00002F0C2F900238DF800307F4B7F491B7802
:1055000008AAFFF717F895ED060A06F031FB00F040
:1055100065FE002800F00F8106F048FB95ED050AB6
:1055200006F006FB06F0A6FC074606F06AFC381AF1
:1055300007F0E6F82EA3D3E9002307F075FA704AC6
:10554000CDE900010A21434803F07CFD02F094F903
:1055500002F096FB02F090F9002102F069FB02F0E4
:105560008BF9602102F078FBFFF7C2F9FFF730F901
:10557000042006F0BFFE08B9FFF74EFE06F05EFC01
:1055800000210746206806F0B7FA874201D0FFF7EE
:10559000E7F9FFF761FC06F045FC2B7F984207DB3B
:1055A00006F040FC6B7F9842BEBF564B564A1A60CD
:1055B00033780BB902233370544B554955480122B7
:1055C0001A70FEF789FF0021072006F07AFE04A872
:1055D00005F0FAFF39B0F0BD2246214608A808942C
:1055E00003F07CF9089B8C2B7FF43AAF35E700BFC2
:1055F000000000000020AC40A54A0D0051450D0000
:10560000D5400D0044E303208EF40D0090E203200A
:105610009BF40D00E8E30320A2F40D004CE303200B
:10562000ADF40D00D0DF0320B9F40D00E0E303205A
:10563000C1F40D00B4E30320CCF40D00D6DF032049
:1056400083F50D00C4DF0320D9F40D0050E30320DF
:10565000E3F40D0065E30320EAF40D005D420D0064
:105660003D410D00F5F40D001EE4032004F50D008E
:105670000EE4032010F50D00FD410D0021F50D0095
:10568000494B0D002DF50D005D410D0037F50D0066
:10569000B54D0D003FF50D00914B0D004CF50D0083
:1056A0002D4C0D0057F50D0021620D0064F50D0025
:1056B00069630D0071F50D000D4D0D007FF50D00B6
:1056C000454D0D008CF50D00814F0D0096F50D0038
:1056D00015500D00A8F50D00ECE20320D8E30320DF
:1056E00084E30320CCE3032074E30320E0F80D00FF
:1056F00040E3032015F20D00DCE2032037F20D0039
:10570000B9F50D00D0E30320E09304000CE403207E
:10571000C3F50D0038E50320FFF77EFDD1E6074A0B
:105720000748342301F084FE064A0548242350210B
:1057300001F07EFEC5E606F045FAEFE6D8E3032069
:1057400074E3032040E303208842F8B504460D4685
:10575000164616D9904215D2A2F11406751AA1F177
:1057600014072C44B7421CD02CB13146204605F01A
:10577000A7FF337C2374304605F026FF143E143C0B
:10578000F0E70ED0B5420CD02CB12946204605F0EA
:1057900097FF2B7C2374284605F016FF143514342C
:1057A000F0E7F8BD2DE9F0410023C0E90033836044
:1057B0004F689F4204460E4623DD4FF0140808FB55
:1057C00007F003F017FC0546D8B1D4E9001208FB36
:1057D0000212FFF7B9FF206803F014FC2560A760F0
:1057E000D6E9007308FB0378B84508D03946284647
:1057F00005F080FF3B7C2B7414371435F4E7736895
:1058000063602046BDE8F081F0B5544B544E01254D
:105810001D70544B08228FB01A7006F0EBFC002369
:105820001A460D2106F0EEFC06F0E4FC00231A46B1
:10583000062106F0EFFC4C4B002464221C83DA6145
:1058400083F82040494B4A4A1C609C809C719A60B6
:10585000022003F085FA2146284603F099FA2946EA
:10586000042003F033F8434B1A46191D42F8091B74
:10587000A3F809409470404A1D75C3E903445A6077
:105880001C7206F093FD234601464FF40052304649
:1058900001F082FD394B336006F088FD6922014634
:1058A000374800F019FE2146364804F0C1F8CDE92A
:1058B0000144039406F0DCFB334C064601A904A81E
:1058C000FFF770FF274604A907A8FFF76BFF2F4BD0
:1058D00047F8043B07A90AA8FFF764FF0AAA29466C
:1058E000384605F060F90AA8FFF77AFC07A8FFF729
:1058F00077FC274B2360266204A8FFF771FC254B39
:10590000236006F0B5FB4FF4165106F0A1FB04F03E
:10591000EFFD214605F0D9F801A8FFF761FC1E4B09
:105920001E4E1F4C1F490A930AAA2B461E480D966D
:105930000C94FEF797FD0AA8FEF7E4FC1B4B1C49EC
:105940000A930AAA2B461B48CDE90C46FEF78AFDAE
:105950000AA8FEF7D7FC0FB0F0BD00BFDCE20320C1
:1059600074E30320DDE2032040E30320D0E20320C0
:105970000000FFFF28E3032010000300A4F80D003F
:10598000ECE2032084E3032090E3032074F80D008D
:1059900034010E008CF80D0001410D0021410D0075
:1059A00025410D0040771B000CE30320E1400D0072
:1059B000C027090028E403202DE9F04F2C492D4889
:1059C00085B0FEF789FD4FF0000A01A8CDE901AAD4
:1059D000ADF80CA003F055FDFEF73AFD43F697280D
:1059E00083464FF00009FEF733FDB0EB0B0661EB89
:1059F0000A07B94508BFB04505D303F04BFA10B10B
:105A000003F038FAEFE71C4E03F044FA00220221BB
:105A1000706803F09FFA3046FEF76EFCFEF718FD43
:105A20004FF0000A074647F22F584FF00009FEF7E3
:105A30000FFDC41B61EB0A05A94508BFA04506D3AD
:105A4000304605F0EFFB10B903F014FAEFE70A480F
:105A500005F0E8FB094B0022DA70094B0124042011
:105A60001C7004F093F9204605B0BDE8F08F00BF2C
:105A7000D4F50D0038E5032064E40320D8E30320C7
:105A80000CE403202DE9F043954D964C2B78964F6E
:105A9000DFF8B882013B97B0092B00F29B80DFE86A
:105AA00013F07D020A00DA01E601F2003E0255021F
:105AB0003200990021038D4B1B78022B01D0FFF798
:105AC000F5FAA3796BB102F029FF894B1B68C01A64
:105AD000884B1B68984204D9874B9B680BB90823F5
:105AE0002B70864B1B780BB10A232B7006F09AF9AA
:105AF000834B06460021186805F0F6FF864269D000
:105B000003232B7066E0794B1B78082B01D0FFF73D
:105B1000CDFA7C48FEF7D6FC00285BD17A48FEF728
:105B2000D1FC002856D1E378002B00F0A280FFF7CB
:105B300043FFE3780BB1FFF73FFF6E4B73484FF421
:105B40007A7200214FF002091A6085F8009000F087
:105B5000C1FD06F056F94FF4616690FBF6F303FBC6
:105B600016066B4BC6F561661A7DB6F5616FA8BF68
:105B70004FF461660AB183F808900022042164485A
:105B8000FEF708FC4FF47A717143FEF737FC604969
:105B900003A805F0EFFE4FF0FF315C4800F09AFDDE
:105BA0005C4804F001F8039B002B69D09A88012A15
:105BB00066D19B89042B63D1574906A805F04FFD98
:105BC00006A8FFF7F7F806A805F0FEFC039808B151
:105BD00003F018FA4D4801F075F901F04DFE01F09F
:105BE0003BFD98F800303BB13E4A4C480121FFF79D
:105BF0000AFB002388F800303B783BB124233E4A5F
:105C00004648502101F05FFC00233B70444B1B6869
:105C1000002B1FDB434A402106A803F013FA424839
:105C200006A9FEF759FCE37873B1FEF7DCFA00230E
:105C30008DF800303D4B3E491B7803A806AAFEF7BD
:105C400029FB04A8FEF7D0FE4FF4FA6003F056FAE1
:105C500005F08CFEE3784BB103F01CF930B9052355
:105C6000E070344930482B70FEF736FC17B0BDE8C1
:105C7000F083314805F0D6FA00283FF458AF58E7D2
:105C800002232B70A2E7194B1B78052B70D02B4EEB
:105C9000337000232385FFF709FAE37863B9E379CA
:105CA000002B55D0042006F025FB002850D02449B5
:105CB0001D48FEF711FC88E003F0ECF80028EED058
:105CC00020491948FEF708FC0A4B1F4A1A6002F0E7
:105CD00025FE074B186006233370072311E700BF2A
:105CE000CCE30320D8E3032064E30320C4E30320D0
:105CF000D4E30320D0E3032040E3032070E3032038
:105D00008CE3032028E403200CE30320ECE20320CF
:105D100028E3032084E3032008F30D0074E3032049
:105D2000E0DF0320F1F70D0038E50320DCE203207B
:105D300010F80D0017F80D0064E40320DEE20320E4
:105D400024F60D00FDF50D00E09304000CE40320A3
:105D5000A379002B3BD102F0E1FDA64B1860A648C9
:105D6000002340681A46194603F004F903F08AF844
:105D700002F0D4FD9F4B1B68C01A4FF47A73B0FB3E
:105D8000F3F0208503F086F8002837D00123E37074
:105D900006F037F8994B9A4A1A60606202F0BEFD2D
:105DA000984B1860FEF736FE97499848FEF794FB2B
:105DB0000023009396494FF0FF330222042003F0A2
:105DC000BBFF944B1B78062B87D0022399E6042057
:105DD00006F090FA0028BED0A368322B08DDA36835
:105DE000412BB8DC06F01EF8C307B4D58A495FE73B
:105DF00006F018F88207F2D0884959E7884B228DBF
:105E00001B689A427FF6E6AE864BE07002221A616A
:105E1000FEF700FE84497D48FEF75EFBFFF7CCFDF0
:105E200063794BB1814906A805F019FC06A8FEF775
:105E3000C1FF06A805F0C8FB05F0E3FF636AC01ABE
:105E400042F630239842C0D901232B7002F066FD40
:105E5000774B1860BEE623792BB1764B1B78032B6A
:105E600001D0FFF723F9FEF7F7FF042349E6714B52
:105E70001B78042B01D0FFF719F905F0D3FF237F1E
:105E80006D4E984211DC6D496048FEF725FB0023FA
:105E90008DF8003006A83378684A6949FEF7FAF9A8
:105EA00007A8FEF7A1FD06232BE605F0BBFF637FE5
:105EB0009842E8DADFF86C9194ED0B7AD9ED017A2B
:105EC000F8EEE77AF4EEC77AF1EE10FADBD54F4838
:105ED0005B49FEF701FB0123C9F808303B70594BC1
:105EE000986858B16FF00041236B0022CDE9001291
:105EF0004FF47A714B43032102F090FC236B524A1A
:105F0000202106A803F09EF800238DF8003003A896
:105F100033784E4906AAFEF7BDF904A8C1E7454B00
:105F20001B78062B01D0FFF7C1F805F06AFF484B3C
:105F30001860FEF791FF05F075FF237F984201D1AD
:105F4000FFF7F4F8FEF75AFB0523DAE5394B414E2B
:105F50001B78072B07D002F0E1FC3F4B18600123B0
:105F60003370FFF7A3F8337833B902232B70012382
:105F70003B7088F800302DE602F0D0FC364B1B68F1
:105F8000C01A47F230539842F1D902F0C7FC284BAF
:105F90001860244B03221A610123E7E7254B1B7885
:105FA000012B01D0FFF782F802F0B8FC204B1B68F0
:105FB00003F5EA4330338342BFF40CAE05F021FF12
:105FC000636AC01AB0F5E15F4ED905F01AFF60624E
:105FD000FFF7F2FC214A22480121FFF714F90B4890
:105FE0002049FEF790FA642003F088F805F0BEFC23
:105FF000F0E500BFE4E2032064E40320D0E30320E3
:10600000E0930400D4E30320ADF60D0038E503204F
:1060100015410D00DEE203207BF60D004AF60D006F
:10602000CCDF032040E30320C9F60D00E0F10D00B2
:10603000C8E30320C4E30320DCE20320E7F60D00FD
:1060400007F70D0028E4032010F70D0020F70D00DE
:106050008CE303206FE30320E0E20320D8E3032076
:1060600074E3032033F70D002269E378032A13DC7D
:106070007BB1FEF7B8F83B4B3B4A1B788DF80030FC
:106080003A4B3B491B7806A8FEF704F907A8FEF730
:10609000ABFC4FF4FA60A7E77BB1FEF7A4F8314BF5
:1060A000344A1B788DF80030304B31491B7806A8F4
:1060B000FEF7F0F807A8FEF797FC4FF4FA6003F03C
:1060C0001DF8FFF779FC00232B4A2C48236101219E
:1060D000FFF799F8642003F011F81E21284800F01A
:1060E00053FC77E5274B1B780A2B09D002F016FCEE
:1060F000254B264918602648FEF7EEF9FEF7D6FF35
:10610000244B1B780BB92449D2E502F007FC1E4B47
:106110001B68C01A214B98427FF65CAD204E214986
:106120001B484FF00509FEF7D7F9C6F8109005F0A7
:1061300068FE1D4A00904B46402106A802F082FFEF
:1061400001F09AFB00238DF80030084B17491B78AB
:1061500006AAFEF7EFF996F82030013386F82030D2
:1061600033E600BFDDE2032060F70D00DCE2032030
:106170007BF70D0081F70D00D8E3032074E30320C3
:10618000ECE20320C4E30320E8E20320A0F70D00C3
:1061900038E5032070E30320BDF70D00BF27090099
:1061A00040E30320D7F70D0015F20D0037F20D0084
:1061B00008B502F0B3FBB0F57A7F34BF00200120B0
:1061C00008BD08B5002002F08DFE28B102F062FE85
:1061D00080F00100C0B208BD0120FCE738B505F031
:1061E0002DFE054605F03EFE044605F033FE231F56
:1061F000062B0ED9E31E082B0DD801382D1A04D515
:106200000B2C14BF0020012038BD072D03DD032C0B
:10621000F7E70120F8E70020F6E7000000000000A3
:106220002DE9F047CAB0804602F034FE10B10020DC
:1062300002F050FE002002F081FB4FF0000A814680
:1062400047F22F560027002002F078FBB0EB09043C
:1062500061EB0A05AF4208BFA64205D3FFF7B1FFC5
:1062600010B902F007FEEEE7FFF7ABFFD8F8000029
:106270000A2203A907F062FE00F10C03DBB2182B1F
:1062800059D844B207EE904A2F4FB8EEE70A0125DD
:1062900087ED050A05F04CFC2C4B1D7005F0EAFD5E
:1062A000064605F0AEFD301A06F02AFA24A3D3E91B
:1062B000002306F0B9FB264ACDE9000125480A2152
:1062C00002F0C0FEFB78002B37D02346224C234A35
:1062D0004FF480710AA802F0B5FE23788DF80030E3
:1062E00006A81F493C230AAA03F0E2F907A8FEF713
:1062F0007BFBFFF75DFF10B902F0BCFDF9E7FFF78C
:1063000057FF05F07EFD0246C31706A805F076FC90
:106310002378069A12498DF8003004A83C2303F034
:10632000C7F905A8FEF760FB06A805F04DF90120A6
:106330004AB0BDE8F0870020FAE72846F8E700BF3A
:10634000000000000020AC40D8E303200CE4032050
:10635000B9F50D0065E3032044E40320E4F80D00E3
:10636000DEF40D000000000030B52DED028BCBB047
:10637000044605F046FD0A22054603A9206807F0F9
:10638000DDFDC3B2022B67D843B208EE103AB8EE77
:10639000C88AB0EE480A05F0EBFB354B83ED068A60
:1063A000344B01221A7018EE100A06F0BBF9324A7B
:1063B000CDE900014FF480710AA802F043FE05F018
:1063C00003FD20B1FFF70AFF58B305F0EFFB05F01E
:1063D00051FD044605F015FD201A06F091F922A39F
:1063E000D3E9002306F020FB244ACDE900010A216D
:1063F000234802F027FE02F04DFD58B3214C2249FC
:1064000023788DF8003006A83C230AAA03F050F93F
:1064100007A8FEF7E9FAFFF7CBFE28B902F02AFD3C
:10642000F9E705F0CFFBD2E7FFF7C2FE2A46EB17EC
:1064300006A805F0E3FB2378069A13498DF800308F
:1064400004A83C2303F034F905A8FEF7CDFA06A80A
:1064500005F0BAF8012000E000204BB0BDEC028B43
:1064600030BD00BFAFF30080000000000020AC4052
:10647000D8E303200CE40320F8F80D00B9F50D0073
:1064800065E3032044E40320DEF40D00014B012208
:106490001A70704744E40320704710B52021044669
:1064A00005F0CCFF204610BD0EB410B58DB00FAA7C
:1064B000016852F8044B039200232020CDE9040325
:1064C000CDE90042012004AA02F020FC0DB0BDE895
:1064D000104003B07047000010B50272FF224281E5
:1064E0000022C0E9032242610276C261024A034CE3
:1064F0001060C0E9004110BD4CE4032058FB0D00C2
:106500002DE9F8439DF820800446894616461F462B
:10651000B8F1000F02D0406803F0FAFB217A6068FE
:1065200003F0D3FB6068036849469B68984760683E
:10653000002103F0E9FB054600BB0123217A6068D6
:106540003A4603F0B0FB8742034609D13744BE42C6
:106550001CD0606803685B69984706F8010BF6E792
:106560000B490C484A46FDF7CEFFB8F1000F02D0A8
:10657000606803F0D6FB2846BDE8F8830346064969
:1065800004484A46FDF7BFFF0025EEE70125ECE78A
:1065900009F90D0048E403202EF90D0007B500931A
:1065A0000123FFF7ADFF03B05DF804FB73B543892A
:1065B000FF2B044610D0194E194D02F0AFF9B0F57B
:1065C0007A7F09D2608905F095FE012804D0314612
:1065D0002846FDF781FFF0E701230DF1070228218E
:1065E0002046FFF7DBFF30B90D480E49FDF774FF79
:1065F000002002B070BD9DF80730182BF4D10123A4
:106600000DF1070229212046FFF7C8FF0028EBD033
:106610009DF80730052BE7D1EBE700BF52F90D00DD
:1066200048E4032067F90D0007B5134600228DF8F2
:1066300007200DF10702FFF7B1FF9DF8070003B037
:106640005DF804FB2DE9F0419DF8188004460F46E3
:1066500015461E46B8F1000F02D0406803F058FB03
:10666000217A606803F031FB6068036839469B68F3
:1066700098472E44B542606805D0036815F8011BA1
:106680009B689847F6E7012103F03EFB034670B193
:10669000084909483A46FDF736FF0025B8F1000FD2
:1066A00002D0606803F03DFB2846BDE8F08101257B
:1066B000F4E700BF74F90D0048E403201FB58DF81E
:1066C0000F2000930DF10F020123FFF7BBFF05B070
:1066D0005DF804FBF8B50A460C4605461A491B4806
:1066E000FDF7FAFE002CB8BFEC687CB90123224606
:1066F0001B212846FFF7E2FF1549024606461348CC
:10670000FFF7D2FEEC606C613046F8BD032C19DD5A
:10671000A7101F2FA8BF1F27BA0062F07C02012319
:10672000D2B21B212846FFF7C9FF3A460346094962
:1067300006460648FFF7B8FE4FF4FA635F43EC6085
:106740006F61E1E70127E7E799F90D0048E40320CD
:10675000A3F90D00BFF90D000B4607490246086872
:1067600048B1002B08BFB2F5006F04D1C36813B164
:106770000021FFF7AFBF70474CE403202DE9FF4134
:106780009DF82880054616461F46B8F1000F04D034
:106790004068019103F0BCFA0199019100230DF1C9
:1067A0000F022846FFF7FAFE044660B19DF80F304D
:1067B00003EA06023A43934205D001990023284692
:1067C000FFF77CFF0446B8F1000F02D0686803F0C1
:1067D000A8FA204604B0BDE8F08113B514460DF1C7
:1067E0000702FFF7DBFE28B19DF807301C420CBF03
:1067F0000120002002B010BD13B514460DF10702B0
:10680000FFF7CCFE28B19DF807301C4214BF0120D1
:10681000002002B010BD07B5D2430093D2B20023CE
:10682000FFF7ACFF03B05DF804FB000037B50123B0
:106830000DF107020F210446FFF7B0FE054638B9F7
:106840001E491F48AD22FDF75EFE284603B030BD4D
:106850009DF8073013F0200F4FF001030BD02022DA
:10686000E3610F212046FFF7D6FF164A1649144868
:10687000FDF732FEE9E7082217212046FFF7BCFFAB
:1068800018B10223114AE361F0E79DF807301A07B7
:1068900009D50323E361082201230F212046FFF7D6
:1068A000BAFF0B4AE2E75B07CFD50422E26101237E
:1068B0000F212046FFF7AFFF064AD7E712FA0D0077
:1068C00048E40320E3F90D0031FA0D00ECF90D0066
:1068D000FCF90D000CFA0D0007B500931346FF22DA
:1068E000FFF74CFF03B05DF804FB0000F8B50F465E
:1068F0001646012300220F210546FFF7DFFE04465E
:1069000038B94FF425721E491E48FDF7FCFD20469C
:10691000F8BD0123232218212846FFF7CFFE0446A5
:1069200010B940F29B22EEE7FF2FA8BFFF27012FEF
:10693000B8BF01270123FAB219212846FFF7BEFE8E
:10694000044610B94FF42A72DDE701230822122110
:106950002846FFF7C1FF044610B940F2AF22D2E744
:10696000002E4FF0010314BF8322822218212846F3
:10697000FFF7A4FE04460028C9D140F2B922C2E7BD
:1069800042FA0D0048E403202DE9F7430A46054684
:106990000F464F484F49FDF79FFD00212846FFF75E
:1069A00099FE044648B940F2F7124B494848FDF7B2
:1069B000AAFD204603B0BDE8F08301231A4630212A
:1069C0002846FFF789FF044610B940F20522ECE79C
:1069D0001022012311462846FFF71DFF044610B977
:1069E0004FF40372E1E70123262213212846FFF723
:1069F00065FE044610B940F21322D6E70126009640
:106A00003346FC2211212846FFF7B8FE044610B990
:106A100040F21B22C9E7002239462846FFF766FFED
:106A2000044610B940F22222BFE7009602237722E3
:106A300010212846FFF7A2FE044610B940F22B228F
:106A4000B3E7334604221C212846FFF745FF0446DE
:106A500010B940F23222A8E700961823E322112150
:106A60002846FFF78BFE044610B940F239229CE716
:106A70003346C02217212846FFF720FE044610B9EE
:106A80004FF4107291E701F049FFDFF85490DFF8FE
:106A900040804FF47A7106464F4301F03FFF801B60
:106AA000B8420ED2012217212846FFF7BDFD494604
:106AB00002464046FDF710FD4FF47A7002F01EFBCF
:106AC000EBE706490248FDF71EFD04F04FFF70E7B3
:106AD00048E403206DFA0D0062FA0D0093FA0D00F0
:106AE0007EFA0D002DE9F3479DF828A005460C46D7
:106AF00091461F46BAF1000F02D0406803F008F932
:106B000007B3202F3E4628BF20267F2C26D83319D6
:106B1000802B01D9C4F18006012304223F2128469D
:106B2000FFF779FE002364F07F0100934A46334665
:106B3000C9B22846FFF7E4FC804628B13444BF1BA5
:106B4000B144DDE74FF00108BAF1000F02D06868E8
:106B500003F0E7F8404602B0BDE8F08701230422C5
:106B60003F212846FFF7B8FEDCE72DE9F3479DF803
:106B700028A005460C4691461F46BAF1000F02D0E8
:106B8000406803F0C5F807B31F2F3E4628BF1F26F5
:106B90007F2C26D83319802B01D9C4F1800601231C
:106BA00004223F212846FFF736FE002364F07F01D0
:106BB00000934A463346C9B22846FFF743FD804654
:106BC00028B13444BF1BB144DDE74FF00108BAF1EE
:106BD000000F02D0686803F0A4F8404602B0BDE898
:106BE000F087012304223F212846FFF775FEDCE7EA
:106BF00030B585B00D68D1E9043203954D68029532
:106C00008D680195C96800910133044902F26C72E4
:106C1000044604F03DFE204605B030BDA5FA0D0047
:106C200003110A2200F00F0002FB0300704738B581
:106C3000044600781546FFF7F3FF08606078FFF719
:106C4000EFFF4860A078FFF7EBFF8860E078FFF780
:106C5000E7FFC8602079FFF7E3FF013808612DB92D
:106C6000651D2878FFF7DCFF886138BD6079FFF784
:106C7000D7FF6430A51D4861F3E7000070B501231C
:106C800088B00D461A4610210446FFF7A6FDF0B164
:106C900008230126204600960DEB03020021FFF792
:106CA0002FFC044698B1324629460DF10900FFF742
:106CB000BEFF04A8FFF79CFF0848049A0849FDF7A7
:106CC0000BFC04A804F080FC204608B070BD242210
:106CD0000021284606F082F90024F5E748E4032065
:106CE000C3FA0D0030B58BB00D4601A9FFF7C6FF02
:106CF000044620B101A802F0EDF9C5E900012046E3
:106D00000BB030BD10B5044688B011B1406802F038
:106D1000ADFF2046FFF74AFC70B32046FFF786FD23
:106D200001231A4610212046FFF757FDD8B105F080
:106D30004BF8C0B902A92046FFF7D4FFDDE90201F4
:106D400004F048FF0F4B10491B68009304A8DDE9CD
:106D5000022304F0F7FF0D48049A0D49FDF7BCFB30
:106D600004A804F031FC0B4A002300214FF400601A
:106D700002F006F808B010BD07490448FDF7C3FB50
:106D8000F1E700BFA8E003208CE5032048E40320DE
:106D9000D1FA0D0059670D00EEFA0D000A2290FBA2
:106DA000F2F302FB130093FBF2F102FB113140EA14
:106DB0000110C0B2704770B5054600680C46164613
:106DC000FFF7ECFF20706868FFF7E8FF6070A868C5
:106DD000FFF7E4FFA070E868FFF7E0FFE0702869C4
:106DE0000130FFF7DBFF20712EB9661DA869FFF7A0
:106DF000D5FF307070BD6A69642392FBF3F003FB2A
:106E00001020FFF7CBFFA61D6071EFE7F0B587B04C
:106E1000054602A816460C46FFF7EAFE1E48029AEF
:106E20001E49FDF759FB02A804F0CEFB16B16868B5
:106E300002F06EFF204601220DF1090100278DF8B6
:106E40000870FFF7B8FF01231A4610212846FFF704
:106E500043FD0446E8B1082300970DEB03023946D1
:106E60002846FFF7EFFB044660B101231A461021C4
:106E70002846FFF7D0FC16B1686802F052FF2046A2
:106E800007B0F0BD4FF48D7205490348FDF73BFB99
:106E9000F1E74FF48F72F7E748E4032006FB0D009B
:106EA00014FB0D0013B504466846CDE9002306F037
:106EB0005BF89DF8102001462046FFF7A7FF02B0BF
:106EC00010BD0000F0B5057E89B0044675BB04F026
:106ED0007BFF58B30026002704A92846CDE90467A4
:106EE00002F008F810B30125257604F08AFF00951A
:106EF0000246C3172046CDE90223FFF7D3FF02A9BC
:106F00002046CDE90267FFF7EDFE124B12491B68E0
:106F1000009304A8DDE9022304F014FF0F48049A4B
:106F20000F49FDF7D9FA04A804F04EFB636973B169
:106F300001F0F4FC2369C01A6369984207D301F099
:106F4000EDFC4FF0FF3120612046FFF7C3FB09B095
:106F5000F0BD00BFA8E003208CE5032048E4032037
:106F60002FFB0D00014B024A1A60704748E40320D2
:106F700045FB0D00022A06D0032A02D0012A00D1C7
:106F80000160002070470B680360FAE710B5012329
:106F900003748368044643B1C0689847012363744F
:106FA0000020BDE8104001F081BC00680028F5D049
:106FB00083680BB905F04EFAC368EEE738B505688B
:106FC000044635B12846FDF79DF91021284605F005
:106FD00035FA20461421BDE8384005F02FBA10B527
:106FE00003680446ABB1586801F0D8FB88B9236840
:106FF0005A7C12B9586801F0E1FB2368586801F027
:10700000E5FB20680023236018B1BDE81040FFF7BE
:10701000D5BF10BD054A026000224260027380F8AD
:10702000BD22C0F8C822C0F8D022704784FB0D00F2
:1070300010B5074C236843B94FF43570FDF72BF8B2
:10704000034608B1FFF7E6FF2360206810BD00BFCC
:1070500050E4032038B50446406890B102232373FE
:10706000FFF7BDFF656855B12846FFF7B8FF2868F0
:1070700008B1FFF7A3FF0421284605F0DFF900233C
:10708000636038BD10B5054B03600446FFF7E2FFAF
:1070900004F53070FDF736F9204610BD84FB0D0075
:1070A00010B50446FFF7EEFF20464FF4357105F0AA
:1070B000C5F9204610BDF0B5044689B000F10D06B3
:1070C00000F14E07237B1BB9012002F017F8F9E706
:1070D000237B022B62D0A06801F0B0FBA06801F016
:1070E000B5FB94F8BD328DF800303A463C2331466A
:1070F00006A802F0DDFA069D6B7833B9237B022BDC
:1071000003D0012001F0FAFFF5E7D4F8C8321BB331
:10711000002001F04DFE20B16B7813B901F0AAFEFA
:10712000FAE72B78D4F8D0220592591E4B424B41F6
:107130008DF80B30D4F8C832CDE903670BB905F0F0
:1071400089F905AB0093D4F8CC5204AB03AA0DF136
:107150000B0104F53070A847A06801F06FFB237B9A
:10716000022B15D0D4F8C8320025C4F8D05233B160
:1071700004F53071032208469847C4E9B25500234C
:10718000A068237301F062FB07A8FDF72DFC99E7C7
:10719000A06801F05BFB07A8FDF726FC09B0F0BD75
:1071A0000068FFF788BF13B50B460246D0E900011F
:1071B0006C4684E8030093E8030082E8030094E847
:1071C000030083E8030002B010BD00002DE9F7437F
:1071D00006468846142026491746994605F030F998
:1071E000044630B10022C0E90022C0E90222027444
:1071F00042743460002C31D01D49102005F020F974
:10720000054668B10023836001463846FFF7CBFF8F
:10721000BB68AA68BA60AB60EA68FB68EB60FA60BA
:107220002768256037B13846FDF76CF810213846DD
:1072300005F004F93068036883B10A9B4A46CDE93A
:10724000000341460B4B043001F0A0FA30B933681B
:107250001B7C4BB9012001F051FBF8E7306800239B
:10726000336008B1FFF7AAFE304603B0BDE8F083F3
:1072700080020E008D6F0D0030B5436887B0044664
:10728000C3B9083001F0D2FA0B4B059304200B4B25
:1072900002940493FCF7FFFE054638B14FF44063B7
:1072A00000930749022302AAFFF790FF656002A836
:1072B000FDF728F807B030BDA1710D00756F0D0006
:1072C00068FB0D002DE9F043044685B080680C9FF3
:1072D00098460D46164601F0B1FA63681BB1237B50
:1072E00003F0FF0933B1A06801F0B0FA002005B047
:1072F000BDE8F083A06801F0A9FA002D3DD041223D
:10730000294604F10D0005F0F6FE84F84D908EB389
:1073100040F26F22314604F14E0005F0ECFE84F895
:10732000BC9200230293BB6804F530753BB1022286
:10733000394668469847FB680393BB680293294621
:107340006846FFF730FF029BD4F8C822C4F8C83261
:10735000039B02926846D4F8CC22C4F8CC32039244
:10736000FCF7D0FF0D9BC4F8D032012084F8BD8219
:107370002073BCE784F84E60D3E72846B7E7704730
:1073800010B51021044605F059F8204610BD0368D9
:10739000C9B29B681847000030B5034DC0E902230D
:1073A000C0E9005130BD00BFC0FB0D00406802F0D5
:1073B0005DBC10B50446006802F0B3FC204610BD69
:1073C0002DE9F0418AB004464068019002F0A0FC2B
:1073D0001E22002102A8A76805F000FE0026EFB1DA
:1073E00023681E2FB84628BF4FF01E08DD6802AA8A
:1073F000434631462046A847054658B90A480B4936
:107400003246FDF769F801A8FFF7D3FF28460AB016
:10741000BDE8F081A7EB08074644E0E701A8FFF7C5
:10742000C8FF0125F2E700BF38E503208CFB0D0003
:107430002DE9F7430446406801900D4616461F4665
:1074400002F066FCA7B1E168606841F0500102F00B
:1074500040FC290A6068FFF79AFF29466068FFF739
:1074600096FF6068002102F04FFC48B1002400E064
:10747000012401A8FFF79DFF204603B0BDE8F0837B
:10748000202F217B6068B84628BF4FF020080123D9
:10749000424641F0500102F006FC04F087FF036809
:1074A0001B6998474045E1DB06EB080904F07EFFC5
:1074B00003685B69984706F8010B4E45F6D14544D1
:1074C000A7EB0807BEE72DE9F74F04464068019097
:1074D0000E4690461D4602F01BFC4FF00109B9F123
:1074E000000F2AD04DB3E168606841F0500102F00E
:1074F000F0FB310A6068FFF74AFF60683146FFF72A
:1075000046FFA5F11E0A4746A6EB080B606817F870
:10751000011B0368013D9B68984755450BEB070627
:10752000B84601D0002DF1D16068012102F0ECFBDA
:107530000028D7D04FF00009D1E701A8FFF739FFA5
:10754000484603B0BDE8F08F2DE9F0438BB00E46FE
:1075500015468046406801901C4602F0D9FBAE42B9
:1075600029D2264425448CB11E2C2746D8F8003059
:1075700028BF1E27F61BD3F8089002AA3B463146C7
:107580004046ED1BC84748B9002400E0012401A88B
:10759000FFF70FFF20460BB0BDE8F083D8F80030AE
:1075A00002AAD3F80C9029463B464046C84700281B
:1075B000EAD0E41BD7E7E9D9002CE7D0D8F80030AF
:1075C0001E2C274628BF1E27D3F8089002AA3B4648
:1075D00031464046C8470028D6D0D8F8003002AA25
:1075E000D3F80C9029463B464046C8470028CBD0EC
:1075F0003E443D44E41BDFE703680A7883F8B1208A
:10760000012183F8B0107047022A06D0032A02D065
:10761000012A00D10160002070470B680360FAE77F
:10762000012A034602D1016000207047022A04BFEC
:10763000D1E90001C3E90001F6E710B4426803464E
:10764000541001EB6200D20748BF0A591B685DF86D
:10765000044B48BFD3581847D0F8C83001461BB177
:10766000D0F8CC30C030184770470000F8B5124D44
:107670000846002A18BF15460F461E4605F021FD94
:10768000402817D8284605F01CFD40F26E2398428A
:1076900010D84330FCF701FD044648B1394600F8E4
:1076A000016B05F0E8FC294604F1420005F0E3FC1B
:1076B0002046F8BD0024FBE7FD000E00F0B59FB0AA
:1076C0000A4600230E46011D08A800F0F1FD0898A7
:1076D000002106F057FC054608A803F075FF002DB1
:1076E00060D008A9284606F03BFC0C9B2E492F4889
:1076F0003246FEF7D9FE00221146284606F038FC35
:10770000082206A9284606F051FC0C9F4A2F39DDB5
:10771000274B069A9A4235D1264B079A9A4231D185
:10772000A7F1080210460592FCF7B7FC0446C0B169
:1077300027440146059A284606F038FC17F8093C0C
:10774000ABB9631C1846059305F0BBFC3F28059BAD
:107750000DD804F142020092174914483246FEF750
:10776000A3FE284606F0F4FB20461FB0F0BD1349E7
:107770000E483246FEF798FE4321204604F05EFE96
:107780000024EEE7BDF81E3002939DF81D300193F2
:107790009DF81C3000930A49069B04483246FEF7C8
:1077A00083FEEDE72C46DFE7D4FB0D0054E4032015
:1077B0006376B63101084100E8FB0D000AFC0D00BC
:1077C00038FC0D002DE9F8438046294B48F8043B6E
:1077D0000446404600F084FC022264230025C4E9EC
:1077E0001B230823E367C4E92055C4E92255C4E9F3
:1077F0002455C4E92655A5672020FCF74CFCE66F0C
:10780000A067013E760800EB860907464FF400703A
:10781000FCF741FC00F50073C4E92503C4F8883087
:107820004FF4FA614FF47A73C4E92D1347F23053E1
:1078300047F82600C4F88400C4F88000C4F890001B
:10784000C4E92855C4E92A550A49C4F88C90C4F8FB
:107850009C90A4F8B05084F8B250C4F8BC30C4F87E
:10786000C850404600F082FC2046BDE8F88300BFC7
:107870007CFE0D007DFC0D0038B5064C23683BB93D
:10788000D020FCF708FC054608B1FFF79BFF2560F8
:10789000206838BD58E4032010B5D1E9002386B034
:1078A0000021044604910AB9D90705D5CDE9022380
:1078B0000F4B05930F4B049302AB93E803006A460A
:1078C00082E8030094E8030083E8030092E80300E1
:1078D000049A84E80300A168A260059A04911846FE
:1078E000E168E2600591FCF70DFD204606B010BD91
:1078F0003B760D0021760D0013B5044601F0CAFA5F
:1079000080B101F00BF8D4F8B430C4F8AC30064BB9
:10791000C4F8A80000936946002304F1C000019355
:10792000FFF7BAFF02B010BD657A0D0010B503680D
:107930000446586F00F0AAFF204610BD10B502693A
:107940008368043A9342044602D00433A36010BD16
:10795000C068FCF7A4FB63691A1D62615B68E360A1
:1079600003F500722261F1E72DE9F04F87B004467C
:107970000190406FDFF8A890DFF8A8A000F07EFF2C
:10798000DFF8A4B0D4F88030D4F89020934205D129
:1079900001A8FFF7CBFF07B0BDE8F08F04F1780036
:1079A00004F104081F68FFF7C9FF404600F074FEA9
:1079B000002302464146064602A800F079FC0298E0
:1079C00040F2022106F0DEFA054602A803F0FCFDB3
:1079D000CDB108220DEB02012846CDE9029A06F04E
:1079E000F7FA07F1420005F06CFB394600F143025B
:1079F000284606F0EDFA284606F0AAFA074832466D
:107A00005946FEF751FD3146404600F085FE002FF5
:107A1000B8D04321384604F011FDB1E754E4032007
:107A20006376B631010841008BFC0D00002908BFC8
:107A3000B0F5006F38B505D0002908BF40280BD13C
:107A4000092A09D105490648FEF72EFDFFF714FF64
:107A5000BDE83840FFF788BF38BD00BFA8FC0D0067
:107A600054E4032070B586B0044601F013FA48B917
:107A7000404B02A9CDE9023004F1C000FFF70CFF32
:107A800006B070BD00F04AFFD4F8A830C01AD4F890
:107A9000AC309842F4D394F8B2100029F0D1261DEE
:107AA000304600F005FE0146C4F8A400002850D07E
:107AB0002046FFF703FE0546C4F8A000002833D097
:107AC00000F02CFF02AD00262B4BC4F8A80029467D
:107AD00004F1C00002930396FFF7DEFED4E92830DC
:107AE00003F1420200922549254AA4F8B060B04251
:107AF00008BF0A46013323492348FEF7D5FCFFF7A8
:107B000097FAD4F8A020214B0593CDE900561146F1
:107B10001F4B0294049311F8013B4232FFF7D2FB52
:107B20002846FCF7EFFBABE7D4F8A4201949164828
:107B3000FCF7D2FC0121304600F0BAFDD4F8A410C5
:107B40002A46304600F0F0FBD4F8A030002BB7D125
:107B500096E7D4F88030D4F890209A4207D01B687A
:107B6000C4F8A03004F17800FFF7E8FEECE7C4F8B1
:107B7000A00085E7F9780D00157F0D00D7FC0D00FA
:107B800078FF0D00F8FC0D0054E40320F9750D009A
:107B900009760D00DBFC0D00C368CA689B1A9B10B8
:107BA0005A1ED0E900301B1A9B1003EBC2138868E1
:107BB0000A68801A03EBA000704700002DE9F3412A
:107BC00004460190406F00F059FE04F1800104F179
:107BD0009000FFF7E1FFE36E834202D22046FFF7F9
:107BE000C3FEDFF84880104F261D304600F0AEFD82
:107BF000236F984205DC01A8FFF798FE02B0BDE8AC
:107C0000F0810121304600F053FD05460028ECD0FC
:107C100001460022304600F087FB2A46414638469E
:107C2000FCF75AFCE1E700BF54E4032017FD0D0008
:107C300010B5D0F8C830C16604460A4633B10448CE
:107C40000449FEF731FC2046FFF7B8FF204610BD7F
:107C500054E403202AFD0D0010B5D0F8C8300167A8
:107C600004460A4633B104480449FEF71DFC204689
:107C7000FFF7A4FF204610BD54E403203FFD0D0094
:107C800013B50446002001F0A3F8012805D01249DD
:107C90001248FCF738FC02B010BD04F1740000F08B
:107CA000DDFD0F4A002300214FF4046001F068F865
:107CB000FFF7BEF9FFF7E0FA201D00F075FC204643
:107CC000FFF77CFF074B00936946002304F1C000D7
:107CD0000193FFF7E1FDDEE755FD0D0054E40320BD
:107CE0002D7A0D00F9780D0070B50368044663B174
:107CF000436A45691E1DAE4204D955F8040BFCF7D2
:107D0000CEF9F8E72068FCF7CAF9204670BD2DE9E6
:107D1000F04706468946406A71697368471A09EB5D
:107D2000A7050135B3EB450F144627D95D1B6D0838
:107D30003268AD000CB14FEA89042C441444031D91
:107D4000A142A3EB010213D9994202D0204605F0CB
:107D50002BF974612368F36003F500733361E31951
:107D60007362E359F36103F500733362BDE8F08792
:107D70009942EED0381D801A2044E8E703F102084A
:107D80004B452CBF9844C844B8F1005F01D304F0C0
:107D90005BFB4FEA8800FCF77EF9A8EB05056D0850
:107DA0008246AD000CB14FEA8904726A71690432EF
:107DB0002C449142544403D0521A204605F0F4F862
:107DC0003068FCF76CF9C6E900A8C2E72DE9F0417C
:107DD00086B004469DF830509DF834302B430F4652
:107DE0001646FFF743FC0546002842D0434B444962
:107DF0004448002E18BF33463A46FEF755FB606FE5
:107E0000059400F03BFDD4F89820D4F89030043A63
:107E1000934204F1780804F1900604F180072BD016
:107E200003B11D60D4F890300433251DC4F89030A0
:107E3000284600F08BFC394603903046FFF7ACFE35
:107E4000029001F027F8DDE9023200902E492D481A
:107E5000FEF72AFB284600F079FC00283ED0204699
:107E6000FFF782FD2046FFF7A9FE05A8FFF75EFD9C
:107E7000012006B0BDE8F08139463046FFF78CFEA0
:107E80006FF06043984202D1204804F0E0FAD4F841
:107E90009C30A26F9A1AE36FA3EBA203012B04D8C4
:107EA000002201214046FFF732FF4FF40070D4F862
:107EB0009C80FCF7F0F8C8F80400D4F8903003B1C7
:107EC0001D60D4F89C301A1DC4F89C205B68C4F86F
:107ED000943003F50072C4F89820A6E7394630467E
:107EE000FFF75AFEE36E8342B9D300F0D3FF0028B8
:107EF000B5D007490348FEF7D7FAB3E7FD000E00F7
:107F000078FD0D0054E40320D0FD0D00A0FD0D0010
:107F1000FCFD0D0073B590F8B0300446002B41D045
:107F200090F8B130D0F8A420002B3DD052495348EE
:107F3000FEF7BAFAD4F8A430D3B1261D002130469A
:107F400000F0B6FBD4F8A430984205460DD10121CB
:107F5000304600F0ADFB00222946304600F0E4F93F
:107F6000474946482A46FEF79FFA0023C4F8A43042
:107F7000D4F8A00010B1432104F060FA0023C4F843
:107F8000A030D4F8B830C4F8AC303E4B009369460A
:107F9000002304F1C0000193FFF77EFC00F0BEFC5B
:107FA000C4F8A80002B070BD37493448FEF77CFA27
:107FB000D4F8BC30C4F8AC30D4F8A4304BB1D4F809
:107FC000A00010B1432104F039FA0023C4F8A03016
:107FD000DBE7606F009400F051FCD4E9203293425B
:107FE00013D0D4F8A02043F8042CD4F88030043BFC
:107FF000C4F880306846FFF799FC24491F48FEF713
:1080000053FA2046FFF7B0FCBFE704F1800104F10A
:108010009000FFF7C1FD6FF06043984204F17805CE
:1080200002D11B4804F013FAD4F88C20A36F9A42B3
:1080300004D1012211462846FFF769FE4FF4007073
:10804000D4F88C50FCF727F845F8040CD4F88C30A1
:108050001A1FC4F88C2053F8043CC4F8843003F58C
:108060000072C4F8882003F5FE72C4F88020D4F8AA
:10807000A020C3F8FC21BDE70FFE0D0054E403204F
:1080800022FE0D00657A0D0032FE0D0044FE0D004B
:10809000A0FD0D00014B024A1A60704754E4032012
:1080A0006BFE0D0010B5074B044640F8C03BFCF7D3
:1080B00029F904F17800FFF717FE201D00F0B2F94E
:1080C000204610BD7CFE0D0010B50446FFF7EAFF08
:1080D0002046D02104F0B2F9204610BD012070479F
:1080E000F8B51F4D1F4B0446294640F8043B03F0EA
:1080F000B6FA1D4904F1140003F0B1FA294604F15F
:10810000240003F0ACFA0023C4E90E33C4E91233AF
:10811000C4E91433C4E91633C4E9183384F834309D
:108120002364082363642020FBF7B5FF656C20649B
:10813000013D6D0800EB850706464FF40070FBF724
:10814000AAFF00F50073C4E9170346F82500E064B0
:10815000A064A0656765236567662046F8BD00BF1B
:10816000FD000E0088FF0D0088FE0D007FB5051D87
:108170000446284603F0D1FA0E49684603F06FFA28
:108180006946284603F036FB0646684603F01CFAAB
:108190006EB1E3680022013B2946684603F058FBB4
:1081A0006946284603F0B1FA684603F00DFA204606
:1081B00004B070BD8DFE0D0010B5C36B044613B93D
:1081C0003C3000F033FBE06BBDE8104000F036BB04
:1081D000C06B00F03BBB000010B596B0694604468A
:1081E00000F0C4FCD0B9019B5B04224606D51549BA
:1081F0001548FCF771F9012016B010BD124813495B
:10820000FCF781F9204605F0DBFE40F2FF11204625
:1082100000F0B4FC80B90E492246E9E700F032FFD5
:108220000368022BF1D000F02DFF0A4902680648CE
:10823000FCF769F90020DFE700F024FF0649026837
:10824000F5E700BF9AFE0D005CE40320B7FE0D00C9
:10825000E8FE0D00D4FE0D00F7FE0D0038B5154602
:10826000044603F0FCF94DB12B783BB1044920469C
:1082700003F07CFA2946204603F078FA204638BD00
:10828000F4010E007FB505460E461C464969684656
:1082900003F0FEFA009904B9746A22462846FFF7F3
:1082A000DDFF684603F090F9284604B070BD000079
:1082B00070B50C468EB01A49CDE90032054603F080
:1082C000CEF9E069E16801440431284603F09AF9E7
:1082D000211D06A803F00EFA124902A803F0BFF907
:1082E00002A906A803F053FADDE90032064621464A
:1082F0000AA8FFF7C7FF0AA9304603F048FA01466B
:10830000284603F0E8F90AA803F05EF902A803F092
:108310005BF906A803F058F928460EB070BD00BFFF
:10832000FD000E008DFE0D002DE9F04713468EB0C6
:1083300005460F46002A4AD0406800F02FFC06464A
:10834000002841D0DFF8B0A0DFF8A490DFF8A480C7
:10835000304600F02BFC002833D0827A082AF7D16F
:1083600000F10B04696901AA204600F063FE0128B0
:10837000EED1019B9F42EBD1291D06A803F0BAF96B
:1083800051460AA803F06BF90AA906A803F0FFF901
:10839000214603F008FA014602A803F0ABF90AA847
:1083A00003F012F906A803F00FF9029805F008FE91
:1083B0004046029A4946FEF777F802A803F004F90E
:1083C000C6E7304600F0FAFB0EB0BDE8F0870A467B
:1083D00001460AA8FFF76CFF0A9805F0F1FD0A9A1A
:1083E00003490448FEF760F80AA803F0EDF8EBE74C
:1083F0008FFE0D005CE403208DFE0D0070B5036858
:10840000044663B1436A45691E1DAE4204D955F85E
:10841000040BFBF744FEF8E72068FBF740FE20461C
:1084200070BD000010B5094B044640F8403BFFF713
:10843000E5FF04F1240003F0C7F804F1140003F091
:10844000C3F8201D03F0C0F8204610BD88FF0D00C2
:1084500010B50446FFF7E6FF2046682103F0EEFF63
:10846000204610BDC368CA689B1A9B105A1ED0E9EB
:1084700000301B1A9B1003EBC21388680A68801A2D
:1084800003EBA000704700002DE9F0470446884642
:1084900000F108011830FFF7E5FF6FF060439842E4
:1084A00002D1374803F0D3FF626A20686368111A6B
:1084B000A3EBA101012921D86169571ABE10B51C8F
:1084C000B3EB450F36D95D1B6D0800EB8505131D19
:1084D000A942A3EB010227D9994202D0284604F011
:1084E00063FD65612B68E36003F500732361EB199D
:1084F0006362EB59E36103F5007323624FF400708C
:10850000656AFBF7C8FD6860A36913B1D8F800205D
:108510001A60636A1A1D62625B68E36103F50072A8
:108520002262A361BDE8F0879942DAD0381D801A33
:108530002844D4E703F10209012B2CBF994409F127
:108540000109B9F1005F01D303F07EFF4FEA890012
:10855000FBF7A1FD626A6169A9EB050504326D08AC
:108560009142824600EB850503D0521A284604F05A
:108570001BFD2068FBF793FDC4E900A9B1E700BF2C
:10858000A0FD0D0038B5056A8269043DAA42034684
:1085900006D00AB1096811609A6904329A6138BD3F
:1085A000FFF772FFFBE700002DE9F047C368012BDE
:1085B00086B0044608D834493448FBF7A4FF0026A7
:1085C000304606B0BDE8F0874068FFF705FE064676
:1085D0000028F4D0636962682D492C48FDF764FFD8
:1085E000606800F0DBFA07460028E8D00023DFF8D7
:1085F000A490DFF89880A363384600F0D7FA0546C8
:10860000002839D0837A082BF6D10B35616901AA8D
:10861000284600F00FFD0128EED1E36A7BB1294620
:1086200002A803F01CF804F1240102A803F0E2F808
:10863000824602A802F0C8FFBAF1000FDCD023681E
:1086400029469B68204698470028D5D0019AA36BFD
:108650009342B8BFA2632B4649464046FDF724FF2C
:108660002046FFF7A9FD04F1400001A9FFF78AFFAA
:108670002046FFF7ADFDBFE7384600F09FFA012323
:1086800084F834309CE700BF0DFF0D005CE403204C
:1086900022FF0D003EFF0D0010B590F83430044667
:1086A0000BB9FFF781FFA06B0130A06310BD000084
:1086B00070B590F8343004460E460BB9FFF774FFDE
:1086C0002046FFF779FDA36CA26D93421ED01D6872
:1086D0002EB1226D043A93420CD00433A364204699
:1086E000FFF776FD25B10A490A482A46FDF7DCFE68
:1086F000284670BDE06CFBF7D2FC636D1A1D626505
:108700005B68E36403F500722265E7E70025E6E7AE
:1087100054FF0D005CE4032013B590F83430019150
:1087200004460BB9FFF740FF019BA26B9A42B8BF0A
:10873000A3632046FFF740FD01A904F14000FFF7C5
:1087400021FF2046FFF744FD02B010BD38B50446B6
:10875000FFF732FD04F1480104F15800FFF782FEF3
:1087600005462046FFF734FD284638BD014B024A36
:108770001A6070475CE4032071FF0D0008B5024BDE
:108780001B685B6C019308BD7402030008B5024BC3
:108790001B685B68019308BD4802030008B5024BE3
:1087A0001B689B68019308BD4802030008B5024B93
:1087B0001B68DB68019308BD4802030008B5024B43
:1087C0001B681B69019308BD4802030008B5024BF2
:1087D0001B685B69019308BD4802030008B5024BA2
:1087E0001B68DB69019308BD4802030008B5024B12
:1087F0001B681B6A019308BD4802030008B5024BC1
:108800001B685B6A019308BD4802030008B5024B70
:108810001B689B6A019308BD4802030008B5024B20
:108820001B68DB6A019308BD4802030008B5024BD0
:108830001B681B6B019308BD4802030008B5024B7F
:108840001B689B6B019308BD4802030008B5024BEF
:108850001B681B6C019308BD4802030008B5024B5E
:108860001B685B6C019308BD4802030008B5024B0E
:108870001B689B6C019308BD4802030008B5024BBE
:108880001B68DB6C019308BD4802030008B5024B6E
:108890001B685B6D019308BD4802030008B5024BDD
:1088A0001B689B6D019308BD4802030008B5024B8D
:1088B0001B68DB6E019308BD4802030008B5024B3C
:1088C0001B681B6F019308BD4802030008B5024BEB
:1088D0001B685B6E019308BD3402030008B5024BB0
:1088E0001B68DB6E019308BD3402030008B5024B20
:1088F0001B685B68019308BD1802030008B5024BB2
:108900001B689B68019308BD1802030008B5024B61
:108910001B68DB68019308BD1802030008B5024B11
:108920001B685B69019308BD1802030008B5024B80
:108930001B689B6D019308BD1802030008B5024B2C
:108940001B68DB6D019308BD1802030008B5024BDC
:108950001B685B6E019308BD1802030008B5024B4B
:108960001B689B6E019308BD1802030008B5024BFB
:108970001B685B68019308BD2C02030008B5024B1D
:108980001B689B68019308BD2C02030008B5024BCD
:108990001B68DB68019308BD2C02030008B5024B7D
:1089A0001B681B69019308BD2C02030008B5024B2C
:1089B0001B685B69019308BD2C02030008B5024BDC
:1089C0001B689B69019308BD2C02030008B5024B8C
:1089D0001B68DB69019308BD2C02030008B5024B3C
:1089E0001B681B6B019308BD2C02030008B5024BEA
:1089F0001B68DB68019308BD2802030008B5024B21
:108A00001B689B69019308BD2802030008B5024B4F
:108A10001B68DB69019308BD2802030008B5024BFF
:108A20001B681B6A019308BD2802030008B5024BAE
:108A30001B685B6A019308BD2802030008B5024B5E
:108A40001B689B6A019308BD2802030008B5024B0E
:108A50001B68DB6A019308BD2802030008B5024BBE
:108A60001B681B6B019308BD2802030008B5024B6D
:108A70001B685B6B019308BD2802030008B5024B1D
:108A80001B681B6C019308BD2802030008B5024B4C
:108A90001B689B6C019308BD2802030008B5024BBC
:108AA0001B68DB6C019308BD2802030008B5024B6C
:108AB0001B681B6D019308BD2802030008B5024B1B
:108AC0001B685B69019308BD6402030008B5024B93
:108AD0001B689B68019308BD6802030008B5024B40
:108AE0001B68DB68019308BD6802030008B5024BF0
:108AF0001B68DB69019308BD3002030008B5024B17
:108B00001B681B6A019308BD3002030008B5024BC5
:108B10001B681B68019308BD8402030008B5024B63
:108B20001B685B68019308BD8402030008B5024B13
:108B30001B689B68019308BD8402030008B5024BC3
:108B40001B68DB68019308BD8402030008B5024B73
:108B50001B685B69019308BD8402030008B5024BE2
:108B60001B681B6A019308BD8402030008B5024B11
:108B70001B685B6A019308BD8402030008B5024BC1
:108B80001B689B6A019308BD8402030008B5024B71
:108B90001B681B6B019308BD8402030008B5024BE0
:108BA0001B68DB6B019308BD8402030008B5024B10
:108BB0001B681B6C019308BD8402030008B5024BBF
:108BC0001B685B6D019308BD8402030008B5024B6E
:108BD0001B681B68019308BD3C02030008B5024BEB
:108BE0001B689B68019308BD3C02030008B5024B5B
:108BF0001B68DB68019308BD3C02030008B5024B0B
:108C00001B681B69019308BD3C02030008B5024BB9
:108C10001B685B69019308BD3C02030008B5024B69
:108C20001B689B69019308BD3C02030008B5024B19
:108C30001B68DB69019308BD3C02030008B5024BC9
:108C40001B681B6A019308BD3C02030008B5024B78
:108C50001B689B6A019308BD3C02030008B5024BE8
:108C60001B68DB6A019308BD3C02030008B5024B98
:108C70001B681B68019308BD4C02030008B5024B3A
:108C80001B685B68019308BD4C02030008B5024BEA
:108C90001B689B68019308BD4C02030008B5024B9A
:108CA0001B681B69019308BD4C02030008B5024B09
:108CB0001B685B69019308BD4C02030008B5024BB9
:108CC0001B689B69019308BD4C02030008B5024B69
:108CD0001B68DB69019308BD4C02030008B5024B19
:108CE0001B681B6A019308BD4C02030008B5024BC8
:108CF0001B685B6B019308BD6002030008B5024B63
:108D00001B681B6D019308BD6002030008B5024B90
:108D10001B685B6D019308BD6002030008B5024B40
:108D20001B68DB6E019308BD6002030008B5024BAF
:108D30001B681B6F019308BD6002030008B5034B5D
:108D40001B68D3F89830019308BD0000600203004F
:108D500008B5024B1B681B68019308BD2002030085
:108D600008B5024B1B685B68019308BD2002030035
:108D700008B5024B1B685B69019308BD2002030024
:108D800008B5024B1B681B6A019308BD2002030053
:108D900008B5024B1B68DB6A019308BD2002030083
:108DA00008B5024B1B689B6B019308BD20020300B2
:108DB00008B5024B1B68DB6C019308BD2002030061
:108DC00008B5024B1B685B6D019308BD20020300D0
:108DD00008B5024B1B689B6D019308BD2002030080
:108DE00008B5024B1B68DB6D019308BD2002030030
:108DF00008B5034B1B68D3F88830019308BD000009
:108E00002002030008B5034B1B68D3F8943001938C
:108E100008BD00002002030008B5034B1B68D3F80F
:108E2000A830019308BD00002002030008B5034BE1
:108E30001B68D3F8AC30019308BD0000200203008A
:108E400008B5034B1B68D3F8B030019308BD000090
:108E50002002030008B5024B1B681B68019308BD84
:108E60004402030008B5024B1B685B68019308BD10
:108E70004402030008B5024B1B689B68019308BDC0
:108E80004402030008B5024B1B68DB68019308BD70
:108E90004402030008B5024B1B685B69019308BDDF
:108EA0004402030008B5024B1B68DB69019308BD4F
:108EB0004402030008B5024B1B681B6A019308BDFE
:108EC0004402030008B5024B1B685B6A019308BDAE
:108ED0004402030008B5024B1B68DB6A019308BD1E
:108EE0004402030008B5024B1B681B6B019308BDCD
:108EF0004402030008B5024B1B685B6B019308BD7D
:108F00004402030008B5024B1B689B6B019308BD2C
:108F10004402030008B5024B1B68DB6B019308BDDC
:108F20004402030008B5024B1B685B6C019308BD4B
:108F30004402030008B5024B1B685B68019308BD3F
:108F40004002030008B5024B1B689B68019308BDF3
:108F50004002030008B5024B1B68DB68019308BDA3
:108F60004002030008B5024B1B681B69019308BD52
:108F70004002030008B5024B1B685B69019308BD02
:108F80004002030008B5024B1B689B69019308BDB2
:108F90004002030008B5024B1B68DB69019308BD62
:108FA0004002030008B5024B1B681B6A019308BD11
:108FB0004002030008B5024B1B681B6B019308BD00
:108FC0004002030008B5024B1B685B6B019308BDB0
:108FD0004002030008B5024B1B681B6C019308BDDF
:108FE0004002030008B5024B1B685B6C019308BD8F
:108FF0004002030008B5024B1B681B68019308BDC3
:109000001C02030008B5024B1B685B68019308BD96
:109010001C02030008B5024B1B689B68019308BD46
:109020001C02030008B5024B1B681B69019308BDB5
:109030001C02030008B5024B1B685B69019308BD65
:109040001C02030008B5024B1B68DB69019308BDD5
:109050001C02030008B5024B1B685B6A019308BD44
:109060001C02030008B5024B1B68DB6A019308BDB4
:109070001C02030008B5024B1B681B6B019308BD63
:109080001C02030008B5024B1B68DB6B019308BD93
:109090001C02030008B5024B1B685B6C019308BD02
:1090A0001C02030008B5024B1B689B6C019308BDB2
:1090B0001C02030008B5024B1B68DB6C019308BD62
:1090C0001C02030008B5024B1B681B6D019308BD11
:1090D0001C02030008B5024B1B685B6D019308BDC1
:1090E0001C0203008A4210B507D0029C401AE41A01
:1090F0006043521A90FBF2F0184410BD0021FFF7B4
:1091000037BE10B5836804460BB903F0A3F9C368F2
:109110009847A3681BB10322214620469847204662
:109120001021BDE8104003F089B90B68036013B14A
:109130005A6801325A607047024800230360FFF703
:109140008DBB00BF60E40320002240681146FFF79A
:1091500009BF002240681146FFF724BF0022406883
:109160001146FFF72FBF40680022FFF723BF40687A
:10917000002281F00101FFF70DBF002340681A466D
:109180001946FFF7F7BE002240681146FFF7DABE26
:10919000406800220221FFF7DDBE002340681A4626
:1091A000FFF7C8BEF0B51B4B036000250F463033F8
:1091B0001826C0E9025589B0436032462946044664
:1091C000103003F00BFF78682A462946FFF7CAFEE5
:1091D00018B9A060204609B0F0BD2946324602A861
:1091E000CDE9005503F0FAFE02A96846ADF8086023
:1091F000FFF7C4FA10B10123A360EBE7009B019ACB
:10920000A360E2600BB90223A36002A9204600F02C
:10921000C0F8DFE7D8FF0D00084B10B52824224620
:109220001846002103F0DAFE054B04804FF0FF32B0
:10923000426004225A60034A1A6010BD6CE40320A5
:1092400064E403209CFF0D007047007D7047037DA0
:109250004BB18369B3F1004F05D0006AB0F1004013
:1092600018BF012070470020704703681B6A184729
:1092700010B52821044603F0E1F8204610BD000097
:10928000037D7BB1C369002B0CDB07EE903A9FEDA9
:10929000077AF8EEE77A87EE870ADFED057A20EEA7
:1092A000270A7047BFEE000A704700BF00FF7F47E4
:1092B0000000C842037D63B18369B3F1004F08D059
:1092C00007EE903A9FED047AF8EEE77A87EE870A88
:1092D00070479FED020A70470000C842000000007E
:1092E000037D7BB1436A002B0CDB07EE903A9FEDC8
:1092F000077AF8EEE77A87EE870ADFED057A20EE47
:10930000270A7047BFEE000A704700BF00FF7F4783
:109310000000C842037D63B1036AB3F1004F08D077
:1093200007EE903A9FED047AF8EEE77A87EE870A27
:1093300070479FED020A70470000C842000000001D
:1093400070B50C1E06460ADA2D2102F0CEF86142F5
:1093500005460A22304602F0D7F8284470BD21465F
:109360000025F6E770B50C46054681682046FFF7F4
:10937000E7FF2C210646204602F0B7F8E9680644CC
:109380002046FFF7DDFF304470BDA0F10400FFF779
:10939000E9BF30B50D4600F110040FCD0FC495E8BC
:1093A000030084E80300012030BD704700207047AF
:1093B00010B51021044603F041F8204610BD08B551
:1093C000FFF7F6FF08BD30B500224FF69C7402602F
:1093D00084808D888C800C68858004600A6030BD34
:1093E00010B504460068FFF70DFE204610BD38B5E5
:1093F000C468F4B12378022B03D104F10C00FFF709
:10940000EFFF656835B12846FAF77CFF1021284642
:1094100003F014F8A56835B12846FAF773FF102158
:10942000284603F00BF820461421BDE8384003F02D
:1094300005B838BD10B588B00446684602F00FF98B
:10944000694604A802F056F904A8A047044604A8F7
:1094500002F0BAF8684602F0B7F8204608B010BD2E
:109460001FB50023CDE90201019210241A46694676
:109470001846ADF80230ADF80040FFF7F3FC04B039
:1094800010BD1FB50C23ADF8043003688DF806300D
:10949000037A8DF80730436802930021437AADF8D0
:1094A0000D1001A88DF80F108DF80C30FFF73AFD64
:1094B00005B05DF804FB1FB50C22ADF8042002686E
:1094C0008DF80620027A8DF8072042680292002368
:1094D000427A8DF80C20194601AA0220ADF80D3011
:1094E0008DF80F30FFF70EFD05B05DF804FB73B586
:1094F0000E46044656F8043B00930D4601A831463B
:10950000FFF713FE019A009B6260236001A800230D
:1095100001930093FBF768FA3046FBF765FA28469B
:10952000082102F08BFF204602B070BD826810B5A2
:109530000AB902F08FFFBDE81040C368184708B5AC
:10954000006800F11001FFF7F1FF08BD826810B557
:109550000AB902F07FFFBDE81040C368184708B59C
:10956000006800F11001FFF7F1FF08BD38B50023D6
:109570000446036010200D46FAF78DFD28B1012343
:10958000C0E90133024B0360C5602060204638BD4E
:1095900014000E0038B5002383608B6804460D4626
:1095A0002BB102229847EB68E360AB68A3602046CA
:1095B00038BD0000F0B589B004686846FFF703FFC6
:1095C0004FF00203D4E84F2F002A03D1C4E8413FF3
:1095D0000029F7D125D104F10C0569462846FFF78B
:1095E000F2FEBFF35B8F01236370002004F10803D8
:1095F000BFF35B8F53E8006F43E80002002AF9D104
:10960000BFF35B8F6EB1FFF7D3FB78B129463046CD
:10961000FFF78CFF3046FAF775FE1021304602F056
:109620000DFF6846FFF7DCFE09B0F0BD314602A829
:10963000FFF7B0FFE068B4F9105008B103F024FD63
:1096400006901020ADF81C50FAF725FD0546E8B14C
:10965000002787601820FAF71EFD044688B10146EE
:10966000876002A8FDF79FFD049BA268A360059B8D
:10967000049206A9E268E36004F110000592FFF786
:10968000A2FE084BEB60084B2C60AB6006A8FFF70E
:10969000A7FE02A8FAF736FE002229460348FFF784
:1096A0008FFBB7E73F950D00D5970D0003910D0097
:1096B0002DE9F0478AB005469DF848900C461746BC
:1096C0009846FFF7E7FB07AE824638BB4FF62E738E
:1096D000059005A93046ADF81830FFF774FE142048
:1096E000FAF7D9FC044648B1022303700123C0E90C
:1096F00001AA437031460C30FFF765FE284621462B
:1097000040F8044BFFF732FF3046FFF769FE05A82B
:10971000FFF766FE28460AB0BDE8F0870C234FF03D
:10972000000A1420CDE908AA0793FAF7B4FC014611
:1097300028B1C0E901AA80F800A080F801A004A81F
:109740000391FFF713FF224B08930820FAF7A3FCBD
:10975000824628B1039B40F8043B04A9FFF7E5FCCF
:1097600000965FFA89F3424639462046CDF824A098
:10977000FFF7A0FBB8B9039B5B7803F0FF0293B936
:109780004FF69C7305A903A80592ADF81830FFF7B2
:1097900011FF05A8FFF724FE05A80999FFF7A7FE0A
:1097A00006A8FBF721F9039B059304A906A8FFF778
:1097B000BCFC059B069A2B606A60002306A80693F2
:1097C0000593FBF711F904A8FBF70EF9A2E700BF18
:1097D00099980D00022AF8B5054607D0032A18D03B
:1097E000012A01D10B6803600020F8BD18200E6823
:1097F000FAF751FC044650B13146FFF7CBFE306911
:10980000B6F9147008B103F03FFC2061A7822C6008
:10981000EAE70468002CE7D004F11000FFF7E0FD50
:109820002046FAF76FFD1821204602F007FEDBE71D
:1098300038B5002383608B6804460D462BB10222A5
:109840009847EB68E360AB68A360204638BD022A06
:1098500070B5044607D0032A12D0012A01D10B6843
:109860000360002070BD14200E68FAF714FC054652
:1098700020B13146FFF7DCFF337C2B742560F0E725
:109880000468002CEDD02046FAF73CFD1421204658
:1098900002F0D4FDE5E70000F0B589B004460D46BE
:1098A00001A81146FFF723FEA4B124B21DB128463A
:1098B00003F0EAFB054601A803A90395ADF81040A3
:1098C000FFF778FE03A8FFF78BFD02A8FBF78CF8E3
:1098D00009B0F0BD019D0123D5E84F2F002A03D127
:1098E000C5E8413F0029F7D1EFD12B73BFF35B8F60
:1098F0006B702B1DBFF35B8F53E8006F43E8004292
:10990000002AF9D1BFF35B8F002EDED02046FFF78F
:109910004FFA074660B105F10C013046FFF716FE1D
:109920003046FAF7EFFC1021304602F087FDCCE715
:10993000314603A8FFF77CFF2B7B8DF81C301020ED
:10994000FAF7A9FB0546D0B187601420FAF7A3FB0C
:10995000044678B18760014603A8FDF724FC059B07
:10996000A268A360069B0592E268E3609DF81C3044
:1099700006922374064BEB60064B2C60AB6003A889
:10998000FAF7C0FC002229460348FFF719FAC7E797
:109990005F950D004F980D0003910D000022406867
:1099A0001146FFF7FFBA002240681146FFF70ABBD5
:1099B00040680022FFF7FEBA4068002281F00101F2
:1099C000FFF7E8BA002340681A461946FFF7DABAEB
:1099D000002340681A461946FFF7CCBA00224068B7
:1099E0001146FFF7BFBA002240681146FFF7AABA36
:1099F000406800220221FFF7ADBA002340681A46F2
:109A0000FFF798BA024B03225A60024A1A60704765
:109A100094E4032030000E00006800F079B910B51E
:109A20000446016002710AB1FFF7F6FF204610BD3F
:109A300013B50446019102F0DDFC019A014620466F
:109A4000FFF7EDFF204602B010BD006800F069B9D5
:109A50002DE9FF4104460D4617461E46FFF7DCFF81
:109A600036238DF800300023206801934FF0010861
:109A70000A23694603938DF8088000F02DF92068C9
:109A8000036829469B6898472068414600F03CF9E6
:109A9000054640B16FF09F052046FFF7D6FF2846E8
:109AA00004B0BDE8F081022320680193694600F00C
:109AB000E3F80228EED1206803685B6998473870A4
:109AC000206803685B6998473070E5E707B50023B5
:109AD0008DF806308DF807300DF106020DF1070301
