:02000002D0002C
:1040000000400D0084F70D00000006000D000501C2
:08401000040135080000000066
:0440180070DB0D004C
:1040200009480A49884208B505D0094A824202D0A7
:10403000121A07F0C7FD0748074A0021121A07F0B5
:10404000E9FD014808BD00BFB8E0032074F40D008D
:104050009CE30320A0E30320F8E7032070B5074E9C
:10406000074C06F0A5FEA41BA4080025A54200D11C
:1040700070BD56F8043B98470135F7E73CEC0D005E
:104080006CEC0D0001F088B808B501F0B3FCBDE898
:10409000084006F04FBE03F09DBE03F09BBE03F048
:1040A000A1BE000008B5034A00210C2003F016FD54
:1040B000FEE700BFDD770D000078B0FA80F0400920
:1040C00070470123037070477047006A0368DB681C
:1040D00018470000014B1A60704700BFF0E0032052
:1040E000044B00229A60044B06221A70034B0122F3
:1040F0001A7070474CE4032008E503206CE40320A9
:10410000024A01239371024A1370704714E5032099
:1041100048E5032003681847012A03D0022A03D088
:10412000002070470160FBE70B680360F8E70000C0
:1041300010B5054B1A7B054B044653F8221006F0C8
:104140002CF9204610BD00BF14E50320B8E0032081
:1041500038B50446006928B185680C2106F089FF4E
:104160002846F8E7204638BD08B5044906F06BF943
:1041700018B1034B03221A70012008BDC8DB0D00E3
:1041800008E50320436913B183690C301847704771
:1041900010B5034B0360044602F0D8FF204610BD63
:1041A00020E10D0010B50446FFF7F2FF204638214C
:1041B00006F05FFF204610BD10B5034B03600446B8
:1041C00002F0D2FD204610BD04E10D0010B50446FA
:1041D000FFF7F2FF2046102106F04BFF204610BDEE
:1041E00013B500210446084603F068FA0023204670
:1041F00001A9019303F07AFA019C0CB10123237108
:104200000021012003F05AFA2CB1236820469B6854
:1042100098470023237102B010BD000008B508497B
:1042200006F011F9002350B1064A1361064A1361E2
:10423000064A1370064B01201870064B187008BD13
:10424000C8DB0D0014E503204CE4032077E40320D1
:104250006CE4032048E5032008B5002003F032FD9C
:1042600028B103F007FD80F00100C0B208BD0120B5
:10427000FCE70023042203F0DDBC000030B585B06C
:104280000346144668460D4698470298206003F09E
:10429000A1FD286050B12268009907F093FC00242A
:1042A000684606F02FF8204605B030BD004CF7E711
:1042B000FCFEFFFF0A4B10B50446036004F0AAFFA2
:1042C000214605F0ACF906F0E9FC06F0DBFC2046DF
:1042D000044B40F8043B05F08FF8204610BD00BFAA
:1042E000ECE00D00D4E00D0010B50446FFF7E2FF4E
:1042F0002046242106F0BDFE204610BD10B5044620
:10430000006808B103F06EFD204610BD0023406830
:104310001A46194603F026BD10B58368044613B14A
:10432000032201469847204610BD000037B5134BC5
:10433000036004468068C8B100256FF00043CDE9F2
:10434000003502212B462A4603F0D8F9A0682946F9
:1043500003F01CFA237903F0FF0513B103F0A6F96B
:10436000F8E7A068294603F0B9F9A56004F10C004C
:10437000FFF7D2FF204603B030BD00BFC0E00D0004
:1043800010B50446FFF7D2FF20461C2106F071FE4F
:10439000204610BD38B5044620252A46002107F0E6
:1043A00039FC6571204638BDF8B5037D05460F46DA
:1043B00016468BB10368DB6883B19A88012A06D060
:1043C0009B68F9E79B684BB19A88012AFAD12BB117
:1043D0009A89BA42F6D19E732846F8BD0A49102040
:1043E00006F049FE044668B11022002107F012FCD5
:1043F000064B23600123A3802B69A360A781A673CA
:104400002C61E9E72875E7E76CE90D00100003006F
:1044100070B5037D05460E46CBB10368DB6823B15A
:104420009A88042A17D09B68F9E70C49102006F0F7
:1044300022FE044668B11022002107F0EBFB084B76
:1044400023600423A3802B692C61C4E9023628462B
:1044500070BD2875FBE7DE60F9E700BF6CE90D0071
:1044600010000300002003F0D1B90000024601480B
:1044700003F0D8BEF9810D00F0B58C460025144933
:10448000057104468560016092E8030085B002AFC3
:1044900004F10C0687E8030096E8030082E80300B5
:1044A00097E8030086E803009168A0696161D1681C
:1044B0009560D060A161CDE90035064A234661468A
:1044C00004F1080003F002F9204605B0F0BD00BF7A
:1044D000C0E00D00E1410D000EB410B58DB00FAA83
:1044E000016852F8044B039200232020CDE9040315
:1044F000CDE900421E2004AA03F000FB0DB0BDE888
:10450000104003B070470EB410B58DB00FAA01680B
:1045100052F8044B039200232020CDE90403CDE997
:104520000042322004AA03F0E9FA0DB0BDE81040C1
:1045300003B0704737B504689DF818508DF8003007
:104540008DF80450E4683C23A04703B030BD000060
:1045500030B50B781C4D93B00C4693B91B4902A89B
:1045600007F0A5FB2B7953B1194B1A491B788DF82D
:104570000030194B19481B7802AAFFF7DBFF13B074
:1045800030BD084607F0FAFAC8280DD1144902A830
:1045900007F08DFB06F047FA124B286201221A70D1
:1045A000114B00221A70DDE7204607F0E7FAC92810
:1045B000ECD0204607F0E2FA0C4A0346402102A85C
:1045C00003F028FCCEE700BF14E50320FDDB0D005F
:1045D000F1E3032034DC0D00F0E30320CCE40320FE
:1045E00005DC0D0048E5032077E4032017DC0D000F
:1045F00007B50B4905F027FF70B100238DF8003097
:10460000084B094A1B7809490948FFF793FF0948F5
:104610000A2102F0B3F8012003B05DF804FB00BFEB
:10462000C8DB0D00F0E3032041DC0D0068E00D0065
:10463000CCE40320F8E3032037B51949054605F01B
:1046400002FF0446B0B1174B174A01241C71DB78F6
:10465000147013B9012003B030BD144B144A1B78F9
:104660008DF80030134B1B7813491448FFF762FF95
:104670002046F0E71249284605F0E5FE0028EAD07A
:10468000084B094A1C71DB7801241470002BE1D01F
:10469000064B0C4A1B788DF80030064B1B78E3E77D
:1046A000C8DB0D0014E5032048E50320F1E30320F7
:1046B00059DC0D00F0E30320BFDD0D00CCE4032046
:1046C000CBDD0D006ADC0D0000B50C4B0C4A1B7FE6
:1046D000C3B04FF4807102A803F09CFB094B0A4958
:1046E0001B788DF80030094B09481B7802AAFFF7A8
:1046F00021FF012043B05DF804FB00BF14E5032057
:104700007FDC0D00F1E3032099DE0D00F0E30320D0
:10471000CCE4032013B52549044605F094FE20B3EC
:104720002249204605F08FFE38BB2149204605F07E
:104730008AFE002836D01F4CE27812B91E4B0122A7
:104740001A701E4B1E4A1B788DF800301D4B1E49F7
:104750001B781E48FFF7EEFE4FF47A7003F0AEFBB5
:1047600000231B49A371102219E01149204605F0CE
:104770006AFE0028D4D102B010BD0E4CE27852B1CE
:104780000E4B144A1B788DF800300E4B0E491B78E7
:104790000E48FFF7CFFE01230F49A37110220F48E7
:1047A00007F0C5FA0E4B01201870E4E7C8DB0D00D6
:1047B000CBDD0D0014E50320C9E40320F1E3032061
:1047C000A2DC0D00F0E30320BFDD0D00CCE40320EC
:1047D000B4DC0D0093DC0D00B8DC0D00B8E4032060
:1047E00048E503207FB5006803A908F0EFF8B5EEAF
:1047F000C00AF1EE10FA2AD4DFED167AB4EEE70A19
:10480000F1EE10FACCBF0126002620DC124B134D2E
:1048100001241C7010EE100A85ED0B0A06F096FDBF
:104820000F4ACDE900010F48082103F0F3FA2B7974
:1048300053B1EB7843B10C4B8DF800601B78094AFB
:104840000A490B48FFF776FE204604B070BD0024ED
:10485000FAE700BF0000C84248E5032014E5032042
:10486000C2DC0D0059E50320F0E3032059DF0D0001
:10487000CCE403207FB50A22006803A908F07AF986
:1048800007EE900AF8EEE77AF5EEC07AF1EE10FA4C
:1048900028D49FED157AF4EEC77AF1EE10FACCBF6A
:1048A000012600261EDCFDEEE77A104A104D114865
:1048B000C5ED0C7A012417EE903A147010210E4ABF
:1048C00003F0A8FA2B7953B1EB7843B10B4B8DF879
:1048D00000601B78074A0A490A48FFF72BFE20466A
:1048E00004B070BD0024FAE700007A4448E50320D4
:1048F00014E5032049E50320CBDC0D00F0E30320A1
:10490000D3DE0D00CCE4032000B5C9B006F08BF86F
:10491000154A0790118D154B06911969059111697A
:104920000491D9680391107B114951F8201002912C
:10493000926801929A6800925B680E4A4FF4807107
:1049400008A803F067FA0C4B0C491B788DF800306F
:104950000B4B0C481B7808AAFFF7ECFD0A4B012211
:104960001A7049B05DF804FB14E503204CE4032001
:10497000B8E00320D6DC0D00F1E303205CDD0D0080
:10498000F0E30320CCE4032077E4032013B50121F6
:1049900001A805F06AFB0B4BDB68243B402B01A808
:1049A0004FF001040AD905F0F3FB074B1C730024F8
:1049B00001A805F069FB204602B010BD05F0D1FB4F
:1049C000F6E700BF4CE4032014E5032030B5194D91
:1049D0000FCD99B004AC0FC40FCD0FC495E8030000
:1049E00084E8030014490EA803F0D0FA0EA803F0DF
:1049F00020FB04460EA803F025FB0EA810EE105A6B
:104A000003F050FB18AB10EE100A03EB840406F021
:104A10009DFCCDE90201284606F098FCCDE9000195
:104A2000064A54F8503C0648402103F0F3F919B007
:104A300030BD00BF40E10D0098E5032079DD0D0099
:104A4000A4E303200000000008B50F2006F075FA6B
:104A5000B0F5C87F05DA322003F030FA0F2006F0F7
:104A60006CFA06F061FC20A3D3E9002306F0C6FC33
:104A700006F0BCFFDFED147A07EE100A67EE277A26
:104A800017EE900A06F062FC104B002206F0FEFAC8
:104A90000F4B002206F0B2FC06F060FF06F044FC6B
:104AA0000C4B002206F0AAFC0B4B002206F0D0FDB6
:104AB0000A4B002206F0ECFA06F050FF084BD860D3
:104AC000084B01221A7008BD000080390000E03F49
:104AD0000000594000002240000014400000404007
:104AE0004CE403206CE403206666666666660A4052
:104AF00000B591B06846FFF74DFC08A8FFF74AFCE7
:104B0000002108A803F078F8134B5979A1B141F2BC
:104B1000D833ADF80630114B029341F27003ADF873
:104B20000C30009B43F4007300930021684603F0AF
:104B300063F811B05DF804FB41F27003ADF8063084
:104B4000074B029341F21003ADF80C30009B43F485
:104B500000730093EAE700BF14E503208403000418
:104B60008403840337B51B49054605F06CFC0446F5
:104B7000C0B1194D01246C71FFF7BAFF174B1C70BF
:104B8000EB7813B9012003B030BD154B154A1B78E3
:104B90008DF80030144B1B7814491548FFF7CAFCF8
:104BA0002046F0E71349284605F04DFC0028EAD0DE
:104BB000094D0A4B6C7101241C70FFF799FFEB78CB
:104BC000002BDFD0064B0C4A1B788DF80030064BCB
:104BD0001B78E1E7C8DB0D0014E5032048E503205E
:104BE000F1E3032092DD0D00F0E30320BFDD0D00B3
:104BF000CCE40320CBDD0D00A9DD0D00244B1A69A8
:104C0000D3ED057AFF2ABAEE087A88BF0022F4EEC7
:104C1000C77A88BF1A61F1EE10FA06D4B2EE087AAC
:104C2000F4EEC77AF1EE10FA01DD1A4A5A61D3EDBB
:104C3000067AF5EEC07AF1EE10FA06D4B0EE007AFC
:104C4000F4EEC77AF1EE10FA02DD4FF07E529A616F
:104C50001A7F0C2A84BF00221A775A7F0C3A0C2A3A
:104C600084BF18225A770C4A11681A8D8A4284BF71
:104C700000221A8501225A71084B188B81423FBFCE
:104C800000211983064B1A70064B01221A707047D7
:104C900014E503200000A0C0DCE003204CE4032066
:104CA0006CE4032048E5032010B50E4CA38BB3F54C
:104CB000C05F09D10C490D4806F0F9FFBDE810406E
:104CC00009490B4806F0F3BF237F0A4A0748082129
:104CD00003F0A0F8637F074A0548BDE810400821AB
:104CE00003F098B814E50320C4DD0D00E6E00320CE
:104CF000D4E00320C7DD0D0013B50A22006801A926
:104D000007F038FF17280CD8074C2077FFF7CCFFA7
:104D1000064B01201870E3780BB1FFF7D5FC02B009
:104D200010BD0020FBE700BF14E5032048E5032089
:104D300030B5C5B000680A2203A907F01BFF182888
:104D40001CD8104D6877FFF7AFFF0F4B0F4A0124B7
:104D50001C704FF480716B7F04A803F05BF8EB7854
:104D600053B10B4B0B491B788DF800300A4B0B48A5
:104D70001B7804AAFFF7DEFB204600E0002045B0C8
:104D800030BD00BF14E5032048E50320CDDD0D0054
:104D9000F1E3032099DE0D00F0E30320CCE40320CF
:104DA0002DE9F04385B0002601A8CDE90166ADF8F4
:104DB0000C6003F048FAFFF755FBB146804643F616
:104DC00097260027FFF74EFBB0EB080461EB0905BF
:104DD000AF4208BFA64205D302F04CFF10B102F06B
:104DE00039FFEFE7094C02F045FF6068002202211D
:104DF00002F0A0FF2046FFF789FA054B0022DA7087
:104E0000044B0120187005B0BDE8F08398E503203D
:104E100014E5032048E5032008B505F004FE074B20
:104E20000749186000221A611A830A616422DA6154
:104E3000044A01231370044A137008BD4CE4032094
:104E400014E503206CE4032048E5032030B5154C3D
:104E5000154D2278154902EB02132A788DB002EB2A
:104E600002120A440B4400922821114A02A802F0BF
:104E7000D1FF2B7823700F4B1A7982B1DB7853B1B5
:104E80000D4B0E491B788DF800300D4B0D481B78EB
:104E900002AAFFF74FFB0C4802A9FFF71DFB0DB05C
:104EA00030BD00BFC8E4032008E50320F4E0032080
:104EB000E4DD0D0014E50320F1E30320F2DD0D0035
:104EC000F0E30320CCE40320DCE503202DE9F047E8
:104ED000224B234C1B78234A2349244886B00025C3
:104EE0008DF80030224B1B78FFF724FB257102F070
:104EF000C1FE10B1284602F0DDFEFFF7B3FA4FF015
:104F0000000A054647F22F584FF00009FFF7AAFAAA
:104F1000461B61EB0A07B94508BFB04505D3FFF74B
:104F20009BF910B902F096FEF0E7FFF795F9637967
:104F300013B9A368462B09DC0E4902A805F02DFA27
:104F400002A8FFF7E7FB02A805F0DCF9FFF764FF12
:104F5000094B01221A7006B0BDE8F087F1E3032087
:104F600014E5032003DE0D000BDE0D00CCE403206E
:104F7000F0E30320C8DB0D0048E5032030B585B021
:104F80000D4600226946009202F0D0FDB0B9009CA7
:104F90000CB1236923B90A4A00210A2002F09EFDC0
:104FA0000023ADF806300C23ADF80430042303933E
:104FB0000295236901AA01212046984705B030BD1A
:104FC000DD770D0030B52D4B00228BB058681146AF
:104FD00002F0B8FE08B1FFF7F9FCFFF735FD02A9B2
:104FE0000720FFF7CBFF264C264D0028A8BF0298CC
:104FF0002073FFF7CBFC10B92B6901332B6102A999
:105000000320FFF7BBFF002834D1BDF8083007EEBE
:10501000903AFBEECC7AFDEEE77A17EE903A402B11
:10502000C4ED027A09DC237B012B06D102A8FFF72D
:10503000B1F9002102A802F0DFFDA368EA699342FA
:10504000B8BFEB611D2BCCBF002301231320E371FC
:1050500005F073FF642300930023194640F68A622B
:1050600002F020FF084A686001231370074A13709A
:105070000BB030BDFFEE007ACDE700BF98E503200E
:1050800014E503204CE4032048E503206CE40320EE
:1050900038B5046805467CB16368013B63605BB961
:1050A000236820469B689847A368013BA3601BB90F
:1050B00023682046DB689847284638BD70B5D0E99C
:1050C00000531426044606FB0356AE4204D028467D
:1050D00005F018F91435F8E7206802F083FE204641
:1050E00070BD38B503681446DD683423A8472046F0
:1050F00038BD000070B51B4B1B4C01221A70E378C1
:1051000086B053B1194B1A4A1B788DF80030194BF1
:1051100019491B781948FFF70DFA19491948FFF783
:10512000DBF9002518492571012602A82670A57013
:10513000E57105F032F902A8FFF7ECFA02A805F0D4
:10514000E1F8124B63614FF07E53A361064A1048A9
:10515000667141F206533146A3832585FFF7C1FFEF
:1051600006B070BDC9E4032014E50320F1E3032079
:1051700019DE0D00F0E30320BFDD0D00CCE40320B9
:1051800031DE0D00DCE50320C8DB0D000000A0C00F
:1051900078E40320000000002DE9F0410021AAB0CE
:1051A000082005F08DFE0021042005F089FE012174
:1051B000072005F085FE0121072005F092FE06A8D4
:1051C000002502F05FFD00237D220AA906A805F054
:1051D0004CF9BD49DFF80484BC4CBD4F2B462A4630
:1051E000CDE900550AA802F05DFD2B460222B9491F
:1051F000B94802F01FFDB949B948FFF73AF8B94973
:10520000B9482B46022202F015FD2B460222B7496F
:10521000B74802F00FFDB749B748FFF72AF82B4609
:105220000222B649B64802F005FDB649B648FFF776
:1052300020F8B649B648FFF71CF8B649B648FFF75C
:1052400018F82B460222B549B54802F0F3FCB549DF
:10525000B548FFF70EF80C23CDE90355ADF80C3037
:10526000B24BB3490593042203ABB24802F0E2FC0F
:10527000B149B248FEF7FDFFB149B248FEF7F9FF68
:10528000B149B248FFF7F2F8B149B248FFF7EEF87A
:10529000B149B248FFF7EAF8B149B248FFF7E6F87A
:1052A000B149B248FFF7E2F8B149B248FFF7DEF87A
:1052B000B149B248FFF7DAF8B149B248FFF7D6F87A
:1052C000B149B248FFF7D2F8B149B248FFF7CEF87A
:1052D000B149B248FFF7CAF8B149B248FFF7C6F87A
:1052E0000126032241F2883303A8CDE90323ADF858
:1052F000146002F0C2FFAC4801F04CFD2946AA48F8
:1053000033460DF10B0201F087FD9DF80B10B14201
:1053100000F0C680A44801F047FDA44AA248042337
:10532000294601F0C4FD33469F480DF10B02294682
:1053300001F072FD9DF80B30B34200F0AE803E707C
:105340009B4DFFF75BFCFFF7AFFC9A4A002300215F
:105350004FF4802002F00CFC0823012128466B81C9
:1053600001F0CAFB01231A461021284601F02FF94B
:105370007C21A070284601F0A7F894ED060A05F0FC
:1053800009FA00F0D9FE002800F0968005F020FA16
:1053900094ED050A05F0DEF905F07EFB054605F003
:1053A00042FB281A05F0C0FF45A3D3E9002306F00D
:1053B0004FF9814ACDE900010A215A4802F02AFD3D
:1053C000E06A05F0C3FF7D4ACDE9000108215A4893
:1053D00002F020FD236B7A4A5948102102F01AFD91
:1053E000A3791022002B00F0FB807649454806F097
:1053F0009EFC0022114603A8039202F0D7F9039BFA
:10540000142B4FF0000240F0ED802369013323613B
:105410006D4B01221A70FFF76BFB042005F07AFD3B
:1054200008B9FFF767FE05F01BFB00210546D8F819
:10543000000005F073F9854201D0FFF7EDFC05F09F
:1054400003FB237F984216DB05F0FEFA637F984248
:1054500011DAE37833B102F00DFC18B95B4BE07060
:1054600001221A70FFF7AEFD594B5A4A1A6002F03A
:10547000BDF9594B18603B780BB902233B700021F2
:10548000072005F02EFD0123237106A80023A37138
:1054900004F038FF2AB0BDE8F081FFF72BFE4FE79C
:1054A00022463423404801F0B7FC202342465021D5
:1054B0003D4801F0B1FC43E705F096F968E700BF0D
:1054C000000000000020AC4051450D0014E5032011
:1054D00008E5032050E4032049DE0D00A4E3032087
:1054E00056DE0D0024E503205DDE0D0058E40320A8
:1054F00068DE0D00E0E0032074DE0D001CE50320F3
:105500007CDE0D00B8E4032087DE0D00E6E003201A
:105510003EDF0D00D4E0032094DE0D005CE40320A8
:105520009EDE0D006DE40320A5DE0D007D420D0022
:1055300031410D00B0DE0D0059E50320BFDE0D0046
:1055400049E50320CBDE0D001D420D00DCDE0D0021
:10555000F1450D00E8DE0D0069410D00F2DE0D00A1
:1055600015470D00FADE0D00654B0D0007DF0D003D
:1055700039460D0012DF0D0011600D001FDF0D0018
:1055800079610D002CDF0D00F94C0D003ADF0D00A4
:10559000314D0D0047DF0D00E5470D0051DF0D00D7
:1055A00075480D0063DF0D0078E4032068E10D000D
:1055B000F8E30320D5400D0074DF0D00C2DC0D00C0
:1055C000CBDC0D00B8DC0D0048E50320C9E4032066
:1055D0000CE50320E093040010E503204CE40320D5
:1055E000054903E7114603A8039202F0DFF8039B85
:1055F0008C2B7FF410AF08E7B4DC0D008842F8B5BF
:1056000004460D46164616D9904215D2A2F114064C
:10561000751AA1F114072C44B7421CD02CB13146A5
:10562000204604F0EBFE337C2374304604F06AFE1F
:10563000143E143CF0E70ED0B5420CD02CB12946F4
:10564000204604F0DBFE2B7C2374284604F05AFE2F
:1056500014351434F0E7F8BD2DE9F0410023C0E91A
:10566000003383604F689F4204460E4623DD4FF0AF
:10567000140808FB07F002F0ADFB0546D8B1D4E9E9
:10568000001208FB0212FFF7B9FF206802F0AAFB24
:105690002560A760D6E9007308FB0378B84508D0F9
:1056A0003946284604F0C4FE3B7C2B74143714356D
:1056B000F4E7736863602046BDE8F0812DE9F043AC
:1056C000724B734F734DDFF8489201261E70724B78
:1056D00008228FB01A7005F09DFB00231A460D2199
:1056E00005F0A0FB05F096FB00231A46052105F006
:1056F000A1FB6A4B002464221C83DA61684BBB6007
:105700003C60BC80BC71022002F022FA2A46654946
:10571000384605F0A9FC2146304602F031FA314600
:10572000042002F03BF860486049A0F809400346B5
:10573000021D43F8092B9C705D4B43602A46C0E96B
:1057400003440675047205F08FFC05F03DFC594FCB
:10575000014623464FF40052384601F011FB564BE8
:105760003B603846554F56492A4605F07DFC554961
:105770004FF40062384601F0E7FD534B3B602A4688
:105780005249384605F070FC05F01EFC504F0146AA
:105790006922384600F09AFD38464E4F4E492A4657
:1057A00005F062FC2146384603F036F82A464B499C
:1057B000384605F059FCCDE90144039405F06EFA32
:1057C000474C074601A904A8FFF746FFA04604A9D5
:1057D00007A8FFF741FF434B48F8043B07A90AA875
:1057E000FFF73AFF0AAA3146404604F06BF80AA8D0
:1057F000FFF764FC07A8FFF761FC3B4B23602762BF
:1058000004A8FFF75BFC394B236005F047FA4FF41F
:10581000165105F033FA03F0FDFC214603F0E4FFD6
:1058200001A8FFF74BFC2A463149DFF8E880314FE9
:10583000204605F019FC304B304C31490A930AAA36
:10584000334648460C94CDF83480FEF715FE0AA87E
:10585000FEF762FD2A463946484605F005FCCDE9CB
:105860000C48284C284B29490A930AAA334620465B
:10587000FEF702FE0AA8FEF74FFD2A4639462046EB
:1058800005F0F2FB0FB0BDE8F08300BFF0E30320AA
:10589000E4E30320A0E30320F1E303204CE403202E
:1058A0000000FFFFFD420D0034E4032051410D00D4
:1058B0001000030078E4032004E10D00CCE4032091
:1058C000B9410D0000F4032020E10D0091410D00CD
:1058D000F8E3032088E403208D620D0039880D0071
:1058E00094E40320D4E00D0020E80D00ECE00D006E
:1058F000B5420D002D430D0001410D0019410D0071
:1059000040771B0064E50320E1400D00C02709003B
:1059100018E4032015410D002DE9F04F85B04FF03C
:10592000000A01A8CDE901AAADF80CA002F08BFC99
:10593000FEF798FD43F6972883464FF00009FEF7DF
:1059400091FDB0EB0B0661EB0A07B94508BFB04506
:1059500005D302F08FF910B902F07CF9EFE702F0FD
:1059600089F92148DFF880A0FEF7D0FCFEF77AFD28
:105970004FF00009804647F22F560027FEF772FDD0
:10598000B0EB080461EB0905AF4208BFA64206D39D
:10599000504604F0D7FA10B902F05CF9EEE712486D
:1059A00004F0D0FA1148002100F08EFD104B1A7D52
:1059B0000AB102221A72002204210D48FEF7F4FCFB
:1059C00042F21071FEF724FD01A8094904F0D8FD48
:1059D000019808B102F006FA4FF0FF31034800F0D9
:1059E00073FD05B0BDE8F08F98E50320F8E30320D0
:1059F00034E403202DE9F043A44CA54F2378A54EB1
:105A0000013B97B0072B00F28780DFE813F03B02E1
:105A100008007B018E01BE00E901140231009E4B9B
:105A20001B78022B01D0FFF711FA9C4B9B796BB1CD
:105A300001F0DCFE9A4B1B68C01A9A4B1B68984217
:105A400004D9994B9B680BB90823237004F0FCFF21
:105A5000964B05460021186804F058FE85421CBF8D
:105A600003232370924B1B78002B55D00523EBE0CA
:105A7000894B1B78082B01D0FFF7E8F9874BDB78BF
:105A80000BB1FFF78DF900218A4800F01DFD04F0ED
:105A9000CAFF4FF4616590FBF5F303FB1505864BD8
:105AA000C5F561651A7DB5F5616FA8BF4FF46165F5
:105AB0000AB102221A72002204217F48FEF774FC08
:105AC0004FF47A716943FEF7A3FC7B4903A804F005
:105AD00057FD4FF0FF31774800F0F6FC774802F0B1
:105AE00035FF764802F029FF039B7BB19A88012A93
:105AF0000CD19B89042B09D1714906A804F04DFCF7
:105B000006A8FEF707FE06A804F0FCFB0398022394
:105B1000237008B102F066F9664801F0CDF83B78D1
:105B200033B15E4A67480121FFF7DBFA00233B707F
:105B300033783BB120235C4A6248502101F0B7F929
:105B400000233370604B1B68002B1BDB5F4A402136
:105B500006A802F05FF906A95D48FEF7BDFC6420C7
:105B600002F0ACF900238DF800305A4B5A491B78EB
:105B70005A4806AAFEF7DEFC4FF4FA6002F09EF9DE
:105B800004F0FAFC17B0BDE8F083434B1B78052BFB
:105B900013D0DA1E53425341514A1370FFF756F99E
:105BA00004F041FF4F4B18604F48002340681A46ED
:105BB000194602F0CFF802F055F802F05BF8DFF872
:105BC000F0800546002841D0344D002388F800308D
:105BD0000123EB7004F027FF444968623C48FEF75C
:105BE0007BFC98F80030002B96D104F01CFF3D4B55
:105BF0002A4D1B682C4AC01A3D4B118B1B6880B282
:105C00009842288588BF2B852B8D994238BF1383F6
:105C10002021384A06A802F0FDF82D4806A9FEF713
:105C20005BFC2B794BB100238DF80030294B3249B6
:105C30001B782A4806AAFEF77DFC01233B703370CF
:105C4000274B1B78FBB10323237065E704F0EBFEC1
:105C5000244B1B68C01A264B1B689842C1D988F890
:105C6000005004F0E0FE0D4B5A6A801AB0F5E15F77
:105C700006D90123237001F0B9FD204B18604BE7D2
:105C80001F49DD70AAE70223DEE700BF08E5032015
:105C900048E503206CE40320C8E4032014E5032056
:105CA00010E503200CE503204CE4032090E40320DE
:105CB000C9E40320F8E3032034E4032088E403204C
:105CC000CBDD0D0078E40320F0E003208FE00D0031
:105CD000DCE50320F0E30320AEE00D00CCE403207C
:105CE000F2E30320F4E3032098E503207EDF0D00B8
:105CF000DCE00320B8DF0D00CDDF0D0004E503205C
:105D00009ADF0D00A04BDA781AB9A04B01221A7065
:105D1000ACE61B792BB19E4B1B78032B01D0FFF710
:105D200095F8FFF74FF904238EE7994B1B78042B66
:105D300001D0FFF78BF8944DDFF8A08204F084FEC9
:105D40002B7F984212DC93499348FEF7C5FB98F8E5
:105D500000308DF8003006A88E4A90493C2302F0AE
:105D60009BFB07A8FFF794F906236DE704F06CFE90
:105D70006B7F9842E7DADFF84C9295ED0B7AD9ED1C
:105D8000017AF8EEE77AF4EEC77AF1EE10FADAD596
:105D900081488249FEF7A0FB0123C9F80830804BF7
:105DA000986858B12B6B6FF000410022CDE90012CA
:105DB0004FF47A714B43032101F0A0FC2B6B794A1D
:105DC000202106A802F026F898F800308DF800305F
:105DD00003A875493C2306AA02F05EFB04A8C1E7AC
:105DE0006B4B1B78062B01D0FFF730F8664D04F0A3
:105DF0001AFE6E4BE9781860984600293CD004F0F2
:105E000023FE2B7F984213D1FFF760F804F01CFEAD
:105E10002B7F984202D108B9FEF776FD01F0E6FC2F
:105E2000634B186004F0FFFD0723C8F800000BE780
:105E3000FEF76AFDEAE7564B1B78072B01D0FFF708
:105E400005F85C4B1D786DB95B4B5C4A1A6001F03C
:105E5000CDFC5B4B1860022323705A4B1D6101235C
:105E6000337059E601F0C2FC514B1B68C01A47F26F
:105E7000305398427FF650AE01F0B8FC524B186098
:105E80000123E1E6424B1B78012B01D0FEF7DEFF38
:105E900001F0ACFC4C4B1B6803F5EA433033834202
:105EA000BFF43AAE384D04F0BEFD6B6AC01AB0F5CF
:105EB000E15F2C4613D904F0B6FDA0F5616068627D
:105EC0002A4601214148FFF70CF933484049FEF7C3
:105ED0001AFB642001F0F2FFFFF71EFD1CE604F040
:105EE000A2FD2B6AC01AB0F5E15FEB7819D953B166
:105EF000384B394A1B788DF80030384B38491B78BD
:105F00003848FEF717FB4FF4FA6001F0D7FF002383
:105F1000236104F088FD0123A0F5616020623B70DD
:105F2000DAE72A69032A12DC53B12A4B2E4A1B787E
:105F30008DF80030294B2A491B782A48FEF7FAFAD7
:105F40004FF4FA6001F0BAFF04F016FBE4E553B138
:105F5000204B214A1B788DF80030204B20491B78BC
:105F60002048FEF7E7FA4FF4FA6001F0A7FF00239C
:105F7000054A164823610121FFF7B3F81E211B488B
:105F800000F0FCFBC8E500BF14E50320C9E40320D2
:105F9000C8E40320D6DF0D00DCE50320F6DF0D00AA
:105FA00064E50320FFDF0D000FE00D0090E4032007
:105FB00080E5032077E403200CE50320E093040050
:105FC00010E503204CE4032004E5032078E40320DB
:105FD00022E00D00F1E303204FE00D00F0E3032089
:105FE0006EE00D00CCE4032074E00D00F8E3032024
:105FF00008B5002001F066FE28B101F03BFE80F0FC
:106000000100C0B208BD0120FCE700000000000054
:106010002DE9F047C8B0804601F02CFE10B10020F9
:1060200001F048FE002001F0F1FB4FF0000A81462C
:1060300047F22F560027002001F0E8FBB0EB0904DF
:1060400061EB0A05AF4208BFA64205D3FFF7D0FFB8
:1060500010B901F0FFFDEEE7FFF7CAFFD8F8000026
:106060000A2203A906F086FD00F10C03DBB2182B0F
:1060700048D845B207EE905A274BB8EEE70A0124FC
:1060800083ED050A04F066FB244B1C7004F004FD4C
:10609000064604F0C8FC301A05F046F91CA3D3E903
:1060A000002305F0D5FA1E4ACDE900010A211D485A
:1060B00001F0B0FE01F0DEFD10B32B461A4A1B4D75
:1060C0004FF48071002608A801F0A4FE8DF800604E
:1060D00017492B78174808AAFEF72CFA04F0A3FCFE
:1060E0000246C31704A804F09BFB8DF800602B78D0
:1060F000049A0F490F48FEF71DFA04A804F002F9AC
:10610000204600E0002048B0BDE8F087AFF30080F3
:10611000000000000020AC4014E5032048E5032007
:1061200074DF0D006DE403206CE10D0084E50320B5
:1061300099DE0D00CCE4032038B504F091FC05464F
:1061400004F0A2FC044604F097FC231F062B0ED992
:10615000E31E082B0DD801382D1A04D50B2C14BFC3
:106160000020012038BD072D03DD032CF7E70120B7
:10617000F8E70020F6E7000070B52DED028BC8B0FF
:10618000054604F050FC0A22044603A9286806F0DC
:10619000F1FCC3B2022B59D843B208EE103AB8EE64
:1061A000C88AB0EE480A04F0F5FA2D4B83ED068A52
:1061B0002C4B01221A7018EE100A05F0C7F82A4A73
:1061C000CDE900014FF4807108A801F023FE04F02E
:1061D0000DFC28B1FFF7B0FF002834D004F0F8FA26
:1061E00004F05AFC054604F01EFC281A05F09CF841
:1061F00019A3D3E9002305F02BFA1C4ACDE90001CD
:106200000A211B4801F006FE01F034FDC8B1194D0A
:1062100019491A4800268DF800602B7808AAFEF765
:1062200089F92246E31704A804F0FAFA8DF8006011
:106230002B78049A10491148FEF77CF904A804F061
:1062400061F8012003E004F0CFFAC9E7002048B06C
:10625000BDEC028B70BD00BF000000000020AC4010
:1062600014E5032048E5032080E10D0074DF0D00F4
:106270006DE4032084E5032099DE0D00CCE40320C7
:10628000014B01221A70704784E50320704710B556
:106290002021044604F0EDFE204610BD0EB410B5DA
:1062A0008DB00FAA016852F8044B039200232020FE
:1062B000CDE90403CDE90042012004AA01F01EFC4F
:1062C0000DB0BDE8104003B07047000010B5027279
:1062D000FF2242810022C0E9032242610276C261AC
:1062E000024A034C1060C0E9004110BD8CE5032058
:1062F000E0E30D002DE9F8439DF82080044689462F
:1063000016461F46B8F1000F02D0406802F0D2FBDB
:10631000217A606802F0ABFB6068036849469B68BD
:1063200098476068002102F0C1FB054600BB0123CD
:10633000217A60683A4602F088FB8742034609D119
:106340003744BE421CD0606803685B69984706F812
:10635000010BF6E70B490C484A46FEF7D4F8B8F1B2
:10636000000F02D0606802F0AEFB2846BDE8F8835B
:106370000346064904484A46FEF7C5F80025EEE7FD
:106380000125ECE791E10D0088E50320B6E10D0061
:1063900007B500930123FFF7ADFF03B05DF804FBE1
:1063A00073B54389FF2B044610D0194E194D01F0E7
:1063B0001DFAB0F57A7F09D2608904F0ABFD01289F
:1063C00004D031462846FEF787F8F0E701230DF1A7
:1063D000070228212046FFF7DBFF30B90D480E49A0
:1063E000FEF77AF8002002B070BD9DF80730182B38
:1063F000F4D101230DF1070229212046FFF7C8FF40
:106400000028EBD09DF80730052BE7D1EBE700BF64
:10641000DAE10D0088E50320EFE10D0007B5134632
:1064200000228DF807200DF10702FFF7B1FF9DF85C
:10643000070003B05DF804FB2DE9F0419DF81880DA
:1064400004460F4615461E46B8F1000F02D04068BC
:1064500002F030FB217A606802F009FB6068036893
:1064600039469B6898472E44B542606805D003685A
:1064700015F8011B9B689847F6E7012102F016FB0F
:10648000034670B1084909483A46FEF73CF8002532
:10649000B8F1000F02D0606802F015FB2846BDE895
:1064A000F0810125F4E700BFFCE10D0088E5032041
:1064B0001FB58DF80F2000930DF10F020123FFF798
:1064C000BBFF05B05DF804FBF8B50A460C4605466F
:1064D0001A491B48FEF700F8002CB8BFEC687CB9DD
:1064E000012322461B212846FFF7E2FF15490246F9
:1064F00006461348FFF7D2FEEC606C613046F8BDEB
:10650000032C19DDA7101F2FA8BF1F27BA0062F0A8
:106510007C020123D2B21B212846FFF7C9FF3A466D
:106520000346094906460648FFF7B8FE4FF4FA63EA
:106530005F43EC606F61E1E70127E7E721E20D00CF
:1065400088E503202BE20D0047E20D000B460749CA
:106550000246086848B1002B08BFB2F5006F04D1AD
:10656000C36813B10021FFF7AFBF70478CE503206C
:106570002DE9FF419DF82880054616461F46B8F1D3
:10658000000F04D04068019102F094FA0199019142
:1065900000230DF10F022846FFF7FAFE044660B112
:1065A0009DF80F3003EA06023A43934205D0019961
:1065B00000232846FFF77CFF0446B8F1000F02D005
:1065C000686802F080FA204604B0BDE8F08113B597
:1065D00014460DF10702FFF7DBFE28B19DF80730E6
:1065E0001C420CBF0120002002B010BD13B51446A0
:1065F0000DF10702FFF7CCFE28B19DF807301C42D1
:1066000014BF0120002002B010BD07B5D243009393
:10661000D2B20023FFF7ACFF03B05DF804FB00002B
:1066200037B501230DF107020F210446FFF7B0FE35
:10663000054638B91E491F48AD22FDF764FF2846BC
:1066400003B030BD9DF8073013F0200F4FF0010369
:106650000BD02022E3610F212046FFF7D6FF164A18
:1066600016491448FDF738FFE9E7082217212046AC
:10667000FFF7BCFF18B10223114AE361F0E79DF870
:1066800007301A0709D50323E361082201230F21EC
:106690002046FFF7BAFF0B4AE2E75B07CFD504229B
:1066A000E26101230F212046FFF7AFFF064AD7E73B
:1066B0009AE20D0088E503206BE20D00B9E20D00BF
:1066C00074E20D0084E20D0094E20D0007B5009322
:1066D0001346FF22FFF74CFF03B05DF804FB0000F8
:1066E000F8B50F461646012300220F210546FFF795
:1066F000DFFE044638B94FF425721E491E48FDF7E7
:1067000002FF2046F8BD0123232218212846FFF767
:10671000CFFE044610B940F29B22EEE7FF2FA8BF40
:10672000FF27012FB8BF01270123FAB219212846FC
:10673000FFF7BEFE044610B94FF42A72DDE70123CD
:10674000082212212846FFF7C1FF044610B940F283
:10675000AF22D2E7002E4FF0010314BF8322822222
:1067600018212846FFF7A4FE04460028C9D140F2AC
:10677000B922C2E7CAE20D0088E503202DE9F743FC
:106780000A4605460F464F484F49FDF7A5FE002132
:106790002846FFF799FE044648B940F2F7124B49E4
:1067A0004848FDF7B0FE204603B0BDE8F083012362
:1067B0001A4630212846FFF789FF044610B940F2F7
:1067C0000522ECE71022012311462846FFF71DFFA2
:1067D000044610B94FF40372E1E701232622132186
:1067E0002846FFF765FE044610B940F21322D6E7AB
:1067F000012600963346FC2211212846FFF7B8FEF9
:10680000044610B940F21B22C9E700223946284647
:10681000FFF766FF044610B940F22222BFE7009658
:106820000223772210212846FFF7A2FE044610B962
:1068300040F22B22B3E7334604221C212846FFF7FF
:1068400045FF044610B940F23222A8E7009618230B
:10685000E32211212846FFF78BFE044610B940F2CF
:1068600039229CE73346C02217212846FFF720FE35
:10687000044610B94FF4107291E700F0B7FFDFF84B
:106880005490DFF840804FF47A7106464F4300F091
:10689000ADFF801BB8420ED2012217212846FFF718
:1068A000BDFD494602464046FDF716FE4FF47A709C
:1068B00001F004FBEBE706490248FDF724FE03F074
:1068C0005BFE70E788E50320F5E20D00EAE20D00CB
:1068D0001BE30D0006E30D002DE9F3479DF828A00A
:1068E00005460C4691461F46BAF1000F02D040689B
:1068F00002F0E0F807B3202F3E4628BF20267F2C69
:1069000026D83319802B01D9C4F180060123042233
:106910003F212846FFF779FE002364F07F010093B2
:106920004A463346C9B22846FFF7E4FC804628B100
:106930003444BF1BB144DDE74FF00108BAF1000F4A
:1069400002D0686802F0BFF8404602B0BDE8F087A8
:10695000012304223F212846FFF7B8FEDCE72DE99A
:10696000F3479DF828A005460C4691461F46BAF10C
:10697000000F02D0406802F09DF807B31F2F3E467B
:1069800028BF1F267F2C26D83319802B01D9C4F1AC
:106990008006012304223F212846FFF736FE00230C
:1069A00064F07F0100934A463346C9B22846FFF798
:1069B00043FD804628B13444BF1BB144DDE74FF0AE
:1069C0000108BAF1000F02D0686802F07CF8404676
:1069D00002B0BDE8F087012304223F212846FFF7DB
:1069E00075FEDCE730B585B00D68D1E9043203955A
:1069F0004D6802958D680195C9680091013304497D
:106A000002F26C72044603F049FD204605B030BD29
:106A10002DE30D0003110A2200F00F0002FB03001A
:106A2000704738B5044600781546FFF7F3FF086055
:106A30006078FFF7EFFF4860A078FFF7EBFF886012
:106A4000E078FFF7E7FFC8602079FFF7E3FF013840
:106A500008612DB9651D2878FFF7DCFF886138BD16
:106A60006079FFF7D7FF6430A51D4861F3E70000A8
:106A700070B5012388B00D461A4610210446FFF771
:106A8000A6FDF0B108230126204600960DEB030277
:106A90000021FFF72FFC044698B1324629460DF13C
:106AA0000900FFF7BEFF04A8FFF79CFF0848049AFF
:106AB0000849FDF711FD04A803F024FC204608B0A6
:106AC00070BD24220021284605F0A4F80024F5E733
:106AD00088E503204BE30D0030B58BB00D4601A9CE
:106AE000FFF7C6FF044620B101A801F0D3F9C5E9BC
:106AF000000120460BB030BD10B5044688B011B17E
:106B0000406801F085FF2046FFF74AFC70B320463D
:106B1000FFF786FD01231A4610212046FFF757FD97
:106B2000D8B103F063FFC0B902A92046FFF7D4FF34
:106B3000DDE9020103F060FE0F4B10491B68009372
:106B400004A8DDE9022303F00FFF0D48049A0D4964
:106B5000FDF7C2FC04A803F0D5FB0B4A002300217B
:106B60004FF4006001F004F808B010BD0749044874
:106B7000FDF7C9FCF1E700BFB8E1032030E60320D0
:106B800088E5032059E30D004D650D0076E30D0007
:106B90000A2290FBF2F302FB130093FBF2F102FBDB
:106BA000113140EA0110C0B2704770B50546006867
:106BB0000C461646FFF7ECFF20706868FFF7E8FF09
:106BC0006070A868FFF7E4FFA070E868FFF7E0FFD7
:106BD000E07028690130FFF7DBFF20712EB9661DD8
:106BE000A869FFF7D5FF307070BD6A69642392FB16
:106BF000F3F003FB1020FFF7CBFFA61D6071EFE75A
:106C0000F0B587B0054602A816460C46FFF7EAFE27
:106C10001E48029A1E49FDF75FFC02A803F072FBB2
:106C200016B1686801F046FF204601220DF1090106
:106C300000278DF80870FFF7B8FF01231A461021CE
:106C40002846FFF743FD0446E8B1082300970DEB03
:106C5000030239462846FFF7EFFB044660B10123E3
:106C60001A4610212846FFF7D0FC16B1686801F0DB
:106C70002AFF204607B0F0BD4FF48D720549034846
:106C8000FDF741FCF1E74FF48F72F7E788E5032049
:106C90008EE30D009CE30D0013B504466846CDE974
:106CA000002304F07DFF9DF8102001462046FFF7E9
:106CB000A7FF02B010BD0000F0B5057E89B0044604
:106CC00075BB03F093FE58B30026002704A928469D
:106CD000CDE9046700F0FEFF10B30125257603F02F
:106CE000A2FE00950246C3172046CDE90223FFF716
:106CF000D3FF02A92046CDE90267FFF7EDFE124B54
:106D000012491B68009304A8DDE9022303F02CFE5E
:106D10000F48049A0F49FDF7DFFB04A803F0F2FACD
:106D2000636973B100F062FD2369C01A6369984218
:106D300007D300F05BFD4FF0FF3120612046FFF7E5
:106D4000C3FB09B0F0BD00BFB8E1032030E603206B
:106D500088E50320B7E30D00014B024A1A60704733
:106D600088E50320CDE30D00704710B510210446DF
:106D700004F07FF9204610BD0368C9B29B6818472C
:106D800030B5034DC0E90223C0E9005130BD00BF5A
:106D900024E40D00406801F03BBE10B504460068D5
:106DA00001F091FE204610BD2DE9F0418AB0044665
:106DB0004068019001F07EFE1E22002102A8A76813
:106DC00004F028FF0026EFB123681E2FB84628BF25
:106DD0004FF01E08DD6802AA434631462046A84708
:106DE000054658B90A480B493246FDF775FB01A81C
:106DF000FFF7D3FF28460AB0BDE8F081A7EB0807EC
:106E00004644E0E701A8FFF7C8FF0125F2E700BF0D
:106E1000DCE50320F0E30D002DE9F743044640686C
:106E200001900D4616461F4601F044FEA7B1E168E9
:106E3000606841F0500101F01EFE290A6068FFF70A
:106E40009BFF29466068FFF797FF6068002101F00B
:106E50002DFE48B1002400E0012401A8FFF79DFFAA
:106E6000204603B0BDE8F083202F217B6068B84640
:106E700028BF4FF020080123424641F0500101F0A5
:106E8000E4FD04F0A1F803681B6998474045E1DB85
:106E900006EB080904F098F803685B69984706F860
:106EA000010B4E45F6D14544A7EB0807BEE72DE997
:106EB000F74F0446406801900E4690461D4601F08B
:106EC000F9FD4FF00109B9F1000F2AD04DB3E16887
:106ED000606841F0500101F0CEFD310A6068FFF7B3
:106EE0004BFF60683146FFF747FFA5F11E0A474692
:106EF000A6EB080B606817F8011B0368013D9B684F
:106F0000984755450BEB0706B84601D0002DF1D147
:106F10006068012101F0CAFD0028D7D04FF00009B8
:106F2000D1E701A8FFF739FF484603B0BDE8F08F6D
:106F30002DE9F0438BB00E4615468046406801901F
:106F40001C4601F0B7FDAE4229D2264425448CB13F
:106F50001E2C2746D8F8003028BF1E27F61BD3F872
:106F6000089002AA3B4631464046ED1BC84748B947
:106F7000002400E0012401A8FFF70FFF20460BB01A
:106F8000BDE8F083D8F8003002AAD3F80C90294667
:106F90003B464046C8470028EAD0E41BD7E7E9D97A
:106FA000002CE7D0D8F800301E2C274628BF1E271B
:106FB000D3F8089002AA3B4631464046C84700280D
:106FC000D6D0D8F8003002AAD3F80C9029463B4618
:106FD0004046C8470028CBD03E443D44E41BDFE791
:106FE000012A034602D1016000207047022A04BF33
:106FF000D1E90001C3E90001F6E710B501230374EC
:107000008368044643B1C068984701236374002035
:10701000BDE8104000F0B2BB00680028F5D08368DE
:107020000BB904F02CF8C368EEE710B442680346CD
:10703000541001EB6200D20748BF0A591B685DF883
:10704000044B48BFD3581847F7B50646002000F058
:10705000AFFD012805D023492348FDF754FA03B0BA
:10706000F0BD86F8290006F1080000F04FFB04206F
:10707000FDF711F8054698B31C49142003F0FBFFF7
:1070800030B10023C0E90033C0E902330374437414
:107090002860A0B1164B1749C0E902364FF40063CF
:1070A000CDE900030222144B043000F0F7FA30B9A6
:1070B0002B681B7CA3B9012000F088FBF8E72C6843
:1070C00000232B6064B1276837B13846FDF724F9F7
:1070D0001021384603F0CDFF1421204603F0C9FFEC
:1070E0007560BCE738E40D0090E503206CE90D0005
:1070F00043730D005BE40D00FB6F0D0047F2305150
:10710000084AC160084902600022C0E90412074928
:10711000C16107494260C0E908228161028580F8A7
:107120002A20704740E60D002D750D002B700D00D4
:10713000E16F0D0010B5044B044640F8103BFDF71D
:10714000EBF8204610BD00BF40E60D0010B5034B24
:1071500003600446FFF7EEFF204610BD68E60D0011
:1071600010B50446FFF7F2FF2046382103F081FFF7
:10717000204610BD806800F0D1BA806800F0D6BA11
:1071800010B504460068FFF7F8FF204610BD13B5A0
:1071900004460190FFF7EEFFE36ADC88A4B20CB16D
:1071A00003F1080401A8FFF7EBFF204602B010BD71
:1071B00013B504460190FFF7DDFFE26A094800239A
:1071C000D380E16A84F82830083161636362938870
:1071D0000549D288FFF762F801A8FFF7D1FF012027
:1071E00002B010BD90E503206DE40D0013B5044618
:1071F0000190FFF7BFFFE36A01A8DC88FFF7C0FF3B
:10720000204602B010BD00002DE9F047994686B037
:1072100090F829309DF838A09DF83C8004460F4630
:10722000164613B903689B689847394B3846002EB9
:1072300008BF1E4604F061FD0546304604F05DFDC2
:10724000284400F10A05AB071CBF25F003050435EF
:107250003346CDE90285CDE9009A2E492E483A46BB
:10726000FDF73AF9238E083BAB4212D200242046A8
:1072700006B0BDE8F087DB88012B47D005A8FFF7F3
:107280007FFF236894F828109B69204698470028C0
:10729000ECD020460594FFF76DFFE36A218E626B08
:1072A0001944891AA942E6D3D21A1C491A48FEF792
:1072B000F5FF636B48EA0A0883F80480DD80C3F8B1
:1072C0000090636B03F108083946404604F0EFFC78
:1072D000404604F012FD01303146404404F0E7FC22
:1072E000636B1D44E36A6563DA88013292B2DA8027
:1072F000616BE36A208E0090CB1A07480849FEF7BD
:10730000CDFF012405A8FFF73BFFB0E70024F9E714
:10731000E9E70D008EE40D0090E50320CFE40D00B9
:10732000EBE40D0008B5044600F11005A3690BB9A4
:1073300003F0A5FEE36921462846984700F0B6F918
:10734000F4E708B5FFF7EEFF38B5034614460D46DF
:10735000FFF7D4FE034A1A600022DD621C865A63DE
:10736000184638BD68E60D0068B501F10805064607
:10737000284604F0C2FC01300544284604F0BDFC58
:10738000F36A01302844C31A13F003031CBFC3F18E
:107390000403C01868BD00002DE9FF4704460F46EE
:1073A0000390FFF7E7FEE56AEB8805F10806002F7A
:1073B00034D0012B3BD931462046FFF7D5FF064696
:1073C00031462046FFF7D0FF636BB4F8309019497F
:1073D0005B1B0193431B804600933A46A0EB060AD1
:1073E000731B1548FEF75AFF05EB0902B2EB0802C2
:1073F00003D04146304604F0F3FB636B0E48A3EB29
:107400000A036363EA88013A92B2EA80616BE36A35
:10741000CB1A0A49FEF742FF012701E0002BCFD12A
:1074200003A8FFF7ADFE384604B0BDE8F08700279B
:10743000F6E700BF18E50D0090E5032057E50D00C5
:107440002DE9F041C56A1D4F2B68BB4204461FD190
:10745000AB88028E9BB293421AD1EA881849194828
:1074600092B2EE18FEF71AFFE36A083363634FF037
:107470000008EB88616B9BB21FFA88F293420FD928
:107480002046FFF771FFB042606308F10108F0D9B0
:107490002F60238EAB800023EB80E36A08336363A5
:1074A000616BEA88E36A0748CB1A92B20649FEF795
:1074B000F5FE2046BDE8F041FFF7C6BD61AB9CD1AB
:1074C00089E50D0090E503209FE50D0010B5D1E999
:1074D000002386B00021044604910AB9D90705D5D6
:1074E000CDE902230F4B05930F4B049302AB93E8B6
:1074F00003006A4682E8030094E8030083E803007F
:1075000092E80300049A84E80300A168A260059A47
:1075100004911846E168E2600591FCF7FDFE204603
:1075200006B010BD2B700D00E16F0D0007B5054BC7
:1075300000936946002310300193FFF7C7FF03B0A3
:107540005DF804FB75750D0013B5044600F04EF9A7
:10755000636AC01AE368984208D3054B00936946F2
:10756000002304F110000193FFF7B0FF02B010BD3B
:1075700075750D002DE9F04190F82A3086B004466B
:10758000002B40D100F076FB00283CD000F02EF913
:10759000636AC01A40F2F133984234D92368204616
:1075A0005B699847054670B300F10807012384F82A
:1075B0002830384604F0A1FB95F80480CDF804800B
:1075C00001302B68274900933E18334626483A4637
:1075D000FCF782FF2B688DF800803246394602A8FE
:1075E00000F05AFF029D6B7883B9012000F066FC21
:1075F00094F82830002BF5D11C491B48FCF76CFF90
:1076000003A8FDF745FD06B0BDE8F081002000F0BD
:10761000BFFA20B16B7813B900F01CFBFAE72B78A6
:10762000012B0FD112491048FCF756FF23680021A7
:107630009B6920469847002384F8283000F0D6F84C
:107640006062DDE7E2680B490748FCF745FF0A4B3B
:10765000049304A9002304F110000593FFF736FFFB
:10766000E9E700BFC0E50D0090E50320E1E50D006E
:10767000F2E50D0009E60D0049750D00014B024AC7
:107680001A60704790E503202EE60D0008B5024B06
:107690001B685B6C019308BD7402030008B5024BC4
:1076A0001B685B68019308BD4802030008B5024BE4
:1076B0001B68DB68019308BD4802030008B5024B54
:1076C0001B68DB69019308BD4802030008B5024B43
:1076D0001B681B6A019308BD4802030008B5024BF2
:1076E0001B685B6A019308BD4802030008B5024BA2
:1076F0001B689B6A019308BD4802030008B5024B52
:107700001B68DB6A019308BD4802030008B5024B01
:107710001B681B6B019308BD4802030008B5024BB0
:107720001B689B6B019308BD4802030008B5024B20
:107730001B681B6C019308BD4802030008B5024B8F
:107740001B685B6C019308BD4802030008B5024B3F
:107750001B689B6C019308BD4802030008B5024BEF
:107760001B68DB6C019308BD4802030008B5024B9F
:107770001B685B6D019308BD4802030008B5024B0E
:107780001B68DB6E019308BD4802030008B5024B7D
:107790001B681B6F019308BD4802030008B5024B2C
:1077A0001B685B6E019308BD3402030008B5024BF1
:1077B0001B68DB6E019308BD3402030008B5024B61
:1077C0001B685B68019308BD1802030008B5024BF3
:1077D0001B689B68019308BD1802030008B5024BA3
:1077E0001B68DB68019308BD1802030008B5024B53
:1077F0001B685B69019308BD1802030008B5024BC2
:107800001B689B6D019308BD1802030008B5024B6D
:107810001B68DB6D019308BD1802030008B5024B1D
:107820001B685B6E019308BD1802030008B5024B8C
:107830001B689B6E019308BD1802030008B5024B3C
:107840001B685B68019308BD2C02030008B5024B5E
:107850001B689B68019308BD2C02030008B5024B0E
:107860001B68DB68019308BD2C02030008B5024BBE
:107870001B681B69019308BD2C02030008B5024B6D
:107880001B685B69019308BD2C02030008B5024B1D
:107890001B681B6B019308BD2C02030008B5024B4B
:1078A0001B68DB68019308BD2802030008B5024B82
:1078B0001B689B69019308BD2802030008B5024BB1
:1078C0001B68DB69019308BD2802030008B5024B61
:1078D0001B681B6A019308BD2802030008B5024B10
:1078E0001B685B6A019308BD2802030008B5024BC0
:1078F0001B689B6A019308BD2802030008B5024B70
:107900001B68DB6A019308BD2802030008B5024B1F
:107910001B681B6B019308BD2802030008B5024BCE
:107920001B685B6B019308BD2802030008B5024B7E
:107930001B681B6C019308BD2802030008B5024BAD
:107940001B689B6C019308BD2802030008B5024B1D
:107950001B68DB6C019308BD2802030008B5024BCD
:107960001B681B6D019308BD2802030008B5024B7C
:107970001B685B69019308BD6402030008B5024BF4
:107980001B689B68019308BD6802030008B5024BA1
:107990001B68DB68019308BD6802030008B5024B51
:1079A0001B68DB69019308BD3002030008B5024B78
:1079B0001B681B6A019308BD3002030008B5024B27
:1079C0001B681B68019308BD3C02030008B5024B0D
:1079D0001B689B68019308BD3C02030008B5024B7D
:1079E0001B68DB68019308BD3C02030008B5024B2D
:1079F0001B681B69019308BD3C02030008B5024BDC
:107A00001B685B69019308BD3C02030008B5024B8B
:107A10001B689B69019308BD3C02030008B5024B3B
:107A20001B68DB69019308BD3C02030008B5024BEB
:107A30001B681B6A019308BD3C02030008B5024B9A
:107A40001B689B6A019308BD3C02030008B5024B0A
:107A50001B68DB6A019308BD3C02030008B5024BBA
:107A60001B681B68019308BD4C02030008B5024B5C
:107A70001B685B68019308BD4C02030008B5024B0C
:107A80001B689B68019308BD4C02030008B5024BBC
:107A90001B681B69019308BD4C02030008B5024B2B
:107AA0001B685B69019308BD4C02030008B5024BDB
:107AB0001B689B69019308BD4C02030008B5024B8B
:107AC0001B68DB69019308BD4C02030008B5024B3B
:107AD0001B681B6A019308BD4C02030008B5024BEA
:107AE0001B685B6B019308BD6002030008B5024B85
:107AF0001B681B6D019308BD6002030008B5024BB3
:107B00001B685B6D019308BD6002030008B5024B62
:107B10001B68DB6E019308BD6002030008B5024BD1
:107B20001B681B6F019308BD6002030008B5034B7F
:107B30001B68D3F89830019308BD00006002030071
:107B400008B5024B1B681B68019308BD20020300A7
:107B500008B5024B1B685B68019308BD2002030057
:107B600008B5024B1B685B69019308BD2002030046
:107B700008B5024B1B681B6A019308BD2002030075
:107B800008B5024B1B68DB6A019308BD20020300A5
:107B900008B5024B1B68DB6C019308BD2002030093
:107BA00008B5024B1B685B6D019308BD2002030002
:107BB00008B5024B1B689B6D019308BD20020300B2
:107BC00008B5024B1B68DB6D019308BD2002030062
:107BD00008B5034B1B68D3F88830019308BD00003B
:107BE0002002030008B5034B1B68D3F894300193BF
:107BF00008BD00002002030008B5034B1B68D3F842
:107C0000A830019308BD00002002030008B5034B13
:107C10001B68D3F8AC30019308BD000020020300BC
:107C200008B5034B1B68D3F8B030019308BD0000C2
:107C30002002030008B5024B1B681B68019308BDB6
:107C40004402030008B5024B1B685B68019308BD42
:107C50004402030008B5024B1B689B68019308BDF2
:107C60004402030008B5024B1B68DB68019308BDA2
:107C70004402030008B5024B1B685B69019308BD11
:107C80004402030008B5024B1B68DB69019308BD81
:107C90004402030008B5024B1B681B6A019308BD30
:107CA0004402030008B5024B1B685B6A019308BDE0
:107CB0004402030008B5024B1B68DB6A019308BD50
:107CC0004402030008B5024B1B681B6B019308BDFF
:107CD0004402030008B5024B1B685B6B019308BDAF
:107CE0004402030008B5024B1B689B6B019308BD5F
:107CF0004402030008B5024B1B68DB6B019308BD0F
:107D00004402030008B5024B1B685B6C019308BD7D
:107D10004402030008B5024B1B685B68019308BD71
:107D20004002030008B5024B1B689B68019308BD25
:107D30004002030008B5024B1B68DB68019308BDD5
:107D40004002030008B5024B1B681B69019308BD84
:107D50004002030008B5024B1B685B69019308BD34
:107D60004002030008B5024B1B689B69019308BDE4
:107D70004002030008B5024B1B68DB69019308BD94
:107D80004002030008B5024B1B681B6A019308BD43
:107D90004002030008B5024B1B681B6B019308BD32
:107DA0004002030008B5024B1B685B6B019308BDE2
:107DB0004002030008B5024B1B681B6C019308BD11
:107DC0004002030008B5024B1B685B6C019308BDC1
:107DD0004002030008B5024B1B681B68019308BDF5
:107DE0001C02030008B5024B1B685B68019308BDC9
:107DF0001C02030008B5024B1B689B68019308BD79
:107E00001C02030008B5024B1B681B69019308BDE7
:107E10001C02030008B5024B1B68DB69019308BD17
:107E20001C02030008B5024B1B685B6A019308BD86
:107E30001C02030008B5024B1B68DB6A019308BDF6
:107E40001C02030008B5024B1B681B6B019308BDA5
:107E50001C02030008B5024B1B685B6C019308BD54
:107E60001C02030008B5024B1B689B6C019308BD04
:107E70001C02030008B5024B1B68DB6C019308BDB4
:107E80001C02030008B5024B1B681B6D019308BD63
:107E90001C02030008B5024B1B685B6D019308BD13
:107EA0001C0203008A4210B507D0029C401AE41A53
:107EB0006043521A90FBF2F0184410BD0021FFF706
:107EC0004FBE10B5836804460BB903F0D8F8C368F9
:107ED0009847A3681BB103222146204698472046B5
:107EE0001021BDE8104003F0C4B810B50446006886
:107EF00008B1FFF72BFC204610BD0B68036013B1DF
:107F00005A6801325A60704710B5064C002320466B
:107F10002360FFF713FC2046034A0449BDE81040E4
:107F200003F0A2B894E50320A0E30320EB7E0D004C
:107F3000002240681146FFF705BF00224068114645
:107F4000FFF720BF002240681146FFF72BBF4068B3
:107F50000022FFF71FBF4068002281F00101FFF7F8
:107F600009BF002340681A461946FFF7F3BE0022F6
:107F700040681146FFF7D6BE406800220221FFF795
:107F8000D9BE002340681A46FFF7C4BEF0B51B4BAC
:107F9000036000250F4628331826C0E9025589B032
:107FA0004360324629460446103003F033FE7868B9
:107FB0002A462946FFF7C6FE18B9A060204609B038
:107FC000F0BD2946324602A8CDE9005503F022FE55
:107FD00002A96846ADF80860FFF758FB10B101230D
:107FE000A360EBE7009B019AA360E2600BB9022358
:107FF000A36002A9204600F0AEF8DFE7CCE60D0052
:10800000084B10B5282422461846002103F002FE32
:10801000054B04804FF0FF32426004225A60034A4D
:108020001A6010BDA0E5032098E5032090E60D003E
:108030007047007D704710B52821044603F019F8F9
:10804000204610BD037D7BB1C369002B0CDB07EE1E
:10805000903A9FED077AF8EEE77A87EE870ADFED30
:10806000057A20EE270A7047BFEE000A704700BF6E
:1080700000FF7F470000C842037D63B18369B3F10D
:10808000004F08D007EE903A9FED047AF8EEE77AB9
:1080900087EE870A70479FED020A70470000C842CA
:1080A00000000000037D7BB1436A002B0CDB07EE70
:1080B000903A9FED077AF8EEE77A87EE870ADFEDD0
:1080C000057A20EE270A7047BFEE000A704700BF0E
:1080D00000FF7F470000C842037D63B1036AB3F12C
:1080E000004F08D007EE903A9FED047AF8EEE77A59
:1080F00087EE870A70479FED020A70470000C8426A
:108100000000000070B50C1E06460ADA2D2102F0B0
:108110007CF8614205460A22304602F085F8284480
:1081200070BD21460025F6E770B50C46054681680E
:108130002046FFF7E7FF2C210646204602F065F8AF
:10814000E96806442046FFF7DDFF304470BDA0F12A
:108150000400FFF7E9BF30B50D4600F110040FCD64
:108160000FC495E8030084E80300012030BD704788
:108170000020704710B51021044602F07AFF204617
:1081800010BD08B5FFF7F6FF08BD30B500224FF669
:108190009C74026084808D888C800C68858004606B
:1081A0000A6030BD10B504460068FFF71BFE20468C
:1081B00010BD38B5C468F4B12378022B03D104F1A3
:1081C0000C00FFF7EFFF656835B12846FCF7A4F80F
:1081D0001021284602F04DFFA56835B12846FCF76E
:1081E0009BF81021284602F044FF20461421BDE8E8
:1081F000384002F03EBF38BD10B588B0044668462E
:1082000002F0CBF8694604A802F012F904A8A047CE
:10821000044604A802F076F8684602F073F8204697
:1082200008B010BD1FB50023CDE902010192102452
:108230001A4669461846ADF80230ADF80040FFF71F
:1082400001FD04B010BD1FB50C23ADF80430036868
:108250008DF80630037A8DF80730436802930021C9
:10826000437AADF80D1001A88DF80F108DF80C3081
:10827000FFF748FD05B05DF804FB1FB50C22ADF813
:10828000042002688DF80620027A8DF807204268E3
:1082900002920023427A8DF80C20194601AA02208E
:1082A000ADF80D308DF80F30FFF71CFD05B05DF80F
:1082B00004FB73B50E46044656F8043B00930D4686
:1082C00001A83146FFF719FE019A009B6260236006
:1082D00001A8002301930093FCF7DAFE3046FCF777
:1082E000D7FE2846082102F0C4FE204602B070BD29
:1082F00013B50B460246D0E900016C4684E8030042
:1083000093E8030082E8030094E8030083E8030095
:1083100002B010BD826810B50AB902F0B0FEBDE827
:108320001040C368184708B5006800F11001FFF756
:10833000F1FF08BD826810B50AB902F0A0FEBDE8E1
:108340001040C368184708B5006800F11001FFF736
:10835000F1FF08BD38B500230446036010200D4628
:10836000FBF799FE28B10123C0E90133024B0360FA
:10837000C5602060204638BD00E70D0038B50023F9
:1083800083608B6804460D462BB102229847EB6848
:10839000E360AB68A360204638BD0000F0B589B04B
:1083A00004686846FFF7F1FE4FF00203D4E84F2F50
:1083B000002A03D1C4E8413F0029F7D125D104F1B7
:1083C0000C0569462846FFF7E0FEBFF35B8F0123EB
:1083D0006370002004F10803BFF35B8F53E8006F64
:1083E00043E80002002AF9D1BFF35B8F6EB1FFF7BB
:1083F000CFFB78B129463046FFF78CFF3046FBF7BC
:108400008BFF1021304602F034FE6846FFF7CAFEAB
:1084100009B0F0BD314602A8FFF7B0FFE068B4F93B
:10842000105008B103F04CFC06901020ADF81C5021
:10843000FBF731FE0546E8B1002787601820FBF7FF
:108440002AFE044688B10146876002A8FFF750FF64
:10845000049BA268A360059B049206A9E268E360FE
:1084600004F110000592FFF790FE084BEB60084BFB
:108470002C60AB6006A8FFF795FE02A8FBF74CFF47
:10848000002229460348FFF78BFBB7E727830D003F
:10849000BD850D00C37E0D002DE9F0478AB005466D
:1084A0009DF848900C4617469846FFF7E3FB07AE49
:1084B000824638BB4FF62E73059005A93046ADF8BD
:1084C0001830FFF762FE1420FBF7E5FD044648B1C3
:1084D000022303700123C0E901AA437031460C3026
:1084E000FFF753FE2846214640F8044BFFF732FFC2
:1084F0003046FFF757FE05A8FFF754FE28460AB09E
:10850000BDE8F0870C234FF0000A1420CDE908AA3B
:108510000793FBF7C0FD014628B1C0E901AA80F826
:1085200000A080F801A004A80391FFF713FF224BDD
:1085300008930820FBF7AFFD824628B1039B40F863
:10854000043B04A9FFF7D9FC00965FFA89F3424681
:1085500039462046CDF824A0FFF79CFBB8B9039B11
:108560005B7803F0FF0293B94FF69C7305A903A84B
:108570000592ADF81830FFF711FF05A8FFF712FEBE
:1085800005A80999FFF795FE06A8FCF781FD039B56
:10859000059304A906A8FFF7B0FC059B069A2B607B
:1085A0006A60002306A806930593FCF771FD04A8F2
:1085B000FCF76EFDA2E700BF81860D00022AF8B528
:1085C000054607D0032A18D0012A01D10B680360A1
:1085D0000020F8BD18200E68FBF75DFD044650B181
:1085E0003146FFF7CBFE3069B6F9147008B103F0DD
:1085F00067FB2061A7822C60EAE70468002CE7D0C3
:1086000004F11000FFF7CEFD2046FBF785FE182190
:10861000204602F02EFDDBE738B5002383608B682F
:1086200004460D462BB102229847EB68E360AB6825
:10863000A360204638BD022A70B5044607D0032A3D
:1086400012D0012A01D10B680360002070BD1420F4
:108650000E68FBF720FD054620B13146FFF7DCFF31
:10866000337C2B742560F0E70468002CEDD02046A5
:10867000FBF752FE1421204602F0FBFCE5E7000068
:10868000F0B589B004460D4601A81146FFF711FE6A
:10869000A4B124B21DB1284603F012FB054601A87F
:1086A00003A90395ADF81040FFF778FE03A8FFF784
:1086B00079FD02A8FCF7ECFC09B0F0BD019D012397
:1086C000D5E84F2F002A03D1C5E8413F0029F7D153
:1086D000EFD12B73BFF35B8F6B702B1DBFF35B8FE1
:1086E00053E8006F43E80042002AF9D1BFF35B8FE3
:1086F000002EDED02046FFF74BFA074660B105F1A9
:108700000C013046FFF716FE3046FBF705FE102140
:10871000304602F0AEFCCCE7314603A8FFF77CFF01
:108720002B7B8DF81C301020FBF7B5FC0546D0B133
:1087300087601420FBF7AFFC044678B187600146E0
:1087400003A8FFF7D5FD059BA268A360069B0592D1
:10875000E268E3609DF81C3006922374064BEB60E0
:10876000064B2C60AB6003A8FBF7D6FD0022294620
:108770000348FFF715FAC7E747830D0037860D005A
:10878000C37E0D00002240681146FFF7FBBA0022AD
:1087900040681146FFF706BB40680022FFF7FABAAF
:1087A0004068002281F00101FFF7E4BA002340682D
:1087B0001A461946FFF7D6BA002340681A461946EA
:1087C000FFF7C8BA002240681146FFF7BBBA002283
:1087D00040681146FFF7A6BA406800220221FFF761
:1087E000A9BA002340681A46FFF794BA024B032245
:1087F0005A60024A1A607047C8E503201CE70D0062
:10880000006800F057B910B50446016002710AB162
:10881000FFF7F6FF204610BD13B50446019102F0A4
:10882000FBFB019A01462046FFF7EDFF204602B010
:1088300010BD006800F047B910B5037904460BB1CC
:10884000FFF7F7FF204610BD2DE9FF4104460D4616
:1088500017461E46FFF7D4FF36238DF8003000235D
:10886000206801934FF001080A23694603938DF8AD
:10887000088000F003F92068036829469B68984740
:108880002068414600F012F9054640B16FF09F059F
:108890002046FFF7CEFF284604B0BDE8F081022352
:1088A00020680193694600F0B9F80228EED12068EB
:1088B00003685B6998473870206803685B6998476C
:1088C0003070E5E713460A460C21FFF7BDBF2DE9DE
:1088D000FF41164604461D460F46FFF791FF36231B
:1088E0008DF800300023206801934FF001080A231F
:1088F000694603938DF8088000F0C0F8206803688B
:1089000039469B6898472068036831469B689847BA
:108910002068036829469B6898474146206800F014
:10892000C5F8002820460CBF00256FF09F05FFF713
:1089300080FF284604B0BDE8F08108B5402200233E
:108940000621FFF7C4FF00EAE07008BD37B5054611
:10895000FFF756FF00230DF107020DF1060128462F
:108960008DF806308DF80730FFF7ACFF041E0BDBE7
:108970009DF807309DF8062003F07F030C21284660
:10898000FFF7A5FF00EAE0742846FFF752FF2046F4
:1089900003B030BD7047F8B5064615460C468F1833
:1089A000BC4206D0336814F8011B9B6830469847D8
:1089B000F6E72846F8BD007C0022FEF787BF007C62
:1089C0000021FEF78BBF007C0021FEF78FBF007CEB
:1089D0000021FEF793BF007C0021FEF797BF10B582
:1089E0001421044602F045FB204610BD10B54FF49B
:1089F0007A73044608460021C4E90113034B23603F
:108A000020741146FEF792FF204610BD58E70D0076
:108A10000023007C1A461946FEF740BF7FB50022AE
:108A20001423CDE90122ADF804300B788DF808301D
:108A30004B680393CB680493007C0B7A059301A9E0
:108A4000FEF78CFF07B05DF804FB1FB5003B8DF807
:108A500000104FF06401039118BF01236946019291
:108A60008DF80830FFF7DAFF05B05DF804FB007CF5
:108A70000022FEF71BBFC9B2FFF7F9BF7FB5002385
:108A8000CDE901334A6803921423CA68ADF8043073
:108A90000B7804920A7A0592007C8DF8083001AABE
:108AA0001946FEF703FF07B05DF804FB007C0022C7
:108AB000FEF704BF08B50021007CFEF73FFFB0FAC7
:108AC00080F0400908BD08B50021007CFEF73EFF9C
:108AD000B0FA80F0400908BD704710B5182104466F
:108AE00002F0C7FA204610BDF0B5037D062B8DB00D
:108AF0000E4600F104074FF0000412D000F1080503
:108B000015F8011D0A22304601F08EFBAF420444E5
:108B100019D0002CF4D02E21304601F076FB04440D
:108B2000EEE72F236A4639460A208DF80040FEF70B
:108B30001DFF684603F0E1F833680246DB686946CA
:108B400030469847044620460DB0F0BD10B5054BA1
:108B50000446112240F8043B002103F05BF8204654
:108B600010BD00BF80E70D000346074A10B543F86B
:108B7000042B01F1100251F8044B43F8044B9142CD
:108B8000F9D10A781A7010BD80E70D0010B59DF874
:108B9000084044EA032343EA024242EA0161042313
:108BA0004160037510BD13B5CB7800938B784A787C
:108BB0000978FFF7EBFF02B010BD00F110030122AE
:108BC00013F8101C0129184608D153F8041C02EBB5
:108BD0004102013A03F11003F2D17047022904BFA8
:108BE00053F8041C5218F4E70EB4F0B588B000AF87
:108BF00007F13405102155F8042B7A6004462B4602
:108C00007818FD60FFF70EF90F287A681AD900F17D
:108C1000080323F007036E46ADEB030D411C2B4602
:108C20006846FD60FFF7FEF8021E04DD2368694612
:108C30009B6820469847B5462037BD46BDE8F040C2
:108C400003B070470028F7D0236802469B6807F1FD
:108C5000100120469847EFE710B5036804469B686B
:108C60009847A368013BA3602BB923682046DB68C3
:108C7000BDE81040184710BD07B503688DF8071010
:108C80009B6801220DF10701984703B05DF804FBD2
:108C900038B50B6803604D6843689D4204460CD0AC
:108CA00015B16B6801336B60606828B14368013BA4
:108CB00043600BB9FFF7D0FF6560204638BD0B4617
:108CC0001146002210B5C0E90022044683600BB9AA
:108CD000204610BDFFF7DCFFFAE78368EBB11A7896
:108CE000032A1AD8DFE802F00417021B0520704798
:108CF00002685B685268D05C2D2812D0A0F1300366
:108D0000092B0ED974280ED066280CD0A0F16E0362
:108D10005842584170470620704700207047042091
:108D20007047032070470220704710B50446FFF7D4
:108D3000D4FF02280ED0C31EDBB2012B14D8226848
:108D4000A36850685B68BDE810400A2200211844FF
:108D500003F010BF2268A36852685B68D05CA0F182
:108D600074035842584110BD0020FCE738B5002379
:108D7000C0E9003304460E48C4E90203A9B10B78E8
:108D8000032B06D08BB9136858684B68C35C6E2BF5
:108D900007D013684D6858688B6828445B1BA06037
:108DA000E36011462046FFF773FF204638BD00BF41
:108DB000E9E70D0038B500250B46C0E90055C0E9CC
:108DC0000255C0E90455044611464BB11A78012AF0
:108DD00006D103F11002DB6882604361FFF758FFA0
:108DE000204638BD10B54369044663B18068E06031
:108DF000013B1030A0602061636113B1FFF7DDFE1D
:108E0000A060012000E0184610BD10B57D21044689
:108E1000FFF732FF01232371204610BD08B5037907
:108E2000012B02D0022B04D008BD2C21FFF724FF18
:108E3000FAE73A21FAE710B50446FFF7EFFF2046BC
:108E40007B21FFF719FF00232371204610BD00008E
:108E500013B504460191FFF7E1FF2368019ADB682F
:108E600003492046984701232046237102B010BDD4
:108E700028E20D0013B504460191FFF7CFFF2368E8
:108E8000019ADB6803492046984701232046237155
:108E900002B010BD17E40D002DE9F0410D46174654
:108EA0002221DFF8A08004462F44FFF7E5FE294683
:108EB000BD422A4638D015F8016B222E03D05C2E15
:108EC00001D01F2EF4D82368521A9B682046984779
:108ED0005C212046FFF7D0FE0D2E0AD8072E1CD9A4
:108EE000A6F10803052B18D8DFE803F00D0F1117C2
:108EF0001315222E01D05C2E0FD131462046FFF7EC
:108F0000BBFE2946D4E76221F8E77421F6E76E211B
:108F1000F4E76621F2E77221F0E723683246DB6866
:108F2000414620469847ECE78D4204D023686A1AF0
:108F30009B682046984722212046FFF79DFEBDE80A
:108F4000F08100BF8CE70D0013B50446CDE9002188
:108F5000FFF764FF2046DDE90021FFF79DFF0223B4
:108F60002046237102B010BD13B50446CDE900219F
:108F7000FFF754FF2046DDE90021FFF78DFF0123B5
:108F80002046237102B010BD80680368DB68184773
:108F90007047084611B10B685B6818477047704707
:108FA0007047704738B504460D4600682E2102F020
:108FB0006AFE2368C31A2B6023B1037803B1013022
:108FC00023682060184638BD10B50C21044602F015
:108FD00050F8204610BD10B50421044602F049F8AF
:108FE000204610BD10B50421044602F042F8204688
:108FF00010BD08B502F051FEB0FA80F0400908BD7E
:1090000010B50C4601F04AFE844210D001F0BAFDC2
:10901000844205D101F0B6FDBDE8104001F0AFBDBE
:109020002CB1236820465B68BDE81040184710BD8E
:1090300013B504460846019102F05FFE019902460D
:10904000204602B0BDE81040FFF78EBF13B50446BE
:109050000846019102F051FE23680199DB6802463F
:10906000204602B0BDE81040184707B503688DF8E8
:109070000710DB6801220DF10701984703B05DF886
:1090800004FB0EB403B503AB002153F8042B006AB4
:10909000019301F0E7F802B05DF804EB03B070470C
:1090A0002DE9F74FD0E900954FF0140808FB05F5BE
:1090B0000093AB10184D17465D434C46002D23DD41
:1090C0006E1008FB06F004EB000A3A46BAF804B04A
:1090D000205801915F4528BF5A4602F016FE0199BB
:1090E000012378B95F4503D1009A13703546E5E74F
:1090F0008CBF012000200028F8D0AE1B0AF1140418
:10910000013EF3E7C00FF6E7A4EB09040248A41000
:10911000604303B0BDE8F08FCDCCCCCC7FB5036904
:10912000067E01910BB301B3002500F10C040395F9
:1091300003A901A8FFF736FF0146B0B10DF10B03FB
:10914000039A8DF80B502046FFF7AAFF9DF80B30CD
:109150005BB12468142303FB004000F10804B0F95C
:109160000630002BA8BFDEB2E2E7304604B070BD87
:1091700010B50A4C2378BFF35B8FDB070BD4204676
:10918000FAF79AFF38B12046FAF79BFF044A0549DF
:10919000054801F069FF044810BD00BFD4E5032075
:1091A000A0E30320A18F0D00B0E1032010B50A4C0D
:1091B0002378BFF35B8FDB070BD42046FAF77CFFE5
:1091C00038B12046FAF77DFF044A0549054801F009
:1091D0004BFF044810BD00BFD8E50320A0E30320E7
:1091E0009F8F0D00B4E1032038B500250446C0E987
:1091F0000055C0E904558560856140F8245FFEF79D
:109200009DFAFFF7B5FFE061FFF7D0FF25732062FD
:10921000204638BD10B50B4C2378BFF35B8FDB07BE
:109220000ED42046FAF748FF50B10748FFF7DCFF9D
:109230002046FAF746FF054A0549034801F014FFA6
:10924000014810BDD0E50320E0E50320A0E30320A2
:10925000A9960D00024A034903480023FEF75EBCAD
:1092600085950D0011950D0091940D0000231A466F
:1092700019461846FEF752BC37B50D6951F8043B44
:109280000093044601A8FEF738FE6A4629462046A8
:10929000FFF715FD01A8FBF7FBFE204603B030BD2C
:1092A00037B58D6851F8043B0093044601A8FEF7DA
:1092B00024FE6A4629462046FFF77CFD01A8FBF7FD
:1092C000E7FE204603B030BD37B5CD6851F8043B0A
:1092D0000093044601A8FEF710FE6A462946204680
:1092E000FFF744FD01A8FBF7D3FE204603B030BDD5
:1092F00070B58AB00D46014604A8FFF7D1FF144EA1
:1093000004A8FFF76FFDE8B104A96846FFF7DCFF8A
:1093100002983146FFF76DFE044610B12C1E18BFAF
:10932000012401A8FBF7B4FE002CE9D004A968468B
:10933000FFF7A2FF6846FFF7F8FC286001A8FBF7DB
:10934000A7FEDDE705A8FBF7A3FE0AB070BD00BFCE
:1093500092E70D0037B50C4620461249154602F03B
:109360009CFC48B901F09AFC4FF4165101F086FCC0
:1093700001F094FC03B030BD0B49204602F08DFC97
:1093800070B94FF4165301A928460193FFF7B0FFB7
:1093900001F0F8FB019901F0EFFB01F0F3FBE9E7C5
:1093A0000020E7E797E70D009EE70D0070B5D0E9D4
:1093B00000531426044606FB0356AE4205D005F1C1
:1093C0000800FFF7F3FF1435F7E72068FEF70AFD02
:1093D000204670BD70B5D0E90053044605EB031676
:1093E000AE4204D0284600F08DFF1035F8E7206823
:1093F000FEF7F8FC204670BD10B504460C30FFF7B0
:10940000D5FF2046FFF7E6FF204610BD10B5044B00
:10941000044640F8043BFFF7EFFF204610BD00BFB5
:10942000D4E00D0010B50446FFF7F0FF20462421DC
:1094300001F01FFE204610BD10B5034B036004462B
:10944000FFF7E4FF204610BD38E80D0010B50446D4
:10945000FFF7F2FF2046242101F00BFE204610BD4D
:109460000022C0E9002210B582600C6804604C68DC
:1094700044608C680A604A6084608A6010BD10B5E0
:10948000036804461868FEF771F9204610BD000015
:109490002DE9F04F87B0804603931C4B5B68C3F304
:1094A0000803894616466BB9FFF7B4FE044600F17F
:1094B0002403406A0593FEF751F9237B2BB105A8DD
:1094C000FFF7DDFF07B0BDE8F08F01232373D4E978
:1094D00000535FFA89F905EB830AAA4512D055F8C3
:1094E000047B3146381DFFF719FE8145F5D33B68F3
:1094F000039A0092D3F808B04A46334641463846AC
:10950000D847EAE700232373D9E700BF00ED00E066
:109510002DE9F74F9B461A4B5B68C3F3080380465F
:10952000894616466BB9FFF775FE044600F1240321
:10953000406A0193FEF712F9237B2BB101A8FFF7D4
:109540009EFF03B0BDE8F08F01232373D4E90053DD
:10955000F6B205EB830A55450ED055F8047B594603
:10956000381DFFF7DBFD8642F5D33B684A46DB68D2
:10957000414638469847EEE700232373DEE700BFF5
:1095800000ED00E02DE9F341164B5B68C3F30803DF
:1095900005460F461BBBFFF73DFE00F124030446C2
:1095A000406A0193FEF7DAF8D4E90063462406EB3B
:1095B0008308B04509D101A8FFF761FFA542B4BFF8
:1095C0000020012002B0BDE8F08156F8040B3946B6
:1095D0000430FFF7A3FD8442A8BF0446E9E700205A
:1095E000F0E700BF00ED00E070B50446D0E90002EE
:1095F0000B4600EB8202824207D001461D6851F8FB
:10960000046BAE4203D00846F5E7002070BD521A45
:1096100002F0E6FA6368013B63600120F6E71FB5DC
:1096200000F124030446406A01910393FEF796F883
:1096300001A92046FFF7D8FF18B163680BB9FFF7FF
:1096400015FE03A8FFF71BFF04B010BD70B5D0E9ED
:1096500004561823044603FB0656AE4215D005F106
:1096600010012046FFF7C0FF63680BB9FFF7FEFD4E
:10967000E06929690368DB689847696919B1206A5C
:109680000368DB6898471835E7E7D4E904531826E0
:1096900006FB0356AE4204D0284600F033FE1835D0
:1096A000F8E70023636170BD73B50446FFF7DEFD84
:1096B00004F12403606A0193FEF750F82046FFF797
:1096C000C5FF01A8FFF7DBFE606A08B1FEF73EF8B0
:1096D000D4E90453182606FB0356AE4204D02846AC
:1096E00000F010FE1835F8E72069FEF77BFB2068D4
:1096F000FEF778FB204602B070BD8842F8B50646FA
:109700000C46154627D9904226D2A2F114056C1AB0
:10971000A1F1140704440026AF423DD0A4B12B6848
:109720002360AB88A380B5F90630E380C4E9026604
:109730002661AB68A360AE60E368EA68E260EB6054
:1097400023692A6922612B6105F10800FFF72EFECB
:10975000143D143CE0E71FD00027AC421CD0A6B15A
:1097600023683360A388B380B4F90630F380C6E978
:1097700002773761A368B360A760F368E268F260BC
:10978000E360336922693261236104F10800FFF765
:109790000DFE14341436E0E7F8BDF8B5D0E90153F6
:1097A0009D4204460E4617460DDB0135002D00682C
:1097B00004DDA900FEF71EFB18B9F8BDFEF712FB89
:1097C00000202060A5602568626805EB8601920094
:1097D000A2EB8602081D02F003FA45F826706368C2
:1097E000013363600120E8E737B500F12403044644
:1097F000406A01930D46FDF7B1FFD4E9003103EB58
:10980000810083421A460BD01268AA4203F1040376
:10981000F7D101A8FFF733FE0025284603B030BD7D
:109820002A462046FFF7B9FF05460028F1D06368B5
:10983000012B01D1FFF70EFD01A8FFF720FEECE799
:109840008842F8B504460D46164614D9904213D204
:10985000A2F11006751AA1F110072C44B74218D0D6
:109860001CB13146204600F0C9FD304600F04AFDEB
:10987000103E103CF2E70CD0B5420AD01CB129468C
:10988000204600F0BBFD284600F03CFD10351034AA
:10989000F2E7F8BD70B50E1E054611DD3001FEF78A
:1098A00099FA044658B1D5E9001201EB0212FFF70C
:1098B000C7FF2868FEF796FA2C60AE60012070BDE5
:1098C0000024F6E72DE9F04F914697B0002303916D
:1098D000D9F804100C9346229942C0E90033C0E93C
:1098E0000233C0E90433CDE90A330446027623DCAF
:1098F000D9E90057142303FB0757AF423BD0294651
:109900000DA800F07BFD0DA911A80B9E00F076FDBF
:10991000DDE90B1399421BDA0A9B0B9A03EB06163F
:1099200003EB0212314606F11000FFF789FFEEB992
:109930000B9B01330B9311E00AA8FFF7ABFF002844
:10994000D6D10AA8FFF746FD204617B0BDE8F08F34
:1099500001310AA8FFF79EFF0028DDD111A800F011
:10996000D1FC0DA800F0CEFC1435C6E711A9304695
:1099700000F044FDDCE70026CDE90D660F96374682
:109980004FF0140ADDE90A239E4280F297803301EA
:10999000D35808930BB90136F4E70AFB06F309978D
:1099A00002930DAD09A908A8FFF7FCFA8346002829
:1099B000F1D00146099A8DF81F700DF11F0328465A
:1099C000FFF76EFB9DF81F800190B8F1000F66D184
:1099D000BDF82430ADF84830CDE913884FF6FF7359
:1099E000CDF844B0ADF84A30CDF85480D5E9013215
:1099F00093421ADB03F1010BBBF1000F4ADD0AFBB6
:109A00000BF0FEF7E7F90490002845D0D5E90012E5
:109A10000AFB0212FFF771FE049B28680493FEF70D
:109A2000E1F9049B2B60C5F808B0019BD5F800B0A4
:109A30006A680AFB03F30BEB030101F114000AFB54
:109A400002B204910593FFF758FE0499A9B1059B52
:109A5000119A4BF80320BDF848308B80BDF94A308D
:109A6000CB80C1E902770F61139B8B60149B139726
:109A7000CB60159B14970B6115976B6801336B6076
:109A800013A8FFF793FCB8F1000F08D00DA8FFF75B
:109A90008DFC56E74346C0E74FF00108F0E7019B15
:109AA0002D680AFB0355089B1B782BB9D9F80030A9
:109AB000029A13441B7CEB80083573E7216822600F
:109AC00062686360A3680B920C9A0C93E368A260CF
:109AD0000D9A0D932369E2600E9A0E9363692261D9
