:02000002D0002C
:1040000000400D00ECDD0D00000006000D00050174
:08401000040135080000000066
:0440180028C40D00AB
:1040200009480A49884208B505D0094A824202D0A7
:10403000121A06F051FA0748074A0021121A06F030
:1040400073FA014808BD00BF28E10320E4DA0D003F
:1040500004E4032008E40320F8E7032070B5074ECA
:10406000074C05F02FFBA41BA4080025A54200D196
:1040700070BD56F8043B98470135F7E7ACD20D0008
:10408000DCD20D0001F068BB08B500F0E1FFBDE82F
:10409000084005F0D9BA03F0BFBC03F0BDBC03F083
:1040A000C3BC000008B5034A00210C2003F040FB0C
:1040B000FEE700BF71740D000078B0FA80F040098F
:1040C0007047012303707047014B1A60704700BFAF
:1040D00060E10320014B01221A707047B4E5032010
:1040E000024A01239371024A137070475CE5032072
:1040F0008CE5032003681847012A03D0022A03D065
:10410000002070470160FBE70B680360F8E70000E0
:1041100010B5054B1A7B054B044653F8221004F0EA
:10412000BAFD204610BD00BF5CE5032028E1032056
:1041300038B50446006928B185680C2105F023FCD8
:104140002846F8E7204638BD08B5044904F0D1FDFB
:1041500018B1034B03221A70012008BD80C40D0062
:1041600050E50320436913B183690C301847704749
:1041700010B5034B0360044602F09CFE204610BDC0
:10418000BCC90D0010B50446FFF7F2FF20463821E8
:1041900005F0F9FB204610BD10B5034B0360044643
:1041A00002F0A4FC204610BDA0C90D0010B50446C5
:1041B000FFF7F2FF2046102105F0E5FB204610BD79
:1041C00013B500210446084603F0D2F80023204628
:1041D00001A9019303F0E4F8019C0CB101232371C0
:1041E0000021012003F0C4F82CB1236820469B680D
:1041F00098470023237102B010BD000008B508499C
:1042000004F077FD002350B1064A1361064A13619A
:10421000064A1370064B01201870064B187008BD33
:1042200080C40D005CE50320B8E40320E3E4032030
:10423000D8E403208CE5032008B5002003F064FBDC
:1042400028B103F039FB80F00100C0B208BD0120A5
:10425000FCE70023042203F00FBB000030B585B05B
:104260000346144668460D4698470298206003F0BE
:10427000D3FB286050B12268009906F02DF9002484
:10428000684604F0BDFC204605B030BD004CF7E7A1
:10429000FCFEFFFF10B50446006808B103F0C4FB44
:1042A000204610BD002340681A46194603F07CBB27
:1042B00010B58368044613B103220146984720468F
:1042C00010BD000037B5134B036004468068C8B1C9
:1042D00000256FF00043CDE9003502212B462A4628
:1042E00003F066F8A068294603F09AF8237903F0F2
:1042F000FF0513B103F034F8F8E7A068294603F08E
:1043000047F8A56004F10C00FFF7D2FF204603B088
:1043100030BD00BF8CC90D0010B50446FFF7D2FFB9
:1043200020461C2105F02FFB204610BD38B5044661
:1043300020252A46002106F0F7F86571204638BD91
:10434000F8B5037D05460F4616468BB10368DB685A
:1043500083B19A88012A06D09B68F9E79B684BB124
:104360009A88012AFAD12BB19A89BA42F6D19E7362
:104370002846F8BD0A49102005F007FB044668B13D
:104380001022002106F0D0F8064B23600123A38001
:104390002B69A360A781A6732C61E9E72875E7E77D
:1043A000DCCF0D001000030070B5037D05460E46FE
:1043B000CBB10368DB6823B19A88042A17D09B68C5
:1043C000F9E70C49102005F0E0FA044668B1102224
:1043D000002106F0A9F8084B23600423A3802B6971
:1043E0002C61C4E90236284670BD2875FBE7DE6003
:1043F000F9E700BFDCCF0D001000030002460148C2
:1044000003F04EBD757E0D00F0B58C4600251449B5
:10441000057104468560016092E8030085B002AF33
:1044200004F10C0687E8030096E8030082E8030025
:1044300097E8030086E803009168A0696161D1688C
:104440009560D060A161CDE90035064A23466146FA
:1044500004F1080002F094FF204605B0F0BD00BF53
:104460008CC90D00C1410D000EB410B58DB00FAA5E
:10447000016852F8044B039200232020CDE9040385
:10448000CDE900421E2004AA03F062F90DB0BDE898
:10449000104003B0704737B504689DF818508DF888
:1044A00000308DF80450E4683C23A04703B030BDD1
:1044B00030B50B781C4D93B00C4693B91B4902A83C
:1044C00006F068F82B7953B1194B1A491B788DF80F
:1044D0000030194B19481B7802AAFFF7DCFF13B014
:1044E00030BD084605F0D4FFC8280DD1144902A8F4
:1044F00006F050F804F033FF124B286201221A70C4
:10450000114B00221A70DDE7204605F0C1FFC928D3
:10451000ECD0204605F0BCFF0C4A0346402102A81F
:1045200003F09AFACEE700BF5CE50320B5C40D00A6
:104530005DE40320ECC40D005CE4032014E50320DB
:10454000BDC40D008CE50320E3E40320CFC40D00BF
:1045500007B50B4904F0CDFB70B100238DF8003096
:10456000084B094A1B7809490948FFF794FF094895
:104570000A2101F0C5FF012003B05DF804FB00BF74
:1045800080C40D005CE40320F9C40D0004C80D00D4
:1045900014E5032064E4032037B51949054604F007
:1045A000A8FB0446B0B1174B174A01241C71DB78F5
:1045B000147013B9012003B030BD144B144A1B789A
:1045C0008DF80030134B1B7813491448FFF763FF35
:1045D0002046F0E71249284604F08BFB0028EAD079
:1045E000084B094A1C71DB7801241470002BE1D0C0
:1045F000064B0C4A1B788DF80030064B1B78E3E71E
:1046000080C40D005CE503208CE503205DE40320FD
:1046100011C50D005CE403206CC60D0014E50320F9
:1046200090C60D0022C50D0000B50C4B0C4A1B7F37
:10463000C3B04FF4807102A803F00EFA094B0A4987
:104640001B788DF80030094B09481B7802AAFFF748
:1046500022FF012043B05DF804FB00BF5CE50320AE
:1046600037C50D005DE40320BFC80D005CE40320E6
:1046700014E5032013B52549044604F03AFB20B3A2
:104680002249204604F035FB38BB2149204604F07E
:1046900030FB002836D01F4CE27812B91E4B0122A5
:1046A0001A701E4B1E4A1B788DF800301D4B1E4998
:1046B0001B781E48FFF7EFFE4FF47A7003F020FAE4
:1046C00000231B49A371102219E01149204604F070
:1046D00010FB0028D4D102B010BD0E4CE27852B1CC
:1046E0000E4B144A1B788DF800300E4B0E491B7888
:1046F0000E48FFF7D0FE01230F49A37110220F4887
:1047000005F087FF0E4B01201870E4E780C40D0010
:1047100090C60D005CE5032011E503205DE4032055
:104720005AC50D005CE403206CC60D0014E503209F
:104730006CC50D004BC50D0070C50D0000E50320D4
:104740008CE503207FB5006803A906F09BFDB5EE5C
:10475000C00AF1EE10FA2AD4DFED167AB4EEE70AB9
:10476000F1EE10FACCBF0126002620DC124B134DCF
:1047700001241C7010EE100A85ED0B0A05F070FA8A
:104780000F4ACDE900010F48082103F065F92B79A4
:1047900053B1EB7843B10C4B8DF800601B78094A9C
:1047A0000A490B48FFF777FE204604B070BD00248D
:1047B000FAE700BF0000C8428CE503205CE5032057
:1047C0007AC50D008DE503205CE403206EC90D0061
:1047D00014E5032000B5C9B004F0C1FD154A0790E7
:1047E000118D154B06911969059111690491D968CC
:1047F0000391107B114951F82010029192680192A7
:104800009A6800925B680E4A4FF4807108A803F022
:1048100023F90C4B0C491B788DF800300B4B0C48DE
:104820001B7808AAFFF737FE0A4B01221A7049B01D
:104830005DF804FB5CE50320B8E4032028E10320D5
:1048400083C50D005DE4032009C60D005CE4032070
:1048500014E50320E3E4032013B5012101A804F0CB
:10486000AAF80B4BDB68243B402B01A84FF0010456
:104870000AD904F033F9074B1C73002401A804F093
:10488000A9F8204602B010BD04F011F9F6E700BF08
:10489000B8E403205CE5032030B5194D0FCD99B085
:1048A00004AC0FC40FCD0FC495E8030084E80300E7
:1048B00014490EA803F0A8F90EA803F0F8F904466D
:1048C0000EA803F0FDF90EA810EE105A03F028FA16
:1048D00018AB10EE100A03EB840405F0C1F9CDE922
:1048E0000201284605F0BCF9CDE90001064A54F85A
:1048F000503C0648402103F0AFF819B030BD00BF6E
:10490000DCC90D00D0E5032026C60D000CE4032011
:1049100008B50F2004F09BFFB0F5C87F05DA322000
:1049200003F0EEF80F2004F092FF05F087F920A3C2
:10493000D3E9002305F0ECF905F0E2FCDFED147A91
:1049400007EE100A67EE277A17EE900A05F088F94D
:10495000104B002205F024F80F4B002205F0D8F987
:1049600005F086FC05F06AF90C4B002205F0D0F941
:104970000B4B002205F0F6FA0A4B002205F012F864
:1049800005F076FC084BD860084B01221A7008BD70
:10499000000080390000E03F000059400000224044
:1049A0000000144000004040B8E40320D8E4032095
:1049B0006666666666660A4000B591B06846FFF7AF
:1049C000B5FC08A8FFF7B2FC002108A802F036FFEA
:1049D000134B5979A1B141F2D833ADF80630114BE0
:1049E000029341F27003ADF80C30009B43F4007366
:1049F00000930021684602F021FF11B05DF804FB2E
:104A000041F27003ADF80630074B029341F21003F8
:104A1000ADF80C30009B43F400730093EAE700BF4D
:104A20005CE50320840300048403840337B51B4939
:104A3000054604F05EF90446C0B1194D01246C71BD
:104A4000FFF7BAFF174B1C70EB7813B9012003B0C6
:104A500030BD154B154A1B788DF80030144B1B7870
:104A600014491548FFF717FD2046F0E7134928467B
:104A700004F03FF90028EAD0094D0A4B6C7101247B
:104A80001C70FFF799FFEB78002BDFD0064B0C4A28
:104A90001B788DF80030064B1B78E1E780C40D00D1
:104AA0005CE503208CE503205DE403203FC60D0098
:104AB0005CE403206CC60D0014E5032090C60D00D5
:104AC00056C60D0070B51A4B1A4C01221A70E378C5
:104AD00086B053B1184B194A1B788DF80030184B2B
:104AE00018491B781848FFF7D6FC0025174925718F
:104AF000012602A82670A570E57104F0CCF802A882
:104B0000FFF7B8FD02A804F07BF8114B63614FF08A
:104B10007E53A36141F20653A383064A0D48667192
:104B200030233146258502F084F806B070BD00BF01
:104B300011E503205CE503205DE4032071C60D0050
:104B40005CE403206CC60D0014E5032080C40D0056
:104B50000000A0C0E4E40320244B1A69D3ED057AD9
:104B6000FF2ABAEE087A88BF0022F4EEC77A88BF1F
:104B70001A61F1EE10FA06D4B2EE087AF4EEC77AB2
:104B8000F1EE10FA01DD1A4A5A61D3ED067AF5EE1C
:104B9000C07AF1EE10FA06D4B0EE007AF4EEC77ADD
:104BA000F1EE10FA02DD4FF07E529A611A7F0C2A64
:104BB00084BF00221A775A7F0C3A0C2A84BF18222D
:104BC0005A770C4A11681A8D8A4284BF00221A85CE
:104BD00001225A71084B188B81423FBF0021198373
:104BE000064B1A70064B01221A7070475CE50320D1
:104BF0000000A0C04CE10320B8E40320D8E4032067
:104C00008CE5032010B50E4CA38BB3F5C05F09D122
:104C10000C490D4805F0BEFCBDE8104009490B48A1
:104C200005F0B8BC237F0A4A0748082102F014FFA8
:104C3000637F074A0548BDE81040082102F00CBF19
:104C40005CE5032089C60D0056E1032044E1032002
:104C50008CC60D0013B50A22006801A906F0E6FB18
:104C600017280CD8074C2077FFF7CCFF064B012004
:104C70001870E3780BB1FFF7D7FC02B010BD00202D
:104C8000FBE700BF5CE503208CE5032030B5C5B031
:104C900000680A2203A906F0C9FB18281CD8104D89
:104CA0006877FFF7AFFF0F4B0F4A01241C704FF4DA
:104CB00080716B7F04A802F0CFFEEB7853B10B4BF1
:104CC0000B491B788DF800300A4B0B481B7804AA5F
:104CD000FFF7E1FB204600E0002045B030BD00BFFB
:104CE0005CE503208CE5032092C60D005DE4032003
:104CF000BFC80D005CE4032014E503202DE9F04358
:104D000085B0002401A8CDE90144ADF80C4003F0C2
:104D1000D8F8204602F0C4FB43F6972805464FF02A
:104D20000009002002F0BCFB461B61EB0407B945FB
:104D300008BFB04505D302F0BFFD10B102F0ACFDD5
:104D4000EFE70A4C02F0B8FD60680022022102F091
:104D500013FE2046FFF7A6FA054B0022DA70054B3A
:104D60000120187005B0BDE8F08300BFD0E5032036
:104D70005CE503208CE5032008B504F0F0FA074B4E
:104D80000749186000221A611A830A616422DA61F5
:104D9000044A01231370044A137008BDB8E40320C9
:104DA0005CE50320D8E403208CE5032030B5154CE6
:104DB000154D2278154902EB02132A788DB002EBCB
:104DC00002120A440B4400922821114A02A802F060
:104DD00043FE2B7823700F4B1A798AB1DB7853B1DD
:104DE0000D4B0E491B788DF800300D4B0D481B788C
:104DF00002AAFFF750FB04F0DBFB02A903F0BAFEA6
:104E00000DB030BD10E5032050E5032064E1032020
:104E1000A9C60D005CE503205DE40320B7C60D00C4
:104E20005CE4032014E503207FB5002301A8CDE94D
:104E30000133ADF80C3003F044F802F021FB0F4DC4
:104E4000044643F69726EB7843B102F019FB001BAA
:104E5000B04203D8642002F053FEF4E70848FFF79D
:104E600021FA4FF47A7002F04BFE064B0A221B68BF
:104E7000012101A804F05EF804B070BD5CE50320D8
:104E8000D0E5032058E403202DE9F047234B244CC0
:104E90001B78244A2449254886B000258DF8003027
:104EA000234B1B78FFF7F7FA257102F005FD10B1CF
:104EB000284602F021FD002002F0F2FA4FF0000A2D
:104EC000054647F22F584FF00009002002F0E8FA9B
:104ED000461B61EB0A07B94508BFB04505D3FFF78C
:104EE000ABF910B902F0D8FCEFE7FFF7A5F9637949
:104EF00013B9A368462B09DC0E4902A803F0CBFEC8
:104F000002A8FFF7B7FB02A803F07AFEFFF734FF11
:104F1000094B01221A7006B0BDE8F0875DE403205A
:104F20005CE50320C8C60D00D0C60D0014E50320C3
:104F30005CE4032080C40D008CE5032030B585B00F
:104F40000D4600226946009202F00AFCB0B9009CAE
:104F50000CB1236923B90A4A00210A2002F0E8FBB8
:104F60000023ADF806300C23ADF80430042303937E
:104F70000295236901AA01212046984705B030BD5A
:104F800071740D0030B52D4B00228BB0586811465E
:104F900002F0FAFC08B1FFF77FFCFFF7B9FC02A9A9
:104FA0000720FFF7CBFF264C264D0028A8BF02980C
:104FB0002073FFF751FC10B92B6901332B6102A953
:104FC0000320FFF7BBFF002834D1BDF8083007EEFF
:104FD000903AFBEECC7AFDEEE77A17EE903A402B52
:104FE000C4ED027A09DC237B012B06D102A8FFF76E
:104FF0009DF9002102A802F021FCA368EA6993420E
:10500000B8BFEB611D2BCCBF002301231320E3713C
:1050100004F01DFC642300930023194640F68A62C5
:1050200002F062FD084A686001231370074A13709A
:105030000BB030BDFFEE007ACDE700BFD0E5032016
:105040005CE50320B8E403208CE50320D8E40320CA
:105050002DE9F043A44CA54E2378A54F013B97B012
:10506000082B00F2AF80DFE813F0E1020900CB016A
:10507000F9016D0147027102E70045009D4B1B7865
:10508000022B01D0FFF792FE9B4DAB796BB102F082
:10509000F7F99A4B1B68C01A994B1B68984204D9C0
:1050A000984B9B680BB90823237004F069F9964B61
:1050B00080460021186803F0C5FF80451CBF03230C
:1050C000237004F05DF96B7F98420DDB0923237098
:1050D0008E4B1B780BB1052323708D4B1B78002B57
:1050E00070D0042323706DE004F04AF92B7F9842BE
:1050F000ECDBEDE77F4B1B78092B01D0FFF756FE69
:105100007D4BDA7898460AB1FFF7F8FD0021814817
:1051100001F09CF804F023F94FF4616590FBF5F37E
:1051200003FB15057C4BC5F561651A7DB5F5616F0F
:10513000A8BF4FF461650AB102221A72002204214D
:105140007548FFF7FDF84FF47A716943FFF72CF9C2
:10515000714903A803F08AFE4FF0FF316D4801F05A
:1051600075F86E4803F030FA6C4803F024FA039B9C
:105170009BB19A88012A10D19B89042B0DD16849D3
:1051800006A803F088FD06A8FFF774FA06A803F046
:1051900037FD4FF4C053A8F81C3004F0F1F898F82C
:1051A0001D30984208DA04F0EBF898F81C30984269
:1051B00002DB534B5B4A1A6002232370039808B149
:1051C00002F032FC534801F039FC33783BB1302314
:1051D000494A5548012101F02CFD002333703B78EA
:1051E0003BB12023474A5048502101F022FD0023C3
:1051F0003B704E4B1B68002B1BDB4D4A402106A821
:1052000002F02AFC06A94B48FFF72EF9642002F0B1
:1052100077FC00238DF80030474B48491B784848FD
:1052200006AAFFF738F94FF4FA6002F069FC03F0C0
:1052300019FE17B0BDE8F0832E4B1B78082B01D068
:10524000FFF7B4FD2C4BDB780BB1FFF757FD2C4B70
:1052500030484FF47A7200211A6000F0F7FF04F032
:105260007EF84FF4616590FBF5F303FB15052A4BBF
:10527000C5F561651A7DB5F5616FA8BF4FF461652D
:105280000AB102221A72002204212348FFF758F8BB
:105290004FF47A716943FFF787F81F4903A803F0B9
:1052A000E5FD4FF0FF311B4800F0D0FF1B4803F035
:1052B0008BF91A4803F07FF9039B002B3FF47CAF76
:1052C0009A88012A7FF478AF9B89042B7FF474AF0E
:1052D000134906A803F0DFFC06A8FFF7CBF906A8E0
:1052E00003F08EFC68E700BF50E503208CE5032047
:1052F000D8E4032010E503205CE5032058E50320F3
:1053000054E50320B8E40320FCE4032011E5032066
:10531000B4E5032064E40320A0E40320F4E40320C4
:1053200090C60D00905F0100E4E4032060E10320DB
:1053300049C80D0008E603205CE4032068C80D009E
:1053400014E503209A4B1B78052B13D09A1F534268
:105350005341984A1370FFF729FD04F000F8964B6B
:1053600018609648002340681A46194602F014FB5C
:1053700002F09AFA02F0A0FA914DDFF88882814695
:1053800000284AD0002388F800300123EB7003F096
:10539000E6FF686298F80030002B31D103F0DFFFA0
:1053A000854B884A1B68118BC01A874B1B6880B2DB
:1053B0009842288588BF2B852B8D994238BF13834F
:1053C0002021824A06A802F047FB814806A9FFF780
:1053D0004BF82B794BB100238DF800307D4B7E4983
:1053E0001B787E4806AAFFF756F8012333703B70FE
:1053F000EB78002B30D06F4B1B786BB306232370F8
:105400006F4B1B7933B16A4B22781B789A4201D0DB
:10541000FFF7CCFCFFF7B6FD63E603F0A0FF664B99
:10542000694A1B681268C31A9342B3D988F800907E
:1054300003F095FF6B6AC01AB0F5E15F05D901234F
:10544000237002F01DF8664B186000236549604820
:10545000EB70FFF709F89DE70223D0E7624DDFF814
:1054600074912B7803F0FF0873B14FF000088DF8AA
:10547000008099F800305D4A5D495848FFF70BF805
:1054800085F8008006232DE603F07AFF08280AD16C
:105490004B4999F800308A68312A16DC00228DF8D1
:1054A0000020544A0CE003F06BFF0C28F0D003F00E
:1054B00067FF1128ECD08DF8008099F800304E4A33
:1054C0004B494648FEF7E7FFDCE73E4A91ED0B7A91
:1054D000D2ED017AF8EEE77AF4EEC77AF1EE10FA3F
:1054E00005D592681AB98DF80020444AE8E70022F1
:1054F0008DF80020424AE3E72D4B1B78062B01D0A4
:10550000FFF754FC2E4DEB7823B93E4B01221A7065
:105510000523E7E503F034FF2B7F984213D1FFF713
:10552000B3FC03F02DFF2B7F984202D108B9FFF79F
:1055300051F901F0A5FF344B186003F010FF334B15
:1055400018600723CEE5FFF745F9EAE7184B1B780B
:10555000072B01D0FFF72AFC2D4B1D786DB92D4B81
:105560002D4A1A6001F08CFF2C4B18600223237027
:10557000144B1D6101233B7024E601F081FF224B97
:105580001B68C01A47F2305398427FF61BAE01F0F9
:1055900077FF134B224A1860224B23491B788DF862
:1055A00000300C4B0D481B78FEF775FF012399E581
:1055B00010E503205EE4032060E40320D0E503202F
:1055C0005CE50320B8E403204CE10320FCC60D0099
:1055D00008E603205CE4032011C70D0014E5032056
:1055E0004CE50320DEC60D00B4E503201AC70D000C
:1055F00033C70D004EC70D003CC70D0072C70D002C
:105600009CC70D0011E50320B8E50320FCE403204E
:10561000E3E4032054E50320905F010058E50320F4
:10562000FCCF0D005DE40320B0C70D003B4B1B78A1
:10563000012B01D0FFF7BAFB01F022FF384B1B68AA
:1056400003F5EA4330338342BFF4BCAD354C03F07D
:1056500086FE636AC01AB0F5E15F10D93023224696
:105660000121314801F0E5FA30493148FEF7FCFEEE
:10567000642002F045FA2F481E2100F041FF236903
:10568000032B13DCE37853B12B4B2C4A1B788DF89A
:1056900000302B4B2B491B782B48FEF7FCFE4FF4B8
:1056A000FA6002F02DFA03F0DDFB8BE503F057FE04
:1056B000236AC01AB0F5E15FE37818D953B11E4BE5
:1056C000224A1B788DF800301D4B1E491B781E485E
:1056D000FEF7E1FE4FF4FA6002F012FA00232361B4
:1056E0000A2101231348337000F00AFF6AE553B121
:1056F000114B174A1B788DF80030114B11491B785C
:105700001148FEF7C8FE4FF4FA6002F0F9F90023E1
:10571000236101233370FFF787FB53E510E5032076
:105720004CE503205CE50320E4E40320C9C70D0039
:1057300008E6032064E403205DE40320F6C70D00BF
:105740005CE403200AC80D0014E5032010C80D0016
:105750002AC80D00000000002DE9F0410021AAB088
:10576000082004F037F80021042004F033F8012168
:10577000072004F02FF80121072004F03CF806A8C8
:10578000002402F0A1F800237D220AA906A803F054
:10579000C2FAB749DFF8D883B64DB74F2346224641
:1057A000CDE900440AA802F09FF823460222B3493B
:1057B000B34802F061F8B349B348FEF74AFDB34974
:1057C000B3482346022202F057F823460222B14989
:1057D000B14802F051F8B149B148FEF73AFD23460D
:1057E0000222B049B04802F047F8B049B048FEF78D
:1057F00030FDB049B048FEF72CFDB049B048FEF787
:1058000028FD23460222AF49AF4802F035F8AF49E0
:10581000AF48FEF71EFD0C23CDE90344ADF80C3074
:10582000AC4BAD490593042203ABAC4802F024F81D
:10583000AB49AC48FEF70DFDAB49AC48FEF7DEFDC9
:10584000AB49AC48FEF7DAFDAB49AC48FEF7D6FDF4
:10585000AB49AC48FEF7D2FDAB49AC48FEF7CEFDF4
:10586000AB49AC48FEF7CAFDAB49AC48FEF7C6FDF4
:10587000AB49AC48FEF7C2FDAB49AC48FEF7BEFDF4
:10588000AB49AC48FEF7BAFDAB49AC48FEF7B6FDF4
:105890000126032241F2883303A8CDE90323ADF8A2
:1058A000146002F028FBA64801F036F92146A4480E
:1058B00033460DF10B0201F071F99DF80B10B14266
:1058C00000F0B5809E4801F031F99E4A9C480423BF
:1058D000214601F0AEF9334699480DF10B022146FD
:1058E00001F05CF99DF80B30B34200F09D803E70F2
:1058F000954CFFF731F9FFF785F9944A0023002111
:105900004FF4802001F056FF0823012120466381D7
:1059100000F0B4FF01231A461021204600F019FDC3
:105920007C21A870204600F091FC95ED060A03F05A
:10593000CDFB00F0ADFA002800F0858003F0E4FB19
:1059400095ED050A03F0A2FB03F042FD044603F0C7
:1059500006FD201A04F072F943A3D3E9002304F0F2
:1059600001FB7B4ACDE900010A21584802F074F896
:10597000E86A04F075F9774ACDE900015848082132
:1059800002F06AF8AB791022002B5FD072494748C9
:1059900004F03FFE0022114603A8039201F050FDDF
:1059A000039B142B4FF0000252D12B6901332B6162
:1059B0006A4B01221A70FEF7FFFF042003F034FF48
:1059C00008B9FFF77FF803F0E7FC00210446D8F898
:1059D000000003F03FFB844201D0FFF7CDF903F054
:1059E000CFFC2B7F984211DB03F0CAFC6B7F9842FF
:1059F0000CDAEB782BB101F05FFF10B9584B0122A4
:105A00001A70FFF7BFFA574B574A1A603B780BB929
:105A100002233B700021072003F0EDFE06A803F0EF
:105A2000EFF82AB0BDE8F081FFF74CF860E72A46AE
:105A30003023434801F0B2F8202342465021404829
:105A400001F0ACF854E703F06BFB79E747499EE7B8
:105A5000114603A8039201F0F3FC039B8C2BAAD1FF
:105A6000A3E700BFAFF30080000000000020AC40BF
:105A7000B1440D005CE5032050E50320BCE40320A5
:105A80006FC80D000CE403207CC80D006CE50320FA
:105A900083C80D00C4E403208EC80D0050E103202C
:105AA0009AC80D0064E50320A2C80D0000E503209C
:105AB000ADC80D0056E1032053C90D0044E1032099
:105AC000BAC80D00C8E40320C4C80D00D9E40320FF
:105AD000CBC80D005D420D0011410D00D6C80D0070
:105AE0008DE50320E5C80D00FD410D00F1C80D0056
:105AF00051450D00FDC80D0049410D0007C90D00BD
:105B000075460D000FC90D002D4A0D001CC90D0072
:105B100099450D0027C90D00695D0D0034C90D00C0
:105B2000D15E0D0041C90D00554C0D004FC90D004F
:105B30008D4C0D005CC90D0045470D0066C90D0078
:105B4000E4E4032004CA0D0064E40320C9400D000E
:105B500078C90D007AC50D0070C50D008CE50320D5
:105B600011E5032054E50320905F01006CC50D0092
:105B7000B8E40320554B2DE9F04300241C60544B3E
:105B8000544F554DDFF8B891DFF8B88101261E70EB
:105B9000524B082285B01A7003F0C6FD23462246F8
:105BA0000D2103F0C9FD03F0BFFD2346224602216B
:105BB00003F0CAFD4A4B3C6064221C83DA61494B06
:105BC000BB60BC80BC71022001F0DCFD2A46464966
:105BD000384603F0D3FE2146304601F0F3FD31464E
:105BE000042001F025FC41484149A0F80940034642
:105BF000021D43F8092B9C703E4B43602A46C0E9C6
:105C000003440675047203F0B9FE03F067FE3A4FD1
:105C1000014623464FF40052384600F073FF374BDD
:105C20003B603846364F37492A4603F0A7FE3649CF
:105C30004FF40062384601F065FA344B3B602A4667
:105C40003349384603F09AFE03F048FE314F0146CF
:105C50006922384600F0FCF938462F4F2F492A4672
:105C600003F08CFE2146384602F014FC2A462C49EB
:105C70002C4C384603F082FE2B4B2C492C4F0093C2
:105C80006A46334648460294CDF80C80FEF7BCFBCA
:105C90006846FEF70DFB2A463946484603F06EFE7D
:105CA000CDE90248234C244B244900936A463346ED
:105CB0002046FEF7A9FB6846FEF7FAFA2A4639465F
:105CC000204603F05BFE05B0BDE8F08358E40320F6
:105CD0005CE403204CE4032008E403205DE403209B
:105CE000B8E403200000FFFF95420D00A0E403206C
:105CF00031410D0010000300E4E40320A0C90D00B1
:105D000014E5032099410D0000F40320BCC90D00E7
:105D100071410D0064E40320F4E40320E55F0D000D
:105D2000B5840D00F9400D00D5400D00804F1200E4
:105D3000C5420D0084E40320E1400D0040771B00C4
:105D400098E50320F5400D0008B5002001F0DCFDCA
:105D500028B101F0B1FD80F00100C0B208BD012002
:105D6000FCE70000000000002DE9F047C8B08046C5
:105D700001F0A2FD10B1002001F0BEFD002001F0F5
:105D80008FFB4FF0000A814647F22F560027002074
:105D900001F086FBB0EB090461EB0A05AF4208BFD6
:105DA000A64205D3FFF7D0FF10B901F075FDEEE76D
:105DB000FFF7CAFFD8F800000A2203A905F036FB56
:105DC00000F10C03DBB2182B48D845B207EE905A0D
:105DD000274BB8EEE70A012483ED050A03F056F9D4
:105DE000244B1C7003F0F4FA064603F0B8FA301A9C
:105DF00003F024FF1CA3D3E9002304F0B3F81E4AE8
:105E0000CDE900010A211D4801F026FE01F054FDF4
:105E100010B32B461A4A1B4D4FF48071002608A878
:105E200001F01AFE8DF8006017492B78174808AA70
:105E3000FEF731FB03F093FA0246C31704A803F000
:105E40008BF98DF800602B78049A0F490F48FEF704
:105E500022FB04A802F0D4FE204600E0002048B057
:105E6000BDE8F087AFF30080000000000020AC40E8
:105E70005CE503208CE5032078C90D00D9E40320FC
:105E800008CA0D00BCE50320BFC80D0014E50320BF
:105E900038B503F081FA054603F092FA044603F0A0
:105EA00087FA231F062B0ED9E31E082B0DD80138C5
:105EB0002D1A04D50B2C14BF0020012038BD072D4E
:105EC00003DD032CF7E70120F8E70020F6E70000E8
:105ED00070B52DED028BC8B0054603F040FA0A22DA
:105EE000044603A9286805F0A1FAC3B2022B59D8C9
:105EF00043B208EE103AB8EEC88AB0EE480A03F092
:105F0000E5F82D4B83ED068A2C4B01221A7018EE12
:105F1000100A03F0A5FE2A4ACDE900014FF4807172
:105F200008A801F099FD03F0FDF928B1FFF7B0FFD3
:105F3000002834D003F0E8F803F04AFA054603F0ED
:105F40000EFA281A03F07AFE19A3D3E9002304F00D
:105F500009F81C4ACDE900010A211B4801F07CFD2B
:105F600001F0AAFCC8B1194D19491A4800268DF84C
:105F700000602B7808AAFEF78EFA2246E31704A8E1
:105F800003F0EAF88DF800602B78049A1049114864
:105F9000FEF781FA04A802F033FE012003E003F0CB
:105FA000BFF8C9E7002048B0BDEC028B70BD00BF50
:105FB000000000000020AC405CE503208CE50320DD
:105FC0001CCA0D0078C90D00D9E40320BCE50320EC
:105FD000BFC80D0014E50320014B01221A70704761
:105FE000BCE50320704710B52021044603F0CBFC2C
:105FF000204610BD0EB410B58DB00FAA016852F83E
:10600000044B039200232020CDE90403CDE9004294
:10601000012004AA01F09CFB0DB0BDE8104003B0C4
:1060200070470EB410B58DB00FAA016852F8044B3A
:10603000039200232020CDE90403CDE90042322061
:1060400004AA01F085FB0DB0BDE8104003B0704715
:1060500010B50272FF2242810022C0E90322426190
:106060000276C261024A034C1060C0E9004110BDD3
:10607000C4E503207CCC0D002DE9F8439DF8208079
:106080000446894616461F46B8F1000F02D0406804
:1060900002F04EFB217A606802F027FB606803681B
:1060A00049469B6898476068002102F03DFB054621
:1060B00000BB0123217A60683A4602F004FB874264
:1060C000034609D13744BE421CD0606803685B694F
:1060D000984706F8010BF6E70B490C484A46FFF7CC
:1060E000A0FFB8F1000F02D0606802F02AFB28463A
:1060F000BDE8F8830346064904484A46FFF791FF86
:106100000025EEE70125ECE72DCA0D00C0E50320D0
:1061100052CA0D0007B500930123FFF7ADFF03B08E
:106120005DF804FB73B54389FF2B044610D0194E6C
:10613000194D01F0A5F9B0F57A7F09D2608903F015
:1061400073FB012804D031462846FEF78DF9F0E7AD
:1061500001230DF1070228212046FFF7DBFF30B9AC
:106160000D480E49FEF780F9002002B070BD9DF881
:106170000730182BF4D101230DF107022921204605
:10618000FFF7C8FF0028EBD09DF80730052BE7D1BB
:10619000EBE700BF76CA0D00C0E503208BCA0D00F7
:1061A00007B5134600228DF807200DF10702FFF70F
:1061B000B1FF9DF8070003B05DF804FB2DE9F04145
:1061C0009DF8188004460F4615461E46B8F1000F8C
:1061D00002D0406802F0ACFA217A606802F085FAD9
:1061E0006068036839469B6898472E44B5426068EA
:1061F00005D0036815F8011B9B689847F6E7012155
:1062000002F092FA034670B1084909483A46FFF78E
:1062100008FF0025B8F1000F02D0606802F091FA83
:106220002846BDE8F0810125F4E700BF98CA0D00BB
:10623000C0E503201FB58DF80F2000930DF10F026C
:106240000123FFF7BBFF05B05DF804FBF8B50A4674
:106250000C4605461A491B48FEF706F9002CB8BF44
:10626000EC687CB9012322461B212846FFF7E2FF98
:106270001549024606461348FFF7BCFEEC606C6108
:106280003046F8BD032C19DDA7101F2FA8BF1F270C
:10629000BA0062F07C020123D2B21B212846FFF72C
:1062A000C9FF3A460346094906460648FFF7A2FEDB
:1062B0004FF4FA635F43EC606F61E1E70127E7E7C2
:1062C000BDCA0D00C0E50320C7CA0D00E3CA0D001A
:1062D0000B4607490246086848B1002B08BFB2F5D3
:1062E000006F04D1C36813B10021FFF7AFBF70473F
:1062F000C4E503202DE9FF419DF828800546164698
:106300001F46B8F1000F04D04068019102F010FA66
:106310000199019100230DF10F022846FFF7FAFEC3
:10632000044660B19DF80F3003EA06023A439342F7
:1063300005D0019900232846FFF77CFF0446B8F1F9
:10634000000F02D0686802F0FCF9204604B0BDE8F6
:10635000F08113B514460DF10702FFF7DBFE28B1FB
:106360009DF807301C420CBF0120002002B010BD78
:1063700013B514460DF10702FFF7CCFE28B19DF8C6
:1063800007301C4214BF0120002002B010BD07B529
:10639000D2430093D2B20023FFF7ACFF03B05DF805
:1063A00004FB000037B501230DF107020F2104465D
:1063B000FFF7B0FE054638B91E491F48AD22FFF76A
:1063C00030FE284603B030BD9DF8073013F0200F93
:1063D0004FF001030BD02022E3610F212046FFF78D
:1063E000D6FF164A16491448FEF73EF8E9E7082298
:1063F00017212046FFF7BCFF18B10223114AE361C1
:10640000F0E79DF807301A0709D50323E361082256
:1064100001230F212046FFF7BAFF0B4AE2E75B0793
:10642000CFD50422E26101230F212046FFF7AFFF01
:10643000064AD7E736CB0D00C0E5032007CB0D0099
:1064400055CB0D0010CB0D0020CB0D0030CB0D0037
:1064500007B500931346FF22FFF74CFF03B05DF82A
:1064600004FB0000F8B50F461646012300220F2159
:106470000546FFF7DFFE044638B94FF425721E4982
:106480001E48FFF7CEFD2046F8BD01232322182128
:106490002846FFF7CFFE044610B940F29B22EEE7F4
:1064A000FF2FA8BFFF27012FB8BF01270123FAB292
:1064B00019212846FFF7BEFE044610B94FF42A7290
:1064C000DDE70123082212212846FFF7C1FF044619
:1064D00010B940F2AF22D2E7002E4FF0010314BFF3
:1064E0008322822218212846FFF7A4FE04460028B2
:1064F000C9D140F2B922C2E766CB0D00C0E5032046
:106500002DE9F7430A4605460F464F484F49FDF728
:10651000ABFF00212846FFF799FE044648B940F238
:10652000F7124B494848FFF77CFD204603B0BDE811
:10653000F08301231A4630212846FFF789FF0446DD
:1065400010B940F20522ECE710220123114628463B
:10655000FFF71DFF044610B94FF40372E1E7012372
:10656000262213212846FFF765FE044610B940F2A3
:106570001322D6E7012600963346FC221121284635
:10658000FFF7B8FE044610B940F21B22C9E700220B
:1065900039462846FFF766FF044610B940F222222A
:1065A000BFE700960223772210212846FFF7A2FEBC
:1065B000044610B940F22B22B3E7334604221C21D3
:1065C0002846FFF745FF044610B940F23222A8E7FB
:1065D00000961823E32211212846FFF78BFE04467C
:1065E00010B940F239229CE73346C02217212846D1
:1065F000FFF720FE044610B94FF4107291E700F047
:106600003FFFDFF85490DFF840804FF47A71064680
:106610004F4300F035FF801BB8420ED201221721F4
:106620002846FFF7BDFD494602464046FDF71CFFE0
:106630004FF47A7001F064FAEBE706490248FFF77D
:10664000F0FC02F00FFC70E7C0E5032091CB0D00D9
:1066500086CB0D00B7CB0D00A2CB0D002DE9F34783
:106660009DF828A005460C4691461F46BAF1000F3A
:1066700002D0406802F05CF807B3202F3E4628BFE6
:1066800020267F2C26D83319802B01D9C4F180060F
:10669000012304223F212846FFF779FE002364F0FE
:1066A0007F0100934A463346C9B22846FFF7E4FC0F
:1066B000804628B13444BF1BB144DDE74FF00108E8
:1066C000BAF1000F02D0686802F03BF8404602B011
:1066D000BDE8F087012304223F212846FFF7B8FEDA
:1066E000DCE72DE9F3479DF828A005460C469146C6
:1066F0001F46BAF1000F02D0406802F019F807B344
:106700001F2F3E4628BF1F267F2C26D83319802BEB
:1067100001D9C4F18006012304223F212846FFF756
:1067200036FE002364F07F0100934A463346C9B227
:106730002846FFF743FD804628B13444BF1BB144CF
:10674000DDE74FF00108BAF1000F02D0686801F0F0
:10675000F8FF404602B0BDE8F087012304223F2144
:106760002846FFF775FEDCE730B585B00D68D1E946
:10677000043203954D6802958D680195C9680091B2
:106780000133044902F26C72044602F0DDFA20463D
:1067900005B030BDC9CB0D0003110A2200F00F0077
:1067A00002FB0300704738B5044600781546FFF732
:1067B000F3FF08606078FFF7EFFF4860A078FFF70D
:1067C000EBFF8860E078FFF7E7FFC8602079FFF70C
:1067D000E3FF013808612DB9651D2878FFF7DCFF5C
:1067E000886138BD6079FFF7D7FF6430A51D486127
:1067F000F3E7000070B5012388B00D461A4610215A
:106800000446FFF7A6FDF0B10823012620460096B6
:106810000DEB03020021FFF72FFC044698B132462E
:1068200029460DF10900FFF7BEFF04A8FFF79CFF02
:106830000848049A0849FDF717FE04A802F0E0F999
:10684000204608B070BD24220021284603F06CFECB
:106850000024F5E7C0E50320E7CB0D0030B58BB091
:106860000D4601A9FFF7C6FF044620B101A801F0BB
:1068700033F9C5E9000120460BB030BD10B5044620
:1068800088B011B1406801F001FF2046FFF74AFCD3
:1068900070B32046FFF786FD01231A4610212046DB
:1068A000FFF757FDD8B102F03DFDC0B902A920465F
:1068B000FFF7D4FFDDE9020102F03AFC0F4B10496B
:1068C0001B68009304A8DDE9022302F0E9FC0D48EF
:1068D000049A0D49FDF7C8FD04A802F091F90B4A8E
:1068E000002300214FF4006000F064FF08B010BDE9
:1068F00007490448FFF795FBF1E700BF20E20320BA
:1069000034E60320C0E50320F5CB0D00D1620D0075
:1069100012CC0D000A2290FBF2F302FB130093FB52
:10692000F2F102FB113140EA0110C0B2704770B5BC
:10693000054600680C461646FFF7ECFF20706868B5
:10694000FFF7E8FF6070A868FFF7E4FFA070E86851
:10695000FFF7E0FFE07028690130FFF7DBFF2071EF
:106960002EB9661DA869FFF7D5FF307070BD6A6942
:10697000642392FBF3F003FB1020FFF7CBFFA61D6F
:106980006071EFE7F0B587B0054602A816460C46E1
:10699000FFF7EAFE1E48029A1E49FDF765FD02A8B0
:1069A00002F02EF916B1686801F0C2FE20460122FD
:1069B0000DF1090100278DF80870FFF7B8FF0123DA
:1069C0001A4610212846FFF743FD0446E8B1082384
:1069D00000970DEB030239462846FFF7EFFB04460C
:1069E00060B101231A4610212846FFF7D0FC16B1EA
:1069F000686801F0A6FE204607B0F0BD4FF48D7226
:106A000005490348FFF70DFBF1E74FF48F72F7E7F5
:106A1000C0E503202ACC0D0038CC0D0013B5044688
:106A20006846CDE9002303F045FD9DF8102001469E
:106A30002046FFF7A7FF02B010BD0000F0B5057EAD
:106A400089B0044675BB02F06DFC58B300260027E0
:106A500004A92846CDE9046700F05EFF10B30125C4
:106A6000257602F07CFC00950246C3172046CDE94E
:106A70000223FFF7D3FF02A92046CDE90267FFF703
:106A8000EDFE124B12491B68009304A8DDE90223B6
:106A900002F006FC0F48049A0F49FDF7E5FC04A834
:106AA00002F0AEF8636973B100F0EAFC2369C01A22
:106AB0006369984207D300F0E3FC4FF0FF31206197
:106AC0002046FFF7C3FB09B0F0BD00BF20E2032062
:106AD00034E60320C0E5032053CC0D00014B024AED
:106AE0001A607047C0E5032069CC0D00704710B5EF
:106AF0001021044602F047FF204610BD0368C9B2CA
:106B00009B68184730B5034DC0E90223C0E9005126
:106B100030BD00BFC0CC0D00406801F0B7BD10B55E
:106B20000446006801F00DFE204610BD2DE9F0413D
:106B30008AB004464068019001F0FAFD1E2200214F
:106B400002A8A76803F0F0FC0026EFB123681E2F0F
:106B5000B84628BF4FF01E08DD6802AA43463146FA
:106B60002046A847054658B90A480B493246FDF762
:106B70007BFC01A8FFF7D3FF28460AB0BDE8F081EF
:106B8000A7EB08074644E0E701A8FFF7C8FF012587
:106B9000F2E700BF08E603208CCC0D002DE9F74397
:106BA0000446406801900D4616461F4601F0C0FDA0
:106BB000A7B1E168606841F0500101F09AFD290A2F
:106BC0006068FFF79BFF29466068FFF797FF6068E2
:106BD000002101F0A9FD48B1002400E0012401A832
:106BE000FFF79DFF204603B0BDE8F083202F217BF7
:106BF0006068B84628BF4FF020080123424641F0A4
:106C0000500101F060FD02F069FE03681B699847BE
:106C10004045E1DB06EB080902F060FE03685B69B2
:106C2000984706F8010B4E45F6D14544A7EB0807F7
:106C3000BEE72DE9F74F0446406801900E469046A6
:106C40001D4601F075FD4FF00109B9F1000F2AD082
:106C50004DB3E168606841F0500101F04AFD310A2E
:106C60006068FFF74BFF60683146FFF747FFA5F10B
:106C70001E0A4746A6EB080B606817F8011B03685D
:106C8000013D9B68984755450BEB0706B84601D078
:106C9000002DF1D16068012101F046FD0028D7D018
:106CA0004FF00009D1E701A8FFF739FF484603B0CC
:106CB000BDE8F08F2DE9F0438BB00E4615468046B7
:106CC000406801901C4601F033FDAE4229D22644B3
:106CD00025448CB11E2C2746D8F8003028BF1E272B
:106CE000F61BD3F8089002AA3B4631464046ED1BFE
:106CF000C84748B9002400E0012401A8FFF70FFFAE
:106D000020460BB0BDE8F083D8F8003002AAD3F8D3
:106D10000C9029463B464046C8470028EAD0E41B71
:106D2000D7E7E9D9002CE7D0D8F800301E2C274649
:106D300028BF1E27D3F8089002AA3B46314640469A
:106D4000C8470028D6D0D8F8003002AAD3F80C9053
:106D500029463B464046C8470028CBD03E443D44E8
:106D6000E41BDFE7012A034602D1016000207047DF
:106D7000022A04BFD1E90001C3E90001F6E710B51A
:106D8000012303748368044643B1C0689847012314
:106D900063740020BDE8104000F03ABB0068002892
:106DA000F5D083680BB902F0F4FDC368EEE710B4C8
:106DB00042680346541001EB6200D20748BF0A59EB
:106DC0001B685DF8044B48BFD35818470123F7B53B
:106DD00080F829300646083000F0F2FA0420FDF76A
:106DE0005AF9054698B31B49142002F0CEFD30B184
:106DF0000023C0E90033C0E9023303744374286000
:106E0000A0B1154B1549C0E902364FF40063CDE936
:106E100000030222124B043000F09AFA30B92B68BA
:106E20001B7CA3B9012000F01BFBF8E72C680023B2
:106E30002B6064B1276837B13846FDF739FA102165
:106E4000384602F0A0FD1421204602F09CFD75603A
:106E500003B0F0BDDCCF0D006B700D00D4CC0D0085
:106E60007F6D0D0047F23051084AC1600849026049
:106E70000022C0E904120749C16107494260C0E924
:106E800008228161028580F82A20704798CD0D0084
:106E9000D5710D00AF6D0D00656D0D0010B5044B83
:106EA000044640F8103BFDF703FA204610BD00BF32
:106EB00098CD0D0010B5034B03600446FFF7EEFFBD
:106EC000204610BDC0CD0D0010B50446FFF7F2FFFF
:106ED0002046382102F057FD204610BD806800F0A2
:106EE00077BA806800F07CBA10B504460068FFF7F6
:106EF000F8FF204610BD13B504460190FFF7EEFFE2
:106F0000E36ADC88A4B20CB103F1080401A8FFF71E
:106F1000EBFF204602B010BD13B504460190FFF709
:106F2000DDFF94F8283043B9E26A0124D38001A838
:106F3000FFF7DAFF204602B010BD0024F7E713B5D3
:106F400004460190FFF7CAFFE36A01A8DC88FFF757
:106F5000CBFF204602B010BD2DE9F047994686B020
:106F600090F829309DF838A09DF83C8004460F46E3
:106F7000164613B903689B689847314B3846002E74
:106F800008BF1E4603F02BFB0546304603F027FBE7
:106F9000284400F10A05AB071CBF25F003050435A2
:106FA0003346CDE90285CDE9009A264926483A467E
:106FB000FDF75AFA238E083BAB4212D2002420463A
:106FC00006B0BDE8F087CB88012B36D005A8FFF7C7
:106FD0008BFF236894F828109B6920469847002867
:106FE000ECD020460594FFF779FFE16A228E636BAF
:106FF0000A44D21AAA42E6D348EA0A0883F804806F
:10700000C3F80090636B03F108083946404603F06B
:10701000C1FA404603F0E3FA01303146404403F040
:10702000B9FA636BE26A1D446563D3880133D38088
:10703000012405A8FFF758FFC1E70024F9E700BFC6
:10704000FCCF0D00E6CC0D00C8E5032008B50446D2
:1070500000F11005A3690BB902F09BFCE36921461E
:107060002846984700F07CF9F4E708B5FFF7EEFFF3
:1070700068B501F108050646284603F0B0FA01306C
:107080000544284603F0ABFAF36A01302844C31ADA
:1070900013F003031CBFC3F10403C01868BDF7B5A8
:1070A00004460E460190FFF719FFE76AFB8807F1D7
:1070B0000805E6B1012B22D929462046FFF7D8FF63
:1070C000054629462046FFF7D3FF228E3A44121A7E
:1070D0000146A0EB050602D0284603F00BFA636BCD
:1070E0009B1B6363FB88013BFB80012601E0002BB7
:1070F000E7D101A8FFF7F8FE304603B0F0BD002647
:10710000F7E700002DE9F0470D4604462F461646E6
:10711000FFF7A8FE154B57F8082B2360144BE562C8
:107120009A422686984617D1AB889BB2B34213D1B8
:1071300005EB060A67634FF00009EB881FFA89F236
:107140009BB29A420ED2616B2046FFF791FF5045E9
:10715000606309F10109F0D90023C5F80080676375
:10716000AE80EB802046BDE8F08700BFC0CD0D00AB
:1071700061AB9CD110B5D1E9002386B00021044653
:1071800004910AB9D90705D5CDE902230F4B059320
:107190000F4B049302AB93E803006A4682E80300B6
:1071A00094E8030083E8030092E80300049A84E86B
:1071B0000300A168A260059A04911846E168E260A4
:1071C0000591FDF775F8204606B010BDAF6D0D00B6
:1071D000656D0D0007B5054B00936946002310301F
:1071E0000193FFF7C7FF03B05DF804FB1D720D00AC
:1071F00013B5044600F044F9636AC01AE368984284
:1072000008D3054B00936946002304F11000019355
:10721000FFF7B0FF02B010BD1D720D002DE9F04167
:1072200090F82A3086B00446002B64D100F044FB6D
:10723000002860D000F024F9636AC01A40F2F133EC
:10724000984258D9236820465B699847054600282C
:1072500051D000F10807012384F82830384603F0A4
:10726000BEF995F80480CDF8048001302B682B49D5
:1072700000933E1833462A483A46FDF7F5F82B6846
:107280008DF800803246394602A800F043FF029D87
:107290006B781BB9012000F033FCF8E7002000F008
:1072A00099FA20B16B7813B900F0F6FAFAE72B7867
:1072B000012B23D11B491A48FDF7D6F8236800217A
:1072C0009B6920469847002384F8283000F0D8F8BE
:1072D0006062039C7CB16368013B63605BB92368B7
:1072E00020469B689847A368013BA3601BB92368AD
:1072F0002046DB68984706B0BDE8F081E2680A499D
:107300000748FDF7B1F8094B049304A9002304F1E1
:1073100010000593FFF72EFFD5E700BF27CD0D0026
:10732000C8E5032048CD0D005FCD0D00F1710D00C3
:10733000014B024A1A607047C8E5032086CD0D0054
:1073400008B5024B1B685B6C019308BD7402030017
:1073500008B5024B1B685B68019308BD4802030037
:1073600008B5024B1B68DB68019308BD48020300A7
:1073700008B5024B1B68DB69019308BD4802030096
:1073800008B5024B1B681B6A019308BD4802030045
:1073900008B5024B1B685B6A019308BD48020300F5
:1073A00008B5024B1B689B6A019308BD48020300A5
:1073B00008B5024B1B68DB6A019308BD4802030055
:1073C00008B5024B1B681B6B019308BD4802030004
:1073D00008B5024B1B689B6B019308BD4802030074
:1073E00008B5024B1B681B6C019308BD48020300E3
:1073F00008B5024B1B685B6C019308BD4802030093
:1074000008B5024B1B689B6C019308BD4802030042
:1074100008B5024B1B68DB6E019308BD48020300F0
:1074200008B5024B1B681B6F019308BD480203009F
:1074300008B5024B1B685B6E019308BD3402030064
:1074400008B5024B1B68DB6E019308BD34020300D4
:1074500008B5024B1B685B68019308BD1802030066
:1074600008B5024B1B689B68019308BD1802030016
:1074700008B5024B1B68DB68019308BD18020300C6
:1074800008B5024B1B685B69019308BD1802030035
:1074900008B5024B1B689B6D019308BD18020300E1
:1074A00008B5024B1B68DB6D019308BD1802030091
:1074B00008B5024B1B685B6E019308BD1802030000
:1074C00008B5024B1B689B6E019308BD18020300B0
:1074D00008B5024B1B685B68019308BD2C020300D2
:1074E00008B5024B1B689B68019308BD2C02030082
:1074F00008B5024B1B68DB68019308BD2C02030032
:1075000008B5024B1B681B69019308BD2C020300E0
:1075100008B5024B1B685B69019308BD2C02030090
:1075200008B5024B1B681B6B019308BD2C020300BE
:1075300008B5024B1B68DB68019308BD28020300F5
:1075400008B5024B1B689B69019308BD2802030024
:1075500008B5024B1B68DB69019308BD28020300D4
:1075600008B5024B1B681B6A019308BD2802030083
:1075700008B5024B1B685B6A019308BD2802030033
:1075800008B5024B1B689B6A019308BD28020300E3
:1075900008B5024B1B68DB6A019308BD2802030093
:1075A00008B5024B1B681B6B019308BD2802030042
:1075B00008B5024B1B685B6B019308BD28020300F2
:1075C00008B5024B1B681B6C019308BD2802030021
:1075D00008B5024B1B689B6C019308BD2802030091
:1075E00008B5024B1B68DB6C019308BD2802030041
:1075F00008B5024B1B681B6D019308BD28020300F0
:1076000008B5024B1B685B69019308BD6402030067
:1076100008B5024B1B689B68019308BD6802030014
:1076200008B5024B1B68DB68019308BD68020300C4
:1076300008B5024B1B68DB69019308BD30020300EB
:1076400008B5024B1B681B6A019308BD300203009A
:1076500008B5024B1B681B68019308BD3C02030080
:1076600008B5024B1B68DB68019308BD3C020300B0
:1076700008B5024B1B681B69019308BD3C0203005F
:1076800008B5024B1B685B69019308BD3C0203000F
:1076900008B5024B1B689B69019308BD3C020300BF
:1076A00008B5024B1B68DB69019308BD3C0203006F
:1076B00008B5024B1B681B6A019308BD3C0203001E
:1076C00008B5024B1B689B6A019308BD3C0203008E
:1076D00008B5024B1B681B68019308BD4C020300F0
:1076E00008B5024B1B681B69019308BD4C020300DF
:1076F00008B5024B1B685B69019308BD4C0203008F
:1077000008B5024B1B689B69019308BD4C0203003E
:1077100008B5024B1B68DB69019308BD4C020300EE
:1077200008B5024B1B681B6A019308BD4C0203009D
:1077300008B5024B1B685B6B019308BD6002030038
:1077400008B5024B1B681B6D019308BD6002030066
:1077500008B5024B1B685B6D019308BD6002030016
:1077600008B5034B1B68D3F89830019308BD00009F
:107770006002030008B5024B1B681B68019308BD3B
:107780002002030008B5024B1B685B68019308BD2B
:107790002002030008B5024B1B685B69019308BD1A
:1077A0002002030008B5024B1B689B69019308BDCA
:1077B0002002030008B5024B1B681B6A019308BD39
:1077C0002002030008B5024B1B68DB6A019308BD69
:1077D0002002030008B5024B1B68DB6C019308BD57
:1077E0002002030008B5024B1B685B6D019308BDC6
:1077F0002002030008B5024B1B689B6D019308BD76
:107800002002030008B5024B1B68DB6D019308BD25
:107810002002030008B5034B1B68D3F8883001939E
:1078200008BD00002002030008B5034B1B68D3F815
:107830009430019308BD00002002030008B5034BFB
:107840001B68D3F8A830019308BD00002002030094
:1078500008B5034B1B68D3F8AC30019308BD00009A
:107860002002030008B5034B1B68D3F8B030019326
:1078700008BD00002002030008B5024B1B681B680E
:10788000019308BD4402030008B5024B1B685B6806
:10789000019308BD4402030008B5024B1B689B68B6
:1078A000019308BD4402030008B5024B1B68DB6866
:1078B000019308BD4402030008B5024B1B685B69D5
:1078C000019308BD4402030008B5024B1B68DB6945
:1078D000019308BD4402030008B5024B1B681B6AF4
:1078E000019308BD4402030008B5024B1B685B6AA4
:1078F000019308BD4402030008B5024B1B68DB6A14
:10790000019308BD4402030008B5024B1B681B6BC2
:10791000019308BD4402030008B5024B1B685B6B72
:10792000019308BD4402030008B5024B1B689B6B22
:10793000019308BD4402030008B5024B1B68DB6BD2
:10794000019308BD4402030008B5024B1B685B6C41
:10795000019308BD4402030008B5024B1B685B6835
:10796000019308BD4002030008B5024B1B689B68E9
:10797000019308BD4002030008B5024B1B68DB6899
:10798000019308BD4002030008B5024B1B681B6948
:10799000019308BD4002030008B5024B1B685B69F8
:1079A000019308BD4002030008B5024B1B689B69A8
:1079B000019308BD4002030008B5024B1B68DB6958
:1079C000019308BD4002030008B5024B1B681B6A07
:1079D000019308BD4002030008B5024B1B681B6BF6
:1079E000019308BD4002030008B5024B1B685B6BA6
:1079F000019308BD4002030008B5024B1B681B6CD5
:107A0000019308BD4002030008B5024B1B685B6C84
:107A1000019308BD4002030008B5024B1B681B68B8
:107A2000019308BD1C02030008B5024B1B685B688C
:107A3000019308BD1C02030008B5024B1B689B683C
:107A4000019308BD1C02030008B5024B1B681B69AB
:107A5000019308BD1C02030008B5024B1B68DB69DB
:107A6000019308BD1C02030008B5024B1B685B6A4A
:107A7000019308BD1C02030008B5024B1B68DB6ABA
:107A8000019308BD1C02030008B5024B1B681B6B69
:107A9000019308BD1C02030008B5024B1B685B6C18
:107AA000019308BD1C02030008B5024B1B689B6CC8
:107AB000019308BD1C02030008B5024B1B68DB6C78
:107AC000019308BD1C02030008B5024B1B681B6D27
:107AD000019308BD1C02030008B5024B1B685B6DD7
:107AE000019308BD1C0203008A4210B507D0029C16
:107AF000401AE41A6043521A90FBF2F0184410BD89
:107B00000021FFF747BE10B5836804460BB901F0AA
:107B100040FFC3689847A3681BB103222146204653
:107B2000984720461021BDE8104001F02CBF10B549
:107B3000036804469B689847A368013BA3602BB980
:107B400023682046DB68BDE81040184710BD10B51B
:107B50000446006808B1FFF753FC204610BD0B68CF
:107B6000036013B15A6801325A60704710B5044679
:107B7000006828B14368013B43600BB9FFF7D7FFAA
:107B8000204610BD10B5064C002320462360FFF7A9
:107B90002FFC2046034A0449BDE8104001F0EEBE28
:107BA000CCE5032008E403204F7B0D000022406851
:107BB0001146FFF7E9BE002240681146FFF704BFF7
:107BC000002240681146FFF70FBF40680022FFF710
:107BD00003BF4068002281F00101FFF7EDBE0023E2
:107BE00040681A461946FFF7D7BE00224068114682
:107BF000FFF7BABE406800220221FFF7BDBE002396
:107C000040681A46FFF7A8BEF0B51B4B036000257D
:107C10000F4628331826C0E9025589B04360324622
:107C200029460446103002F07FFC78682A4629462F
:107C3000FFF7AAFE18B9A060204609B0F0BD29469A
:107C4000324602A8CDE9005502F06EFC02A9684652
:107C5000ADF80860FFF774FB10B10123A360EBE7F8
:107C6000009B019AA360E2600BB90223A36002A902
:107C7000204600F0AEF8DFE724CE0D00084B10B52B
:107C8000282422461846002102F04EFC054B0480B1
:107C90004FF0FF32426004225A60034A1A6010BD5E
:107CA000D8E50320D0E50320E8CD0D007047007D26
:107CB000704710B52821044601F065FE204610BD2E
:107CC000037D7BB1C369002B0CDB07EE903A9FED7F
:107CD000077AF8EEE77A87EE870ADFED057A20EE7D
:107CE000270A7047BFEE000A704700BF00FF7F47BA
:107CF0000000C842037D63B18369B3F1004F08D02F
:107D000007EE903A9FED047AF8EEE77A87EE870A5D
:107D100070479FED020A70470000C8420000000053
:107D2000037D7BB1436A002B0CDB07EE903A9FED9D
:107D3000077AF8EEE77A87EE870ADFED057A20EE1C
:107D4000270A7047BFEE000A704700BF00FF7F4759
:107D50000000C842037D63B1036AB3F1004F08D04D
:107D600007EE903A9FED047AF8EEE77A87EE870AFD
:107D700070479FED020A70470000C84200000000F3
:107D800070B50C1E06460ADA2D2100F0E4FE6142B1
:107D900005460A22304600F0F7FE284470BD214611
:107DA0000025F6E770B50C46054681682046FFF7CA
:107DB000E7FF2C210646204600F0CDFEE968064488
:107DC0002046FFF7DDFF304470BDA0F10400FFF74F
:107DD000E9BF30B50D4600F110040FCD0FC495E892
:107DE000030084E80300012030BD70470020704785
:107DF00010B51021044601F0C6FD204610BD08B59F
:107E0000FFF7F6FF08BD30B500224FF69C74026004
:107E100084808D888C800C68858004600A6030BD09
:107E200010B504460068FFF7FFFD204610BD38B5C9
:107E3000C468F4B12378022B03D104F10C00FFF7DE
:107E4000EFFF656835B12846FCF732FA1021284665
:107E500001F099FDA56835B12846FCF729FA1021F3
:107E6000284601F090FD20461421BDE8384001F07D
:107E70008ABD38BD10B588B00446684600F00BFFD7
:107E8000694604A800F02AFF04A8A047044604A8F5
:107E900000F0B6FE684600F0B3FE204608B010BD04
:107EA0001FB50023CDE90201019210241A4669464C
:107EB0001846ADF80230ADF80040FFF7E5FC04B01D
:107EC00010BD1FB50C23ADF8043003688DF80630E3
:107ED000037A8DF80730436802930021437AADF8A6
:107EE0000D1001A88DF80F108DF80C30FFF72CFD48
:107EF00005B05DF804FB1FB50C22ADF80420026844
:107F00008DF80620027A8DF807204268029200233D
:107F1000427A8DF80C20194601AA0220ADF80D30E6
:107F20008DF80F30FFF700FD05B05DF804FB73B569
:107F30000E46044656F8043B00930D4601A8314610
:107F4000FFF70DFE019A009B6260236001A80023E9
:107F500001930093FFF70AFE3046FFF707FE28461D
:107F6000082101F010FD204602B070BD13B50B468C
:107F70000246D0E900016C4684E8030093E8030060
:107F800082E8030094E8030083E8030002B010BD18
:107F9000826810B50AB901F0FCFCBDE81040C36866
:107FA000184708B5006800F11001FFF7F1FF08BDA0
:107FB000826810B50AB901F0ECFCBDE81040C36856
:107FC000184708B5006800F11001FFF7F1FF08BD80
:107FD00038B500230446036010200D46FCF75BF81B
:107FE00028B10123C0E90133024B0360C560206062
:107FF000204638BD58CE0D0038B5002383608B680D
:1080000004460D462BB102229847EB68E360AB684B
:10801000A360204638BD0000F0B589B0046868460A
:10802000FFF7F1FE4FF00203D4E84F2F002A03D1EF
:10803000C4E8413F0029F7D125D104F10C05694678
:108040002846FFF7E0FEBFF35B8F0123637000203B
:1080500004F10803BFF35B8F53E8006F43E80002AD
:10806000002AF9D1BFF35B8F6EB1FFF7B3FB78B194
:1080700029463046FFF78CFF3046FCF719F91021EE
:10808000304601F080FC6846FFF7CAFE09B0F0BD3B
:10809000314602A8FFF7B0FFE068B4F9105008B10C
:1080A00002F080FA06901020ADF81C50FBF7F3FFA9
:1080B0000546E8B1002787601820FBF7ECFF04466F
:1080C00088B10146876002A8FFF750FF049BA268B1
:1080D000A360059B049206A9E268E36004F1100026
:1080E0000592FFF790FE084BEB60084B2C60AB60ED
:1080F00006A8FFF795FE02A8FCF7DAF80022294649
:108100000348FFF76FFBB7E7A37F0D0039820D002F
:10811000077B0D002DE9F0478AB005469DF8489091
:108120000C4617469846FFF7C7FB07AE824638BB9A
:108130004FF62E73059005A93046ADF81830FFF7BD
:1081400062FE1420FBF7A7FF044648B10223037028
:108150000123C0E901AA437031460C30FFF753FEFA
:108160002846214640F8044BFFF732FF3046FFF720
:1081700057FE05A8FFF754FE28460AB0BDE8F08771
:108180000C234FF0000A1420CDE908AA0793FBF74F
:1081900082FF014628B1C0E901AA80F800A080F85A
:1081A00001A004A80391FFF713FF224B08930820B6
:1081B000FBF771FF824628B1039B40F8043B04A9FA
:1081C000FFF7CDFC00965FFA89F342463946204618
:1081D000CDF824A0FFF780FBB8B9039B5B7803F0D0
:1081E000FF0293B94FF69C7305A903A80592ADF859
:1081F0001830FFF711FF05A8FFF712FE05A809992F
:10820000FFF795FE06A8FFF7B1FC039B059304A9B1
:1082100006A8FFF7A4FC059B069A2B606A60002362
:1082200006A806930593FFF7A1FC04A8FFF79EFCA0
:10823000A2E700BFFD820D00022AF8B5054607D06F
:10824000032A18D0012A01D10B6803600020F8BD71
:1082500018200E68FBF71FFF044650B13146FFF7A8
:10826000CBFE3069B6F9147008B102F09BF92061B9
:10827000A7822C60EAE70468002CE7D004F1100024
:10828000FFF7CEFD2046FCF713F81821204601F039
:108290007AFBDBE738B5002383608B6804460D4624
:1082A0002BB102229847EB68E360AB68A3602046DD
:1082B00038BD022A70B5044607D0032A12D0012A1D
:1082C00001D10B680360002070BD14200E68FBF71D
:1082D000E2FE054620B13146FFF7DCFF337C2B740C
:1082E0002560F0E70468002CEDD02046FBF7E0FFA6
:1082F0001421204601F047FBE5E70000F0B589B006
:1083000004460D4601A81146FFF711FEA4B124B2A0
:108310001DB1284602F046F9054601A803A90395B8
:10832000ADF81040FFF778FE03A8FFF779FD02A82B
:10833000FFF71CFC09B0F0BD019D0123D5E84F2FCC
:10834000002A03D1C5E8413F0029F7D1EFD12B73B3
:10835000BFF35B8F6B702B1DBFF35B8F53E8006F18
:1083600043E80042002AF9D1BFF35B8F002EDED034
:108370002046FFF72FFA074660B105F10C013046A1
:10838000FFF716FE3046FBF793FF1021304601F051
:10839000FAFACCE7314603A8FFF77CFF2B7B8DF878
:1083A0001C301020FBF777FE0546D0B18760142003
:1083B000FBF771FE044678B18760014603A8FFF71A
:1083C000D5FD059BA268A360069B0592E268E36069
:1083D0009DF81C3006922374064BEB60064B2C6014
:1083E000AB6003A8FBF764FF002229460348FFF7B0
:1083F000F9F9C7E7C37F0D00B3820D00077B0D00BD
:10840000002240681146FFF7DFBA0022406811469B
:10841000FFF7EABA40680022FFF7DEBA40680022A0
:1084200081F00101FFF7C8BA002340681A461946D7
:10843000FFF7BABA002340681A461946FFF7ACBAEC
:10844000002240681146FFF79FBA0022406811469B
:10845000FFF78ABA406800220221FFF78DBA002395
:1084600040681A46FFF778BA024B03225A60024A64
:108470001A60704700E6032074CE0D00006800F01B
:1084800057B910B50446016002710AB1FFF7F6FF53
:10849000204610BD13B50446019101F047FA019A38
:1084A00001462046FFF7EDFF204602B010BD0068F0
:1084B00000F047B910B5037904460BB1FFF7F7FF99
:1084C000204610BD2DE9FF4104460D4617461E46C5
:1084D000FFF7D4FF36238DF8003000232068019386
:1084E0004FF001080A23694603938DF8088000F0D5
:1084F00003F92068036829469B689847206841462D
:1085000000F012F9054640B16FF09F052046FFF7D5
:10851000CEFF284604B0BDE8F08102232068019315
:10852000694600F0B9F80228EED1206803685B695B
:1085300098473870206803685B6998473070E5E7B2
:1085400013460A460C21FFF7BDBF2DE9FF41164631
:1085500004461D460F46FFF791FF36238DF8003085
:108560000023206801934FF001080A236946039312
:108570008DF8088000F0C0F82068036839469B68D1
:1085800098472068036831469B68984720680368CD
:1085900029469B6898474146206800F0C5F80028A6
:1085A00020460CBF00256FF09F05FFF780FF28468F
:1085B00004B0BDE8F08108B5402200230621FFF792
:1085C000C4FF00EAE07008BD37B50546FFF756FF67
:1085D00000230DF107020DF1060128468DF8063043
:1085E0008DF80730FFF7ACFF041E0BDB9DF807305A
:1085F0009DF8062003F07F030C212846FFF7A5FF16
:1086000000EAE0742846FFF752FF204603B030BD71
:108610007047F8B5064615460C468F18BC4206D082
:10862000336814F8011B9B6830469847F6E72846E4
:10863000F8BD007C0022FEF793BF007C0021FEF70E
:1086400097BF007C0021FEF79BBF007C0021FEF756
:108650009FBF007C0021FEF7A3BF10B51421044684
:1086600001F091F9204610BD10B54FF47A7304461D
:1086700008460021C4E90113034B2360207411460E
:10868000FEF79EFF204610BDB0CE0D000023007CFB
:108690001A461946FEF74CBF7FB500221423CDE9D8
:1086A0000122ADF804300B788DF808304B68039345
:1086B000CB680493007C0B7A059301A9FEF798FF21
:1086C00007B05DF804FB1FB5003B8DF800104FF0BC
:1086D0006401039118BF0123694601928DF80830A7
:1086E000FFF7DAFF05B05DF804FB007C0022FEF71F
:1086F00027BFC9B2FFF7F9BF7FB50023CDE901332A
:108700004A6803921423CA68ADF804300B780492C7
:108710000A7A0592007C8DF8083001AA1946FEF706
:108720000FFF07B05DF804FB007C0022FEF710BFCE
:1087300008B50021007CFEF74BFFB0FA80F040093D
:1087400008BD08B50021007CFEF74AFFB0FA80F0B2
:10875000400908BD704710B51821044601F013F90F
:10876000204610BDF0B5037D062B8DB00E4600F1FE
:1087700004074FF0000412D000F1080515F8011DA0
:108780000A22304600F000FAAF42044419D0002C0F
:10879000F4D02E21304600F0DEF90444EEE72F231A
:1087A0006A4639460A208DF80040FEF729FF6846E0
:1087B00001F015FF33680246DB686946304698478A
:1087C000044620460DB0F0BD10B5054B04461122FD
:1087D00040F8043B002101F0A7FE204610BD00BF79
:1087E000D8CE0D000346074A10B543F8042B01F11B
:1087F000100251F8044B43F8044B9142F9D10A7826
:108800001A7010BDD8CE0D0010B59DF8084044EA8E
:10881000032343EA024242EA0161042341600375F3
:1088200010BD13B5CB7800938B784A780978FFF7A1
:10883000EBFF02B010BD0000014B024A1A60704706
:1088400008E60320E4CE0D00002340681A46FFF737
:1088500083B8406800220221FFF78EB800224068EA
:108860001146FFF781B8002240681146FFF78CB827
:10887000002340681A461946FFF78EB80023406867
:108880001A461946FFF790B840680021FFF7B4B8C0
:1088900040680021FFF7B8B84068002281F001016C
:1088A000FFF78AB840680022FFF796B800224068B8
:1088B0001146FFF799B8002240681146FFF784B8C7
:1088C0002DE9F043002495B016460D460746FFF704
:1088D0007BFF214618220EA8009401F025FE4023BC
:1088E000CDE90C3421466B460CAA3046FEF798FEC3
:1088F0000446002846D1024601216868FFF744F883
:108900000221804622466868FFF73EF8009E8146B5
:108910002146002E36D0002934D17368022B03D0B3
:108920000A2B0BD0F669F4E7B8F1000F04D0716997
:1089300038460431FFF775FF4146F3E7B9F1000F00
:1089400001D14946EEE77469102201A801F0ECFD5F
:1089500006238DF8143001AD04F1080318341868AB
:1089600059682A4603C20833A3421546F7D101A924
:1089700006A807ADFFF736FF0FCD3C1D0FC42B68CF
:108980002370DEE70098FEF743FE384615B0BDE8D9
:10899000F0830000024B034A1A6000225A607047BD
:1089A0000CE60320F0CE0D0008B500F0BFFFBDE8D7
:1089B0000840FFF7BDBE10B50446017009B1FFF7CE
:1089C000F3FF204610BD08B500F0B0FFBDE8084039
:1089D000FFF7B7BE10B5037804460BB1FFF7F3FFFE
:1089E000204610BD10B504460068FFF7ECFF204696
:1089F00010BD30B587B00D460190FFF7D5FF6B2352
:108A00008DF808300023012403930A2305938DF881
:108A1000104000F08BFF02A9FFF76EFE00F086FF0A
:108A2000036829469B68984700F080FF2146FFF7BE
:108A30007BFE039400F07AFF02A9FFF72DFE00F001
:108A400075FF03685B699847044601A8FFF7CAFFF2
:108A5000E0B207B030BD70B586B014460D46019047
:108A6000FFF7A2FF6B238DF8083000230393012644
:108A70000A2305938DF8106000F058FF02A9FFF754
:108A80003BFE00F053FF036829469B68984700F0BF
:108A90004DFF036821469B68984700F047FF314629
:108AA000FFF742FE01A8FFF79DFF06B070BD13B5AA
:108AB00004460190FFF778FF01212046FFF799FF58
:108AC00000F0CF0040F0100201212046FFF7C3FF65
:108AD00001A8FFF787FF012002B010BD13B50446BF
:108AE0000190FFF761FF01212046FFF782FF01217E
:108AF00000F0CF022046FFF7AEFF01A8FFF772FF9C
:108B0000012002B010BDF8B506460D468F180024AE
:108B1000BD420CD0336815F8011B9B68304698475E
:108B2000031E01DB1C44F3E7002C08BF1C46204653
:108B3000F8BD13B50446084659B1019101F04FFD47
:108B400023680199DB680246204602B0BDE8104068
:108B5000184702B010BD03689B68184738B50D214F
:108B60000546FFF7F8FF0A2104462846FFF7F3FF02
:108B7000204438BD38B50546FFF7DBFF04462846DC
:108B8000FFF7ECFF204438BD30B58BB000238DF8E3
:108B90002430012A98BF0A2209AC0D46B1FBF2F13C
:108BA00001FB125303F0FF03092B94BF303337331B
:108BB000DBB2AA4204F8013DEFD92146FFF7B9FF25
:108BC0000BB030BD10B50446FBF772FB204610BD5C
:108BD0000348044A04490023836000F0CFBE00BF6D
:108BE00014E6032008E40320C58B0D0010B50446ED
:108BF00008462170FEF71CFD00236360204610BD6F
:108C000010B504460068FEF70FFF204610BD10B5F2
:108C10000446006808B1FEF707FF0023C4E90133EA
:108C2000236010BD38B504460D4600680131FEF7DB
:108C300003FF10B1C4E90005012038BD10B5036879
:108C4000044623B143688B4201D3012010BD204666
:108C5000FFF7E8FF0028F9D0A368002BF5D12268C0
:108C60001370F2E737B50D46114601920446FFF73F
:108C7000E5FF019A28B92046FFF7C9FF204603B057
:108C800030BDA2602946206801F026FC2268A36856
:108C90000021D154F2E7002313B5C0E900330446A4
:108CA0008360037341B10846019101F098FC01997A
:108CB00002462046FFF7D6FF204602B010BD88428C
:108CC00010B5044605D00B682BB18A681946FFF72A
:108CD000C9FF204610BDFFF79AFFFAE710B5002341
:108CE0000446C0E9003383600373FFF7E8FF2046C2
:108CF00010BD08B582683AB921B10878B0FA80F0A1
:108D0000400900E0012008BD006809B90078F5E7D6
:108D100001F036FCF2E758B50E462AB121B184685D
:108D2000A34202D300230B7058BDE41A013A016834
:108D3000944228BF144619442246304601F069FC8B
:108D400000233355F0E700000EB470B587B00BADCB
:108D5000044655F8042B01922B46052104A80395DF
:108D6000FEF782FE0B4906462046FFF794FF314688
:108D70002046FFF763FF206830B1019A03952B4628
:108D8000711CFEF771FEA060204607B0BDE8704080
:108D900003B07047FCCF0D0010B50446006818B151
:108DA000FEF742FE0023236010BD38B5B1F9043050
:108DB00083800B460D4653F8062FC0F806209B888B
:108DC00043810446FFF7E8FF2B6813B123600023BB
:108DD0002B60204638BDB1F904300A6810B533B9AC
:108DE00032B951F8063F03608B88838010BD22B1F1
:108DF0009488012C03D0042C06D0042205E092892B
:108E00004A818C710B81ECE702220B814FF6FF73D4
:108E10008A714B81E5E7000038B50C460546FFF73F
:108E2000BBFF44B12088FEF7F7FD286028B12288F7
:108E3000214601F051FB002038BD0148FCE700BF8E
:108E4000FCFEFFFF07B50B46002102460091012002
:108E50008C21FEF707FD03B05DF804FB01460020FE
:108E6000FFF7F0BF0020FFF7F9BF0000F0B52D4D70
:108E70000B7D04468BB00846AF1D002B38D00B6825
:108E80001B79002B34D00022274B049302A9043015
:108E90000292ADF80C208DF80E20FEF7D9FCDDF81B
:108EA0000E30C5F8063000B2BDF81230ADF80C0037
:108EB000A8800299BB802846FFF7AEFF02A8FFF703
:108EC0006BFF00232360A380A37123814FF6FF7300
:108ED0006381B5F90430A3803B68C4F80630BB88D1
:108EE000296863812046FFF797FF20460BB0F0BD4D
:108EF00000262023CDE902360C4B00930C49334663
:108F000002AA3220FEF71CFC074B049302A94FF67D
:108F1000F263044802968DF80E60ADF80C30FFF74E
:108F200044FFCBE724E603200000FFFF2BCF0D001A
:108F300024CF0D0030B5044685B0084611461A46C8
:108F40000023FEF72FFC0D4DADF80C00002301A906
:108F50000193ADF808308DF80A3028464FF6FF73BC
:108F6000ADF80E30FFF721FF01A8FFF715FF2046EF
:108F70002946FFF730FF204605B030BD24E6032028
:108F800010B5094B094C022200201A60084B2060E2
:108F9000A080A071A360FEF7F5FB2046054A0649B4
:108FA000BDE8104000F0EABC30E6032024E60320D0
:108FB0000000FFFF08E4032095420D002DE9F04179
:108FC000154ADFF86080D2E90032C01842EB010197
:108FD000124AD2E90032C61841EB0207D8E9002351
:108FE000BB4208BFB2428CB013D003A96846CDE99A
:108FF0000067FEF761FD089B094D03F26C7303AC3B
:1090000008930FCC0FC50FCC0FC5C8E900672368C4
:109010002B600CB0BDE8F08168E6032060E6032019
:109020003CE6032070E6032008B50020FEF76CFC48
:1090300028B1FEF741FC80F00100C0B208BD01205C
:10904000FCE7000008B5FFF7B9FF014B986808BDC1
:109050003CE6032008B5FFF7B1FF014BD86808BD17
:109060003CE6032008B5FFF7A9FF024B98690130E1
:1090700008BD00BF3CE6032008B5FFF79FFF024B89
:109080001869013008BD00BF3CE60320FAEE087AFB
:10909000B4EEE70AF1EE10FA08B511D4F2EE0C7A4C
:1090A000B4EEE70AF1EE10FA0ADCDFED067A60EEC4
:1090B000277A17EE900A01F073F9034BC3E9000118
:1090C00008BD00BF0000614568E60320B5EEC00A98
:1090D000F1EE10FA08B511D4F0EE007AB4EEE70A1A
:1090E000F1EE10FA0ADCDFED067A60EE277A17EE71
:1090F000900A01F055F9034BC3E9000108BD00BF18
:109100000000614528E20320034BD3E90001034B33
:10911000C3E90001704700BF28E2032060E6032096
:10912000024B00200021C3E90001704760E60320E4
:109130001FB502460B4668460021CDE90023CDE964
:109140000211FEF7BDF9024610B90146FEF75AFBBF
:1091500005B05DF804FB000030B504461848D0E9BE
:109160000010521840EB03031648D0E900105218C3
:1091700093B040EB0303CDE9002324220DEB020062
:10918000002101F0D1F9002509A96846FEF794FCF9
:109190001622294603A8029501F0C6F902A909A8DA
:1091A00001F050F902A801F01AFA12AB184402A912
:1091B00000F8415C2046FFF76EFD204613B030BD3D
:1091C00068E6032060E603202DE9F04FA5B00746CE
:1091D000884614A811463F221D4601F01AFA0023C2
:1091E00014A88DF88F3001F0FAF904465DBB2A49C6
:1091F00003A801F0CFF914AE002504F1FF3BAB4505
:1092000036D9B14605F1010A19F8013B252B17D1D2
:1092100073787A2B14D103A801F0E1F914AB04465A
:1092200028181844ABEB0502B11C01F055F9224691
:1092300003A9304601F050F914A801F0D0F9044612
:109240004E465546D9E73C2195FBF1F3002BB8BFBC
:109250005B42B3FBF1F201FB123300930F4A4FF470
:109260006163102103A895FBF3F3FEF7F5FBC2E75A
:1092700000212E2208A8079101F056F9434614AAAE
:10928000322107A8FEF710FC07A93846FFF703FDB7
:10929000384625B0BDE8F08F52CF0D0054CF0D00F9
:1092A000F0B58DB0CDE90023129D044615B9194BD8
:1092B0001D682DB1184B2846196801F061F938B9BD
:1092C000DDE900232046FFF747FF20460DB0F0BD43
:1092D000124E0099124FD6E900325B18019941EB0A
:1092E0000202D7E900011B1841EB0202CDE900326E
:1092F0000021242203A801F017F903A96846FEF70C
:10930000DBFB32683B6803A9134420462A46FFF77B
:109310005BFFDAE738E6032020E2032068E603205B
:1093200060E6032010B50020FEF7B2F80446A0B9AD
:10933000FEF720FA012810D12046FEF75BFA60B94B
:10934000FFF772FE10B9FEF7A7FAF9E7FFF76CFE18
:10935000BDE810400020FEF79BB8204610BD1FB5A9
:10936000FFF7E0FF10220021684601F0DDF8002140
:109370006846FEF79DF8009805B05DF804FB000014
:1093800008B5FFF7ECFFC117FFF718FE014B98680F
:1093900008BD00BF3CE6032008B5FFF7E0FFC1179A
:1093A000FFF70CFE014BD86808BD00BF3CE6032068
:1093B00008B5FFF7D4FFBDE80840C117FFF752BE5C
:1093C00008B5FFF7CCFFBDE80840C117FFF754BE52
:1093D00008B5FFF7C4FF034B034A1B681268134428
:1093E000184408BD68E6032060E60320024B1A68B3
:1093F000024B1A60704700BF20E2032038E60320CA
:1094000070474174704708B5007CFEF759F920EAAF
:10941000E07008BD08B5007CFEF72AF920EAE0708C
:1094200008BD08B5007CFEF733F940EAE07008BDDE
:1094300008B5007CFEF724F940EAE07008BD007C26
:10944000FEF72EB937B5457C04462DB1207C03B01C
:10945000BDE83040FEF704B9007C0191FEF730F919
:1094600000280199F2DC284603B030BD10B5142164
:10947000044600F088FA204610BD000010B54FF0F9
:10948000000C0446084611464FF47A72C4E901C242
:10949000044A22600122207462741A46FEF7D8F84A
:1094A000204610BD84CF0D0013B50E4C2178BFF3BC
:1094B0005B8F11F0010112D120460191FAF7FCFDFA
:1094C000019960B1084A094B0948FFF7D7FF2046C8
:1094D000FAF7F7FD074A0849054800F04FFA044833
:1094E00002B010BD78E603207CE6032000E70320ED
:1094F00084E7032008E4032001940D0041747047C1
:10950000704708B50021007CFEF7FAF840EAE070E9
:1095100008BD08B50121007CFEF7F2F840EAE070D2
:1095200008BD08B5007CFEF7E3F820EAE07008BD4E
:1095300008B5007CFEF7D4F820EAE07008BD13B54A
:109540000446007C0191FEF7D3F80028019901DC64
:10955000607C20B1207CFEF7DBF820EAE07002B0EE
:1095600010BD007CFEF7DCB810B51421044600F0F5
:109570000AFA204610BD000010B54FF47A73044675
:1095800008460021C4E90113044B23600123207421
:1095900063741146FEF79CF8204610BDB4CF0D0051
:1095A00010B514220446002100F0BEFF204610BD75
:1095B00010B5104C88B003A8FFF7F2FF2178BFF375
:1095C0005B8F11F0010111D120460191FAF774FD72
:1095D000019958B103AA0848FFF7CEFF2046FAF7D1
:1095E00070FD064A0649044800F0C8F9024808B070
:1095F00010BD00BF98E703209CE7032008E4032088
:1096000001950D00014B1860704700BF30E2032048
:1096100008B50B4B43B1FFF7CBFF03681B699847B5
:10962000002801DDAFF30080064B43B1FFF73CFF9C
:1096300003681B699847002801DDAFF3008008BD6F
:10964000000000000000000008B5FFF7E1FFFDF793
:1096500017FF014B186008BDC4E703200248034A06
:109660000349121A00F038BF00F4032004FC032061
:10967000E0D20D0007B5002300931A466FF0770182
:10968000FEF7D2F803B05DF804FB000007B543888D
:109690000A2B08D0502B0BD1094B1B684BB103B0E0
:1096A0005DF804EB1847FFF7E5FF03B05DF804FB36
:1096B000002300931A466FF07701FEF7B5F8F4E740
:1096C000B4E7032038B5124C1248134D0021FEF7C1
:1096D000E3F92368AB42114B0CBF012200221A7040
:1096E00002D0FFF7BBFF2560FDF7B2FE044600F095
:1096F00023FF0B4B13B12046AFF300800021084835
:10970000FEF71AF9BDE8384006480021FEF782B896
:1097100000FC032005960D001E1C279AB0E70320CD
:10972000000000008D960D0008B5024B1B681B68F9
:10973000019308BD5C02030008B5024B1B685B681F
:10974000019308BD5C02030008B5024B1B689B68CF
:10975000019308BD5C020300232813B502D9002041
:1097600002B010BDA0F10B03022B1AD8174C2178C0
:10977000BFF35B8F11F001010BD120460191FAF785
:109780009BFC019928B11248FFF730FA2046FAF7FE
:1097900098FC0F4B1878FDF753FF0028DFD101200C
:1097A000DEE7012809D800F099F80021007CFDF7D8
:1097B000FFFE80F00100C0B2D2E709380128EED8E0
:1097C000FFF772FE007CFDF773FFF2E7B8E70320B6
:1097D000BCE70320232838B504460D460AD8FF29E4
:1097E00008D0FFF7B9FF28B129462046BDE8384028
:1097F000FDF776BE38BD38B504460D46FDF778FE58
:10980000FF2810D0062804D84D2323FA00F0C30700
:1098100009D42046FFF7A0FF28B129462046BDE81D
:109820003840FDF76DBE38BD10B50446FDF760FE4B
:10983000031FDBB2012B08D92046FFF78DFF20B1B3
:109840002046BDE81040FDF763BE002010BD0D2886
:1098500010B504469CBF0E34A4B22046FFF77CFF2F
:1098600050B103212046FDF733FE032804D12046E2
:10987000BDE81040FDF754BE002010BD38B50023F0
:109880002025438014230446038085600561064932
:10989000284600F07CF804496060284600F077F81C
:1098A000E060204638BD00BFDCCF0D0038B5002396
:1098B0002025438014230446038085600561064902
:1098C000284600F064F804496060284600F05FF81C
:1098D000E060204638BD00BFDCCF0D0030B50F4D35
:1098E0002978BFF35B8F11F0010487B013D12846AC
:1098F000FAF7E2FB78B101A8FFF7C0FF01AA214601
:109900000748FEF7B1FE2846FAF7DBFB054A064991
:10991000034800F033F8024807B030BDC8E7032021
:10992000D0E7032008E4032011860D0010B50F4C8A
:109930002378BFF35B8FDB0786B013D42046FAF79A
:10994000BBFB78B101A8FFF7B1FF01AA01210848CC
:10995000FEF78AFE2046FAF7B4FB064A0649044899
:1099600000F00CF8024806B010BD00BFCCE70320A1
:10997000E4E7032008E4032011860D000B460146AE
:10998000184600F089BDFAF78ABBFAF784BBFAF7EC
:1099900084BB08B5FEF770F881F0004102E000BF1B
:1099A00083F0004330B54FEA41044FEA430594EA9F
:1099B000050F08BF90EA020F1FBF54EA000C55EADA
:1099C000020C7FEA645C7FEA655C00F0E2804FEAAB
:1099D0005454D4EB5555B8BF6D420CDD2C4480EA8D
:1099E000020281EA030382EA000083EA010180EABD
:1099F000020281EA0303362D88BF30BD11F0004F0B
:109A00004FEA01314FF4801C4CEA113102D0404240
:109A100061EB410113F0004F4FEA03334CEA13337B
:109A200002D0524263EB430394EA050F00F0A78093
:109A3000A4F10104D5F1200E0DDB02FA0EFC22FA8E
:109A400005F2801841F1000103FA0EF2801843FA82
:109A500005F359410EE0A5F120050EF1200E012A73
:109A600003FA0EFC28BF4CF0020C43FA05F3C018B1
:109A700051EBE37101F0004507D54FF0000EDCF12A
:109A8000000C7EEB00006EEB0101B1F5801F1BD3D3
:109A9000B1F5001F0CD349085FEA30004FEA3C0CD7
:109AA00004F101044FEA445212F5800F80F09A80CD
:109AB000BCF1004F08BF5FEA500C50F1000041EBD1
:109AC000045141EA050130BD5FEA4C0C404141EBD5
:109AD0000101013C28BFB1F5801FE9D291F0000FD0
