:02000002D0002C
:1040000000400D00F4F70D00000006000D00050152
:08401000040135080000000066
:04401800D8DB0D00E4
:1040200009480A49884208B505D0094A824202D0A7
:10403000121A07F0FBFD0748074A0021121A07F081
:104040001DFE014808BD00BFD8E00320E4F40D00C8
:10405000BCE30320C0E30320F8E7032070B5074E5C
:10406000074C06F0D9FEA41BA4080025A54200D1E8
:1040700070BD56F8043B98470135F7E7A4EC0D00F6
:10408000D4EC0D0001F04CB808B501F07DFCBDE8A2
:10409000084006F083BE03F0D1BE03F0CFBE03F0AC
:1040A000D5BE000008B5034A00210C2003F04AFDEC
:1040B000FEE700BF45780D000078B0FA80F04009B7
:1040C00070470123037070477047006A0368DB681C
:1040D00018470000014B1A60704700BF10E1032031
:1040E000024A01239371024A1370704734E503209A
:1040F00068E5032003681847012A03D0022A03D089
:10410000002070470160FBE70B680360F8E70000E0
:1041100010B5054B1A7B054B044653F8221006F0E8
:1041200070F9204610BD00BF34E50320D8E003201D
:1041300038B50446006928B185680C2106F0CDFF2A
:104140002846F8E7204638BD08B5044906F0AFF91F
:1041500018B1034B03221A70012008BD30DC0D009A
:1041600028E50320436913B183690C301847704771
:1041700010B5034B0360044603F01CF8204610BD45
:1041800088E10D0010B50446FFF7F2FF2046382104
:1041900006F0A3FF204610BD10B5034B0360044694
:1041A00002F016FE204610BD6CE10D0010B504466D
:1041B000FFF7F2FF2046102106F08FFF204610BDCA
:1041C00013B500210446084603F0ACFA002320464C
:1041D00001A9019303F0BEFA019C0CB101232371E4
:1041E0000021012003F09EFA2CB1236820469B6831
:1041F00098470023237102B010BD000008B508499C
:1042000006F055F9002350B1064A1361064A1361BE
:10421000064A1370064B01201870064B187008BD33
:1042200030DC0D0034E503206CE4032097E4032028
:104230008CE4032068E5032010B50446006818B13B
:1042400003F004FE0023236010BD10B50446FFF701
:10425000F3FF204610BD08B5002003F067FD28B12C
:1042600003F03CFD80F00100C0B208BD0120FCE776
:104270000023042203F012BD30B585B00346144676
:1042800068460D4698470298206003F0D7FD2860E5
:1042900050B12268009907F0C9FC0024684606F076
:1042A00065F8204605B030BD004CF7E7FCFEFFFF87
:1042B0000A4B10B50446036004F0E0FF214605F008
:1042C000E2F906F01FFD06F011FD2046044B40F810
:1042D000043B05F0C5F8204610BD00BF54E10D00B9
:1042E0003CE10D0010B50446FFF7E2FF2046242113
:1042F00006F0F3FE204610BD002340681A4619461A
:1043000003F064BD10B58368044613B1032201466F
:104310009847204610BD000037B5134B0360044694
:104320008068C8B100256FF00043CDE90035022157
:104330002B462A4603F016FAA068294603F05AFADB
:10434000237903F0FF0513B103F0E4F9F8E7A0685F
:10435000294603F0F7F9A56004F10C00FFF7D2FF3E
:10436000204603B030BD00BF28E10D0010B5044663
:10437000FFF7D2FF20461C2106F0AFFE204610BDFD
:1043800038B5044620252A46002107F077FC6571E0
:10439000204638BDF8B5037D05460F4616468BB15D
:1043A0000368DB6883B19A88012A06D09B68F9E725
:1043B0009B684BB19A88012AFAD12BB19A89BA42EB
:1043C000F6D19E732846F8BD0A49102006F087FEF4
:1043D000044668B11022002107F050FC064B236010
:1043E0000123A3802B69A360A781A6732C61E9E751
:1043F0002875E7E7D4E90D001000030070B5037DD0
:1044000005460E46CBB10368DB6823B19A88042ABF
:1044100017D09B68F9E70C49102006F060FE0446AF
:1044200068B11022002107F029FC084B2360042307
:10443000A3802B692C61C4E90236284670BD28751B
:10444000FBE7DE60F9E700BFD4E90D0010000300D0
:10445000002003F00FBA00000246014803F016BF27
:1044600061820D000EB410B58DB00FAA016852F82C
:10447000044B039200232020CDE90403CDE9004240
:104480001E2004AA03F06EFB0DB0BDE8104003B07F
:1044900070470EB410B58DB00FAA016852F8044BE6
:1044A000039200232020CDE90403CDE9004232200D
:1044B00004AA03F057FB0DB0BDE8104003B07047ED
:1044C00037B504689DF818508DF800308DF8045009
:1044D000E4683C23A04703B030BD000030B50B7842
:1044E0001C4D93B00C4693B91B4902A807F013FC6E
:1044F0002B7953B1194B1A491B788DF80030194BA1
:1045000019481B7802AAFFF7DBFF13B030BD08463D
:1045100007F068FBC8280DD1144902A807F0FBFB7F
:1045200006F0B5FA124B286201221A70114B0022D4
:104530001A70DDE7204607F055FBC928ECD020466D
:1045400007F050FB0C4A0346402102A803F096FCFA
:10455000CEE700BF34E5032065DC0D0011E4032045
:104560009CDC0D0010E40320ECE403206DDC0D0066
:1045700068E5032097E403207FDC0D0007B50B49B5
:1045800005F095FF70B100238DF80030084B094A03
:104590001B7809490948FFF793FF09480A2102F0EF
:1045A00021F9012003B05DF804FB00BF30DC0D00F1
:1045B00010E40320A9DC0D00D0E00D00ECE40320A2
:1045C00018E4032037B51949054605F070FF044685
:1045D000B0B1174B174A01241C71DB78147013B962
:1045E000012003B030BD144B144A1B788DF8003005
:1045F000134B1B7813491448FFF762FF2046F0E77E
:104600001249284605F053FF0028EAD0084B094A12
:104610001C71DB7801241470002BE1D0064B0C4A8E
:104620001B788DF80030064B1B78E3E730DC0D007B
:1046300034E5032068E5032011E40320C1DC0D000C
:1046400010E4032027DE0D00ECE4032033DE0D0030
:10465000D2DC0D0000B50C4B0C4A1B7FC3B04FF4ED
:10466000807102A803F00AFC094B0A491B788DF8F7
:104670000030094B09481B7802AAFFF721FF0120EF
:1046800043B05DF804FB00BF34E50320E7DC0D0018
:1046900011E4032001DF0D0010E40320ECE403200B
:1046A00013B52549044605F002FF20B322492046F0
:1046B00005F0FDFE38BB2149204605F0F8FE002834
:1046C00036D01F4CE27812B91E4B01221A701E4BD5
:1046D0001E4A1B788DF800301D4B1E491B781E4862
:1046E000FFF7EEFE4FF47A7003F01CFC00231B4929
:1046F000A371102219E01149204605F0D8FE0028C8
:10470000D4D102B010BD0E4CE27852B10E4B144A17
:104710001B788DF800300E4B0E491B780E48FFF7C2
:10472000CFFE01230F49A37110220F4807F033FB7E
:104730000E4B01201870E4E730DC0D0033DE0D0075
:1047400034E50320E9E4032011E403200ADD0D0031
:1047500010E4032027DE0D00ECE403201CDD0D0037
:10476000FBDC0D0020DD0D00D8E4032068E503200C
:104770007FB5006803A908F05DF9B5EEC00AF1EE57
:1047800010FA2AD4DFED167AB4EEE70AF1EE10FA49
:10479000CCBF0126002620DC124B134D01241C70D7
:1047A00010EE100A85ED0B0A06F004FE0F4ACDE963
:1047B00000010F48082103F061FB2B7953B1EB781E
:1047C00043B10C4B8DF800601B78094A0A490B482D
:1047D000FFF776FE204604B070BD0024FAE700BF64
:1047E0000000C84268E5032034E503202ADD0D00FF
:1047F00079E5032010E40320C1DF0D00ECE4032081
:104800007FB50A22006803A908F0E8F907EE900ACC
:10481000F8EEE77AF5EEC07AF1EE10FA28D49FEDC3
:10482000157AF4EEC77AF1EE10FACCBF0126002615
:104830001EDCFDEEE77A104A104D1148C5ED0C7AEA
:10484000012417EE903A147010210E4A03F016FB63
:104850002B7953B1EB7843B10B4B8DF800601B788B
:10486000074A0A490A48FFF72BFE204604B070BDEC
:104870000024FAE700007A4468E5032034E50320C9
:1048800069E5032033DD0D0010E403203BDF0D005C
:10489000ECE4032000B5C9B006F0F9F8154A07901A
:1048A000118D154B06911969059111690491D9680B
:1048B0000391107B114951F82010029192680192E6
:1048C0009A6800925B680E4A4FF4807108A803F062
:1048D000D5FA0C4B0C491B788DF800300B4B0C486B
:1048E0001B7808AAFFF7ECFD0A4B01221A7049B0A9
:1048F0005DF804FB34E503206CE40320D8E00320DA
:104900003EDD0D0011E40320C4DD0D0010E40320A2
:10491000ECE4032097E4032013B5012101A805F07E
:10492000D8FB0B4BDB68243B402B01A84FF0010464
:104930000AD905F061FC074B1C73002401A805F09F
:10494000D7FB204602B010BD05F03FFCF6E700BFE4
:104950006CE4032034E5032030B5194D0FCD99B038
:1049600004AC0FC40FCD0FC495E8030084E8030026
:1049700014490EA803F03EFB0EA803F08EFB04467C
:104980000EA803F093FB0EA810EE105A03F0BEFB26
:1049900018AB10EE100A03EB840406F00BFDCDE912
:1049A0000201284606F006FDCDE90001064A54F84A
:1049B000503C0648402103F061FA19B030BD00BFF9
:1049C000A8E10D009CE50320E1DD0D00C4E3032018
:1049D00008B50F2006F0E5FAB0F5C87F05DA3220F9
:1049E00003F0A0FA0F2006F0DCFA06F0D1FC20A3B9
:1049F000D3E9002306F036FD07F02CF8DFED147A3A
:104A000007EE100A67EE277A17EE900A06F0D2FC3E
:104A1000104B002206F06EFB0F4B002206F022FD29
:104A200006F0D0FF06F0B4FC0C4B002206F01AFD95
:104A30000B4B002206F040FE0A4B002206F05CFB06
:104A400006F0C0FF084BD860084B01221A7008BD61
:104A5000000080390000E03F000059400000224083
:104A600000001440000040406CE403208CE403206C
:104A70006666666666660A4000B591B06846FFF7EE
:104A80007FFC08A8FFF77CFC002108A803F0E8F8E9
:104A9000134B5979A1B141F2D833ADF80630114B1F
:104AA000029341F27003ADF80C30009B43F40073A5
:104AB00000930021684603F0D3F811B05DF804FBC1
:104AC00041F27003ADF80630074B029341F2100338
:104AD000ADF80C30009B43F400730093EAE700BF8D
:104AE00034E50320840300048403840337B51B49A1
:104AF000054605F0DCFC0446C0B1194D01246C717B
:104B0000FFF7BAFF174B1C70EB7813B9012003B005
:104B100030BD154B154A1B788DF80030144B1B78AF
:104B200014491548FFF7CCFC2046F0E71349284606
:104B300005F0BDFC0028EAD0094D0A4B6C71012438
:104B40001C70FFF799FFEB78002BDFD0064B0C4A67
:104B50001B788DF80030064B1B78E1E730DC0D0048
:104B600034E5032068E5032011E40320FADD0D009D
:104B700010E4032027DE0D00ECE4032033DE0D00FB
:104B800011DE0D00244B1A69D3ED057AFF2ABAEE27
:104B9000087A88BF0022F4EEC77A88BF1A61F1EE66
:104BA00010FA06D4B2EE087AF4EEC77AF1EE10FAF3
:104BB00001DD1A4A5A61D3ED067AF5EEC07AF1EEBC
:104BC00010FA06D4B0EE007AF4EEC77AF1EE10FADD
:104BD00002DD4FF07E529A611A7F0C2A84BF0022B8
:104BE0001A775A7F0C3A0C2A84BF18225A770C4A3B
:104BF00011681A8D8A4284BF00221A8501225A71D7
:104C0000084B188B81423FBF00211983064B1A7055
:104C1000064B01221A70704734E503200000A0C043
:104C2000FCE003206CE403208CE4032068E503200F
:104C300010B50E4CA38BB3F5C05F09D10C490D48DC
:104C400007F069F8BDE8104009490B4807F063B860
:104C5000237F0A4A0748082103F010F9637F074AB7
:104C60000548BDE81040082103F008B934E50320E9
:104C70002CDE0D0006E10320F4E003202FDE0D0002
:104C800013B50A22006801A907F0A8FF17280CD85D
:104C9000074C2077FFF7CCFF064B01201870E37814
:104CA0000BB1FFF7D7FC02B010BD0020FBE700BF3F
:104CB00034E5032068E5032030B5C5B000680A225A
:104CC00003A907F08BFF18281CD8104D6877FFF751
:104CD000AFFF0F4B0F4A01241C704FF480716B7FA4
:104CE00004A803F0CBF8EB7853B10B4B0B491B78BE
:104CF0008DF800300A4B0B481B7804AAFFF7E0FB45
:104D0000204600E0002045B030BD00BF34E5032060
:104D100068E5032035DE0D0011E4032001DF0D00FE
:104D200010E40320ECE403202DE9F04385B00026D5
:104D300001A8CDE90166ADF80C6003F0B8FAFFF701
:104D400087FBB146804643F697260027FFF780FB96
:104D5000B0EB080461EB0905AF4208BFA64205D3DA
:104D600002F0BCFF10B102F0A9FFEFE7094C02F01E
:104D7000B5FF60680022022103F010F82046FFF71B
:104D8000BBFA054B0022DA70044B0120187005B005
:104D9000BDE8F0839CE5032034E5032068E50320AB
:104DA00008B505F074FE074B0749186000221A6128
:104DB0001A830A616422DA61044A01231370044AE7
:104DC000137008BD6CE4032034E503208CE4032059
:104DD00068E5032030B5154C154D2278154902EBD6
:104DE00002132A788DB002EB02120A440B4400929F
:104DF0002821114A02A803F041F82B7823700F4BA9
:104E00001A7982B1DB7853B10D4B0E491B788DF8BE
:104E100000300D4B0D481B7802AAFFF751FB0C48E0
:104E200002A9FFF71FFB0DB030BD00BFE8E403206F
:104E300028E5032014E103204CDE0D0034E50320B7
:104E400011E403205ADE0D0010E40320ECE40320FB
:104E5000E0E503202DE9F047224B234C1B78234A41
:104E60002349244886B000258DF80030224B1B785A
:104E7000FFF726FB257102F031FF10B1284602F042
:104E80004DFFFFF7E5FA4FF0000A054647F22F58AD
:104E90004FF00009FFF7DCFA461B61EB0A07B94542
:104EA00008BFB04505D3FFF7D6F910B902F006FFE9
:104EB000F0E7FFF7D0F9637913B9A368462B09DC53
:104EC0000E4902A805F09DFA02A8FFF7E9FB02A827
:104ED00005F04CFAFFF764FF094B01221A7006B087
:104EE000BDE8F08711E4032034E503206BDE0D00FC
:104EF00073DE0D00ECE4032010E4032030DC0D0031
:104F000068E5032030B585B00D4600226946009261
:104F100002F040FEB0B9009C0CB1236923B90A4AE3
:104F200000210A2002F00EFE0023ADF806300C230B
:104F3000ADF80430042303930295236901AA0121EB
:104F40002046984705B030BD45780D0030B52D4B53
:104F500000228BB05868114602F028FF08B1FFF715
:104F6000FBFCFFF735FD02A90720FFF7CBFF264C1E
:104F7000264D0028A8BF02982073FFF7CDFC10B97A
:104F80002B6901332B6102A90320FFF7BBFF002827
:104F900034D1BDF8083007EE903AFBEECC7AFDEE46
:104FA000E77A17EE903A402BC4ED027A09DC237BB6
:104FB000012B06D102A8FFF7E3F9002102A802F0B5
:104FC0004FFEA368EA699342B8BFEB611D2BCCBFCB
:104FD000002301231320E37105F0E3FF6423009312
:104FE0000023194640F68A6202F090FF084A686082
:104FF00001231370074A13700BB030BDFFEE007A27
:10500000CDE700BF9CE5032034E503206CE40320DA
:1050100068E503208CE4032038B5046805467CB1BC
:105020006368013B63605BB9236820469B689847CF
:10503000A368013BA3601BB923682046DB6898473F
:10504000284638BD70B5D0E900531426044606FB47
:105050000356AE4204D0284605F088F91435F8E727
:10506000206802F0F3FE204670BD38B50368144690
:10507000DD683423A847204638BD000070B51B4BBF
:105080001B4C01221A70E37886B053B1194B1A4AAF
:105090001B788DF80030194B19491B781948FFF718
:1050A0000FFA19491948FFF7DDF90025184925714C
:1050B000012602A82670A570E57105F0A2F902A8E4
:1050C000FFF7EEFA02A805F051F9124B63614FF0B9
:1050D0007E53A361064A1048667141F20653314679
:1050E000A3832585FFF7C1FF06B070BDE9E4032067
:1050F00034E5032011E4032081DE0D0010E40320D9
:1051000027DE0D00ECE4032099DE0D00E0E503202E
:1051100030DC0D000000A0C098E403200000000077
:105120002DE9F0410021AAB0082005F0FDFE002184
:10513000042005F0F9FE0121072005F0F5FE01210C
:10514000072005F002FF06A8002502F0CFFD00238E
:105150007D220AA906A805F0BCF9BD49DFF8048440
:10516000BC4CBD4F2B462A46CDE900550AA802F09B
:10517000CDFD2B460222B949B94802F08FFDB9494D
:10518000B948FFF775F8B949B9482B46022202F031
:1051900085FD2B460222B749B74802F07FFDB7498B
:1051A000B748FFF765F82B460222B649B64802F029
:1051B00075FDB649B648FFF75BF8B649B648FFF744
:1051C00057F8B649B648FFF753F82B460222B549BF
:1051D000B54802F063FDB549B548FFF749F80C231F
:1051E000CDE90355ADF80C30B24BB3490593042219
:1051F00003ABB24802F052FDB149B248FFF738F8AC
:10520000B149B248FFF734F8B149B248FFF724F981
:10521000B149B248FFF720F9B149B248FFF71CF98C
:10522000B149B248FFF718F9B149B248FFF714F98C
:10523000B149B248FFF710F9B149B248FFF70CF98C
:10524000B149B248FFF708F9B149B248FFF704F98C
:10525000B149B248FFF700F9B149B248FFF7FCF88D
:10526000B149B248FFF7F8F80126032241F288332A
:1052700003A8CDE90323ADF8146003F032F8AC487D
:1052800001F0BCFD2946AA4833460DF10B0201F09E
:10529000F7FD9DF80B10B14200F0C680A44801F064
:1052A000B7FDA44AA2480423294601F034FE334640
:1052B0009F480DF10B02294601F0E2FD9DF80B30ED
:1052C000B34200F0AE803E709B4DFFF75BFCFFF7F2
:1052D000AFFC9A4A002300214FF4802002F07CFCAE
:1052E0000823012128466B8101F03AFC01231A466C
:1052F0001021284601F09FF97C21A070284601F07A
:1053000017F994ED060A05F079FA00F049FF002834
:1053100000F0968005F090FA94ED050A05F04EFA3B
:1053200005F0EEFB054605F0B2FB281A06F030F852
:1053300045A3D3E9002306F0BFF9814ACDE9000176
:105340000A215A4802F09AFDE06A06F033F87D4AD5
:10535000CDE9000108215A4802F090FD236B7A4AFA
:105360005948102102F08AFDA3791022002B00F089
:10537000FB807649454806F00EFD0022114603A841
:10538000039202F047FA039B142B4FF0000240F007
:10539000ED802369013323616D4B01221A70FFF701
:1053A0006BFB042005F0EAFD08B9FFF767FE05F086
:1053B0008BFB00210546D8F8000005F0E3F9854293
:1053C00001D0FFF7EDFC05F073FB237F984216DB5D
:1053D00005F06EFB637F984211DAE37833B102F097
:1053E0007DFC18B95B4BE07001221A70FFF7AEFD2F
:1053F000594B5A4A1A6002F02DFA594B18603B7803
:105400000BB902233B700021072005F09EFD01230C
:10541000237106A80023A37104F0A8FF2AB0BDE8F9
:10542000F081FFF72BFE4FE722463423404801F07E
:1054300027FD2023424650213D4801F021FD43E74E
:1054400005F006FA68E700BF000000000020AC404D
:10545000DD440D0034E5032028E5032070E403203B
:10546000B1DE0D00C4E30320BEDE0D0044E50320E1
:10547000C5DE0D0078E40320D0DE0D0000E103203E
:10548000DCDE0D003CE50320E4DE0D00D8E4032063
:10549000EFDE0D0006E10320A6DF0D00F4E003209F
:1054A000FCDE0D007CE4032006DF0D008DE403200C
:1054B0000DDF0D0079420D0011410D0018DF0D00C8
:1054C00079E5032027DF0D0069E5032033DF0D00B8
:1054D000FD410D0044DF0D007D450D0050DF0D0046
:1054E00049410D005ADF0D00A1460D0062DF0D009D
:1054F000ED4A0D006FDF0D00C5450D007ADF0D0090
:1055000079600D0087DF0D00E1610D0094DF0D0073
:10551000814C0D00A2DF0D00B94C0D00AFDF0D0076
:1055200071470D00B9DF0D0001480D00CBDF0D0004
:1055300098E40320D0E10D0018E40320D5400D00CD
:10554000DCDF0D002ADD0D0033DD0D0020DD0D0058
:1055500068E50320E9E403202CE50320905F0100C7
:1055600030E503206CE40320054903E7114603A856
:10557000039202F04FF9039B8C2B7FF410AF08E7E6
:105580001CDD0D008842F8B504460D46164616D9B6
:10559000904215D2A2F11406751AA1F114072C44F9
:1055A000B7421CD02CB13146204604F05BFF337C5F
:1055B0002374304604F0DAFE143E143CF0E70ED0BB
:1055C000B5420CD02CB12946204604F04BFF2B7C71
:1055D0002374284604F0CAFE14351434F0E7F8BDED
:1055E0002DE9F0410023C0E9003383604F689F42FA
:1055F00004460E4623DD4FF0140808FB07F002F0C6
:105600001DFC0546D8B1D4E9001208FB0212FFF7D1
:10561000B9FF206802F01AFC2560A760D6E9007384
:1056200008FB0378B84508D03946284604F034FF13
:105630003B7C2B7414371435F4E7736863602046A1
:10564000BDE8F0812DE9F04F764B774D774E4FF066
:10565000010983F80090764B082291B01A7005F08A
:105660000DFC00231A460D2105F010FC05F006FC88
:1056700000231A46042105F011FC6E4B002464221D
:105680001C83DA616C4BAB602C60AC80AC71022087
:1056900002F092FA32466949284605F019FD214682
:1056A000484602F0A1FA4946042002F0ABF86448EB
:1056B0006449A0F809400346021D43F8092B9C7079
:1056C000614B43603246C0E9034480F81490047291
:1056D00005F0FEFC05F0ACFC5C4D014623464FF4A2
:1056E0000052284601F080FB594B2B602846594D4B
:1056F0005949324605F0ECFC58494FF400622846FF
:1057000001F056FE564B2B6032465649284605F0AE
:10571000DFFC05F08DFC544D01466922284600F05F
:1057200009FE2846514D5249324605F0D1FC21462A
:10573000284603F0A5F832464E49284605F0C8FC35
:10574000CDE90344059405F0DDFA4B4D0DF1240835
:10575000824603A906A8FFF743FFAB4606A94046C9
:10576000FFF73EFF454B4BF8043B0CAF4146384634
:10577000FFF736FF3A464946584604F0D7F8384610
:10578000FFF760FC4046FFF75DFC3D4B2B60C5F822
:1057900020A006A8FFF756FC3A4B2B6005F0B2FAA2
:1057A0004FF4165105F09EFA03F068FD294604F007
:1057B0004FF803A8FFF746FC32463349284605F068
:1057C00087FC324B0C93324D324B2B6097E8030031
:1057D00005F10C0388E8030093E8030087E8030061
:1057E00098E8030083E803002B4B6B61AB690F93D0
:1057F0002A4BAB612A4A2B492C712B46AC6005F130
:105800000800CDE900940E9401F094FF3846FEF7AD
:1058100079FD25493246284605F05AFC11B0BDE80D
:10582000F08F00BF10E4032004E40320C0E3032052
:1058300011E403206CE403200000FFFF4B420D0045
:1058400054E4032031410D001000030098E40320CC
:105850006CE10D00ECE4032099410D0000F40320FD
:1058600088E10D0071410D0018E40320A8E4032035
:10587000F5620D00A1880D00B4E403203CE10D00A9
:1058800088E80D0054E10D00B1420D00E1400D002B
:1058900038E4032028E10D00F9400D00F5400D002B
:1058A000C1410D0040771B0019430D002DE9F04F59
:1058B00085B04FF0000A01A8CDE901AAADF80CA00F
:1058C00002F0F5FCFEF7C4FD43F6972883464FF03F
:1058D0000009FEF7BDFDB0EB0B0661EB0A07B94509
:1058E00008BFB04505D302F0F9F910B902F0E6F9A6
:1058F000EFE702F0F3F92148DFF880A0FEF7FCFCA7
:10590000FEF7A6FD4FF00009804647F22F5600270C
:10591000FEF79EFDB0EB080461EB0905AF4208BF3E
:10592000A64206D3504604F041FB10B902F0C6F976
:10593000EEE7124804F03AFB1148002100F0F8FDB0
:10594000104B1A7D0AB102221A72002204210D485E
:10595000FEF720FD42F21071FEF750FD094901A843
:1059600004F042FE01A8FEF767FC4FF0FF31044847
:1059700000F0DEFD05B0BDE8F08F00BF9CE5032020
:1059800018E4032054E403202DE9F0419F4CA04F7C
:105990002378A04E013B96B0082B00F2AC80DFE8E4
:1059A00013F08F020900E201F50161013D02680276
:1059B000E3003F00984B1B78022B01D0FFF70AFA57
:1059C000964DAB796BB101F045FF954B1B68C01A42
:1059D000944B1B68984204D9934B9B680BB90823DE
:1059E000237005F065F8914B80460021186804F09B
:1059F000C1FE80451CBF0323237005F059F86B7F5F
:105A0000984207DB09232370894B1B78002B72D047
:105A1000052387E105F04CF82B7F9842F2DBF3E792
:105A20007D4B1B78092B01D0FFF7D4F97B4BDA783B
:105A300098460AB1FFF778F900217E4800F078FD1A
:105A400005F025F84FF4616590FBF5F303FB1505B0
:105A5000794BC5F561651A7DB5F5616FA8BF4FF447
:105A600061650AB102221A72002204217248FEF70F
:105A700091FC4FF47A716943FEF7C0FC6E4903A8AC
:105A800004F0B2FD4FF0FF316A4800F051FD6B4861
:105A900002F090FF694802F084FF039B9BB19A8853
:105AA000012A10D19B89042B0DD1654906A804F069
:105AB000A8FC06A8FEF7F4FD06A804F057FC4FF476
:105AC000C053A8F81C3004F0F3FF98F81D3098423A
:105AD0000CDA04F0EDFF98F81C30984206DB514BCD
:105AE000584A1A6001F0B6FE4D4B1860022303A815
:105AF0002370FEF7A1FB4F4801F012F93B7833B158
:105B0000464A51480121FFF7B0FA00233B70337831
:105B10003BB12023444A4C48502101F0FCF90023BA
:105B200033704A4B1B68002B1BDB494A402106A8F7
:105B300002F0A4F906A94748FEF794FC642002F09D
:105B4000F1F900238DF80030434B44491B78444859
:105B500006AAFEF7B5FC4FF4FA6002F0E3F904F090
:105B60003FFD16B0BDE8F0812B4B1B78082B01D010
:105B7000FFF730F9294BDB780BB1FFF7D5F800219F
:105B80002C4800F0D5FC04F082FF4FF4616590FBD7
:105B9000F5F303FB1505284BC5F561651A7DB5F5D1
:105BA000616FA8BF4FF461650AB102221A72002228
:105BB00004212148FEF7EEFB4FF47A716943FEF7AA
:105BC0001DFC1D4903A804F00FFD4FF0FF311948DB
:105BD00000F0AEFC194802F0EDFE184802F0E1FEBC
:105BE000039B002B82D09A88012A7FF47FAF9B8988
:105BF000042B7FF47BAF124906A804F002FC06A830
:105C0000FEF74EFD06A804F0B1FB6FE728E5032080
:105C100068E503208CE40320E8E4032034E5032056
:105C200030E503202CE503206CE40320B0E40320DE
:105C3000E9E4032018E4032054E40320A8E403204B
:105C400033DE0D00905F010098E4032010E1032093
:105C5000F7E00D00E0E5032010E4032016E10D005D
:105C6000ECE40320AD4B1B78052B13D0DA1E534216
:105C70005341AB4A1370FFF7ADF804F008FFA94B8E
:105C80001860A948002340681A46194602F096F8A1
:105C900002F01CF802F022F8DFF8BC82054600286A
:105CA00042D0A24D002388F800300123EB7004F0AD
:105CB000EEFE9F4968629F48FEF7D4FB98F80030DB
:105CC000002B7FF418AF04F0E2FE964B974D1B6853
:105CD000994AC01A994B118B1B6880B2984228854B
:105CE00088BF2B852B8D994238BF13832021944A7E
:105CF00006A802F0C3F88F4806A9FEF7B3FB2B797C
:105D00004BB100238DF800308E4B8F491B788F48A4
:105D100006AAFEF7D5FB01233B703370804B1B783E
:105D2000FBB103232370E6E604F0B1FE7D4B1B6854
:105D3000C01A824B1B689842C0D988F8005004F002
:105D4000A6FE7A4B5A6A801AB0F5E15F06D90123A4
:105D5000237001F07FFD7E4B1860CCE67D49DD703D
:105D6000A9E70223DEE7714BDA781AB97A4B0122F0
:105D70001A704DE61B792BB1684B1B78032B01D0B1
:105D8000FFF728F8FFF7E2F80423CBE7634B1B7813
:105D9000042B01D0FFF71EF8644DDFF8A88104F052
:105DA00087FE2B7F984212DC6C496248FEF75AFB53
:105DB00098F800308DF8003006A8684A68493C23FE
:105DC00002F09EFB07A8FFF727F90623AAE704F0D5
:105DD0006FFE6B7F9842E7DA574B95ED0B7AD3ED68
:105DE000017AF8EEE77AF4EEC77AF1EE10FADBD535
:105DF0005B495048FEF736FB2B6B5A4A202106A818
:105E000002F03CF898F800308DF8003003A85649AD
:105E10003C2306AA02F074FB04A8D4E73F4B1B788E
:105E2000062B01D0FEF7D6FF404D04F030FE4F4B5D
:105E3000EA7818609846002A3CD004F039FE2B7F9F
:105E4000984213D1FFF706F804F032FE2B7F9842F8
:105E500002D108B9FEF71EFD01F0FCFC444B1860AE
:105E600004F015FE0723C8F800005BE7FEF712FDFB
:105E7000EAE72A4B1B78072B01D0FEF7ABFF3D4B1F
:105E80001D786DB93C4B3D4A1A6001F0E3FC3C4B78
:105E9000186002232370284B1D61012333702AE60A
:105EA00001F0D8FC324B1B68C01A47F230539842BD
:105EB0007FF621AE01F0CEFC254B1860012331E7BF
:105EC000164B1B78012B01D0FEF784FF01F0C2FCBA
:105ED0001F4B1B6803F5EA4330338342BFF40BAE1C
:105EE000124D04F0D4FD6B6AC01AB0F5E15F2C4688
:105EF0004CD904F0CCFDA0F5616068622A4601210E
:105F00002048FFF7B2F80B481F49FEF7C2FA642099
:105F100002F008F8FFF7CAFCEDE500BFE8E4032053
:105F200012E4032014E403209CE5032034E503205D
:105F3000E6DF0D00E0E503206CE40320FCE0032035
:105F400020E00D0010E4032035E00D00ECE4032018
:105F500024E5032002E00D00E9E403203EE00D000B
:105F60005EE00D0067E00D0077E00D00B0E4032077
:105F700084E5032097E403202CE50320905F0100D3
:105F800030E5032098E403208AE00D0004F07FFD53
:105F90002B6AC01AB0F5E15FEB7819D953B1254BE4
:105FA000254A1B788DF80030244B25491B7825485D
:105FB000FEF786FA4FF4FA6001F0B4FF0023236184
:105FC00004F065FD0123A0F5616020623B70A1E74C
:105FD0002A69032A12DC53B1164B1B4A1B788DF831
:105FE0000030164B16491B781648FEF769FA4FF435
:105FF000FA6001F097FF04F0F3FA7CE553B10D4B22
:106000000D4A1B788DF800300C4B0D491B780D485C
:10601000FEF756FA4FF4FA6001F084FF00230B4AB2
:106020000B4823610121FFF720F81E21094800F0E9
:10603000D9FB60E511E40320B7E00D0010E4032074
:10604000D6E00D00ECE40320DCE00D0034E5032095
:1060500098E4032018E4032008B5002001F066FE50
:1060600028B101F03BFE80F00100C0B208BD012064
:10607000FCE70000000000002DE9F047C8B08046B2
:1060800001F02CFE10B1002001F048FE002001F0CC
:10609000F1FB4FF0000A814647F22F5600270020FF
:1060A00001F0E8FBB0EB090461EB0A05AF4208BF61
:1060B000A64205D3FFF7D0FF10B901F0FFFDEEE7D0
:1060C000FFF7CAFFD8F800000A2203A906F086FDF0
:1060D00000F10C03DBB2182B48D845B207EE905AFA
:1060E000274BB8EEE70A012483ED050A04F066FBAE
:1060F000244B1C7004F004FD064604F0C8FC301A62
:1061000005F046F91CA3D3E9002305F0D5FA1E4A91
:10611000CDE900010A211D4801F0B0FE01F0DEFDCD
:1061200010B32B461A4A1B4D4FF48071002608A865
:1061300001F0A4FE8DF8006017492B78174808AAD3
:10614000FEF7BEF904F0A3FC0246C31704A804F04E
:106150009BFB8DF800602B78049A0F490F48FEF7DF
:10616000AFF904A804F002F9204600E0002048B08E
:10617000BDE8F087AFF30080000000000020AC40D5
:1061800034E5032068E50320DCDF0D008DE4032007
:10619000D4E10D0088E5032001DF0D00ECE40320CD
:1061A00038B504F091FC054604F0A2FC044604F066
:1061B00097FC231F062B0ED9E31E082B0DD80138A0
:1061C0002D1A04D50B2C14BF0020012038BD072D3B
:1061D00003DD032CF7E70120F8E70020F6E70000D5
:1061E00070B52DED028BC8B0054604F050FC0A22B4
:1061F000044603A9286806F0F1FCC3B2022B59D863
:1062000043B208EE103AB8EEC88AB0EE480A04F07D
:10621000F5FA2D4B83ED068A2C4B01221A7018EEED
:10622000100A05F0C7F82A4ACDE900014FF4807141
:1062300008A801F023FE04F00DFC28B1FFF7B0FF21
:10624000002834D004F0F8FA04F05AFC054604F0B3
:106250001EFC281A05F09CF819A3D3E9002305F0C9
:106260002BFA1C4ACDE900010A211B4801F006FE69
:1062700001F034FDC8B1194D19491A4800268DF8AE
:1062800000602B7808AAFEF71BF92246E31704A842
:1062900004F0FAFA8DF800602B78049A104911483E
:1062A000FEF70EF904A804F061F8012003E004F001
:1062B000CFFAC9E7002048B0BDEC028B70BD00BF2B
:1062C000000000000020AC4034E5032068E5032016
:1062D000E8E10D00DCDF0D008DE4032088E50320FC
:1062E00001DF0D00ECE40320014B01221A7070471E
:1062F00088E50320704710B52021044604F0EDFE28
:10630000204610BD0EB410B58DB00FAA016852F82A
:10631000044B039200232020CDE90403CDE9004281
:10632000012004AA01F01EFC0DB0BDE8104003B02E
:106330007047000010B50272FF2242810022C0E9BE
:10634000032242610276C261024A034C1060C0E936
:10635000004110BD90E5032048E40D002DE9F8430D
:106360009DF820800446894616461F46B8F1000F66
:1063700002D0406802F0D2FB217A606802F0ABFBE9
:106380006068036849469B6898476068002102F08E
:10639000C1FB054600BB0123217A60683A4602F042
:1063A00088FB8742034609D13744BE421CD060684F
:1063B00003685B69984706F8010BF6E70B490C4840
:1063C0004A46FEF766F8B8F1000F02D0606802F0A6
:1063D000AEFB2846BDE8F8830346064904484A4612
:1063E000FEF757F80025EEE70125ECE7F9E10D008F
:1063F0008CE503201EE20D0007B500930123FFF793
:10640000ADFF03B05DF804FB73B54389FF2B044671
:1064100010D0194E194D01F01DFAB0F57A7F09D24E
:10642000608904F0ABFD012804D031462846FEF710
:1064300019F8F0E701230DF1070228212046FFF7A4
:10644000DBFF30B90D480E49FEF70CF8002002B012
:1064500070BD9DF80730182BF4D101230DF1070210
:1064600029212046FFF7C8FF0028EBD09DF8073010
:10647000052BE7D1EBE700BF42E20D008CE50320DE
:1064800057E20D0007B5134600228DF807200DF1E5
:106490000702FFF7B1FF9DF8070003B05DF804FBAA
:1064A0002DE9F0419DF8188004460F4615461E461A
:1064B000B8F1000F02D0406802F030FB217A60682A
:1064C00002F009FB6068036839469B6898472E44D0
:1064D000B542606805D0036815F8011B9B689847B2
:1064E000F6E7012102F016FB034670B1084909489E
:1064F0003A46FDF7CEFF0025B8F1000F02D06068E4
:1065000002F015FB2846BDE8F0810125F4E700BF45
:1065100064E20D008CE503201FB58DF80F20009379
:106520000DF10F020123FFF7BBFF05B05DF804FB7F
:10653000F8B50A460C4605461A491B48FDF792FF76
:10654000002CB8BFEC687CB9012322461B212846E9
:10655000FFF7E2FF1549024606461348FFF7D2FE51
:10656000EC606C613046F8BD032C19DDA7101F2FBD
:10657000A8BF1F27BA0062F07C020123D2B21B2100
:106580002846FFF7C9FF3A4603460949064606482A
:10659000FFF7B8FE4FF4FA635F43EC606F61E1E729
:1065A0000127E7E789E20D008CE5032093E20D0067
:1065B000AFE20D000B4607490246086848B1002BC0
:1065C00008BFB2F5006F04D1C36813B10021FFF713
:1065D000AFBF704790E503202DE9FF419DF828806B
:1065E000054616461F46B8F1000F04D040680191D9
:1065F00002F094FA0199019100230DF10F0228464F
:10660000FFF7FAFE044660B19DF80F3003EA060278
:106610003A43934205D0019900232846FFF77CFFB7
:106620000446B8F1000F02D0686802F080FA2046F4
:1066300004B0BDE8F08113B514460DF10702FFF771
:10664000DBFE28B19DF807301C420CBF0120002062
:1066500002B010BD13B514460DF10702FFF7CCFED2
:1066600028B19DF807301C4214BF0120002002B061
:1066700010BD07B5D2430093D2B20023FFF7ACFFA1
:1066800003B05DF804FB000037B501230DF10702EC
:106690000F210446FFF7B0FE054638B91E491F48D2
:1066A000AD22FDF7F6FE284603B030BD9DF8073059
:1066B00013F0200F4FF001030BD02022E3610F21D4
:1066C0002046FFF7D6FF164A16491448FDF7CAFEC2
:1066D000E9E7082217212046FFF7BCFF18B1022383
:1066E000114AE361F0E79DF807301A0709D5032343
:1066F000E361082201230F212046FFF7BAFF0B4A6E
:10670000E2E75B07CFD50422E26101230F21204697
:10671000FFF7AFFF064AD7E702E30D008CE5032041
:10672000D3E20D0021E30D00DCE20D00ECE20D00F0
:10673000FCE20D0007B500931346FF22FFF74CFF64
:1067400003B05DF804FB0000F8B50F4616460123C0
:1067500000220F210546FFF7DFFE044638B94FF44B
:1067600025721E491E48FDF794FE2046F8BD012300
:10677000232218212846FFF7CFFE044610B940F225
:106780009B22EEE7FF2FA8BFFF27012FB8BF0127ED
:106790000123FAB219212846FFF7BEFE044610B9BC
:1067A0004FF42A72DDE70123082212212846FFF761
:1067B000C1FF044610B940F2AF22D2E7002E4FF0DD
:1067C000010314BF8322822218212846FFF7A4FE6A
:1067D00004460028C9D140F2B922C2E732E30D00D5
:1067E0008CE503202DE9F7430A4605460F464F483E
:1067F0004F49FDF737FE00212846FFF799FE044672
:1068000048B940F2F7124B494848FDF742FE20468E
:1068100003B0BDE8F08301231A4630212846FFF774
:1068200089FF044610B940F20522ECE7102201234B
:1068300011462846FFF71DFF044610B94FF40372B6
:10684000E1E70123262213212846FFF765FE0446CF
:1068500010B940F21322D6E7012600963346FC22F7
:1068600011212846FFF7B8FE044610B940F21B225A
:10687000C9E7002239462846FFF766FF044610B9EB
:1068800040F22222BFE700960223772210212846F9
:10689000FFF7A2FE044610B940F22B22B3E73346BD
:1068A00004221C212846FFF745FF044610B940F298
:1068B0003222A8E700961823E32211212846FFF789
:1068C0008BFE044610B940F239229CE73346C022C1
:1068D00017212846FFF720FE044610B94FF4107226
:1068E00091E700F0B7FFDFF85490DFF840804FF4F5
:1068F0007A7106464F4300F0ADFF801BB8420ED2BE
:10690000012217212846FFF7BDFD494602464046B1
:10691000FDF7A8FD4FF47A7001F004FBEBE70649A0
:106920000248FDF7B6FD03F05BFE70E78CE503203F
:106930005DE30D0052E30D0083E30D006EE30D00F7
:106940002DE9F3479DF828A005460C4691461F46C1
:10695000BAF1000F02D0406802F0E0F807B3202F30
:106960003E4628BF20267F2C26D83319802B01D9FC
:10697000C4F18006012304223F212846FFF779FE57
:10698000002364F07F0100934A463346C9B228468B
:10699000FFF7E4FC804628B13444BF1BB144DDE777
:1069A0004FF00108BAF1000F02D0686802F0BFF89A
:1069B000404602B0BDE8F087012304223F2128466B
:1069C000FFF7B8FEDCE72DE9F3479DF828A0054660
:1069D0000C4691461F46BAF1000F02D0406802F003
:1069E0009DF807B31F2F3E4628BF1F267F2C26D8B1
:1069F0003319802B01D9C4F18006012304223F21E1
:106A00002846FFF736FE002364F07F0100934A46D4
:106A10003346C9B22846FFF743FD804628B13444C7
:106A2000BF1BB144DDE74FF00108BAF1000F02D0FF
:106A3000686802F07CF8404602B0BDE8F0870123A8
:106A400004223F212846FFF775FEDCE730B585B00C
:106A50000D68D1E9043203954D6802958D68019562
:106A6000C96800910133044902F26C72044603F0D4
:106A700049FD204605B030BD95E30D0003110A2203
:106A800000F00F0002FB0300704738B504460078A1
:106A90001546FFF7F3FF08606078FFF7EFFF4860E7
:106AA000A078FFF7EBFF8860E078FFF7E7FFC860AA
:106AB0002079FFF7E3FF013808612DB9651D2878BB
:106AC000FFF7DCFF886138BD6079FFF7D7FF6430DE
:106AD000A51D4861F3E7000070B5012388B00D469D
:106AE0001A4610210446FFF7A6FDF0B1082301263F
:106AF000204600960DEB03020021FFF72FFC044611
:106B000098B1324629460DF10900FFF7BEFF04A8EF
:106B1000FFF79CFF0848049A0849FDF7A3FC04A866
:106B200003F024FC204608B070BD24220021284632
:106B300005F0A4F80024F5E78CE50320B3E30D008D
:106B400030B58BB00D4601A9FFF7C6FF044620B152
:106B500001A801F0D3F9C5E9000120460BB030BD12
:106B600010B5044688B011B1406801F085FF204699
:106B7000FFF74AFC70B32046FFF786FD01231A4653
:106B800010212046FFF757FDD8B103F063FFC0B9CD
:106B900002A92046FFF7D4FFDDE9020103F060FE01
:106BA0000F4B10491B68009304A8DDE9022303F092
:106BB0000FFF0D48049A0D49FDF754FC04A803F09B
:106BC000D5FB0B4A002300214FF4006001F004F8CC
:106BD00008B010BD07490448FDF75BFCF1E700BFB2
:106BE000D8E1032034E603208CE50320C1E30D0047
:106BF000B5650D00DEE30D000A2290FBF2F302FB07
:106C0000130093FBF2F102FB113140EA0110C0B214
:106C1000704770B5054600680C461646FFF7ECFF56
:106C200020706868FFF7E8FF6070A868FFF7E4FF6E
:106C3000A070E868FFF7E0FFE07028690130FFF717
:106C4000DBFF20712EB9661DA869FFF7D5FF3070F4
:106C500070BD6A69642392FBF3F003FB1020FFF719
:106C6000CBFFA61D6071EFE7F0B587B0054602A81F
:106C700016460C46FFF7EAFE1E48029A1E49FDF72B
:106C8000F1FB02A803F072FB16B1686801F046FF41
:106C9000204601220DF1090100278DF80870FFF749
:106CA000B8FF01231A4610212846FFF743FD04468A
:106CB000E8B1082300970DEB030239462846FFF799
:106CC000EFFB044660B101231A4610212846FFF766
:106CD000D0FC16B1686801F02AFF204607B0F0BD6D
:106CE0004FF48D7205490348FDF7D3FBF1E74FF4EC
:106CF0008F72F7E78CE50320F6E30D0004E40D0046
:106D000013B504466846CDE9002304F07DFF9DF8E5
:106D1000102001462046FFF7A7FF02B010BD00007B
:106D2000F0B5057E89B0044675BB03F093FE58B3F9
:106D30000026002704A92846CDE9046700F0FEFFDD
:106D400010B30125257603F0A2FE00950246C31775
:106D50002046CDE90223FFF7D3FF02A92046CDE963
:106D60000267FFF7EDFE124B12491B68009304A85F
:106D7000DDE9022303F02CFE0F48049A0F49FDF7CA
:106D800071FB04A803F0F2FA636973B100F062FDCD
:106D90002369C01A6369984207D300F05BFD4FF086
:106DA000FF3120612046FFF7C3FB09B0F0BD00BFF3
:106DB000D8E1032034E603208CE503201FE40D0016
:106DC000014B024A1A6070478CE5032035E40D0040
:106DD000704710B51021044604F07FF9204610BD1D
:106DE0000368C9B29B68184730B5034DC0E9022358
:106DF000C0E9005130BD00BF8CE40D00406801F0D7
:106E00003BBE10B50446006801F091FE204610BD5F
:106E10002DE9F0418AB004464068019001F07EFE01
:106E20001E22002102A8A76804F028FF0026EFB167
:106E300023681E2FB84628BF4FF01E08DD6802AA3F
:106E4000434631462046A847054658B90A480B49EB
:106E50003246FDF707FB01A8FFF7D3FF28460AB02B
:106E6000BDE8F081A7EB08074644E0E701A8FFF77B
:106E7000C8FF0125F2E700BFE0E5032058E40D005C
:106E80002DE9F7430446406801900D4616461F461B
:106E900001F044FEA7B1E168606841F0500101F0E3
:106EA0001EFE290A6068FFF79BFF29466068FFF70E
:106EB00097FF6068002101F02DFE48B1002400E03A
:106EC000012401A8FFF79DFF204603B0BDE8F08331
:106ED000202F217B6068B84628BF4FF0200801238F
:106EE000424641F0500101F0E4FD04F0A1F80368CE
:106EF0001B6998474045E1DB06EB080904F098F868
:106F000003685B69984706F8010B4E45F6D1454486
:106F1000A7EB0807BEE72DE9F74F0446406801904C
:106F20000E4690461D4601F0F9FD4FF00109B9F1FA
:106F3000000F2AD04DB3E168606841F0500101F0C4
:106F4000CEFD310A6068FFF74BFF60683146FFF7FE
:106F500047FFA5F11E0A4746A6EB080B606817F825
:106F6000011B0368013D9B68984755450BEB0706DD
:106F7000B84601D0002DF1D16068012101F0CAFDB1
:106F80000028D7D04FF00009D1E701A8FFF739FF5B
:106F9000484603B0BDE8F08F2DE9F0438BB00E46B4
:106FA00015468046406801901C4601F0B7FDAE4290
:106FB00029D2264425448CB11E2C2746D8F800300F
:106FC00028BF1E27F61BD3F8089002AA3B4631467D
:106FD0004046ED1BC84748B9002400E0012401A841
:106FE000FFF70FFF20460BB0BDE8F083D8F8003064
:106FF00002AAD3F80C9029463B464046C8470028D1
:10700000EAD0E41BD7E7E9D9002CE7D0D8F8003064
:107010001E2C274628BF1E27D3F8089002AA3B46FD
:1070200031464046C8470028D6D0D8F8003002AADA
:10703000D3F80C9029463B464046C8470028CBD0A1
:107040003E443D44E41BDFE7012A034602D10160D0
:1070500000207047022A04BFD1E90001C3E9000102
:10706000F6E710B5012303748368044643B1C06892
:107070009847012363740020BDE8104000F0B2BBC4
:1070800000680028F5D083680BB904F02CF8C368B9
:10709000EEE710B442680346541001EB6200D207D9
:1070A00048BF0A591B685DF8044B48BFD3581847BE
:1070B000F7B50646002000F0AFFD012805D02349B2
:1070C0002348FDF7E6F903B0F0BD86F8290006F184
:1070D000080000F04FFB0420FCF7DDFF054698B3E5
:1070E0001C49142003F0FBFF30B10023C0E900333A
:1070F000C0E90233037443742860A0B1164B1749EA
:10710000C0E902364FF40063CDE900030222144BBC
:10711000043000F0F7FA30B92B681B7CA3B90120CA
:1071200000F088FBF8E72C6800232B6064B1276827
:1071300037B13846FDF7E6F81021384603F0CDFFA9
:107140001421204603F0C9FF7560BCE7A0E40D00E0
:1071500094E50320D4E90D00AB730D00C3E40D00EA
:1071600063700D0047F23051084AC160084902605F
:107170000022C0E904120749C16107494260C0E921
:1071800008228161028580F82A207047A8E60D0058
:1071900095750D0093700D0049700D0010B5044BEE
:1071A000044640F8103BFDF7ADF8204610BD00BF87
:1071B000A8E60D0010B5034B03600446FFF7EEFF91
:1071C000204610BDD0E60D0010B50446FFF7F2FFD3
:1071D0002046382103F081FF204610BD806800F072
:1071E000D1BA806800F0D6BA10B504460068FFF73F
:1071F000F8FF204610BD13B504460190FFF7EEFFDF
:10720000E36ADC88A4B20CB103F1080401A8FFF71B
:10721000EBFF204602B010BD13B504460190FFF706
:10722000DDFFE26A09480023D380E16A84F8283050
:1072300008316163636293880549D288FFF762F879
:1072400001A8FFF7D1FF012002B010BD94E5032093
:10725000D5E40D0013B504460190FFF7BFFFE36AC4
:1072600001A8DC88FFF7C0FF204602B010BD000077
:107270002DE9F047994686B090F829309DF838A05E
:107280009DF83C8004460F46164613B903689B6878
:107290009847394B3846002E08BF1E4604F061FD62
:1072A0000546304604F05DFD284400F10A05AB07B1
:1072B0001CBF25F0030504353346CDE90285CDE931
:1072C000009A2E492E483A46FDF7CCF8238E083B0B
:1072D000AB4212D20024204606B0BDE8F087DB881E
:1072E000012B47D005A8FFF77FFF236894F82810EB
:1072F0009B69204698470028ECD020460594FFF76C
:107300006DFFE36A218E626B1944891AA942E6D3A4
:10731000D21A1C491A48FEF7F5FF636B48EA0A08BF
:1073200083F80480DD80C3F80090636B03F10808E4
:107330003946404604F0EFFC404604F012FD0130AF
:107340003146404404F0E7FC636B1D44E36A656327
:10735000DA88013292B2DA80616BE36A208E0090A3
:10736000CB1A07480849FEF7CDFF012405A8FFF70F
:107370003BFFB0E70024F9E751E80D00F6E40D000B
:1073800094E5032037E50D0053E50D0008B50446EC
:1073900000F11005A3690BB903F0A5FEE3692146CE
:1073A0002846984700F0B6F9F4E708B5FFF7EEFF76
:1073B00038B5034614460D46FFF7D4FE034A1A605B
:1073C0000022DD621C865A63184638BDD0E60D00E7
:1073D00068B501F108050646284604F0C2FC0130F4
:1073E0000544284604F0BDFCF36A01302844C31A62
:1073F00013F003031CBFC3F10403C01868BD0000F1
:107400002DE9FF4704460F460390FFF7E7FEE56AC4
:10741000EB8805F10806002F34D0012B3BD931460B
:107420002046FFF7D5FF064631462046FFF7D0FF3E
:10743000636BB4F8309019495B1B0193431B804682
:1074400000933A46A0EB060A731B1548FEF75AFF55
:1074500005EB0902B2EB080203D04146304604F0C6
:10746000F3FB636B0E48A3EB0A036363EA88013AFC
:1074700092B2EA80616BE36ACB1A0A49FEF742FFD7
:10748000012701E0002BCFD103A8FFF7ADFE38465E
:1074900004B0BDE8F0870027F6E700BF80E50D00E7
:1074A00094E50320BFE50D002DE9F041C56A1D4FAD
:1074B0002B68BB4204461FD1AB88028E9BB293421D
:1074C0001AD1EA881849194892B2EE18FEF71AFF45
:1074D000E36A083363634FF00008EB88616B9BB28B
:1074E0001FFA88F293420FD92046FFF771FFB0428E
:1074F000606308F10108F0D92F60238EAB80002370
:10750000EB80E36A08336363616BEA88E36A0748E8
:10751000CB1A92B20649FEF7F5FE2046BDE8F041CF
:10752000FFF7C6BD61AB9CD1F1E50D0094E50320EA
:1075300007E60D0010B5D1E9002386B0002104460E
:1075400004910AB9D90705D5CDE902230F4B05935C
:107550000F4B049302AB93E803006A4682E80300F2
:1075600094E8030083E8030092E80300049A84E8A7
:107570000300A168A260059A04911846E168E260E0
:107580000591FCF7BFFE204606B010BD93700D00BC
:1075900049700D0007B5054B009369460023103074
:1075A0000193FFF7C7FF03B05DF804FBDD750D0025
:1075B00013B5044600F04EF9636AC01AE3689842B6
:1075C00008D3054B00936946002304F11000019392
:1075D000FFF7B0FF02B010BDDD750D002DE9F041E1
:1075E00090F82A3086B00446002B40D100F076FB9C
:1075F00000283CD000F02EF9636AC01A40F2F13343
:10760000984234D9236820465B699847054670B391
:1076100000F10807012384F82830384604F0A1FB64
:1076200095F80480CDF8048001302B682749009339
:107630003E18334626483A46FCF714FF2B688DF86F
:1076400000803246394602A800F05AFF029D6B784E
:1076500083B9012000F066FC94F82830002BF5D1A6
:107660001C491B48FCF7FEFE03A8FDF7D5FC06B03D
:10767000BDE8F081002000F0BFFA20B16B7813B9AB
:1076800000F01CFBFAE72B78012B0FD112491048B0
:10769000FCF7E8FE236800219B69204698470023F9
:1076A00084F8283000F0D6F86062DDE7E2680B4924
:1076B0000748FCF7D7FE0A4B049304A9002304F102
:1076C00010000593FFF736FFE9E700BF28E60D003D
:1076D00094E5032049E60D005AE60D0071E60D0021
:1076E000B1750D00014B024A1A60704794E5032002
:1076F00096E60D0008B5024B1B685B6C019308BD54
:107700007402030008B5024B1B685B68019308BD57
:107710004802030008B5024B1B68DB68019308BDF3
:107720004802030008B5024B1B68DB69019308BDE2
:107730004802030008B5024B1B681B6A019308BD91
:107740004802030008B5024B1B685B6A019308BD41
:107750004802030008B5024B1B689B6A019308BDF1
:107760004802030008B5024B1B68DB6A019308BDA1
:107770004802030008B5024B1B681B6B019308BD50
:107780004802030008B5024B1B689B6B019308BDC0
:107790004802030008B5024B1B681B6C019308BD2F
:1077A0004802030008B5024B1B685B6C019308BDDF
:1077B0004802030008B5024B1B689B6C019308BD8F
:1077C0004802030008B5024B1B68DB6C019308BD3F
:1077D0004802030008B5024B1B685B6D019308BDAE
:1077E0004802030008B5024B1B68DB6E019308BD1D
:1077F0004802030008B5024B1B681B6F019308BDCC
:107800004802030008B5024B1B685B6E019308BD7C
:107810003402030008B5024B1B68DB6E019308BD00
:107820003402030008B5024B1B685B68019308BD76
:107830001802030008B5024B1B689B68019308BD42
:107840001802030008B5024B1B68DB68019308BDF2
:107850001802030008B5024B1B685B69019308BD61
:107860001802030008B5024B1B689B6D019308BD0D
:107870001802030008B5024B1B68DB6D019308BDBD
:107880001802030008B5024B1B685B6E019308BD2C
:107890001802030008B5024B1B689B6E019308BDDC
:1078A0001802030008B5024B1B685B68019308BD12
:1078B0002C02030008B5024B1B689B68019308BDAE
:1078C0002C02030008B5024B1B68DB68019308BD5E
:1078D0002C02030008B5024B1B681B69019308BD0D
:1078E0002C02030008B5024B1B685B69019308BDBD
:1078F0002C02030008B5024B1B681B6B019308BDEB
:107900002C02030008B5024B1B68DB68019308BD1D
:107910002802030008B5024B1B689B69019308BD50
:107920002802030008B5024B1B68DB69019308BD00
:107930002802030008B5024B1B681B6A019308BDAF
:107940002802030008B5024B1B685B6A019308BD5F
:107950002802030008B5024B1B689B6A019308BD0F
:107960002802030008B5024B1B68DB6A019308BDBF
:107970002802030008B5024B1B681B6B019308BD6E
:107980002802030008B5024B1B685B6B019308BD1E
:107990002802030008B5024B1B681B6C019308BD4D
:1079A0002802030008B5024B1B689B6C019308BDBD
:1079B0002802030008B5024B1B68DB6C019308BD6D
:1079C0002802030008B5024B1B681B6D019308BD1C
:1079D0002802030008B5024B1B685B69019308BDD0
:1079E0006402030008B5024B1B689B68019308BD45
:1079F0006802030008B5024B1B68DB68019308BDF1
:107A00006802030008B5024B1B68DB69019308BDDF
:107A10003002030008B5024B1B681B6A019308BDC6
:107A20003002030008B5024B1B681B68019308BDB8
:107A30003C02030008B5024B1B689B68019308BD1C
:107A40003C02030008B5024B1B68DB68019308BDCC
:107A50003C02030008B5024B1B681B69019308BD7B
:107A60003C02030008B5024B1B685B69019308BD2B
:107A70003C02030008B5024B1B689B69019308BDDB
:107A80003C02030008B5024B1B68DB69019308BD8B
:107A90003C02030008B5024B1B681B6A019308BD3A
:107AA0003C02030008B5024B1B689B6A019308BDAA
:107AB0003C02030008B5024B1B68DB6A019308BD5A
:107AC0003C02030008B5024B1B681B68019308BD0C
:107AD0004C02030008B5024B1B685B68019308BDAC
:107AE0004C02030008B5024B1B689B68019308BD5C
:107AF0004C02030008B5024B1B681B69019308BDCB
:107B00004C02030008B5024B1B685B69019308BD7A
:107B10004C02030008B5024B1B689B69019308BD2A
:107B20004C02030008B5024B1B68DB69019308BDDA
:107B30004C02030008B5024B1B681B6A019308BD89
:107B40004C02030008B5024B1B685B6B019308BD38
:107B50006002030008B5024B1B681B6D019308BD52
:107B60006002030008B5024B1B685B6D019308BD02
:107B70006002030008B5024B1B68DB6E019308BD71
:107B80006002030008B5024B1B681B6F019308BD20
:107B90006002030008B5034B1B68D3F898300193CB
:107BA00008BD00006002030008B5024B1B681B689B
:107BB000019308BD2002030008B5024B1B685B68F7
:107BC000019308BD2002030008B5024B1B685B69E6
:107BD000019308BD2002030008B5024B1B681B6A15
:107BE000019308BD2002030008B5024B1B68DB6A45
:107BF000019308BD2002030008B5024B1B68DB6C33
:107C0000019308BD2002030008B5024B1B685B6DA1
:107C1000019308BD2002030008B5024B1B689B6D51
:107C2000019308BD2002030008B5024B1B68DB6D01
:107C3000019308BD2002030008B5034B1B68D3F86D
:107C40008830019308BD00002002030008B5034BF3
:107C50001B68D3F89430019308BD00002002030094
:107C600008B5034B1B68D3F8A830019308BD00008A
:107C70002002030008B5034B1B68D3F8AC30019316
:107C800008BD00002002030008B5034B1B68D3F8B1
:107C9000B030019308BD00002002030008B5024B7C
:107CA0001B681B68019308BD4402030008B5024B22
:107CB0001B685B68019308BD4402030008B5024BD2
:107CC0001B689B68019308BD4402030008B5024B82
:107CD0001B68DB68019308BD4402030008B5024B32
:107CE0001B685B69019308BD4402030008B5024BA1
:107CF0001B68DB69019308BD4402030008B5024B11
:107D00001B681B6A019308BD4402030008B5024BBF
:107D10001B685B6A019308BD4402030008B5024B6F
:107D20001B68DB6A019308BD4402030008B5024BDF
:107D30001B681B6B019308BD4402030008B5024B8E
:107D40001B685B6B019308BD4402030008B5024B3E
:107D50001B689B6B019308BD4402030008B5024BEE
:107D60001B68DB6B019308BD4402030008B5024B9E
:107D70001B685B6C019308BD4402030008B5024B0D
:107D80001B685B68019308BD4002030008B5024B05
:107D90001B689B68019308BD4002030008B5024BB5
:107DA0001B68DB68019308BD4002030008B5024B65
:107DB0001B681B69019308BD4002030008B5024B14
:107DC0001B685B69019308BD4002030008B5024BC4
:107DD0001B689B69019308BD4002030008B5024B74
:107DE0001B68DB69019308BD4002030008B5024B24
:107DF0001B681B6A019308BD4002030008B5024BD3
:107E00001B681B6B019308BD4002030008B5024BC1
:107E10001B685B6B019308BD4002030008B5024B71
:107E20001B681B6C019308BD4002030008B5024BA0
:107E30001B685B6C019308BD4002030008B5024B50
:107E40001B681B68019308BD1C02030008B5024BA8
:107E50001B685B68019308BD1C02030008B5024B58
:107E60001B689B68019308BD1C02030008B5024B08
:107E70001B681B69019308BD1C02030008B5024B77
:107E80001B68DB69019308BD1C02030008B5024BA7
:107E90001B685B6A019308BD1C02030008B5024B16
:107EA0001B68DB6A019308BD1C02030008B5024B86
:107EB0001B681B6B019308BD1C02030008B5024B35
:107EC0001B685B6C019308BD1C02030008B5024BE4
:107ED0001B689B6C019308BD1C02030008B5024B94
:107EE0001B68DB6C019308BD1C02030008B5024B44
:107EF0001B681B6D019308BD1C02030008B5024BF3
:107F00001B685B6D019308BD1C0203008A4210B51B
:107F100007D0029C401AE41A6043521A90FBF2F018
:107F2000184410BD0021FFF74FBE10B5836804460A
:107F30000BB903F0D8F8C3689847A3681BB10322B4
:107F400021462046984720461021BDE8104003F006
:107F5000C4B810B50446006808B1FFF72BFC2046F2
:107F600010BD0B68036013B15A6801325A60704744
:107F700010B5064C002320462360FFF713FC204673
:107F8000034A0449BDE8104003F0A2B898E5032075
:107F9000C0E30320537F0D00002240681146FFF725
:107FA00005BF002240681146FFF720BF002240684D
:107FB0001146FFF72BBF40680022FFF71FBF406844
:107FC000002281F00101FFF709BF002340681A4633
:107FD0001946FFF7F3BE002240681146FFF7D6BEF0
:107FE000406800220221FFF7D9BE002340681A46EC
:107FF000FFF7C4BEF0B51B4B036000250F462833C6
:108000001826C0E9025589B0436032462946044625
:10801000103003F033FE78682A462946FFF7C6FE83
:1080200018B9A060204609B0F0BD2946324602A822
:10803000CDE9005503F022FE02A96846ADF80860BC
:10804000FFF758FB10B10123A360EBE7009B019AF7
:10805000A360E2600BB90223A36002A9204600F0EE
:10806000AEF8DFE734E70D00084B10B528242246B0
:108070001846002103F002FE054B04804FF0FF324A
:10808000426004225A60034A1A6010BDA4E503202E
:108090009CE50320F8E60D007047007D704710B5A1
:1080A0002821044603F019F8204610BD037D7BB15A
:1080B000C369002B0CDB07EE903A9FED077AF8EED0
:1080C000E77A87EE870ADFED057A20EE270A704708
:1080D000BFEE000A704700BF00FF7F470000C842A4
:1080E000037D63B18369B3F1004F08D007EE903A86
:1080F0009FED047AF8EEE77A87EE870A70479FEDE6
:10810000020A70470000C84200000000037D7BB1F6
:10811000436A002B0CDB07EE903A9FED077AF8EEEE
:10812000E77A87EE870ADFED057A20EE270A7047A7
:10813000BFEE000A704700BF00FF7F470000C84243
:10814000037D63B1036AB3F1004F08D007EE903AA4
:108150009FED047AF8EEE77A87EE870A70479FED85
:10816000020A70470000C8420000000070B50C1EF3
:1081700006460ADA2D2102F07CF8614205460A2201
:10818000304602F085F8284470BD21460025F6E708
:1081900070B50C46054681682046FFF7E7FF2C21A5
:1081A0000646204602F065F8E96806442046FFF7D7
:1081B000DDFF304470BDA0F10400FFF7E9BF30B52A
:1081C0000D4600F110040FCD0FC495E8030084E8BC
:1081D0000300012030BD70470020704710B510210A
:1081E000044602F07AFF204610BD08B5FFF7F6FFFF
:1081F00008BD30B500224FF69C74026084808D88E3
:108200008C800C68858004600A6030BD10B504461F
:108210000068FFF71BFE204610BD38B5C468F4B1F6
:108220002378022B03D104F10C00FFF7EFFF656800
:1082300035B12846FCF766F81021284602F04DFFBC
:10824000A56835B12846FCF75DF81021284602F0F4
:1082500044FF20461421BDE8384002F03EBF38BD3F
:1082600010B588B00446684602F0CBF8694604A809
:1082700002F012F904A8A047044604A802F076F818
:10828000684602F073F8204608B010BD1FB5002301
:10829000CDE90201019210241A4669461846ADF84C
:1082A0000230ADF80040FFF701FD04B010BD1FB56E
:1082B0000C23ADF8043003688DF80630037A8DF88E
:1082C0000730436802930021437AADF80D1001A8EE
:1082D0008DF80F108DF80C30FFF748FD05B05DF8F4
:1082E00004FB1FB50C22ADF8042002688DF80620AF
:1082F000027A8DF80720426802920023427A8DF8B4
:108300000C20194601AA0220ADF80D308DF80F306F
:10831000FFF71CFD05B05DF804FB73B50E4604467F
:1083200056F8043B00930D4601A83146FFF719FEAD
:10833000019A009B6260236001A8002301930093CF
:10834000FCF76AFE3046FCF767FE2846082102F07B
:10835000C4FE204602B070BD13B50B460246D0E9FC
:1083600000016C4684E8030093E8030082E8030000
:1083700094E8030083E8030002B010BD826810B5E2
:108380000AB902F0B0FEBDE81040C368184708B54E
:10839000006800F11001FFF7F1FF08BD826810B519
:1083A0000AB902F0A0FEBDE81040C368184708B53E
:1083B000006800F11001FFF7F1FF08BD38B5002398
:1083C0000446036010200D46FBF765FE28B101232B
:1083D000C0E90133024B0360C5602060204638BD10
:1083E00068E70D0038B5002383608B6804460D46AE
:1083F0002BB102229847EB68E360AB68A36020468C
:1084000038BD0000F0B589B004686846FFF7F1FE9A
:108410004FF00203D4E84F2F002A03D1C4E8413FB4
:108420000029F7D125D104F10C0569462846FFF74C
:10843000E0FEBFF35B8F01236370002004F10803AB
:10844000BFF35B8F53E8006F43E80002002AF9D1C5
:10845000BFF35B8F6EB1FFF7CFFB78B12946304693
:10846000FFF78CFF3046FBF74DFF1021304602F03E
:1084700034FE6846FFF7CAFE09B0F0BD314602A8D7
:10848000FFF7B0FFE068B4F9105008B103F04CFCFE
:1084900006901020ADF81C50FBF7FDFD0546E8B135
:1084A000002787601820FBF7F6FD044688B10146D7
:1084B000876002A8FFF750FF049BA268A360059B9A
:1084C000049206A9E268E36004F110000592FFF748
:1084D00090FE084BEB60084B2C60AB6006A8FFF7E2
:1084E00095FE02A8FBF70EFF002229460348FFF77E
:1084F0008BFBB7E78F830D0025860D002B7F0D00CA
:108500002DE9F0478AB005469DF848900C4617467D
:108510009846FFF7E3FB07AE824638BB4FF62E7353
:10852000059005A93046ADF81830FFF762FE14201B
:10853000FBF7B1FD044648B1022303700123C0E9F3
:1085400001AA437031460C30FFF753FE28462146FE
:1085500040F8044BFFF732FF3046FFF757FE05A8FF
:10856000FFF754FE28460AB0BDE8F0870C234FF011
:10857000000A1420CDE908AA0793FBF78CFD0146F9
:1085800028B1C0E901AA80F800A080F801A004A8E1
:108590000391FFF713FF224B08930820FBF77BFDA5
:1085A000824628B1039B40F8043B04A9FFF7D9FC9D
:1085B00000965FFA89F3424639462046CDF824A05A
:1085C000FFF79CFBB8B9039B5B7803F0FF0293B9FC
:1085D0004FF69C7305A903A80592ADF81830FFF774
:1085E00011FF05A8FFF712FE05A80999FFF795FEF0
:1085F00006A8FCF711FD039B059304A906A8FFF745
:10860000B0FC059B069A2B606A60002306A80693BF
:108610000593FCF701FD04A8FCF7FEFCA2E700BFF0
:10862000E9860D00022AF8B5054607D0032A18D0BE
:10863000012A01D10B6803600020F8BD18200E68E4
:10864000FBF729FD044650B13146FFF7CBFE3069F8
:10865000B6F9147008B103F067FB2061A7822C60A3
:10866000EAE70468002CE7D004F11000FFF7CEFD24
:108670002046FBF747FE1821204602F02EFDDBE7DF
:1086800038B5002383608B6804460D462BB1022267
:108690009847EB68E360AB68A360204638BD022AC8
:1086A00070B5044607D0032A12D0012A01D10B6805
:1086B0000360002070BD14200E68FBF7ECFC05463B
:1086C00020B13146FFF7DCFF337C2B742560F0E7E7
:1086D0000468002CEDD02046FBF714FE1421204640
:1086E00002F0FBFCE5E70000F0B589B004460D465A
:1086F00001A81146FFF711FEA4B124B21DB128460E
:1087000003F012FB054601A803A90395ADF810403C
:10871000FFF778FE03A8FFF779FD02A8FCF77CFCC1
:1087200009B0F0BD019D0123D5E84F2F002A03D1E8
:10873000C5E8413F0029F7D1EFD12B73BFF35B8F21
:108740006B702B1DBFF35B8F53E8006F43E8004253
:10875000002AF9D1BFF35B8F002EDED02046FFF751
:108760004BFA074660B105F10C013046FFF716FEE3
:108770003046FBF7C7FD1021304602F0AEFCCCE7D7
:10878000314603A8FFF77CFF2B7B8DF81C301020AF
:10879000FBF781FC0546D0B187601420FBF77BFC1A
:1087A000044678B18760014603A8FFF7D5FD059B15
:1087B000A268A360069B0592E268E3609DF81C3006
:1087C00006922374064BEB60064B2C60AB6003A84B
:1087D000FBF798FD002229460348FFF715FAC7E783
:1087E000AF830D009F860D002B7F0D000022406897
:1087F0001146FFF7FBBA002240681146FFF706BB9F
:1088000040680022FFF7FABA4068002281F00101B7
:10881000FFF7E4BA002340681A461946FFF7D6BAB4
:10882000002340681A461946FFF7C8BA002240687C
:108830001146FFF7BBBA002240681146FFF7A6BAFF
:10884000406800220221FFF7A9BA002340681A46B7
:10885000FFF794BA024B03225A60024A1A6070472B
:10886000CCE5032084E70D00006800F057B910B58F
:108870000446016002710AB1FFF7F6FF204610BD01
:1088800013B50446019102F0FBFB019A0146204614
:10889000FFF7EDFF204602B010BD006800F047B9B9
:1088A00010B5037904460BB1FFF7F7FF204610BD62
:1088B0002DE9FF4104460D4617461E46FFF7D4FF3B
:1088C00036238DF800300023206801934FF0010813
:1088D0000A23694603938DF8088000F003F92068A5
:1088E000036829469B6898472068414600F012F9C2
:1088F000054640B16FF09F052046FFF7CEFF2846A2
:1089000004B0BDE8F081022320680193694600F0BD
:10891000B9F80228EED1206803685B69984738707F
:10892000206803685B6998473070E5E713460A469C
:108930000C21FFF7BDBF2DE9FF41164604461D4639
:108940000F46FFF791FF36238DF800300023206893
:1089500001934FF001080A23694603938DF80880BC
:1089600000F0C0F82068036839469B689847206883
:10897000036831469B6898472068036829469B68CE
:1089800098474146206800F0C5F8002820460CBFF3
:1089900000256FF09F05FFF780FF284604B0BDE873
:1089A000F08108B5402200230621FFF7C4FF00EA4A
:1089B000E07008BD37B50546FFF756FF00230DF1FF
:1089C00007020DF1060128468DF806308DF80730B4
:1089D000FFF7ACFF041E0BDB9DF807309DF8062067
:1089E00003F07F030C212846FFF7A5FF00EAE0749F
:1089F0002846FFF752FF204603B030BD7047F8B558
:108A0000064615460C468F18BC4206D0336814F84B
:108A1000011B9B6830469847F6E72846F8BD007C66
:108A20000022FEF787BF007C0021FEF78BBF007C91
:108A30000021FEF78FBF007C0021FEF793BF007C72
:108A40000021FEF797BF10B51421044602F045FB44
:108A5000204610BD10B54FF47A7304460846002135
:108A6000C4E90113034B236020741146FEF792FF03
:108A7000204610BDC0E70D000023007C1A461946B1
:108A8000FEF740BF7FB500221423CDE90122ADF8E7
:108A900004300B788DF808304B680393CB6804934F
:108AA000007C0B7A059301A9FEF78CFF07B05DF8F7
:108AB00004FB1FB5003B8DF800104FF064010391DB
:108AC00018BF0123694601928DF80830FFF7DAFFDD
:108AD00005B05DF804FB007C0022FEF71BBFC9B2A5
:108AE000FFF7F9BF7FB50023CDE901334A68039250
:108AF0001423CA68ADF804300B7804920A7A059200
:108B0000007C8DF8083001AA1946FEF703FF07B074
:108B10005DF804FB007C0022FEF704BF08B50021CD
:108B2000007CFEF73FFFB0FA80F0400908BD08B5B1
:108B30000021007CFEF73EFFB0FA80F0400908BD3E
:108B4000704710B51821044602F0C7FA204610BD40
:108B5000F0B5037D062B8DB00E4600F104074FF0F3
:108B6000000412D000F1080515F8011D0A22304654
:108B700001F08EFBAF42044419D0002CF4D02E211A
:108B8000304601F076FB0444EEE72F236A4639466F
:108B90000A208DF80040FEF71DFF684603F0E1F85B
:108BA00033680246DB6869463046984704462046EB
:108BB0000DB0F0BD10B5054B0446112240F8043B42
:108BC000002103F05BF8204610BD00BFE8E70D0070
:108BD0000346074A10B543F8042B01F1100251F87F
:108BE000044B43F8044B9142F9D10A781A7010BD36
:108BF000E8E70D0010B59DF8084044EA032343EA76
:108C0000024242EA016104234160037510BD13B5BD
:108C1000CB7800938B784A780978FFF7EBFF02B0A6
:108C200010BD00F11003012213F8101C0129184691
:108C300008D153F8041C02EB4102013A03F110037E
:108C4000F2D17047022904BF53F8041C5218F4E70C
:108C50000EB4F0B588B000AF07F13405102155F817
:108C6000042B7A6004462B467818FD60FFF70EF956
:108C70000F287A681AD900F1080323F007036E461B
:108C8000ADEB030D411C2B466846FD60FFF7FEF877
:108C9000021E04DD236869469B6820469847B54656
:108CA0002037BD46BDE8F04003B070470028F7D03C
:108CB000236802469B6807F1100120469847EFE7BA
:108CC00010B5036804469B689847A368013BA360FE
:108CD0002BB923682046DB68BDE81040184710BD5B
:108CE00007B503688DF807109B6801220DF1070195
:108CF000984703B05DF804FB38B50B6803604D6816
:108D000043689D4204460CD015B16B6801336B601B
:108D1000606828B14368013B43600BB9FFF7D0FF9F
:108D20006560204638BD0B461146002210B5C0E9EB
:108D30000022044683600BB9204610BDFFF7DCFF1C
:108D4000FAE78368EBB11A78032A1AD8DFE802F051
:108D50000417021B0520704702685B685268D05CEC
:108D60002D2812D0A0F13003092B0ED974280ED073
:108D700066280CD0A0F16E03584258417047062077
:108D8000704700207047042070470320704702207E
:108D9000704710B50446FFF7D4FF02280ED0C31E5B
:108DA000DBB2012B14D82268A36850685B68BDE869
:108DB00010400A220021184403F010BF2268A36863
:108DC00052685B68D05CA0F174035842584110BDF2
:108DD0000020FCE738B50023C0E9003304460E4804
:108DE000C4E90203A9B10B78032B06D08BB9136831
:108DF00058684B68C35C6E2B07D013684D68586881
:108E00008B6828445B1BA060E36011462046FFF797
:108E100073FF204638BD00BF51E80D0038B500256E
:108E20000B46C0E90055C0E90255C0E904550446A7
:108E300011464BB11A78012A06D103F11002DB6802
:108E400082604361FFF758FF204638BD10B5436983
:108E5000044663B18068E060013B1030A06020618F
:108E6000636113B1FFF7DDFEA060012000E018464A
:108E700010BD10B57D210446FFF732FF0123237199
:108E8000204610BD08B50379012B02D0022B04D077
:108E900008BD2C21FFF724FFFAE73A21FAE710B5C5
:108EA0000446FFF7EFFF20467B21FFF719FF002361
:108EB0002371204610BD000013B504460191FFF751
:108EC000E1FF2368019ADB680349204698470123A4
:108ED0002046237102B010BD90E20D0013B5044688
:108EE0000191FFF7CFFF2368019ADB680349204611
:108EF000984701232046237102B010BD7FE40D0086
:108F00002DE9F0410D4617462221DFF8A0800446E6
:108F10002F44FFF7E5FE2946BD422A4638D015F812
:108F2000016B222E03D05C2E01D01F2EF4D82368B3
:108F3000521A9B68204698475C212046FFF7D0FED6
:108F40000D2E0AD8072E1CD9A6F10803052B18D818
:108F5000DFE803F00D0F11171315222E01D05C2E40
:108F60000FD131462046FFF7BBFE2946D4E76221E8
:108F7000F8E77421F6E76E21F4E76621F2E7722143
:108F8000F0E723683246DB68414620469847ECE725
:108F90008D4204D023686A1A9B6820469847222194
:108FA0002046FFF79DFEBDE8F08100BFF4E70D000D
:108FB00013B50446CDE90021FFF764FF2046DDE943
:108FC0000021FFF79DFF02232046237102B010BD50
:108FD00013B50446CDE90021FFF754FF2046DDE933
:108FE0000021FFF78DFF01232046237102B010BD41
:108FF00080680368DB6818477047084611B10B6842
:109000005B681847704770477047704738B504462B
:109010000D4600682E2102F06AFE2368C31A2B60F9
:1090200023B1037803B1013023682060184638BDAE
:1090300010B50C21044602F050F8204610BD10B5C2
:109040000421044602F049F8204610BD10B5042161
:10905000044602F042F8204610BD08B502F051FE69
:10906000B0FA80F0400908BD10B50C4601F04AFE88
:10907000844210D001F0BAFD844205D101F0B6FD62
:10908000BDE8104001F0AFBD2CB1236820465B68FD
:10909000BDE81040184710BD13B5044608460191BD
:1090A00002F05FFE01990246204602B0BDE8104082
:1090B000FFF78EBF13B504460846019102F051FE3A
:1090C00023680199DB680246204602B0BDE81040E3
:1090D000184707B503688DF80710DB6801220DF10A
:1090E0000701984703B05DF804FB0EB403B503AB6A
:1090F000002153F8042B006A019301F0E7F802B055
:109100005DF804EB03B070472DE9F74FD0E9009507
:109110004FF0140808FB05F50093AB10184D1746E7
:109120005D434C46002D23DD6E1008FB06F004EB7A
:10913000000A3A46BAF804B0205801915F4528BFAA
:109140005A4602F016FE0199012378B95F4503D112
:10915000009A13703546E5E78CBF012000200028F7
:10916000F8D0AE1B0AF11404013EF3E7C00FF6E796
:10917000A4EB09040248A410604303B0BDE8F08FDB
:10918000CDCCCCCC7FB50369067E01910BB301B386
:10919000002500F10C04039503A901A8FFF736FF91
:1091A0000146B0B10DF10B03039A8DF80B50204628
:1091B000FFF7AAFF9DF80B305BB12468142303FB73
:1091C000004000F10804B0F90630002BA8BFDEB261
:1091D000E2E7304604B070BD10B50A4C2378BFF307
:1091E0005B8FDB070BD42046FAF766FF38B12046C9
:1091F000FAF767FF044A0549054801F069FF04488A
:1092000010BD00BFD8E50320C0E3032009900D0086
:10921000D0E1032010B50A4C2378BFF35B8FDB0746
:109220000BD42046FAF748FF38B12046FAF749FF39
:10923000044A0549054801F04BFF044810BD00BF32
:10924000DCE50320C0E3032007900D00D4E10320F8
:1092500038B500250446C0E90055C0E904558560CD
:10926000856140F8245FFEF79DFAFFF7B5FFE061E6
:10927000FFF7D0FF25732062204638BD10B50B4C98
:109280002378BFF35B8FDB070ED42046FAF714FF79
:1092900050B10748FFF7DCFF2046FAF712FF054AF6
:1092A0000549034801F014FF014810BDD4E503202F
:1092B000E4E50320C0E3032011970D00024A0349AF
:1092C00003480023FEF75EBCED950D0079950D0077
:1092D000F9940D0000231A4619461846FEF752BCB1
:1092E00037B50D6951F8043B0093044601A8FEF719
:1092F00038FE6A4629462046FFF715FD01A8FBF710
:109300008BFE204603B030BD37B58D6851F8043B65
:109310000093044601A8FEF724FE6A46294620462B
:10932000FFF77CFD01A8FBF777FE204603B030BDB8
:1093300037B5CD6851F8043B0093044601A8FEF709
:1093400010FE6A4629462046FFF744FD01A8FBF7B8
:1093500063FE204603B030BD70B58AB00D460146AD
:1093600004A8FFF7D1FF144E04A8FFF76FFDE8B182
:1093700004A96846FFF7DCFF02983146FFF76DFE4F
:10938000044610B12C1E18BF012401A8FBF744FEAF
:10939000002CE9D004A96846FFF7A2FF6846FFF752
:1093A000F8FC286001A8FBF737FEDDE705A8FBF70E
:1093B00033FE0AB070BD00BFFAE70D0037B50C46AA
:1093C00020461249154602F09CFC48B901F09AFC6F
:1093D0004FF4165101F086FC01F094FC03B030BD4F
:1093E0000B49204602F08DFC70B94FF4165301A9C9
:1093F00028460193FFF7B0FF01F0F8FB019901F057
:10940000EFFB01F0F3FBE9E70020E7E7FFE70D00E2
:1094100006E80D0070B5D0E900531426044606FB9B
:109420000356AE4205D005F10800FFF7F3FF1435EF
:10943000F7E72068FEF70AFD204670BD70B5D0E959
:109440000053044605EB0316AE4204D0284600F054
:109450008DFF1035F8E72068FEF7F8FC204670BD58
:1094600010B504460C30FFF7D5FF2046FFF7E6FFA6
:10947000204610BD10B5044B044640F8043BFFF7EE
:10948000EFFF204610BD00BF3CE10D0010B50446C3
:10949000FFF7F0FF2046242101F01FFE204610BDFB
:1094A00010B5034B03600446FFF7E4FF204610BDF0
:1094B000A0E80D0010B50446FFF7F2FF2046242176
:1094C00001F00BFE204610BD0022C0E9002210B5BD
:1094D00082600C6804604C6844608C680A604A6072
:1094E00084608A6010BD10B5036804461868FEF7F2
:1094F00071F9204610BD00002DE9F04F87B080467D
:1095000003931C4B5B68C3F30803894616466BB98B
:10951000FFF7B4FE044600F12403406A0593FEF70A
:1095200051F9237B2BB105A8FFF7DDFF07B0BDE89C
:10953000F08F01232373D4E900535FFA89F905EB17
:10954000830AAA4512D055F8047B3146381DFFF72F
:1095500019FE8145F5D33B68039A0092D3F808B011
:109560004A46334641463846D847EAE70023237344
:10957000D9E700BF00ED00E02DE9F74F9B461A4BFD
:109580005B68C3F308038046894616466BB9FFF74C
:1095900075FE044600F12403406A0193FEF712F9B8
:1095A000237B2BB101A8FFF79EFF03B0BDE8F08F2E
:1095B00001232373D4E90053F6B205EB830A554522
:1095C0000ED055F8047B5946381DFFF7DBFD864267
:1095D000F5D33B684A46DB68414638469847EEE794
:1095E00000232373DEE700BF00ED00E02DE9F34127
:1095F000164B5B68C3F3080305460F461BBBFFF71A
:109600003DFE00F124030446406A0193FEF7DAF8B8
:10961000D4E90063462406EB8308B04509D101A8CC
:10962000FFF761FFA542B4BF0020012002B0BDE8F2
:10963000F08156F8040B39460430FFF7A3FD84424D
:10964000A8BF0446E9E70020F0E700BF00ED00E016
:1096500070B50446D0E900020B4600EB820282425C
:1096600007D001461D6851F8046BAE4203D008468E
:10967000F5E7002070BD521A02F0E6FA6368013B7C
:1096800063600120F6E71FB500F124030446406A39
:1096900001910393FEF796F801A92046FFF7D8FF42
:1096A00018B163680BB9FFF715FE03A8FFF71BFF9E
:1096B00004B010BD70B5D0E904561823044603FB6E
:1096C0000656AE4215D005F110012046FFF7C0FF47
:1096D00063680BB9FFF7FEFDE06929690368DB6881
:1096E0009847696919B1206A0368DB68984718359B
:1096F000E7E7D4E90453182606FB0356AE4204D02C
:10970000284600F033FE1835F8E70023636170BD8A
:1097100073B50446FFF7DEFD04F12403606A01938C
:10972000FEF750F82046FFF7C5FF01A8FFF7DBFE64
:10973000606A08B1FEF73EF8D4E90453182606FB28
:109740000356AE4204D0284600F010FE1835F8E764
:109750002069FEF77BFB2068FEF778FB204602B00D
:1097600070BD8842F8B506460C46154627D990428A
:1097700026D2A2F114056C1AA1F1140704440026A4
:10978000AF423DD0A4B12B682360AB88A380B5F96C
:109790000630E380C4E902662661AB68A360AE6070
:1097A000E368EA68E260EB6023692A6922612B6161
:1097B00005F10800FFF72EFE143D143CE0E71FD032
:1097C0000027AC421CD0A6B123683360A388B380C5
:1097D000B4F90630F380C6E902773761A368B36055
:1097E000A760F368E268F260E3603369226932617E
:1097F000236104F10800FFF70DFE14341436E0E78E
:10980000F8BDF8B5D0E901539D4204460E4617460F
:109810000DDB0135002D006804DDA900FEF71EFBFD
:1098200018B9F8BDFEF712FB00202060A56025687E
:10983000626805EB86019200A2EB8602081D02F029
:1098400003FA45F826706368013363600120E8E796
:1098500037B500F124030446406A01930D46FDF735
:10986000B1FFD4E9003103EB810083421A460BD0EB
:109870001268AA4203F10403F7D101A8FFF733FEEF
:109880000025284603B030BD2A462046FFF7B9FF21
:1098900005460028F1D06368012B01D1FFF70EFDCA
:1098A00001A8FFF720FEECE78842F8B504460D4614
:1098B000164614D9904213D2A2F11006751AA1F1DE
:1098C00010072C44B74218D01CB13146204600F096
:1098D000C9FD304600F04AFD103E103CF2E70CD0C6
:1098E000B5420AD01CB12946204600F0BBFD2846EF
:1098F00000F03CFD10351034F2E7F8BD70B50E1ED7
:10990000054611DD3001FEF799FA044658B1D5E954
:10991000001201EB0212FFF7C7FF2868FEF796FA64
:109920002C60AE60012070BD0024F6E72DE9F04FF9
:10993000914697B000230391D9F804100C93462266
:109940009942C0E90033C0E90233C0E90433CDE9EC
:109950000A330446027623DCD9E90057142303FBBB
:109960000757AF423BD029460DA800F07BFD0DA95B
:1099700011A80B9E00F076FDDDE90B1399421BDA6E
:109980000A9B0B9A03EB061603EB0212314606F113
:109990001000FFF789FFEEB90B9B01330B9311E029
:1099A0000AA8FFF7ABFF0028D6D10AA8FFF746FDAB
:1099B000204617B0BDE8F08F01310AA8FFF79EFFDF
:1099C0000028DDD111A800F0D1FC0DA800F0CEFCDC
:1099D0001435C6E711A9304600F044FDDCE7002647
:1099E000CDE90D660F9637464FF0140ADDE90A23DC
:1099F0009E4280F297803301D35808930BB9013609
:109A0000F4E70AFB06F3099702930DAD09A908A82C
:109A1000FFF7FCFA83460028F1D00146099A8DF839
:109A20001F700DF11F032846FFF76EFB9DF81F8086
:109A30000190B8F1000F66D1BDF82430ADF8483080
:109A4000CDE913884FF6FF73CDF844B0ADF84A3036
:109A5000CDF85480D5E9013293421ADB03F1010BB2
:109A6000BBF1000F4ADD0AFB0BF0FEF7E7F90490AB
:109A7000002845D0D5E900120AFB0212FFF771FE5B
:109A8000049B28680493FEF7E1F9049B2B60C5F85A
:109A900008B0019BD5F800B06A680AFB03F30BEB32
:109AA000030101F114000AFB02B204910593FFF7D0
:109AB00058FE0499A9B1059B119A4BF80320BDF8F3
:109AC00048308B80BDF94A30CB80C1E902770F6105
:109AD000139B8B60149B1397CB60159B14970B61A2
