:02000002D0002C
:1040000000400D0084F50D00000006000D000501C4
:08401000040135080000000066
:04401800B8DA0D0005
:1040200009480A49884208B505D0094A824202D0A7
:10403000121A07F06DFD0748074A0021121A07F00F
:104040008FFD014808BD00BFC8E0032074F20D00D9
:10405000ACE30320B0E30320F8E7032070B5074E7C
:10406000074C06F04BFEA41BA4080025A54200D176
:1040700070BD56F8043B98470135F7E73CEA0D0060
:104080006CEA0D0001F084BB08B501F00DF8BDE845
:10409000084006F0F5BD03F0D7BD03F0D5BD03F031
:1040A000DBBD000008B5034A00210C2003F048FCEA
:1040B000FEE700BF41760D000078B0FA80F04009BD
:1040C00070470123037070477047006A0368DB681C
:1040D00018470000014B1A60704700BF00E1032041
:1040E000014B01221A70704780E50320024A012328
:1040F0009371024A1370704728E5032058E50320A6
:1041000003681847012A03D0022A03D00020704711
:104110000160FBE70B680360F8E7000010B5054B92
:104120001A7B054B044653F8221006F096F82046F9
:1041300010BD00BF28E50320C8E0032038B50446C1
:10414000006928B185680C2106F039FF2846F8E798
:10415000204638BD08B5044906F0D5F818B1034B20
:1041600003221A70012008BD10DB0D001CE503209E
:10417000436913B183690C301847704710B5034B7E
:104180000360044602F06EFF204610BD64E00D009F
:1041900010B50446FFF7F2FF2046382106F00FFF66
:1041A000204610BD10B5034B0360044602F076FDB7
:1041B000204610BD48E00D0010B50446FFF7F2FFA1
:1041C0002046102106F0FBFE204610BD13B500214D
:1041D0000446084603F0A4F90023204601A90193F0
:1041E00003F0B6F9019C0CB10123237100210120D9
:1041F00003F096F92CB1236820469B68984700236A
:10420000237102B010BD000008B5084906F07BF824
:10421000002350B1064A1361064A1361064A13701F
:10422000064B01201870064B187008BD10DB0D00FE
:1042300028E5032060E403208BE4032080E40320CE
:1042400058E5032008B5002003F076FC28B103F000
:104250004BFC80F00100C0B208BD0120FCE7002348
:10426000042203F021BC000030B585B0034614469B
:1042700068460D4698470298206003F0E5FC2860E8
:1042800050B12268009907F043FC0024684605F00D
:1042900099FF204605B030BD004CF7E7FCFEFFFF5C
:1042A0000A4B10B50446036004F00AFF214605F0EE
:1042B0000CF906F099FC06F08BFC2046044B40F804
:1042C000043B04F0EFFF204610BD00BF30E00D00BE
:1042D00018E00D0010B50446FFF7E2FF2046242148
:1042E00006F06DFE204610BD10B50446006808B10A
:1042F00003F0B2FC204610BD002340681A46194660
:1043000003F06ABC10B58368044613B1032201466A
:104310009847204610BD000037B5134B0360044694
:104320008068C8B100256FF00043CDE90035022157
:104330002B462A4603F014F9A068294603F058F9E1
:10434000237903F0FF0513B103F0E2F8F8E7A06862
:10435000294603F0F5F8A56004F10C00FFF7D2FF41
:10436000204603B030BD00BF04E00D0010B5044688
:10437000FFF7D2FF20461C2106F021FE204610BD8B
:1043800038B5044620252A46002107F0E9FB65716F
:10439000204638BDF8B5037D05460F4616468BB15D
:1043A0000368DB6883B19A88012A06D09B68F9E725
:1043B0009B684BB19A88012AFAD12BB19A89BA42EB
:1043C000F6D19E732846F8BD0A49102006F0F9FD83
:1043D000044668B11022002107F0C2FB064B23609F
:1043E0000123A3802B69A360A781A6732C61E9E751
:1043F0002875E7E76CE70D001000030070B5037D3A
:1044000005460E46CBB10368DB6823B19A88042ABF
:1044100017D09B68F9E70C49102006F0D2FD04463E
:1044200068B11022002107F09BFB084B2360042396
:10443000A3802B692C61C4E90236284670BD28751B
:10444000FBE7DE60F9E700BF6CE70D00100003003A
:104450000246014803F03CBEA5800D00F0B58C4635
:1044600000251449057104468560016092E8030047
:1044700085B002AF04F10C0687E8030096E803005C
:1044800082E8030097E8030086E803009168A069CA
:104490006161D1689560D060A161CDE90035064ABF
:1044A0002346614604F1080003F042F8204605B0B7
:1044B000F0BD00BF04E00D00CD410D000EB410B5FD
:1044C0008DB00FAA016852F8044B039200232020FC
:1044D000CDE90403CDE900421E2004AA03F040FA0E
:1044E0000DB0BDE8104003B0704737B504689DF8C3
:1044F00018508DF800308DF80450E4683C23A04734
:1045000003B030BD30B50B781C4D93B00C4693B959
:104510001B4902A807F071FB2B7953B1194B1A49BB
:104520001B788DF80030194B19481B7802AAFFF749
:10453000DCFF13B030BD084607F0C6FAC8280DD11D
:10454000144902A807F059FB06F013FA124B28622F
:1045500001221A70114B00221A70DDE7204607F085
:10456000B3FAC928ECD0204607F0AEFA0C4A03464D
:10457000402102A803F088FBCEE700BF28E5032016
:1045800045DB0D0005E403207CDB0D0004E4032083
:10459000E0E403204DDB0D0058E503208BE403200D
:1045A0005FDB0D0007B50B4905F0ADFE70B10023D0
:1045B0008DF80030084B094A1B7809490948FFF774
:1045C00094FF09480A2102F073F8012003B05DF856
:1045D00004FB00BF10DB0D0004E4032089DB0D00A9
:1045E0007BDE0D00E0E403200CE4032037B519491D
:1045F000054605F088FE0446B0B1174B174A012462
:104600001C71DB78147013B9012003B030BD144B5A
:10461000144A1B788DF80030134B1B78134914484B
:10462000FFF763FF2046F0E71249284605F06BFECE
:104630000028EAD0084B094A1C71DB780124147069
:10464000002BE1D0064B0C4A1B788DF80030064B4E
:104650001B78E3E710DB0D0028E5032058E5032075
:1046600005E40320A1DB0D0004E40320FCDC0D00C5
:10467000E0E4032020DD0D00B2DB0D0000B50C4BA3
:104680000C4A1B7FC3B04FF4807102A803F0FCFA00
:10469000094B0A491B788DF80030094B09481B78F3
:1046A00002AAFFF722FF012043B05DF804FB00BF20
:1046B00028E50320C7DB0D0005E4032036DF0D00ED
:1046C00004E40320E0E4032013B52549044605F083
:1046D0001AFE20B32249204605F015FE38BB2149B9
:1046E000204605F010FE002836D01F4CE27812B9A3
:1046F0001E4B01221A701E4B1E4A1B788DF800308B
:104700001D4B1E491B781E48FFF7EFFE4FF47A70D1
:1047100003F00EFB00231B49A371102219E011497D
:10472000204605F0F0FD0028D4D102B010BD0E4C9B
:10473000E27852B10E4B144A1B788DF800300E4BC4
:104740000E491B780E48FFF7D0FE01230F49A371D5
:1047500010220F4807F091FA0E4B01201870E4E781
:1047600010DB0D0020DD0D0028E50320DDE4032033
:1047700005E40320EADB0D0004E40320FCDC0D006B
:10478000E0E40320FCDB0D00DBDB0D0000DC0D00B2
:10479000CCE4032058E503207FB5006803A908F0A6
:1047A000B9F8B5EEC00AF1EE10FA2AD4DFED167AA8
:1047B000B4EEE70AF1EE10FACCBF0126002620DCA9
:1047C000124B134D01241C7010EE100A85ED0B0ADC
:1047D00006F062FD0F4ACDE900010F48082103F001
:1047E00053FA2B7953B1EB7843B10C4B8DF8006041
:1047F0001B78094A0A490B48FFF777FE204604B0A8
:1048000070BD0024FAE700BF0000C84258E503204D
:1048100028E503200ADC0D0059E5032004E4032009
:10482000E5DF0D00E0E4032000B5C9B006F0A1F813
:10483000154A0790118D154B06911969059111695B
:104840000491D9680391107B114951F8201002910D
:10485000926801929A6800925B680E4A4FF48071E8
:1048600008A803F011FA0C4B0C491B788DF80030A6
:104870000B4B0C481B7808AAFFF737FE0A4B0122A6
:104880001A7049B05DF804FB28E5032060E40320BA
:10489000C8E0032013DC0D0005E4032099DC0D00C3
:1048A00004E40320E0E403208BE4032013B501219A
:1048B00001A805F030FB0B4BDB68243B402B01A823
:1048C0004FF001040AD905F0B9FB074B1C73002413
:1048D00001A805F02FFB204602B010BD05F097FBA4
:1048E000F6E700BF60E4032028E5032030B5194D4A
:1048F0000FCD99B004AC0FC40FCD0FC495E80300E1
:1049000084E8030014490EA803F096FA0EA803F0F9
:10491000E6FA04460EA803F0EBFA0EA810EE105AC1
:1049200003F016FB18AB10EE100A03EB840406F03C
:10493000B3FCCDE90201284606F0AEFCCDE900014A
:10494000064A54F8503C0648402103F09DF919B03E
:1049500030BD00BF84E00D009CE50320B6DC0D00F7
:10496000B4E303200000000008B50F2006F08BFA26
:10497000B0F5C87F05DA322003F0DAF90F2006F02F
:1049800082FA06F077FC20A3D3E9002306F0DCFCD2
:1049900006F0D2FFDFED147A07EE100A67EE277AF1
:1049A00017EE900A06F078FC104B002206F014FB7C
:1049B0000F4B002206F0C8FC06F076FF06F05AFC0A
:1049C0000C4B002206F0C0FC0B4B002206F0E6FD6B
:1049D0000A4B002206F002FB06F066FF084BD86087
:1049E000084B01221A7008BD000080390000E03F2A
:1049F00000005940000022400000144000004040E8
:104A000060E4032080E403206666666666660A400A
:104A100000B591B06846FFF7B3FC08A8FFF7B0FCFB
:104A2000002108A803F022F8134B5979A1B141F2F3
:104A3000D833ADF80630114B029341F27003ADF854
:104A40000C30009B43F4007300930021684603F090
:104A50000DF811B05DF804FB41F27003ADF80630BB
:104A6000074B029341F21003ADF80C30009B43F466
:104A700000730093EAE700BF28E5032084030004E5
:104A80008403840337B51B49054605F03CFC044606
:104A9000C0B1194D01246C71FFF7BAFF174B1C70A0
:104AA000EB7813B9012003B030BD154B154A1B78C4
:104AB0008DF80030144B1B7814491548FFF715FD8D
:104AC0002046F0E71349284605F01DFC0028EAD0EF
:104AD000094D0A4B6C7101241C70FFF799FFEB78AC
:104AE000002BDFD0064B0C4A1B788DF80030064BAC
:104AF0001B78E1E710DB0D0028E5032058E50320D3
:104B000005E40320CFDC0D0004E40320FCDC0D00F1
:104B1000E0E4032020DD0D00E6DC0D0070B51A4B4B
:104B20001A4C01221A70E37886B053B1184B194A17
:104B30001B788DF80030184B18491B781848FFF780
:104B4000D4FC002517492571012602A82670A570FE
:104B5000E57105F082FB02A8FFF7B6FD02A805F09B
:104B600031FB114B63614FF07E53A36141F2065359
:104B7000A383064A0D48667130233146258502F02D
:104B800030F906B070BD00BFDDE4032028E5032046
:104B900005E4032001DD0D0004E40320FCDC0D002E
:104BA000E0E4032010DB0D000000A0C08CE4032033
:104BB000244B1A69D3ED057AFF2ABAEE087A88BF2A
:104BC0000022F4EEC77A88BF1A61F1EE10FA06D41B
:104BD000B2EE087AF4EEC77AF1EE10FA01DD1A4A65
:104BE0005A61D3ED067AF5EEC07AF1EE10FA06D4EA
:104BF000B0EE007AF4EEC77AF1EE10FA02DD4FF073
:104C00007E529A611A7F0C2A84BF00221A775A7F3B
:104C10000C3A0C2A84BF18225A770C4A11681A8D54
:104C20008A4284BF00221A8501225A71084B188BD0
:104C300081423FBF00211983064B1A70064B0122A7
:104C40001A70704728E503200000A0C0ECE00320A4
:104C500060E4032080E4032058E5032010B50E4CE7
:104C6000A38BB3F5C05F09D10C490D4806F0C5FF11
:104C7000BDE8104009490B4806F0BFBF237F0A4A30
:104C80000748082103F000F8637F074A0548BDE89C
:104C90001040082102F0F8BF28E5032019DD0D00BF
:104CA000F6E00320E4E003201CDD0D0013B50A222A
:104CB000006801A907F002FF17280CD8074C2077DD
:104CC000FFF7CCFF064B01201870E3780BB1FFF71C
:104CD000D5FC02B010BD0020FBE700BF28E5032093
:104CE00058E5032030B5C5B000680A2203A907F0D3
:104CF000E5FE18281CD8104D6877FFF7AFFF0F4B63
:104D00000F4A01241C704FF480716B7F04A802F0DD
:104D1000BBFFEB7853B10B4B0B491B788DF8003080
:104D20000A4B0B481B7804AAFFF7DFFB204600E084
:104D3000002045B030BD00BF28E5032058E5032022
:104D400022DD0D0005E4032036DF0D0004E403201E
:104D5000E0E403202DE9F04385B0002401A8CDE96B
:104D60000144ADF80C4003F0C4F9204602F080FC89
:104D700043F6972805464FF00009002002F078FC22
:104D8000461B61EB0407B94508BFB04505D302F0E7
:104D9000ABFE10B102F098FEEFE70A4C02F0A4FE61
:104DA00060680022022102F0FFFE2046FFF7A4FA0D
:104DB000054B0022DA70054B0120187005B0BDE8E4
:104DC000F08300BF9CE5032028E5032058E503207D
:104DD00008B505F0CEFD074B0749186000221A619F
:104DE0001A830A616422DA61044A01231370044AB7
:104DF000137008BD60E4032028E5032080E403204D
:104E000058E5032030B5154C154D2278154902EBB5
:104E100002132A788DB002EB02120A440B4400926E
:104E20002821114A02A802F02FFF2B7823700F4B84
:104E30001A798AB1DB7853B10D4B0E491B788DF886
:104E400000300D4B0D481B7802AAFFF74EFB05F012
:104E5000CBFE02A905F03EF90DB030BDDCE4032025
:104E60001CE5032004E1032039DD0D0028E50320C3
:104E700005E4032047DD0D0004E40320E0E4032003
:104E80007FB5002301A8CDE90133ADF80C3003F064
:104E900030F902F0DDFB0F4D044643F69726EB7820
:104EA00043B102F0D5FB001BB04203D8642002F0EE
:104EB0003FFFF4E70848FFF71FFA4FF47A7002F05B
:104EC00037FF064B0A221B68012101A805F03CFBB5
:104ED00004B070BD28E503209CE5032000E4032016
:104EE0002DE9F047234B244C1B78244A24492548BC
:104EF00086B000258DF80030234B1B78FFF7F5FABC
:104F0000257102F0F1FD10B1284602F00DFE0020DF
:104F100002F0AEFB4FF0000A054647F22F584FF063
:104F20000009002002F0A4FB461B61EB0A07B9450B
:104F300008BFB04505D3FFF785F910B902F0C4FDED
:104F4000EFE7FFF77FF9637913B9A368462B09DC14
:104F50000E4902A805F081F902A8FFF7B5FB02A8E7
:104F600005F030F9FFF734FF094B01221A7006B043
:104F7000BDE8F08705E4032028E5032058DD0D0097
:104F800060DD0D00E0E4032004E4032010DB0D00ED
:104F900058E5032030B585B00D46002269460092E1
:104FA00002F0F6FCB0B9009C0CB1236923B90A4A9F
:104FB00000210A2002F0C4FC0023ADF806300C23C7
:104FC000ADF80430042303930295236901AA01215B
:104FD0002046984705B030BD41760D0030B52D4BC9
:104FE00000228BB05868114602F0E6FD08B1FFF7C9
:104FF0007DFCFFF7B9FC02A90720FFF7CBFF264C89
:10500000264D0028A8BF02982073FFF74FFC10B967
:105010002B6901332B6102A90320FFF7BBFF002896
:1050200034D1BDF8083007EE903AFBEECC7AFDEEB5
:10503000E77A17EE903A402BC4ED027A09DC237B25
:10504000012B06D102A8FFF79BF9002102A802F06C
:105050000DFDA368EA699342B8BFEB611D2BCCBF7D
:10506000002301231320E37105F00DFF6423009357
:105070000023194640F68A6202F04EFE084A686034
:1050800001231370074A13700BB030BDFFEE007A96
:10509000CDE700BF9CE5032028E5032060E4032062
:1050A00058E5032080E403202DE9F043A44CA54EED
:1050B0002378A54F013B97B0082B00F2AF80DFE8C3
:1050C00013F0D1020900CB01F9016D014702710211
:1050D000E70045009D4B1B78022B01D0FFF792FEA5
:1050E0009B4DAB796BB102F0B3FA9A4B1B68C01AB7
:1050F000994B1B68984204D9984B9B680BB90823BD
:10510000237005F047FC964B80460021186805F097
:10511000A3FA80451CBF0323237005F03BFC6B7F83
:1051200098420DDB092323708E4B1B780BB10523AE
:1051300023708D4B1B78002B70D0042323706DE0FF
:1051400005F028FC2B7F9842ECDBEDE77F4B1B78CA
:10515000092B01D0FFF756FE7D4BDA7898460AB14D
:10516000FFF7F8FD0021814801F048F905F001FC46
:105170004FF4616590FBF5F303FB15057C4BC5F51A
:1051800061651A7DB5F5616FA8BF4FF461650AB11D
:1051900002221A72002204217548FFF7FBF84FF42F
:1051A0007A716943FFF72AF9714903A805F068F994
:1051B0004FF0FF316D4801F021F96E4803F01CFB00
:1051C0006C4803F010FB039B9BB19A88012A10D115
:1051D0009B89042B0DD1684906A805F03EF806A866
:1051E000FFF772FA06A804F0EDFF4FF4C053A8F8D9
:1051F0001C3005F0CFFB98F81D30984208DA05F016
:10520000C9FB98F81C30984202DB534B5B4A1A608A
:1052100002232370039808B102F01EFD534801F0E9
:10522000E5FC33783BB13023494A5548012101F070
:10523000D8FD002333703B783BB12023474A5048C8
:10524000502101F0CEFD00233B704E4B1B68002B1C
:105250001BDB4D4A402106A802F016FD06A94B486B
:10526000FFF72CF9642002F063FD00238DF8003075
:10527000474B48491B78484806AAFFF736F94FF4D0
:10528000FA6002F055FD05F0F7F817B0BDE8F083BD
:105290002E4B1B78082B01D0FFF7B4FD2C4BDB788D
:1052A0000BB1FFF757FD2C4B30484FF47A720021B9
:1052B0001A6001F0A3F805F05CFB4FF4616590FB08
:1052C000F5F303FB15052A4BC5F561651A7DB5F5A8
:1052D000616FA8BF4FF461650AB102221A72002201
:1052E00004212348FFF756F84FF47A716943FFF71A
:1052F00085F81F4903A805F0C3F84FF0FF311B489C
:1053000001F07CF81B4803F077FA1A4803F06BFAB7
:10531000039B002B3FF47CAF9A88012A7FF478AF7F
:105320009B89042B7FF474AF134906A804F095FF02
:1053300006A8FFF7C9F906A804F044FF68E700BF14
:105340001CE5032058E5032080E40320DCE403206F
:1053500028E5032024E5032020E5032060E4032062
:10536000A4E40320DDE4032080E503200CE4032013
:1053700048E403209CE4032020DD0D00905F010041
:105380008CE4032000E10320C0DE0D00E0E50320F3
:1053900004E40320DFDE0D00E0E40320954B1B78DE
:1053A000052B13D09A1F53425341934A1370FFF7B2
:1053B00029FD05F0DEFA914B186091480023406802
:1053C0001A46194602F000FC02F086FB02F08CFB44
:1053D0008C4DDFF87482814600284AD0002388F87B
:1053E00000300123EB7005F0C4FA686298F80030D1
:1053F000002B31D105F0BDFA804B834A1B68118B1D
:10540000C01A824B1B6880B29842288588BF2B85C2
:105410002B8D994238BF138320217D4A06A802F0C4
:1054200033FC7C4806A9FFF749F82B794BB10023E0
:105430008DF80030784B79491B78794806AAFFF738
:1054400054F8012333703B70EB78002B30D06A4B5B
:105450001B786BB3062323706A4B1B7933B1654B02
:1054600022781B789A4201D0FFF7CCFCFFF7B6FDFB
:1054700063E605F07EFA614B644A1B681268C31A42
:105480009342B3D988F8009005F073FA6B6AC01A9A
:10549000B0F5E15F05D90123237002F0D9F8614B23
:1054A0001860002360495B48EB70FFF707F89DE741
:1054B0000223D0E75D4DDFF860912B7803F0FF0801
:1054C00073B14FF000088DF8008099F80030584A09
:1054D00058495348FFF709F885F8008006232DE660
:1054E00005F058FA08280AD1464999F800308A6828
:1054F000312A16DC00228DF800204F4A0CE005F01E
:1055000049FA0C28F0D005F045FA1128ECD08DF8B6
:10551000008099F80030494A46494148FEF7E5FFC6
:10552000DCE7394A91ED0B7AD2ED017AF8EEE77AB1
:10553000F4EEC77AF1EE10FA05D592681AB98DF833
:1055400000203F4AE8E700228DF800203D4AE3E7CB
:10555000284B1B78062B01D0FFF754FC294DEB7824
:1055600023B9394B01221A700523E7E505F012FA39
:105570002B7F984213D1FFF7B3FC05F00BFA2B7F7A
:10558000984202D108B9FFF74FF902F061F82F4BAA
:10559000186005F0EEF92E4B18600723CEE5FFF7F3
:1055A00043F9EAE7134B1B78072B01D0FFF72AFCDE
:1055B000284B1D786DB9284B284A1A6002F048F82C
:1055C000274B1860022323700F4B1D6101233B7092
:1055D00024E602F03DF81D4B1B68C01A47F2305319
:1055E00098427FF61BAE02F033F80E4B1860012391
:1055F000A4E500BFDCE4032006E4032008E4032064
:105600009CE5032028E5032060E40320ECE0032070
:105610008CDD0D00E0E5032004E40320A1DD0D0096
:10562000E0E4032018E503206EDD0D0080E5032093
:10563000AADD0D00C3DD0D00DEDD0D00CCDD0D00AB
:1056400002DE0D002CDE0D00DDE4032084E50320E6
:10565000A4E403208BE4032020E50320905F0100F5
:1056600024E503203B4B1B78012B01D0FFF7CAFB3D
:1056700001F0EEFF384B1B6803F5EA4330338342F9
:10568000BFF4CCAD354C05F074F9636AC01AB0F5BF
:10569000E15F10D9302322460121314801F0A1FBFE
:1056A00030493148FEF70AFF642002F041FB2F48E1
:1056B0001E2100F0FDFF2369032B13DCE37853B1B7
:1056C0002B4B2C4A1B788DF800302B4B2B491B7829
:1056D0002B48FEF70AFF4FF4FA6002F029FB04F0B2
:1056E000CBFE9BE505F045F9236AC01AB0F5E15FF2
:1056F000E37818D953B11E4B224A1B788DF800303D
:105700001D4B1E491B781E48FEF7EFFE4FF4FA6052
:1057100002F00EFB002323610A210123134833709A
:1057200000F0C6FF7AE553B1114B174A1B788DF88C
:105730000030114B11491B781148FEF7D6FE4FF48B
:10574000FA6002F0F5FA0023236101233370FFF7BA
:1057500097FB63E5DCE4032018E5032028E503203C
:105760008CE4032040DE0D00E0E503200CE4032080
:1057700005E403206DDE0D0004E4032081DE0D004E
:10578000E0E4032087DE0D00A1DE0D000000000034
:105790002DE9F0410021AAB0082005F037FB0021D7
:1057A000042005F033FB0121072005F02FFB012128
:1057B000072005F03CFB06A8002402F09DF9002319
:1057C0007D220AA906A804F0B0FDB749DFF8D88306
:1057D000B64DB74F23462246CDE900440AA802F051
:1057E0009BF923460222B349B34802F05DF9B3495D
:1057F000B348FEF734FDB349B3482346022202F012
:1058000053F923460222B149B14802F04DF9B1499A
:10581000B148FEF724FD23460222B049B04802F009
:1058200043F9B049B048FEF71AFDB049B048FEF759
:1058300016FDB049B048FEF712FD23460222AF49DB
:10584000AF4802F031F9AF49AF48FEF708FD0C232D
:10585000CDE90344ADF80C30AC4BAD4905930422BF
:1058600003ABAC4802F020F9AB49AC48FEF7F7FCBB
:10587000AB49AC48FEF7ECFDAB49AC48FEF7E8FDA0
:10588000AB49AC48FEF7E4FDAB49AC48FEF7E0FDA0
:10589000AB49AC48FEF7DCFDAB49AC48FEF7D8FDA0
:1058A000AB49AC48FEF7D4FDAB49AC48FEF7D0FDA0
:1058B000AB49AC48FEF7CCFDAB49AC48FEF7C8FDA0
:1058C000AB49AC48FEF7C4FD0126032241F2883300
:1058D00003A8CDE90323ADF8146002F024FCA64828
:1058E00001F0F2F92146A44833460DF10B0201F014
:1058F0002DFA9DF80B10B14200F0B5809E4801F0E2
:10590000EDF99E4A9C480423214601F06AFA334689
:1059100099480DF10B02214601F018FA9DF80B3061
:10592000B34200F09D803E70954CFFF741F9FFF7C0
:1059300095F9944A002300214FF4802002F052F898
:10594000082301212046638101F070F801231A46E3
:105950001021204600F0D5FD7C21A870204600F0E3
:105960004DFD95ED060A04F0BBFE00F069FB002832
:1059700000F0858004F0D2FE95ED050A04F090FE5B
:1059800005F030F8044604F0F4FF201A05F072FC2C
:1059900043A3D3E9002305F001FE7B4ACDE90001D2
:1059A0000A21584802F070F9E86A05F075FC774A58
:1059B000CDE900015848082102F066F9AB791022C0
:1059C000002B5FD07249474806F057F90022114674
:1059D00003A8039201F01CFE039B142B4FF000025E
:1059E00052D12B6901332B616A4B01221A70FFF7E8
:1059F0000FF8042005F034FA08B9FFF78FF804F027
:105A0000D5FF00210446D8F8000004F02DFE8442A2
:105A100001D0FFF7DDF904F0BDFF2B7F984211DBC9
:105A200004F0B8FF6B7F98420CDAEB782BB102F0F0
:105A30005BF810B9584B01221A70FFF7CFFA574B99
:105A4000574A1A603B780BB902233B7000210720AC
:105A500005F0EDF906A804F0B5FB2AB0BDE8F08129
:105A6000FFF75CF860E72A463023434801F06EF9FF
:105A7000202342465021404801F068F954E704F0E1
:105A800059FE79E747499EE7114603A8039201F0C2
:105A9000BFFD039B8C2BAAD1A3E700BFAFF300800F
:105AA000000000000020AC4005450D0028E5032063
:105AB0001CE5032064E40320E6DE0D00B4E30320CC
:105AC000F3DE0D0038E50320FADE0D006CE4032060
:105AD00005DF0D00F0E0032011DF0D0030E50320AD
:105AE00019DF0D00CCE4032024DF0D00F6E00320D5
:105AF000CADF0D00E4E0032031DF0D0070E4032075
:105B00003BDF0D0081E4032042DF0D0069420D0000
:105B10001D410D004DDF0D0059E503205CDF0D0038
:105B200009420D0068DF0D00A5450D0074DF0D0072
:105B300055410D007EDF0D00C9460D0086DF0D00CA
:105B4000854A0D0093DF0D00ED450D009EDF0D0031
:105B5000195F0D00ABDF0D0081600D00B8DF0D0097
:105B6000AD4C0D00C6DF0D00E54C0D00D3DF0D0080
:105B700099470D00DDDF0D008CE40320ACE00D0043
:105B80000CE40320D5400D00EFDF0D000ADC0D0012
:105B900000DC0D0058E50320DDE4032020E50320B0
:105BA000905F0100FCDB0D0060E4032070B5D0E9DC
:105BB00000531426044606FB0356AE4204D0284682
:105BC00004F000FB1435F8E7206802F045F82046A1
:105BD00070BD8842F8B504460D46164616D9904267
:105BE00015D2A2F11406751AA1F114072C44B7427C
:105BF0001CD02CB13146204604F060FB337C23746A
:105C0000304604F0DFFA143E143CF0E70ED0B54203
:105C10000CD02CB12946204604F050FB2B7C237479
:105C2000284604F0CFFA14351434F0E7F8BD2DE916
:105C3000F0410023C0E9003383604F689F4204466F
:105C40000E4623DD4FF0140808FB07F001F0FCFFBF
:105C50000546D8B1D4E9001208FB0212FFF7B9FFDC
:105C6000206801F0F9FF2560A760D6E9007308FB02
:105C70000378B84508D03946284604F039FB3B7C08
:105C80002B7414371435F4E7736863602046BDE85D
:105C9000F0810000744B2DE9F04300241C60734B2D
:105CA000734F744DDFF8489201261E70724B082224
:105CB0008FB01A7005F054F8234622460D2105F0E6
:105CC00057F805F04DF823462246022105F058F812
:105CD0006A4B3C6064221C83DA61694BBB60BC8008
:105CE000BC71022001F066FE2A466649384605F07E
:105CF00061F92146304601F07DFE3146042001F075
:105D00007FFC61486149A0F809400346021D43F841
:105D1000092B9C705E4B43602A46C0E9034406751C
:105D2000047205F047F905F0F5F85A4F014623468D
:105D30004FF40052384600F0BDFF574B3B603846E9
:105D4000564F57492A4605F035F956494FF4006237
:105D5000384601F0AFFA544B3B602A465349384667
:105D600005F028F905F0D6F8514F0146692238466A
:105D700000F046FA38464F4F4F492A4605F01AF9C7
:105D80002146384602F09EFC2A464C49384605F02A
:105D900011F9CDE90144039404F026FF484C07466D
:105DA00001A904A8FFF743FFA04604A907A8FFF72D
:105DB0003EFF444B48F8043B07A90AA8FFF737FF0A
:105DC0000AAA3146404603F0D3FC0AA8FFF7EEFECC
:105DD00007A8FFF7EBFE3C4B2360276204A8FFF700
:105DE000E5FE3A4B236004F0FFFE4FF4165104F039
:105DF000EBFE03F065F9214603F04CFC01A8FFF728
:105E0000D5FE2A463249DFF8EC80324F204605F0B5
:105E1000D1F8314B314C32490A930AAA33464846ED
:105E20000C94CDF83480FEF719FB0AA8FEF76AFA45
:105E30002A463946484605F0BDF8CDE90C48294CBC
:105E4000294B2A490A930AAA33462046FEF706FB45
:105E50000AA8FEF757FA2A463946204605F0AAF85E
:105E60000FB0BDE8F08300BF00E4032004E403208A
:105E7000F4E30320B0E3032005E4032060E40320FF
:105E80000000FFFFE9420D0048E403203D410D0002
:105E9000100003008CE4032048E00D00E0E4032040
:105EA000A5410D0000F4032064E00D007D410D00CC
:105EB0000CE403209CE4032095610D00E5860D00B1
:105EC000A8E4032018E00D0020E60D0030E00D00EE
:105ED000A1420D0019430D00E1400D0005410D00E8
:105EE000804F12002CE40320ED400D0040771B0092
:105EF00064E5032001410D0008B5002001F01CFEFF
:105F000028B101F0F1FD80F00100C0B208BD012010
:105F1000FCE70000000000002DE9F047C8B0804613
:105F200001F0E2FD10B1002001F0FEFD002001F0C3
:105F30009FFB4FF0000A814647F22F5600270020B2
:105F400001F096FBB0EB090461EB0A05AF4208BF14
:105F5000A64205D3FFF7D0FF10B901F0B5FDEEE77B
:105F6000FFF7CAFFD8F800000A2203A906F0A6FD31
:105F700000F10C03DBB2182B48D845B207EE905A5B
:105F8000274BB8EEE70A012483ED050A04F088FBED
:105F9000244B1C7004F026FD064604F0EAFC301A7F
:105FA00005F068F91CA3D3E9002305F0F7FA1E4AAF
:105FB000CDE900010A211D4801F066FE01F094FDC3
:105FC00010B32B461A4A1B4D4FF48071002608A8C7
:105FD00001F05AFE8DF8006017492B78174808AA7F
:105FE000FEF783FA04F0C5FC0246C31704A804F0C8
:105FF000BDFB8DF800602B78049A0F490F48FEF71F
:1060000074FA04A804F0DEF8204600E0002048B04E
:10601000BDE8F087AFF30080000000000020AC4036
:1060200028E5032058E50320EFDF0D0081E403207D
:10603000B0E00D0088E5032036DF0D00E0E403202A
:1060400038B504F0B3FC054604F0C4FC044604F083
:10605000B9FC231F062B0ED9E31E082B0DD80138DF
:106060002D1A04D50B2C14BF0020012038BD072D9C
:1060700003DD032CF7E70120F8E70020F6E7000036
:1060800070B52DED028BC8B0054604F072FC0A22F3
:10609000044603A9286806F011FDC3B2022B59D8A3
:1060A00043B208EE103AB8EEC88AB0EE480A04F0DF
:1060B00017FB2D4B83ED068A2C4B01221A7018EE2C
:1060C000100A05F0E9F82A4ACDE900014FF4807181
:1060D00008A801F0D9FD04F02FFC28B1FFF7B0FFAC
:1060E000002834D004F01AFB04F07CFC054604F0D0
:1060F00040FC281A05F0BEF819A3D3E9002305F0E7
:106100004DFA1C4ACDE900010A211B4801F0BCFDF3
:1061100001F0EAFCC8B1194D19491A4800268DF85A
:1061200000602B7808AAFEF7E0F92246E31704A8DE
:1061300004F01CFB8DF800602B78049A104911487C
:10614000FEF7D3F904A804F03DF8012003E004F0C1
:10615000F1FAC9E7002048B0BDEC028B70BD00BF6A
:10616000000000000020AC4028E5032058E5032093
:10617000C4E00D00EFDF0D0081E4032088E503207B
:1061800036DF0D00E0E40320014B01221A70704756
:1061900088E50320704710B52021044604F00FFF66
:1061A000204610BD0EB410B58DB00FAA016852F88C
:1061B000044B039200232020CDE90403CDE90042E3
:1061C000012004AA01F0CCFB0DB0BDE8104003B0E3
:1061D00070470EB410B58DB00FAA016852F8044B89
:1061E000039200232020CDE90403CDE900423220B0
:1061F00004AA01F0B5FB0DB0BDE8104003B0704734
:1062000010B50272FF2242810022C0E903224261DE
:106210000276C261024A034C1060C0E9004110BD21
:1062200090E5032024E30D002DE9F8439DF820803C
:106230000446894616461F46B8F1000F02D0406852
:1062400002F08EFB217A606802F067FB60680368E9
:1062500049469B6898476068002102F07DFB05462F
:1062600000BB0123217A60683A4602F044FB874272
:10627000034609D13744BE421CD0606803685B699D
:10628000984706F8010BF6E70B490C484A46FFF71A
:10629000A0FFB8F1000F02D0606802F06AFB284648
:1062A000BDE8F8830346064904484A46FFF791FFD4
:1062B0000025EEE70125ECE7D5E00D008CE5032095
:1062C000FAE00D0007B500930123FFF7ADFF03B01F
:1062D0005DF804FB73B54389FF2B044610D0194EBB
:1062E000194D01F0B5F9B0F57A7F09D2608904F053
:1062F000B7FD012804D031462846FEF7DFF8F0E765
:1063000001230DF1070228212046FFF7DBFF30B9FA
:106310000D480E49FEF7D2F8002002B070BD9DF87E
:106320000730182BF4D101230DF107022921204653
:10633000FFF7C8FF0028EBD09DF80730052BE7D109
:10634000EBE700BF1EE10D008CE5032033E10D00FB
:1063500007B5134600228DF807200DF10702FFF75D
:10636000B1FF9DF8070003B05DF804FB2DE9F04193
:106370009DF8188004460F4615461E46B8F1000FDA
:1063800002D0406802F0ECFA217A606802F0C5FAA7
:106390006068036839469B6898472E44B542606838
:1063A00005D0036815F8011B9B689847F6E70121A3
:1063B00002F0D2FA034670B1084909483A46FFF79D
:1063C00008FF0025B8F1000F02D0606802F0D1FA92
:1063D0002846BDE8F0810125F4E700BF40E10D004B
:1063E0008CE503201FB58DF80F2000930DF10F02EF
:1063F0000123FFF7BBFF05B05DF804FBF8B50A46C3
:106400000C4605461A491B48FEF758F8002CB8BF41
:10641000EC687CB9012322461B212846FFF7E2FFE6
:106420001549024606461348FFF7BCFEEC606C6156
:106430003046F8BD032C19DDA7101F2FA8BF1F275A
:10644000BA0062F07C020123D2B21B212846FFF77A
:10645000C9FF3A460346094906460648FFF7A2FE29
:106460004FF4FA635F43EC606F61E1E70127E7E710
:1064700065E10D008CE503206FE10D008BE10D005F
:106480000B4607490246086848B1002B08BFB2F521
:10649000006F04D1C36813B10021FFF7AFBF70478D
:1064A00090E503202DE9FF419DF82880054616461A
:1064B0001F46B8F1000F04D04068019102F050FA75
:1064C0000199019100230DF10F022846FFF7FAFE12
:1064D000044660B19DF80F3003EA06023A43934246
:1064E00005D0019900232846FFF77CFF0446B8F148
:1064F000000F02D0686802F03CFA204604B0BDE804
:10650000F08113B514460DF10702FFF7DBFE28B149
:106510009DF807301C420CBF0120002002B010BDC6
:1065200013B514460DF10702FFF7CCFE28B19DF814
:1065300007301C4214BF0120002002B010BD07B577
:10654000D2430093D2B20023FFF7ACFF03B05DF853
:1065500004FB000037B501230DF107020F210446AB
:10656000FFF7B0FE054638B91E491F48AD22FFF7B8
:1065700030FE284603B030BD9DF8073013F0200FE1
:106580004FF001030BD02022E3610F212046FFF7DB
:10659000D6FF164A16491448FDF790FFE9E708228E
:1065A00017212046FFF7BCFF18B10223114AE3610F
:1065B000F0E79DF807301A0709D50323E3610822A5
:1065C00001230F212046FFF7BAFF0B4AE2E75B07E2
:1065D000CFD50422E26101230F212046FFF7AFFF50
:1065E000064AD7E7DEE10D008CE50320AFE10D00A0
:1065F000FDE10D00B8E10D00C8E10D00D8E10D008E
:1066000007B500931346FF22FFF74CFF03B05DF878
:1066100004FB0000F8B50F461646012300220F21A7
:106620000546FFF7DFFE044638B94FF425721E49D0
:106630001E48FFF7CEFD2046F8BD01232322182176
:106640002846FFF7CFFE044610B940F29B22EEE742
:10665000FF2FA8BFFF27012FB8BF01270123FAB2E0
:1066600019212846FFF7BEFE044610B94FF42A72DE
:10667000DDE70123082212212846FFF7C1FF044667
:1066800010B940F2AF22D2E7002E4FF0010314BF41
:106690008322822218212846FFF7A4FE0446002800
:1066A000C9D140F2B922C2E70EE20D008CE5032009
:1066B0002DE9F7430A4605460F464F484F49FDF777
:1066C000FDFE00212846FFF799FE044648B940F236
:1066D000F7124B494848FFF77CFD204603B0BDE860
:1066E000F08301231A4630212846FFF789FF04462C
:1066F00010B940F20522ECE710220123114628468A
:10670000FFF71DFF044610B94FF40372E1E70123C0
:10671000262213212846FFF765FE044610B940F2F1
:106720001322D6E7012600963346FC221121284683
:10673000FFF7B8FE044610B940F21B22C9E7002259
:1067400039462846FFF766FF044610B940F2222278
:10675000BFE700960223772210212846FFF7A2FE0A
:10676000044610B940F22B22B3E7334604221C2121
:106770002846FFF745FF044610B940F23222A8E749
:1067800000961823E32211212846FFF78BFE0446CA
:1067900010B940F239229CE73346C022172128461F
:1067A000FFF720FE044610B94FF4107291E700F095
:1067B0004FFFDFF85490DFF840804FF47A710646BF
:1067C0004F4300F045FF801BB8420ED20122172133
:1067D0002846FFF7BDFD494602464046FDF76EFEDE
:1067E0004FF47A7001F0A4FAEBE706490248FFF78C
:1067F000F0FC03F041FE70E78CE5032039E20D0068
:106800002EE20D005FE20D004AE20D002DE9F34794
:106810009DF828A005460C4691461F46BAF1000F88
:1068200002D0406802F09CF807B3202F3E4628BFF4
:1068300020267F2C26D83319802B01D9C4F180065D
:10684000012304223F212846FFF779FE002364F04C
:106850007F0100934A463346C9B22846FFF7E4FC5D
:10686000804628B13444BF1BB144DDE74FF0010836
:10687000BAF1000F02D0686802F07BF8404602B01F
:10688000BDE8F087012304223F212846FFF7B8FE28
:10689000DCE72DE9F3479DF828A005460C46914614
:1068A0001F46BAF1000F02D0406802F059F807B352
:1068B0001F2F3E4628BF1F267F2C26D83319802B3A
:1068C00001D9C4F18006012304223F212846FFF7A5
:1068D00036FE002364F07F0100934A463346C9B276
:1068E0002846FFF743FD804628B13444BF1BB1441E
:1068F000DDE74FF00108BAF1000F02D0686802F03E
:1069000038F8404602B0BDE8F087012304223F2159
:106910002846FFF775FEDCE730B585B00D68D1E994
:10692000043203954D6802958D680195C968009100
:106930000133044902F26C72044603F00FFD204655
:1069400005B030BD71E20D0003110A2200F00F0006
:1069500002FB0300704738B5044600781546FFF780
:10696000F3FF08606078FFF7EFFF4860A078FFF75B
:10697000EBFF8860E078FFF7E7FFC8602079FFF75A
:10698000E3FF013808612DB9651D2878FFF7DCFFAA
:10699000886138BD6079FFF7D7FF6430A51D486175
:1069A000F3E7000070B5012388B00D461A461021A8
:1069B0000446FFF7A6FDF0B1082301262046009605
:1069C0000DEB03020021FFF72FFC044698B132467D
:1069D00029460DF10900FFF7BEFF04A8FFF79CFF51
:1069E0000848049A0849FDF769FD04A803F0EAFB8A
:1069F000204608B070BD24220021284605F0B0F8DA
:106A00000024F5E78CE503208FE20D0030B58BB054
:106A10000D4601A9FFF7C6FF044620B101A801F009
:106A200073F9C5E9000120460BB030BD10B504462E
:106A300088B011B1406801F041FF2046FFF74AFCE1
:106A400070B32046FFF786FD01231A461021204629
:106A5000FFF757FDD8B103F06FFFC0B902A9204678
:106A6000FFF7D4FFDDE9020103F06CFE0F4B104984
:106A70001B68009304A8DDE9022303F01BFF0D4807
:106A8000049A0D49FDF71AFD04A803F09BFB0B4A7D
:106A9000002300214FF4006000F0A4FF08B010BDF7
:106AA00007490448FFF795FBF1E700BFC8E1032061
:106AB00034E603208CE503209DE20D0081640D0087
:106AC000BAE20D000A2290FBF2F302FB130093FBE3
:106AD000F2F102FB113140EA0110C0B2704770B50B
:106AE000054600680C461646FFF7ECFF2070686804
:106AF000FFF7E8FF6070A868FFF7E4FFA070E868A0
:106B0000FFF7E0FFE07028690130FFF7DBFF20713D
:106B10002EB9661DA869FFF7D5FF307070BD6A6990
:106B2000642392FBF3F003FB1020FFF7CBFFA61DBD
:106B30006071EFE7F0B587B0054602A816460C462F
:106B4000FFF7EAFE1E48029A1E49FDF7B7FC02A8AD
:106B500003F038FB16B1686801F002FF20460122FD
:106B60000DF1090100278DF80870FFF7B8FF012328
:106B70001A4610212846FFF743FD0446E8B10823D2
:106B800000970DEB030239462846FFF7EFFB04465A
:106B900060B101231A4610212846FFF7D0FC16B138
:106BA000686801F0E6FE204607B0F0BD4FF48D7234
:106BB00005490348FFF70DFBF1E74FF48F72F7E744
:106BC0008CE50320D2E20D00E0E20D0013B504468F
:106BD0006846CDE9002304F089FF9DF810200146A6
:106BE0002046FFF7A7FF02B010BD0000F0B5057EFC
:106BF00089B0044675BB03F09FFE58B300260027FA
:106C000004A92846CDE9046700F09EFF10B30125D2
:106C1000257603F0AEFE00950246C3172046CDE967
:106C20000223FFF7D3FF02A92046CDE90267FFF751
:106C3000EDFE124B12491B68009304A8DDE9022304
:106C400003F038FE0F48049A0F49FDF737FC04A8FB
:106C500003F0B8FA636973B100F0FAFC2369C01A53
:106C60006369984207D300F0F3FC4FF0FF312061D5
:106C70002046FFF7C3FB09B0F0BD00BFC8E1032009
:106C800034E603208CE50320FBE20D00014B024AB1
:106C90001A6070478CE5032011E30D00704710B5B2
:106CA0001021044604F08BF9204610BD0368C9B2D8
:106CB0009B68184730B5034DC0E90223C0E9005175
:106CC00030BD00BF68E30D00406801F0F7BD10B5AE
:106CD0000446006801F04DFE204610BD2DE9F0414C
:106CE0008AB004464068019001F03AFE1E2200215D
:106CF00002A8A76804F034FF0026EFB123681E2F16
:106D0000B84628BF4FF01E08DD6802AA4346314648
:106D10002046A847054658B90A480B493246FDF7B0
:106D2000CDFB01A8FFF7D3FF28460AB0BDE8F081EC
:106D3000A7EB08074644E0E701A8FFF7C8FF0125D5
:106D4000F2E700BFE0E5032034E30D002DE9F7434F
:106D50000446406801900D4616461F4601F000FEAD
:106D6000A7B1E168606841F0500101F0DAFD290A3D
:106D70006068FFF79BFF29466068FFF797FF606830
:106D8000002101F0E9FD48B1002400E0012401A840
:106D9000FFF79DFF204603B0BDE8F083202F217B45
:106DA0006068B84628BF4FF020080123424641F0F2
:106DB000500101F0A0FD04F0ADF803681B6998478D
:106DC0004045E1DB06EB080904F0A4F803685B69C1
:106DD000984706F8010B4E45F6D14544A7EB080746
:106DE000BEE72DE9F74F0446406801900E469046F5
:106DF0001D4601F0B5FD4FF00109B9F1000F2AD091
:106E00004DB3E168606841F0500101F08AFD310A3C
:106E10006068FFF74BFF60683146FFF747FFA5F159
:106E20001E0A4746A6EB080B606817F8011B0368AB
:106E3000013D9B68984755450BEB0706B84601D0C6
:106E4000002DF1D16068012101F086FD0028D7D026
:106E50004FF00009D1E701A8FFF739FF484603B01A
:106E6000BDE8F08F2DE9F0438BB00E461546804605
:106E7000406801901C4601F073FDAE4229D22644C1
:106E800025448CB11E2C2746D8F8003028BF1E2779
:106E9000F61BD3F8089002AA3B4631464046ED1B4C
:106EA000C84748B9002400E0012401A8FFF70FFFFC
:106EB00020460BB0BDE8F083D8F8003002AAD3F822
:106EC0000C9029463B464046C8470028EAD0E41BC0
:106ED000D7E7E9D9002CE7D0D8F800301E2C274698
:106EE00028BF1E27D3F8089002AA3B4631464046E9
:106EF000C8470028D6D0D8F8003002AAD3F80C90A2
:106F000029463B464046C8470028CBD03E443D4436
:106F1000E41BDFE7012A034602D10160002070472D
:106F2000022A04BFD1E90001C3E90001F6E710B568
:106F3000012303748368044643B1C0689847012362
:106F400063740020BDE8104000F04ABB00680028D0
:106F5000F5D083680BB904F038F8C368EEE710B4D5
:106F600042680346541001EB6200D20748BF0A5939
:106F70001B685DF8044B48BFD35818470123F7B589
:106F800080F829300646083000F0F2FA0420FDF7B8
:106F900082F8054698B31B49142004F012F830B16A
:106FA0000023C0E90033C0E902330374437428604E
:106FB000A0B1154B1549C0E902364FF40063CDE985
:106FC00000030222124B043000F09AFA30B92B6809
:106FD0001B7CA3B9012000F02BFBF8E72C680023F1
:106FE0002B6064B1276837B13846FDF78BF9102163
:106FF000384603F0E4FF1421204603F0E0FF7560FB
:1070000003B0F0BD6CE70D001B720D007CE30D00BA
:107010002F6F0D0047F23051084AC16008490260E5
:107020000022C0E904120749C16107494260C0E972
:1070300008228161028580F82A20704740E40D0013
:1070400085730D005F6F0D00156F0D0010B5044BBB
:10705000044640F8103BFDF755F9204610BD00BF2F
:1070600040E40D0010B5034B03600446FFF7EEFF4C
:10707000204610BD68E40D0010B50446FFF7F2FF8E
:107080002046382103F09BFF204610BD806800F0A9
:1070900077BA806800F07CBA10B504460068FFF744
:1070A000F8FF204610BD13B504460190FFF7EEFF30
:1070B000E36ADC88A4B20CB103F1080401A8FFF76D
:1070C000EBFF204602B010BD13B504460190FFF758
:1070D000DDFF94F8283043B9E26A0124D38001A887
:1070E000FFF7DAFF204602B010BD0024F7E713B522
:1070F00004460190FFF7CAFFE36A01A8DC88FFF7A6
:10710000CBFF204602B010BD2DE9F047994686B06E
:1071100090F829309DF838A09DF83C8004460F4631
:10712000164613B903689B689847314B3846002EC2
:1071300008BF1E4604F087FD0546304604F083FD77
:10714000284400F10A05AB071CBF25F003050435F0
:107150003346CDE90285CDE9009A264926483A46CC
:10716000FDF7ACF9238E083BAB4212D20024204637
:1071700006B0BDE8F087CB88012B36D005A8FFF715
:107180008BFF236894F828109B69204698470028B5
:10719000ECD020460594FFF779FFE16A228E636BFD
:1071A0000A44D21AAA42E6D348EA0A0883F80480BD
:1071B000C3F80090636B03F108083946404604F0B9
:1071C0001CFD404604F03FFD01303146404404F0D0
:1071D00014FD636BE26A1D446563D3880133D38079
:1071E000012405A8FFF758FFC1E70024F9E700BF15
:1071F000E9E50D008EE30D0094E5032008B5044693
:1072000000F11005A3690BB903F0DFFEE369214625
:107210002846984700F07CF9F4E708B5FFF7EEFF41
:1072200068B501F108050646284604F00CFD01305A
:107230000544284604F007FDF36A01302844C31AC8
:1072400013F003031CBFC3F10403C01868BDF7B5F6
:1072500004460E460190FFF719FFE76AFB8807F125
:107260000805E6B1012B22D929462046FFF7D8FFB1
:10727000054629462046FFF7D3FF228E3A44121ACC
:107280000146A0EB050602D0284604F04FFC636BD4
:107290009B1B6363FB88013BFB80012601E0002B05
:1072A000E7D101A8FFF7F8FE304603B0F0BD002695
:1072B000F7E700002DE9F0470D4604462F46164635
:1072C000FFF7A8FE154B57F8082B2360144BE56217
:1072D0009A422686984617D1AB889BB2B34213D107
:1072E00005EB060A67634FF00009EB881FFA89F285
:1072F0009BB29A420ED2616B2046FFF791FF504538
:10730000606309F10109F0D90023C5F800806763C3
:10731000AE80EB802046BDE8F08700BF68E40D003A
:1073200061AB9CD110B5D1E9002386B000210446A1
:1073300004910AB9D90705D5CDE902230F4B05936E
:107340000F4B049302AB93E803006A4682E8030004
:1073500094E8030083E8030092E80300049A84E8B9
:107360000300A168A260059A04911846E168E260F2
:107370000591FCF7C7FF204606B010BD5F6F0D00FA
:10738000156F0D0007B5054B0093694600231030BB
:107390000193FFF7C7FF03B05DF804FBCD730D0049
:1073A00013B5044600F054F9636AC01AE3689842C2
:1073B00008D3054B00936946002304F110000193A4
:1073C000FFF7B0FF02B010BDCD730D002DE9F04105
:1073D00090F82A3086B00446002B64D100F084FB7C
:1073E000002860D000F034F9636AC01A40F2F1332B
:1073F000984258D9236820465B699847054600287B
:1074000051D000F10807012384F82830384604F0F1
:107410001AFC95F80480CDF8048001302B682B49C4
:1074200000933E1833462A483A46FDF747F82B6842
:107430008DF800803246394602A800F083FF029D95
:107440006B781BB9012000F073FCF8E7002000F016
:10745000D9FA20B16B7813B900F036FBFAE72B7834
:10746000012B23D11B491A48FDF728F82368002176
:107470009B6920469847002384F8283000F0E8F8FC
:107480006062039C7CB16368013B63605BB9236805
:1074900020469B689847A368013BA3601BB92368FB
:1074A0002046DB68984706B0BDE8F081E2680A49EB
:1074B0000748FDF703F8094B049304A9002304F1DE
:1074C00010000593FFF72EFFD5E700BFCFE30D00B7
:1074D00094E50320F0E30D0007E40D00A1730D0017
:1074E000014B024A1A60704794E503202EE40D0018
:1074F00008B5024B1B685B6C019308BD7402030066
:1075000008B5024B1B685B68019308BD4802030085
:1075100008B5024B1B68DB68019308BD48020300F5
:1075200008B5024B1B68DB69019308BD48020300E4
:1075300008B5024B1B681B6A019308BD4802030093
:1075400008B5024B1B685B6A019308BD4802030043
:1075500008B5024B1B689B6A019308BD48020300F3
:1075600008B5024B1B68DB6A019308BD48020300A3
:1075700008B5024B1B681B6B019308BD4802030052
:1075800008B5024B1B689B6B019308BD48020300C2
:1075900008B5024B1B681B6C019308BD4802030031
:1075A00008B5024B1B685B6C019308BD48020300E1
:1075B00008B5024B1B689B6C019308BD4802030091
:1075C00008B5024B1B68DB6C019308BD4802030041
:1075D00008B5024B1B685B6D019308BD48020300B0
:1075E00008B5024B1B68DB6E019308BD480203001F
:1075F00008B5024B1B681B6F019308BD48020300CE
:1076000008B5024B1B685B6E019308BD3402030092
:1076100008B5024B1B68DB6E019308BD3402030002
:1076200008B5024B1B685B68019308BD1802030094
:1076300008B5024B1B689B68019308BD1802030044
:1076400008B5024B1B68DB68019308BD18020300F4
:1076500008B5024B1B685B69019308BD1802030063
:1076600008B5024B1B689B6D019308BD180203000F
:1076700008B5024B1B68DB6D019308BD18020300BF
:1076800008B5024B1B685B6E019308BD180203002E
:1076900008B5024B1B689B6E019308BD18020300DE
:1076A00008B5024B1B685B68019308BD2C02030000
:1076B00008B5024B1B689B68019308BD2C020300B0
:1076C00008B5024B1B68DB68019308BD2C02030060
:1076D00008B5024B1B681B69019308BD2C0203000F
:1076E00008B5024B1B685B69019308BD2C020300BF
:1076F00008B5024B1B681B6B019308BD2C020300ED
:1077000008B5024B1B68DB68019308BD2802030023
:1077100008B5024B1B689B69019308BD2802030052
:1077200008B5024B1B68DB69019308BD2802030002
:1077300008B5024B1B681B6A019308BD28020300B1
:1077400008B5024B1B685B6A019308BD2802030061
:1077500008B5024B1B689B6A019308BD2802030011
:1077600008B5024B1B68DB6A019308BD28020300C1
:1077700008B5024B1B681B6B019308BD2802030070
:1077800008B5024B1B685B6B019308BD2802030020
:1077900008B5024B1B681B6C019308BD280203004F
:1077A00008B5024B1B689B6C019308BD28020300BF
:1077B00008B5024B1B68DB6C019308BD280203006F
:1077C00008B5024B1B681B6D019308BD280203001E
:1077D00008B5024B1B685B69019308BD6402030096
:1077E00008B5024B1B689B68019308BD6802030043
:1077F00008B5024B1B68DB68019308BD68020300F3
:1078000008B5024B1B68DB69019308BD3002030019
:1078100008B5024B1B681B6A019308BD30020300C8
:1078200008B5024B1B681B68019308BD3C020300AE
:1078300008B5024B1B689B68019308BD3C0203001E
:1078400008B5024B1B68DB68019308BD3C020300CE
:1078500008B5024B1B681B69019308BD3C0203007D
:1078600008B5024B1B685B69019308BD3C0203002D
:1078700008B5024B1B689B69019308BD3C020300DD
:1078800008B5024B1B68DB69019308BD3C0203008D
:1078900008B5024B1B681B6A019308BD3C0203003C
:1078A00008B5024B1B689B6A019308BD3C020300AC
:1078B00008B5024B1B68DB6A019308BD3C0203005C
:1078C00008B5024B1B681B68019308BD4C020300FE
:1078D00008B5024B1B685B68019308BD4C020300AE
:1078E00008B5024B1B689B68019308BD4C0203005E
:1078F00008B5024B1B681B69019308BD4C020300CD
:1079000008B5024B1B685B69019308BD4C0203007C
:1079100008B5024B1B689B69019308BD4C0203002C
:1079200008B5024B1B68DB69019308BD4C020300DC
:1079300008B5024B1B681B6A019308BD4C0203008B
:1079400008B5024B1B685B6B019308BD6002030026
:1079500008B5024B1B681B6D019308BD6002030054
:1079600008B5024B1B685B6D019308BD6002030004
:1079700008B5024B1B68DB6E019308BD6002030073
:1079800008B5024B1B681B6F019308BD6002030022
:1079900008B5034B1B68D3F89830019308BD00006D
:1079A0006002030008B5024B1B681B68019308BD09
:1079B0002002030008B5024B1B685B68019308BDF9
:1079C0002002030008B5024B1B685B69019308BDE8
:1079D0002002030008B5024B1B689B69019308BD98
:1079E0002002030008B5024B1B681B6A019308BD07
:1079F0002002030008B5024B1B68DB6A019308BD37
:107A00002002030008B5024B1B68DB6C019308BD24
:107A10002002030008B5024B1B685B6D019308BD93
:107A20002002030008B5024B1B689B6D019308BD43
:107A30002002030008B5024B1B68DB6D019308BDF3
:107A40002002030008B5034B1B68D3F8883001936C
:107A500008BD00002002030008B5034B1B68D3F8E3
:107A60009430019308BD00002002030008B5034BC9
:107A70001B68D3F8A830019308BD00002002030062
:107A800008B5034B1B68D3F8AC30019308BD000068
:107A90002002030008B5034B1B68D3F8B0300193F4
:107AA00008BD00002002030008B5024B1B681B68DC
:107AB000019308BD4402030008B5024B1B685B68D4
:107AC000019308BD4402030008B5024B1B689B6884
:107AD000019308BD4402030008B5024B1B68DB6834
:107AE000019308BD4402030008B5024B1B685B69A3
:107AF000019308BD4402030008B5024B1B68DB6913
:107B0000019308BD4402030008B5024B1B681B6AC1
:107B1000019308BD4402030008B5024B1B685B6A71
:107B2000019308BD4402030008B5024B1B68DB6AE1
:107B3000019308BD4402030008B5024B1B681B6B90
:107B4000019308BD4402030008B5024B1B685B6B40
:107B5000019308BD4402030008B5024B1B689B6BF0
:107B6000019308BD4402030008B5024B1B68DB6BA0
:107B7000019308BD4402030008B5024B1B685B6C0F
:107B8000019308BD4402030008B5024B1B685B6803
:107B9000019308BD4002030008B5024B1B689B68B7
:107BA000019308BD4002030008B5024B1B68DB6867
:107BB000019308BD4002030008B5024B1B681B6916
:107BC000019308BD4002030008B5024B1B685B69C6
:107BD000019308BD4002030008B5024B1B689B6976
:107BE000019308BD4002030008B5024B1B68DB6926
:107BF000019308BD4002030008B5024B1B681B6AD5
:107C0000019308BD4002030008B5024B1B681B6BC3
:107C1000019308BD4002030008B5024B1B685B6B73
:107C2000019308BD4002030008B5024B1B681B6CA2
:107C3000019308BD4002030008B5024B1B685B6C52
:107C4000019308BD4002030008B5024B1B681B6886
:107C5000019308BD1C02030008B5024B1B685B685A
:107C6000019308BD1C02030008B5024B1B689B680A
:107C7000019308BD1C02030008B5024B1B681B6979
:107C8000019308BD1C02030008B5024B1B68DB69A9
:107C9000019308BD1C02030008B5024B1B685B6A18
:107CA000019308BD1C02030008B5024B1B68DB6A88
:107CB000019308BD1C02030008B5024B1B681B6B37
:107CC000019308BD1C02030008B5024B1B685B6CE6
:107CD000019308BD1C02030008B5024B1B689B6C96
:107CE000019308BD1C02030008B5024B1B68DB6C46
:107CF000019308BD1C02030008B5024B1B681B6DF5
:107D0000019308BD1C02030008B5024B1B685B6DA4
:107D1000019308BD1C0203008A4210B507D0029CE3
:107D2000401AE41A6043521A90FBF2F0184410BD56
:107D30000021FFF747BE10B5836804460BB903F076
:107D400044F9C3689847A3681BB103222146204623
:107D5000984720461021BDE8104003F030B910B517
:107D6000036804469B689847A368013BA3602BB94E
:107D700023682046DB68BDE81040184710BD10B5E9
:107D80000446006808B1FFF713FC204610BD0B68DD
:107D9000036013B15A6801325A60704710B5044647
:107DA000006828B14368013B43600BB9FFF7D7FF78
:107DB000204610BD10B5064C002320462360FFF777
:107DC000EFFB2046034A0449BDE8104003F0F2B837
:107DD00098E50320B0E303207F7D0D00002240687A
:107DE0001146FFF7E9BE002240681146FFF704BFC5
:107DF000002240681146FFF70FBF40680022FFF7DE
:107E000003BF4068002281F00101FFF7EDBE0023AF
:107E100040681A461946FFF7D7BE0022406811464F
:107E2000FFF7BABE406800220221FFF7BDBE002363
:107E300040681A46FFF7A8BEF0B51B4B036000254B
:107E40000F4628331826C0E9025589B043603246F0
:107E500029460446103003F083FE78682A462946F6
:107E6000FFF7AAFE18B9A060204609B0F0BD294668
:107E7000324602A8CDE9005503F072FE02A9684619
:107E8000ADF80860FFF734FB10B10123A360EBE706
:107E9000009B019AA360E2600BB90223A36002A9D0
:107EA000204600F0AEF8DFE7CCE40D00084B10B53B
:107EB000282422461846002103F052FE054B048078
:107EC0004FF0FF32426004225A60034A1A6010BD2C
:107ED000A4E503209CE5032090E40D007047007D9D
:107EE000704710B52821044603F069F8204610BDFC
:107EF000037D7BB1C369002B0CDB07EE903A9FED4D
:107F0000077AF8EEE77A87EE870ADFED057A20EE4A
:107F1000270A7047BFEE000A704700BF00FF7F4787
:107F20000000C842037D63B18369B3F1004F08D0FC
:107F300007EE903A9FED047AF8EEE77A87EE870A2B
:107F400070479FED020A70470000C8420000000021
:107F5000037D7BB1436A002B0CDB07EE903A9FED6B
:107F6000077AF8EEE77A87EE870ADFED057A20EEEA
:107F7000270A7047BFEE000A704700BF00FF7F4727
:107F80000000C842037D63B1036AB3F1004F08D01B
:107F900007EE903A9FED047AF8EEE77A87EE870ACB
:107FA00070479FED020A70470000C84200000000C1
:107FB00070B50C1E06460ADA2D2102F07CF86142EB
:107FC00005460A22304602F08FF8284470BD21464B
:107FD0000025F6E770B50C46054681682046FFF798
:107FE000E7FF2C210646204602F065F8E9680644C2
:107FF0002046FFF7DDFF304470BDA0F10400FFF71D
:10800000E9BF30B50D4600F110040FCD0FC495E85F
:10801000030084E80300012030BD70470020704752
:1080200010B51021044602F0CAFF204610BD08B565
:10803000FFF7F6FF08BD30B500224FF69C740260D2
:1080400084808D888C800C68858004600A6030BDD7
:1080500010B504460068FFF7FFFD204610BD38B597
:10806000C468F4B12378022B03D104F10C00FFF7AC
:10807000EFFF656835B12846FCF744F91021284622
:1080800002F09DFFA56835B12846FCF73BF91021A9
:10809000284602F094FF20461421BDE8384002F043
:1080A0008EBF38BD10B588B00446684602F0D5F8DA
:1080B000694604A802F01CF904A8A047044604A8D5
:1080C00002F080F8684602F07DF8204608B010BD46
:1080D0001FB50023CDE90201019210241A4669461A
:1080E0001846ADF80230ADF80040FFF7E5FC04B0EB
:1080F00010BD1FB50C23ADF8043003688DF80630B1
:10810000037A8DF80730436802930021437AADF873
:108110000D1001A88DF80F108DF80C30FFF72CFD15
:1081200005B05DF804FB1FB50C22ADF80420026811
:108130008DF80620027A8DF807204268029200230B
:10814000427A8DF80C20194601AA0220ADF80D30B4
:108150008DF80F30FFF700FD05B05DF804FB73B537
:108160000E46044656F8043B00930D4601A83146DE
:10817000FFF70DFE019A009B6260236001A80023B7
:1081800001930093FFF70AFE3046FFF707FE2846EB
:10819000082102F014FF204602B070BD13B50B4653
:1081A0000246D0E900016C4684E8030093E803002E
:1081B00082E8030094E8030083E8030002B010BDE6
:1081C000826810B50AB902F000FFBDE81040C3682C
:1081D000184708B5006800F11001FFF7F1FF08BD6E
:1081E000826810B50AB902F0F0FEBDE81040C3681D
:1081F000184708B5006800F11001FFF7F1FF08BD4E
:1082000038B500230446036010200D46FBF743FFFA
:1082100028B10123C0E90133024B0360C56020602F
:10822000204638BD00E50D0038B5002383608B681B
:1082300004460D462BB102229847EB68E360AB6819
:10824000A360204638BD0000F0B589B004686846D8
:10825000FFF7F1FE4FF00203D4E84F2F002A03D1BD
:10826000C4E8413F0029F7D125D104F10C05694646
:108270002846FFF7E0FEBFF35B8F01236370002009
:1082800004F10803BFF35B8F53E8006F43E800027B
:10829000002AF9D1BFF35B8F6EB1FFF7B3FB78B162
:1082A00029463046FFF78CFF3046FCF72BF81021AB
:1082B000304602F084FE6846FFF7CAFE09B0F0BD02
:1082C000314602A8FFF7B0FFE068B4F9105008B1DA
:1082D00003F09CFC06901020ADF81C50FBF7DBFE71
:1082E0000546E8B1002787601820FBF7D4FE044656
:1082F00088B10146876002A8FFF750FF049BA2687F
:10830000A360059B049206A9E268E36004F11000F3
:108310000592FFF790FE084BEB60084B2C60AB60BA
:1083200006A8FFF795FE02A8FBF7ECFF00222946FE
:108330000348FFF76FFBB7E7D3810D0069840D0099
:10834000377D0D002DE9F0478AB005469DF848902D
:108350000C4617469846FFF7C7FB07AE824638BB68
:108360004FF62E73059005A93046ADF81830FFF78B
:1083700062FE1420FBF78FFE044648B1022303700F
:108380000123C0E901AA437031460C30FFF753FEC8
:108390002846214640F8044BFFF732FF3046FFF7EE
:1083A00057FE05A8FFF754FE28460AB0BDE8F0873F
:1083B0000C234FF0000A1420CDE908AA0793FBF71D
:1083C0006AFE014628B1C0E901AA80F800A080F841
:1083D00001A004A80391FFF713FF224B0893082084
:1083E000FBF759FE824628B1039B40F8043B04A9E1
:1083F000FFF7CDFC00965FFA89F3424639462046E6
:10840000CDF824A0FFF780FBB8B9039B5B7803F09D
:10841000FF0293B94FF69C7305A903A80592ADF826
:108420001830FFF711FF05A8FFF712FE05A80999FC
:10843000FFF795FE06A8FFF7B1FC039B059304A97F
:1084400006A8FFF7A4FC059B069A2B606A60002330
:1084500006A806930593FFF7A1FC04A8FFF79EFC6E
:10846000A2E700BF2D850D00022AF8B5054607D00A
:10847000032A18D0012A01D10B6803600020F8BD3F
:1084800018200E68FBF707FE044650B13146FFF78F
:10849000CBFE3069B6F9147008B103F0B7FB206168
:1084A000A7822C60EAE70468002CE7D004F11000F2
:1084B000FFF7CEFD2046FBF725FF1821204602F0EE
:1084C0007EFDDBE738B5002383608B6804460D46EC
:1084D0002BB102229847EB68E360AB68A3602046AB
:1084E00038BD022A70B5044607D0032A12D0012AEB
:1084F00001D10B680360002070BD14200E68FBF7EB
:10850000CAFD054620B13146FFF7DCFF337C2B74F2
:108510002560F0E70468002CEDD02046FBF7F2FE62
:108520001421204602F04BFDE5E70000F0B589B0CC
:1085300004460D4601A81146FFF711FEA4B124B26E
:108540001DB1284603F062FB054601A803A9039567
:10855000ADF81040FFF778FE03A8FFF779FD02A8F9
:10856000FFF71CFC09B0F0BD019D0123D5E84F2F9A
:10857000002A03D1C5E8413F0029F7D1EFD12B7381
:10858000BFF35B8F6B702B1DBFF35B8F53E8006FE6
:1085900043E80042002AF9D1BFF35B8F002EDED002
:1085A0002046FFF72FFA074660B105F10C0130466F
:1085B000FFF716FE3046FBF7A5FE1021304602F00D
:1085C000FEFCCCE7314603A8FFF77CFF2B7B8DF840
:1085D0001C301020FBF75FFD0546D0B187601420EA
:1085E000FBF759FD044678B18760014603A8FFF701
:1085F000D5FD059BA268A360069B0592E268E36037
:108600009DF81C3006922374064BEB60064B2C60E1
:10861000AB6003A8FBF776FE002229460348FFF76C
:10862000F9F9C7E7F3810D00E3840D00377D0D00F4
:10863000002240681146FFF7DFBA00224068114669
:10864000FFF7EABA40680022FFF7DEBA406800226E
:1086500081F00101FFF7C8BA002340681A461946A5
:10866000FFF7BABA002340681A461946FFF7ACBABA
:10867000002240681146FFF79FBA00224068114669
:10868000FFF78ABA406800220221FFF78DBA002363
:1086900040681A46FFF778BA024B03225A60024A32
:1086A0001A607047CCE503201CE50D00006800F05F
:1086B00057B910B50446016002710AB1FFF7F6FF21
:1086C000204610BD13B50446019102F04BFC019AFF
:1086D00001462046FFF7EDFF204602B010BD0068BE
:1086E00000F047B910B5037904460BB1FFF7F7FF67
:1086F000204610BD2DE9FF4104460D4617461E4693
:10870000FFF7D4FF36238DF8003000232068019353
:108710004FF001080A23694603938DF8088000F0A2
:1087200003F92068036829469B68984720684146FA
:1087300000F012F9054640B16FF09F052046FFF7A3
:10874000CEFF284604B0BDE8F081022320680193E3
:10875000694600F0B9F80228EED1206803685B6929
:1087600098473870206803685B6998473070E5E780
:1087700013460A460C21FFF7BDBF2DE9FF411646FF
:1087800004461D460F46FFF791FF36238DF8003053
:108790000023206801934FF001080A2369460393E0
:1087A0008DF8088000F0C0F82068036839469B689F
:1087B00098472068036831469B689847206803689B
:1087C00029469B6898474146206800F0C5F8002874
:1087D00020460CBF00256FF09F05FFF780FF28465D
:1087E00004B0BDE8F08108B5402200230621FFF760
:1087F000C4FF00EAE07008BD37B50546FFF756FF35
:1088000000230DF107020DF1060128468DF8063010
:108810008DF80730FFF7ACFF041E0BDB9DF8073027
:108820009DF8062003F07F030C212846FFF7A5FFE3
:1088300000EAE0742846FFF752FF204603B030BD3F
:108840007047F8B5064615460C468F18BC4206D050
:10885000336814F8011B9B6830469847F6E72846B2
:10886000F8BD007C0022FEF763BF007C0021FEF70C
:1088700067BF007C0021FEF76BBF007C0021FEF784
:108880006FBF007C0021FEF773BF10B514210446B2
:1088900002F095FB204610BD10B54FF47A730446E4
:1088A00008460021C4E90113034B236020741146DC
:1088B000FEF76EFF204610BD58E50D000023007C3A
:1088C0001A461946FEF71CBF7FB500221423CDE9D6
:1088D0000122ADF804300B788DF808304B68039313
:1088E000CB680493007C0B7A059301A9FEF768FF1F
:1088F00007B05DF804FB1FB5003B8DF800104FF08A
:108900006401039118BF0123694601928DF8083074
:10891000FFF7DAFF05B05DF804FB007C0022FEF7EC
:10892000F7BEC9B2FFF7F9BF7FB50023CDE9013328
:108930004A6803921423CA68ADF804300B78049295
:108940000A7A0592007C8DF8083001AA1946FEF7D4
:10895000DFFE07B05DF804FB007C0022FEF7E0BEFE
:1089600008B50021007CFEF71BFFB0FA80F040093B
:1089700008BD08B50021007CFEF71AFFB0FA80F0B0
:10898000400908BD704710B51821044602F017FBD6
:10899000204610BDF0B5037D062B8DB00E4600F1CC
:1089A00004074FF0000412D000F1080515F8011D6E
:1089B0000A22304601F098FBAF42044419D0002C43
:1089C000F4D02E21304601F076FB0444EEE72F234D
:1089D0006A4639460A208DF80040FEF7F9FE6846DF
:1089E00003F031F933680246DB6869463046984740
:1089F000044620460DB0F0BD10B5054B04461122CB
:108A000040F8043B002103F0ABF8204610BD00BF46
:108A100080E50D000346074A10B543F8042B01F129
:108A2000100251F8044B43F8044B9142F9D10A78F3
:108A30001A7010BD80E50D0010B59DF8084044EA9D
:108A4000032343EA024242EA0161042341600375C1
:108A500010BD13B5CB7800938B784A780978FFF76F
:108A6000EBFF02B010BD00F11003012213F8101C3F
:108A70000129184608D153F8041C02EB4102013ABF
:108A800003F11003F2D17047022904BF53F8041C0C
:108A90005218F4E70EB4F0B588B000AF07F1340512
:108AA000102155F8042B7A6004462B467818FD6097
:108AB000FFF7F2F80F287A681AD900F1080323F0BB
:108AC00007036E46ADEB030D411C2B466846FD6067
:108AD000FFF7E2F8021E04DD236869469B68204622
:108AE0009847B5462037BD46BDE8F04003B0704713
:108AF0000028F7D0236802469B6807F11001204642
:108B00009847EFE710B5036804469B689847A36849
:108B1000013BA3602BB923682046DB68BDE8104009
:108B2000184710BD07B503688DF807109B68012230
:108B30000DF10701984703B05DF804FB38B50B68E9
:108B400003604D6843689D4204460CD015B16B68C4
:108B500001336B60606828B14368013B43600BB927
:108B6000FFF7D0FF6560204638BD0B461146002256
:108B700010B5C0E90022044683600BB9204610BD41
:108B8000FFF7DCFFFAE78368EBB11A78032A1AD8FB
:108B9000DFE802F00417021B0520704702685B68DB
:108BA0005268D05C2D2812D0A0F13003092B0ED9C9
:108BB00074280ED066280CD0A0F16E03584258419C
:108BC000704706207047002070470420704703203C
:108BD00070470220704710B50446FFF7D4FF022803
:108BE0000ED0C31EDBB2012B14D82268A3685068D4
:108BF0005B68BDE810400A220021184403F05EBF04
:108C00002268A36852685B68D05CA0F17403584284
:108C1000584110BD0020FCE738B50023C0E90033FF
:108C200004460E48C4E90203A9B10B78032B06D011
:108C30008BB9136858684B68C35C6E2B07D01368F8
:108C40004D6858688B6828445B1BA060E360114640
:108C50002046FFF773FF204638BD00BFE9E50D0051
:108C600038B500250B46C0E90055C0E90255C0E9FA
:108C70000455044611464BB11A78012A06D103F176
:108C80001002DB6882604361FFF758FF204638BD61
:108C900010B54369044663B18068E060013B103061
:108CA000A0602061636113B1FFF7DDFEA0600120C9
:108CB00000E0184610BD10B57D210446FFF732FFD5
:108CC00001232371204610BD08B50379012B02D082
:108CD000022B04D008BD2C21FFF724FFFAE73A212C
:108CE000FAE710B50446FFF7EFFF20467B21FFF7B8
:108CF00019FF00232371204610BD000013B5044660
:108D00000191FFF7E1FF2368019ADB6803492046E0
:108D1000984701232046237102B010BD6CE10D007D
:108D200013B504460191FFF7CFFF2368019ADB6872
:108D300003492046984701232046237102B010BD05
:108D40005BE30D002DE9F0410D4617462221DFF8C7
:108D5000A08004462F44FFF7E5FE2946BD422A467F
:108D600038D015F8016B222E03D05C2E01D01F2EB7
:108D7000F4D82368521A9B68204698475C21204605
:108D8000FFF7D0FE0D2E0AD8072E1CD9A6F1080336
:108D9000052B18D8DFE803F00D0F11171315222E3D
:108DA00001D05C2E0FD131462046FFF7BBFE29468D
:108DB000D4E76221F8E77421F6E76E21F4E7662133
:108DC000F2E77221F0E723683246DB68414620462D
:108DD0009847ECE78D4204D023686A1A9B682046C6
:108DE000984722212046FFF79DFEBDE8F08100BF95
:108DF0008CE50D0013B50446CDE90021FFF764FFB3
:108E00002046DDE90021FFF79DFF02232046237164
:108E100002B010BD13B50446CDE90021FFF754FFA1
:108E20002046DDE90021FFF78DFF01232046237155
:108E300002B010BD80680368DB68184770470846B9
:108E400011B10B685B6818477047704770477047EF
:108E500038B504460D4600682E2102F0BAFE23689C
:108E6000C31A2B6023B1037803B10130236820605B
:108E7000184638BD10B50C21044602F0A0F8204673
:108E800010BD10B50421044602F099F8204610BD2B
:108E900010B50421044602F092F8204610BD08B532
:108EA00002F0A1FEB0FA80F0400908BD10B50C46F2
:108EB00001F09AFE844210D001F00AFE844205D1EE
:108EC00001F006FEBDE8104001F0FFBD2CB12368A3
:108ED00020465B68BDE81040184710BD13B5044636
:108EE0000846019102F0AFFE01990246204602B009
:108EF000BDE81040FFF78EBF13B504460846019148
:108F000002F0A1FE23680199DB680246204602B008
:108F1000BDE81040184707B503688DF80710DB68F7
:108F200001220DF10701984703B05DF804FB0EB470
:108F300003B503AB002153F8042B006A019301F041
:108F4000F1F802B05DF804EB03B070472DE9F74F7C
:108F5000D0E900954FF0140808FB05F50093AB101D
:108F6000184D17465D434C46002D23DD6E1008FB5F
:108F700006F004EB000A3A46BAF804B02058019112
:108F80005F4528BF5A4602F066FE0199012378B971
:108F90005F4503D1009A13703546E5E78CBF012089
:108FA00000200028F8D0AE1B0AF11404013EF3E7BC
:108FB000C00FF6E7A4EB09040248A410604303B015
:108FC000BDE8F08FCDCCCCCC7FB50369067E019196
:108FD0000BB301B3002500F10C04039503A901A80C
:108FE000FFF736FF0146B0B10DF10B03039A8DF880
:108FF0000B502046FFF7AAFF9DF80B305BB12468A9
:10900000142303FB004000F10804B0F90630002BE4
:10901000A8BFDEB2E2E7304604B070BD10B50A4C1E
:109020002378BFF35B8FDB070BD42046FBF744F8B4
:1090300038B12046FBF745F8044A0549054801F0D8
:10904000B9FF044810BD00BFD8E50320B0E30320FA
:109050004D8E0D00C0E1032010B50A4C2378BFF3FC
:109060005B8FDB070BD42046FBF726F838B1204690
:10907000FBF727F8044A0549054801F09BFF04481F
:1090800010BD00BFDCE50320B0E303204B8E0D00D4
:10909000C4E1032038B500250446C0E90055C0E905
:1090A00004558560856140F8245FFEF779FAFFF783
:1090B000B5FFE061FFF7D0FF25732062204638BD81
:1090C00010B50B4C2378BFF35B8FDB070ED4204623
:1090D000FAF7F2FF50B10748FFF7DCFF2046FAF736
:1090E000F0FF054A0549034801F064FF014810BD3F
:1090F000D4E50320E4E50320B0E3032055950D00FB
:10910000024A034903480023FEF73ABC31940D009C
:10911000BD930D003D930D0000231A4619461846D5
:10912000FEF72EBC37B50D6951F8043B0093044699
:1091300001A8FEF72CFE6A4629462046FFF715FDDA
:1091400001A8FEF72BFE204603B030BD37B58D6871
:1091500051F8043B0093044601A8FEF718FE6A4646
:1091600029462046FFF77CFD01A8FEF717FE2046A2
:1091700003B030BD37B5CD6851F8043B00930446C9
:1091800001A8FEF704FE6A4629462046FFF744FD83
:1091900001A8FEF703FE204603B030BD70B58AB0CB
:1091A0000D46014604A8FFF7D1FF144E04A8FFF7AF
:1091B0006FFDE8B104A96846FFF7DCFF029831466D
:1091C000FFF76DFE044610B12C1E18BF012401A844
:1091D000FEF7E4FD002CE9D004A96846FFF7A2FFE2
:1091E0006846FFF7F8FC286001A8FEF7D7FDDDE729
:1091F00005A8FEF7D3FD0AB070BD00BF92E50D00D3
:1092000037B50C4620461249154602F0ECFC48B929
:1092100001F0EAFC4FF4165101F0D6FC01F0E4FC39
:1092200003B030BD0B49204602F0DDFC70B94FF4AD
:10923000165301A928460193FFF7B0FF01F048FC3F
:10924000019901F03FFC01F043FCE9E70020E7E76A
:1092500097E50D009EE50D0070B5D0E9005314268A
:10926000044606FB0356AE4205D005F10800FFF7A1
:10927000F3FF1435F7E72068FEF7EEFC204670BDDB
:1092800070B5D0E90053044605EB0316AE4204D096
:10929000284600F097FF1035F8E72068FEF7DCFC61
:1092A000204670BD10B504460C30FFF7D5FF2046B0
:1092B000FFF7E6FF204610BD10B5044B044640F80A
:1092C000043BFFF7EFFF204610BD00BF18E00D0084
:1092D00010B50446FFF7F0FF2046242101F06FFE91
:1092E000204610BD10B5034B03600446FFF7E4FFB2
:1092F000204610BD38E60D0010B50446FFF7F2FF1A
:109300002046242101F05BFE204610BD0022C0E96A
:10931000002210B582600C6804604C6844608C6860
:109320000A604A6084608A6010BD10B50368044614
:109330001868FEF74DF9204610BD00002DE9F04FEA
:1093400087B0804603931C4B5B68C3F308038946D0
:1093500016466BB9FFF7B4FE044600F12403406AD9
:109360000593FEF72DF9237B2BB105A8FFF7DDFF51
:1093700007B0BDE8F08F01232373D4E900535FFAEF
:1093800089F905EB830AAA4512D055F8047B3146CA
:10939000381DFFF719FE8145F5D33B68039A00920B
:1093A000D3F808B04A46334641463846D847EAE73C
:1093B00000232373D9E700BF00ED00E02DE9F74F4C
:1093C0009B461A4B5B68C3F30803804689461646E2
:1093D0006BB9FFF775FE044600F12403406A019360
:1093E000FEF7EEF8237B2BB101A8FFF79EFF03B039
:1093F000BDE8F08F01232373D4E90053F6B205EBE7
:10940000830A55450ED055F8047B5946381DFFF7A1
:10941000DBFD8642F5D33B684A46DB684146384669
:109420009847EEE700232373DEE700BF00ED00E07E
:109430002DE9F341164B5B68C3F3080305460F465D
:109440001BBBFFF73DFE00F124030446406A019375
:10945000FEF7B6F8D4E90063462406EB8308B0456E
:1094600009D101A8FFF761FFA542B4BF0020012088
:1094700002B0BDE8F08156F8040B39460430FFF71E
:10948000A3FD8442A8BF0446E9E70020F0E700BF3F
:1094900000ED00E070B50446D0E900020B4600EB99
:1094A0008202824207D001461D6851F8046BAE4229
:1094B00003D00846F5E7002070BD521A02F036FBD3
:1094C0006368013B63600120F6E71FB500F12403E8
:1094D0000446406A01910393FEF772F801A9204601
:1094E000FFF7D8FF18B163680BB9FFF715FE03A8A3
:1094F000FFF71BFF04B010BD70B5D0E90456182368
:10950000044603FB0656AE4215D005F11001204675
:10951000FFF7C0FF63680BB9FFF7FEFDE06929693B
:109520000368DB689847696919B1206A0368DB68DA
:1095300098471835E7E7D4E90453182606FB035685
:10954000AE4204D0284600F03DFE1835F8E700236F
:10955000636170BD73B50446FFF7DEFD04F12403BB
:10956000606A0193FEF72CF82046FFF7C5FF01A8BB
:10957000FFF7DBFE606A08B1FEF71AF8D4E904537E
:10958000182606FB0356AE4204D0284600F01AFE09
:109590001835F8E72069FEF75FFB2068FEF75CFBF3
:1095A000204602B070BD8842F8B506460C46154606
:1095B00027D9904226D2A2F114056C1AA1F1140702
:1095C00004440026AF423DD0A4B12B682360AB8891
:1095D000A380B5F90630E380C4E902662661AB6872
:1095E000A360AE60E368EA68E260EB6023692A6921
:1095F00022612B6105F10800FFF72EFE143D143C9B
:10960000E0E71FD00027AC421CD0A6B1236833602E
:10961000A388B380B4F90630F380C6E902773761D6
:10962000A368B360A760F368E268F260E36033693F
:1096300022693261236104F10800FFF70DFE143442
:109640001436E0E7F8BDF8B5D0E901539D42044671
:109650000E4617460DDB0135002D006804DDA9001C
:10966000FEF702FB18B9F8BDFEF7F6FA00202060FD
:10967000A5602568626805EB86019200A2EB860270
:10968000081D02F053FA45F82670636801336360E1
:109690000120E8E737B500F124030446406A01934E
:1096A0000D46FDF78DFFD4E9003103EB81008342C5
:1096B0001A460BD01268AA4203F10403F7D101A89D
:1096C000FFF733FE0025284603B030BD2A4620466A
:1096D000FFF7B9FF05460028F1D06368012B01D1DF
:1096E000FFF70EFD01A8FFF720FEECE78842F8B572
:1096F00004460D46164614D9904213D2A2F1100624
:10970000751AA1F110072C44B74218D01CB131468C
:10971000204600F0D3FD304600F054FD103E103CD2
:10972000F2E70CD0B5420AD01CB12946204600F021
:10973000C5FD284600F046FD10351034F2E7F8BDAF
:1097400070B50E1E054611DD3001FEF77DFA0446A8
:1097500058B1D5E9001201EB0212FFF7C7FF2868E4
:10976000FEF77AFA2C60AE60012070BD0024F6E7A7
:109770002DE9F04F914697B000230391D9F80410DA
:109780000C9346229942C0E90033C0E90233C0E994
:109790000433CDE90A330446027623DCD9E90057C5
:1097A000142303FB0757AF423BD029460DA800F016
:1097B00085FD0DA911A80B9E00F080FDDDE90B13BE
:1097C00099421BDA0A9B0B9A03EB061603EB021273
:1097D000314606F11000FFF789FFEEB90B9B01330C
:1097E0000B9311E00AA8FFF7ABFF0028D6D10AA817
:1097F000FFF746FD204617B0BDE8F08F01310AA8FB
:10980000FFF79EFF0028DDD111A800F0DBFC0DA8BA
:1098100000F0D8FC1435C6E711A9304600F04EFD23
:10982000DCE70026CDE90D660F9637464FF0140AA7
:10983000DDE90A239E4280F297803301D3580893D2
:109840000BB90136F4E70AFB06F3099702930DAD55
:1098500009A908A8FFF7FCFA83460028F1D00146C1
:10986000099A8DF81F700DF11F032846FFF76EFB54
:109870009DF81F800190B8F1000F66D1BDF824302B
:10988000ADF84830CDE913884FF6FF73CDF844B0FA
:10989000ADF84A30CDF85480D5E9013293421ADB55
:1098A00003F1010BBBF1000F4ADD0AFB0BF0FEF7E1
:1098B000CBF90490002845D0D5E900120AFB02122A
:1098C000FFF771FE049B28680493FEF7C5F9049B1B
:1098D0002B60C5F808B0019BD5F800B06A680AFB98
:1098E00003F30BEB030101F114000AFB02B2049134
:1098F0000593FFF758FE0499A9B1059B119A4BF8FF
:109900000320BDF848308B80BDF94A30CB80C1E9D7
:1099100002770F61139B8B60149B1397CB60159B91
:1099200014970B6115976B6801336B6013A8FFF7F1
:1099300093FCB8F1000F08D00DA8FFF78DFC56E797
:109940004346C0E74FF00108F0E7019B2D680AFB92
:109950000355089B1B782BB9D9F80030029A1344A1
:109960001B7CEB80083573E72168226062686360C6
:10997000A3680B920C9A0C93E368A2600D9A0D9366
:109980002369E2600E9A0E93636922610F9A0F9326
:10999000039B0A9162612376CEE700007FB50546FE
:1099A000094B45F8043B04460E4601A81146FCF756
:1099B0003EF901AA31462846FFF7DAFE01A8FCF776
:1099C000F5F8204604B070BD18E00D00F0B50F4664
:1099D00087B026490C9C384616461D4602F003F90E
:1099E00000BBE4B129466846FFF790FC20492420DB
:1099F00001F0E7FA054670B1694603A8FCF717F9CC
:109A000003AA31462846FFF7C9FF03A8FCF7CEF8A2
:109A1000184B2C622B606846FCF7C8F82C46204691
:109A200007B0F0BD1449384602F0DDF8E0B9002C6B
:109A3000F5D029466846FFF769FC0D49242001F05E
:109A4000C0FA05460028E6D0694603A8FCF7EFF8FF
:109A500003AA31462846FFF7A1FF03A8FCF7A6F8A2
:109A6000064B2B602C62D6E70024D8E7A6E50D0054
:109A70006CE70D0038E60D00AAE50D0020E60D00AC
:109A8000014B024A1A607047E0E50320BBE50D0078
:109A90002DE9F047089DD0F8209004460E46174661
:109AA000984601F0A1F881454CD02B79190704D5CF
:109AB0006A6954492046FFF73AFAB8F1000F0DD011
:109AC0005B212046FFF727FA41462046FFF714FAAC
:109AD00023684D49DB680222204698472B79DA0734
