:02000002D0002C
:1040000000400D0004F70D00000006000D00050142
:08401000040135080000000066
:0440180018DB0D00A4
:1040200009480A49884208B505D0094A824202D0A7
:10403000121A07F09BFD0748074A0021121A07F0E1
:10404000BDFD014808BD00BFE8E00320F4F30D000A
:10405000CCE30320D0E30320F8E7032070B5074E3C
:10406000074C06F079FEA41BA4080025A54200D148
:1040700070BD56F8043B98470135F7E7B4EB0D00E7
:10408000E4EB0D0001F028B808B501F033FABDE803
:10409000084006F023BE03F021BE03F01FBE03F06C
:1040A00025BE000008B5034A00210C2003F092FC55
:1040B000FEE700BFD5760D000078B0FA80F0400929
:1040C00070470123037070477047006A0368DB681C
:1040D00018470000014B1A60704700BF20E1032021
:1040E000024A01239371024A1370704748E5032086
:1040F00078E5032003681847012A03D0022A03D079
:10410000002070470160FBE70B680360F8E70000E0
:1041100010B5054B1A7B054B044653F8221006F0E8
:10412000CAF8204610BD00BF48E50320E8E00320A0
:1041300038B50446006928B185680C2106F06DFF8A
:104140002846F8E7204638BD08B5044906F009F9C5
:1041500018B1034B03221A70012008BD70DB0D005B
:104160003CE50320436913B183690C30184770475D
:1041700010B5034B0360044602F064FF204610BDF7
:1041800098E00D0010B50446FFF7F2FF20463821F5
:1041900006F043FF204610BD10B5034B03600446F4
:1041A00002F05EFD204610BD7CE00D0010B5044617
:1041B000FFF7F2FF2046102106F02FFF204610BD2A
:1041C00013B500210446084603F0F4F90023204605
:1041D00001A9019303F006FA019C0CB1012323719C
:1041E0000021012003F0E6F92CB1236820469B68EA
:1041F00098470023237102B010BD000008B508499C
:1042000006F0AFF8002350B1064A1361064A136165
:10421000064A1370064B01201870064B187008BD33
:1042200070DB0D0048E5032080E40320ABE40320AD
:10423000A0E4032078E5032008B5002003F0C6FCC5
:1042400028B103F09BFC80F00100C0B208BD012042
:10425000FCE70023042203F071BC000030B585B0F8
:104260000346144668460D4698470298206003F0BE
:1042700035FD286050B12268009907F077FC0024D2
:10428000684605F0CDFF204605B030BD004CF7E78D
:10429000FCFEFFFF0A4B10B50446036004F03EFF2E
:1042A000214605F040F906F0CDFC06F0BFFC2046A3
:1042B000044B40F8043B05F023F8204610BD00BF36
:1042C00064E00D004CE00D0010B50446FFF7E2FF7E
:1042D0002046242106F0A1FE204610BD10B504465C
:1042E000006808B103F002FD204610BD00234068BD
:1042F0001A46194603F0BABC10B58368044613B1D8
:10430000032201469847204610BD000037B5134BE5
:10431000036004468068C8B100256FF00043CDE912
:10432000003502212B462A4603F064F9A06829468D
:1043300003F0A8F9237903F0FF0513B103F032F974
:10434000F8E7A068294603F045F9A56004F10C00E0
:10435000FFF7D2FF204603B030BD00BF38E00D00AC
:1043600010B50446FFF7D2FF20461C2106F055FE8B
:10437000204610BD38B5044620252A46002107F006
:104380001DFC6571204638BDF8B5037D05460F4616
:1043900016468BB10368DB6883B19A88012A06D080
:1043A0009B68F9E79B684BB19A88012AFAD12BB137
:1043B0009A89BA42F6D19E732846F8BD0A49102060
:1043C00006F02DFE044668B11022002107F0F6FB2E
:1043D000064B23600123A3802B69A360A781A673EA
:1043E0002C61E9E72875E7E7E4E80D001000030019
:1043F00070B5037D05460E46CBB10368DB6823B17B
:104400009A88042A17D09B68F9E70C49102006F017
:1044100006FE044668B11022002107F0CFFB084BCE
:1044200023600423A3802B692C61C4E9023628464B
:1044300070BD2875FBE7DE60F9E700BFE4E80D001A
:10444000100003000246014803F070BE01810D0018
:104450000EB410B58DB00FAA016852F8044B039248
:1044600000232020CDE90403CDE900421E2004AA48
:1044700003F0C0FA0DB0BDE8104003B070470EB4B1
:1044800010B58DB00FAA016852F8044B03920023B7
:104490002020CDE90403CDE90042322004AA03F034
:1044A000A9FA0DB0BDE8104003B0704737B50468F5
:1044B0009DF818508DF800308DF80450E4683C23C6
:1044C000A04703B030BD000030B50B781C4D93B051
:1044D0000C4693B91B4902A807F0BDFB2B7953B1D9
:1044E000194B1A491B788DF80030194B19481B7865
:1044F00002AAFFF7DBFF13B030BD084607F012FB3E
:10450000C8280DD1144902A807F0A5FB06F05FFAF0
:10451000124B286201221A70114B00221A70DDE73B
:10452000204607F0FFFAC928ECD0204607F0FAFA37
:104530000C4A0346402102A803F0F0FBCEE700BF7F
:1045400048E50320A5DB0D0026E40320DCDB0D009D
:1045500025E4032000E50320ADDB0D0078E5032012
:10456000ABE40320BFDB0D0007B50B4905F0F9FEF6
:1045700070B100238DF80030084B094A1B780949B7
:104580000948FFF793FF09480A2102F073F8012058
:1045900003B05DF804FB00BF70DB0D0025E40320D1
:1045A000E9DB0D00E3DF0D0000E503202CE4032030
:1045B00037B51949054605F0D4FE0446B0B1174B8E
:1045C000174A01241C71DB78147013B9012003B061
:1045D00030BD144B144A1B788DF80030134B1B78F8
:1045E00013491448FFF762FF2046F0E712492846B6
:1045F00005F0B7FE0028EAD0084B094A1C71DB78A9
:1046000001241470002BE1D0064B0C4A1B788DF866
:104610000030064B1B78E3E770DB0D0048E5032014
:1046200078E5032026E4032001DC0D0025E40320C7
:104630005CDD0D0000E5032068DD0D0012DC0D00DF
:1046400000B50C4B0C4A1B7FC3B04FF4807102A81D
:1046500003F064FB094B0A491B788DF80030094BC5
:1046600009481B7802AAFFF721FF012043B05DF83B
:1046700004FB00BF48E5032027DC0D0026E40320EF
:1046800036DE0D0025E4032000E5032013B525499F
:10469000044605F066FE20B32249204605F061FE7F
:1046A00038BB2149204605F05CFE002836D01F4C5F
:1046B000E27812B91E4B01221A701E4B1E4A1B785B
:1046C0008DF800301D4B1E491B781E48FFF7EEFE8B
:1046D0004FF47A7003F076FB00231B49A37110227C
:1046E00019E01149204605F03CFE0028D4D102B063
:1046F00010BD0E4CE27852B10E4B144A1B788DF867
:1047000000300E4B0E491B780E48FFF7CFFE0123F9
:104710000F49A37110220F4807F0DDFA0E4B01205C
:104720001870E4E770DB0D0068DD0D0048E503203C
:10473000FDE4032026E403204ADC0D0025E40320E9
:104740005CDD0D0000E503205CDC0D003BDC0D00B2
:1047500060DC0D00ECE4032078E503207FB5006801
:1047600003A908F007F9B5EEC00AF1EE10FA2AD451
:10477000DFED167AB4EEE70AF1EE10FACCBF0126AF
:10478000002620DC124B134D01241C7010EE100A81
:1047900085ED0B0A06F0AEFD0F4ACDE900010F488A
:1047A000082103F0BBFA2B7953B1EB7843B10C4BE2
:1047B0008DF800601B78094A0A490B48FFF776FE1E
:1047C000204604B070BD0024FAE700BF0000C842D4
:1047D00078E5032048E503206ADC0D0079E5032035
:1047E00025E40320E5DE0D0000E5032000B5C9B097
:1047F00006F0EDF8154A0790118D154B06911969D1
:10480000059111690491D9680391107B114951F800
:1048100020100291926801929A6800925B680E4A99
:104820004FF4807108A803F079FA0C4B0C491B78FF
:104830008DF800300B4B0C481B7808AAFFF736FEAA
:104840000A4B01221A7049B05DF804FB48E50320C9
:1048500080E40320E8E0032073DC0D0026E403205D
:10486000F9DC0D0025E4032000E50320ABE4032080
:1048700013B5012101A805F07CFB0B4BDB68243B41
:10488000402B01A84FF001040AD905F005FC074BA5
:104890001C73002401A805F07BFB204602B010BD6C
:1048A00005F0E3FBF6E700BF80E4032048E50320C2
:1048B00030B5194D0FCD99B004AC0FC40FCD0FC456
:1048C00095E8030084E8030014490EA803F0E2FA17
:1048D0000EA803F032FB04460EA803F037FB0EA827
:1048E00010EE105A03F062FB18AB10EE100A03EB47
:1048F000840406F0FFFCCDE90201284606F0FAFC2C
:10490000CDE90001064A54F8503C0648402103F026
:1049100005FA19B030BD00BFB8E00D009CE50320DA
:1049200016DD0D00D4E3032008B50F2006F0D9FAF8
:10493000B0F5C87F05DA322003F044FA0F2006F004
:10494000D0FA06F0C5FC20A3D3E9002306F02AFD27
:1049500007F020F8DFED147A07EE100A67EE277AE9
:1049600017EE900A06F0C6FC104B002206F062FB20
:104970000F4B002206F016FD06F0C4FF06F0A8FC5F
:104980000C4B002206F00EFD0B4B002206F034FE0D
:104990000A4B002206F050FB06F0B4FF084BD8602B
:1049A000084B01221A7008BD000080390000E03F6A
:1049B0000000594000002240000014400000404028
:1049C00080E40320A0E403206666666666660A400B
:1049D00000B591B06846FFF7CDFC08A8FFF7CAFC08
:1049E000002108A803F08CF8134B5979A1B141F2CA
:1049F000D833ADF80630114B029341F27003ADF895
:104A00000C30009B43F4007300930021684603F0D0
:104A100077F811B05DF804FB41F27003ADF8063091
:104A2000074B029341F21003ADF80C30009B43F4A6
:104A300000730093EAE700BF48E503208403000405
:104A40008403840337B51B49054605F08AFC0446F8
:104A5000C0B1194D01246C71FFF7BAFF174B1C70E0
:104A6000EB7813B9012003B030BD154B154A1B7804
:104A70008DF80030144B1B7814491548FFF716FDCC
:104A80002046F0E71349284605F06BFC0028EAD0E1
:104A9000094D0A4B6C7101241C70FFF799FFEB78EC
:104AA000002BDFD0064B0C4A1B788DF80030064BEC
:104AB0001B78E1E770DB0D0048E5032078E5032073
:104AC00026E403202FDD0D0025E403205CDD0D002E
:104AD00000E5032068DD0D0046DD0D00244B1A695A
:104AE000D3ED057AFF2ABAEE087A88BF0022F4EEE9
:104AF000C77A88BF1A61F1EE10FA06D4B2EE087ACE
:104B0000F4EEC77AF1EE10FA01DD1A4A5A61D3EDDC
:104B1000067AF5EEC07AF1EE10FA06D4B0EE007A1D
:104B2000F4EEC77AF1EE10FA02DD4FF07E529A6190
:104B30001A7F0C2A84BF00221A775A7F0C3A0C2A5B
:104B400084BF18225A770C4A11681A8D8A4284BF92
:104B500000221A8501225A71084B188B81423FBFEF
:104B600000211983064B1A70064B01221A707047F8
:104B700048E503200000A0C00CE1032080E40320EE
:104B8000A0E4032078E5032010B50E4CA38BB3F509
:104B9000C05F09D10C490D4807F05DF8BDE8104031
:104BA00009490B4807F057B8237F0A4A07480821EC
:104BB00003F0B4F8637F074A0548BDE810400821B8
:104BC00003F0ACB848E5032061DD0D0016E10320D9
:104BD00004E1032064DD0D0013B50A22006801A979
:104BE00007F09CFF17280CD8074C2077FFF7CCFF65
:104BF000064B01201870E3780BB1FFF721FD02B0DE
:104C000010BD0020FBE700BF48E5032078E5032046
:104C100030B5C5B000680A2203A907F07FFF182845
:104C20001CD8104D6877FFF7AFFF0F4B0F4A0124D8
:104C30001C704FF480716B7F04A803F06FF8EB7861
:104C400053B10B4B0B491B788DF800300A4B0B48C6
:104C50001B7804AAFFF72AFC204600E0002045B09C
:104C600030BD00BF48E5032078E503206ADD0D0074
:104C700026E4032036DE0D0025E4032000E50320B2
:104C80002DE9F04385B0002401A8CDE90144ADF839
:104C90000C4003F05CFA204602F034FD43F69728FE
:104CA00005464FF00009002002F02CFD461B61EB89
:104CB0000407B94508BFB04505D302F05FFF10B146
:104CC00002F04CFFEFE70A4C02F058FF6068002248
:104CD000022102F0B3FF2046FFF708FB054B00223C
:104CE000DA70054B0120187005B0BDE8F08300BFF5
:104CF0009CE5032048E5032078E5032008B505F08E
:104D000066FE074B0749186000221A611A830A6180
:104D10006422DA61044A01231370044A137008BD47
:104D200080E4032048E50320A0E4032078E5032085
:104D300030B5154C154D2278154902EB02132A782F
:104D40008DB002EB02120A440B4400922821114A52
:104D500002A802F0E3FF2B7823700F4B1A798AB177
:104D6000DB7853B10D4B0E491B788DF800300D4B9D
:104D70000D481B7802AAFFF799FB05F063FF02A913
:104D800005F0D6F90DB030BDFCE403203CE503206E
:104D900024E1032081DD0D0048E5032026E4032003
:104DA0008FDD0D0025E4032000E503207FB50023FF
:104DB00001A8CDE90133ADF80C3003F0C8F902F0D9
:104DC00091FC0F4D044643F69726EB7843B102F071
:104DD00089FC001BB04203D8642002F0F3FFF4E723
:104DE0000848FFF783FA4FF47A7002F0EBFF064BA6
:104DF0000A221B68012101A805F0D4FB04B070BD94
:104E000048E503209CE5032020E403202DE9F0473A
:104E1000234B244C1B78244A2449254886B000257E
:104E20008DF80030234B1B78FFF740FB257102F013
:104E3000A5FE10B1284602F0C1FE002002F062FC7F
:104E40004FF0000A054647F22F584FF000090020A6
:104E500002F058FC461B61EB0A07B94508BFB04594
:104E600005D3FFF7E9F910B902F078FEEFE7FFF795
:104E7000E3F9637913B9A368462B09DC0E4902A84C
:104E800005F019FA02A8FFF701FC02A805F0C8F91D
:104E9000FFF734FF094B01221A7006B0BDE8F08716
:104EA00026E4032048E50320A0DD0D00A8DD0D0069
:104EB00000E5032025E4032070DB0D0078E50320E6
:104EC00030B585B00D4600226946009202F0AAFD79
:104ED000B0B9009C0CB1236923B90A4A00210A2009
:104EE00002F078FD0023ADF806300C23ADF8043055
:104EF000042303930295236901AA012120469847C0
:104F000005B030BDD5760D0030B52D4B00228BB0ED
:104F10005868114602F09AFE08B1FFF7C9FCFFF786
:104F200003FD02A90720FFF7CBFF264C264D0028E2
:104F3000A8BF02982073FFF79BFC10B92B690133BF
:104F40002B6102A90320FFF7BBFF002834D1BDF875
:104F5000083007EE903AFBEECC7AFDEEE77A17EEDA
:104F6000903A402BC4ED027A09DC237B012B06D159
:104F700002A8FFF7FFF9002102A802F0C1FDA36813
:104F8000EA699342B8BFEB611D2BCCBF002301231C
:104F90001320E37105F0A5FF642300930023194655
:104FA00040F68A6202F002FF084A6860012313702B
:104FB000074A13700BB030BDFFEE007ACDE700BF9B
:104FC0009CE5032048E5032080E4032078E50320E6
:104FD000A0E4032038B5046805467CB16368013B52
:104FE00063605BB9236820469B689847A368013BD0
:104FF000A3601BB923682046DB689847284638BD64
:1050000070B5D0E900531426044606FB0356AE42A1
:1050100004D0284605F004F91435F8E7206802F0BA
:1050200065FE204670BD38B503681446DD68302340
:10503000A847204638BD000070B51B4B1B4C012211
:105040001A70E37886B053B1194B1A4A1B788DF861
:105050000030194B19491B781948FFF727FA1949ED
:105060001948FFF7F5F9002518492571012602A80E
:105070002670A570E57105F01EF902A8FFF706FB82
:1050800002A805F0CDF8124B63614FF07E53A36187
:10509000064A1048667141F206533146A3832585BE
:1050A000FFF7C1FF06B070BDFDE4032048E5032013
:1050B00026E40320B6DD0D0025E403205CDD0D00B1
:1050C00000E50320CEDD0D00E0E5032070DB0D00E0
:1050D0000000A0C0ACE403202DE9F0410021AAB0FB
:1050E000082005F0C1FE0021042005F0BDFE0121CD
:1050F000072005F0B9FE0121072005F0C6FE06A82D
:10510000002402F043FD00237D220AA906A805F031
:105110003AF9B749DFF8D883B64DB74F2346224650
:10512000CDE900440AA802F041FD23460222B3491A
:10513000B34802F003FDB349B348FFF78AF8B34917
:10514000B3482346022202F0F9FC23460222B14969
:10515000B14802F0F3FCB149B148FFF77AF82346B1
:105160000222B049B04802F0E9FCB049B048FFF76C
:1051700070F8B049B048FFF76CF8B049B048FFF795
:1051800068F823460222AF49AF4802F0D7FCAF4986
:10519000AF48FFF75EF80C23CDE90344ADF80C30BF
:1051A000AC4BAD490593042203ABAC4802F0C6FCFE
:1051B000AB49AC48FFF74DF8AB49AC48FFF742F9B3
:1051C000AB49AC48FFF73EF9AB49AC48FFF73AF9B9
:1051D000AB49AC48FFF736F9AB49AC48FFF732F9B9
:1051E000AB49AC48FFF72EF9AB49AC48FFF72AF9B9
:1051F000AB49AC48FFF726F9AB49AC48FFF722F9B9
:10520000AB49AC48FFF71EF9AB49AC48FFF71AF9B8
:105210000126032241F2883303A8CDE90323ADF828
:10522000146002F0AEFFA64801F030FD2146A4480C
:1052300033460DF10B0201F06BFD9DF80B10B142EE
:1052400000F0B8809E4801F02BFD9E4A9C48042344
:10525000214601F0A8FD334699480DF10B02214685
:1052600001F056FD9DF80B30B34200F0A0803E7077
:10527000954CFFF733FCFFF787FC944A002300218D
:105280004FF4802002F0F8FB0823012120466381BF
:1052900001F0AEFB01231A461021204601F013F95C
:1052A0007C21A870204601F08BF895ED060A05F0E8
:1052B00045FA00F0BDFE002800F0888005F05CFA99
:1052C00095ED050A05F01AFA05F0BAFB044605F05B
:1052D0007EFB201A05F0FCFF43A3D3E9002306F070
:1052E0008BF97B4ACDE900010A21584802F016FDEE
:1052F000E86A05F0FFFF774ACDE900015848082128
:1053000002F00CFDAB791022002B62D072494748A5
:1053100006F0E1FC0022114603A8039202F0C2F954
:10532000039B142B4FF0000255D12B6901332B61E5
:105330006A4B01221A70FFF74BFB042005F0BEFDFB
:1053400008B9FFF779FE05F05FFB00210446D8F8A5
:10535000000005F0B7F9844201D0FFF7CFFC05F05B
:1053600047FB2B7F984212DB05F042FB6B7F984294
:105370000DDAEB7833B102F001FC18B9584BE87044
:1053800001221A70FFF7C0FD564B574A1A603B784E
:105390000BB902233B700021072005F076FD0123A5
:1053A00006A82B7104F03CFF2AB0BDE8F081FFF79E
:1053B00043FE5DE72A463023414801F0A9FC202343
:1053C000424650213E4801F0A3FC51E705F0E0F9C8
:1053D00076E746499BE7114603A8039202F062F97B
:1053E000039B8C2BA7D1A0E7000000000020AC405D
:1053F000C9440D0048E503203CE5032084E4032074
:10540000E6DD0D00D4E30320F3DD0D0058E50320B5
:10541000FADD0D008CE4032005DE0D0010E1032011
:1054200011DE0D0050E5032019DE0D00ECE4032031
:1054300024DE0D0016E10320CADE0D0004E1032086
:1054400031DE0D0090E403203BDE0D00A1E40320DB
:1054500042DE0D005D420D0011410D004DDE0D00DC
:1054600079E503205CDE0D00FD410D0068DE0D00D6
:1054700069450D0074DE0D0049410D007EDE0D0012
:105480008D460D0086DE0D00454A0D0093DE0D00B1
:10549000B1450D009EDE0D00095F0D00ABDE0D0075
:1054A00071600D00B8DE0D00D94B0D00C6DE0D0099
:1054B000114C0D00D3DE0D005D470D00DDDE0D004B
:1054C000ACE40320E0E00D002CE40320D5400D0007
:1054D000EFDE0D006ADC0D0060DC0D0078E50320D6
:1054E000FDE4032040E50320905F01005CDC0D003B
:1054F00080E403202DE9F043A14CA24F2378A24E73
:10550000013B97B0082B00F2AA80DFE813F083027A
:105510000900C401F601650131025C02E1004000AE
:105520009A4B1B78022B01D0FFF702FC984DAB7908
:105530006BB102F0D7F8974B1B68C01A964B1B68EB
:10554000984204D9954B9B680BB90823237005F04A
:105550004FFA934B80460021186805F0ABF8804560
:105560001CBF0323237005F043FA6B7F984208DBCE
:10557000092323708B4B1B78002B70D005232370DD
:105580006DE005F035FA2B7F9842F1DBF2E77F4BB7
:105590001B78092B01D0FFF7CBFB7D4BDA789846BF
:1055A0000AB1FFF76DFB00217F4800F009FF05F00D
:1055B0000EFA4FF4616590FBF5F303FB15057B4B89
:1055C000C5F561651A7DB5F5616FA8BF4FF46165DA
:1055D0000AB102221A72002204217448FEF7D4FE96
:1055E0004FF47A716943FEF703FF704903A804F092
:1055F00075FF4FF0FF316C4800F0E2FE6C4803F09D
:1056000029F96B4803F01DF9039B9BB19A88012A85
:1056100010D19B89042B0DD1664906A804F04BFEDE
:1056200006A8FFF733F806A804F0FAFD4FF4C053BC
:10563000A8F81C3005F0DCF998F81D30984208DA1B
:1056400005F0D6F998F81C30984202DB524B5A4AC2
:105650001A6002232370039808B102F047FB5248F6
:1056600001F0A6FA3B7833B1494A54480121FFF7CB
:10567000DAFC00233B7033783BB12023474A4F4884
:10568000502101F090FB002333704D4B1B68002B21
:105690001BDB4C4A402106A802F040FB06A94A4801
:1056A000FEF7D6FE642002F08DFB00238DF800305B
:1056B000464B47491B78474806AAFEF7F7FE4FF4CA
:1056C000FA6002F07FFB04F005FF17B0BDE8F0833D
:1056D0002E4B1B78082B01D0FFF72AFB2C4BDB78D5
:1056E0000BB1FFF7CDFA2C4B2F484FF47A72002103
:1056F0001A6000F065FE05F06AF94FF4616590FBF1
:10570000F5F303FB1505294BC5F561651A7DB5F564
:10571000616FA8BF4FF461650AB102221A720022BC
:1057200004212248FEF730FE4FF47A716943FEF7F8
:105730005FFE1E4903A804F0D1FE4FF0FF311A4866
:1057400000F03EFE1A4803F085F8194803F079F896
:10575000039B002B3FF47DAF9A88012A7FF479AF39
:105760009B89042B7FF475AF124906A804F0A3FDB2
:1057700006A8FEF78BFF06A804F052FD69E700BFFC
:105780003CE5032078E50320A0E40320FCE40320AB
:1057900048E5032044E5032040E5032080E403209E
:1057A000C4E40320FDE403202CE4032068E4032088
:1057B000BCE4032068DD0D00905F0100ACE4032031
:1057C00020E103200AE00D00E0E5032025E40320AA
:1057D00029E00D0000E50320A54B1B78052B13D015
:1057E000DA1E53425341A34A1370FFF7A1FA05F0A2
:1057F000EEF8A14B1860A148002340681A461946EC
:1058000002F02CFA02F0B2F902F0B8F99C4DDFF880
:1058100094828146002845D0002388F80030012377
:10582000EB7005F0D4F8974968629748FEF710FED0
:1058300098F80030002B2ED105F0C9F88E4B934A12
:105840001B68118BC01A924B1B6880B29842288546
:1058500088BF2B852B8D994238BF138320218D4A19
:1058600006A802F05BFA884806A9FEF7F1FD2B793D
:105870004BB100238DF80030874B88491B7888484E
:1058800006AAFEF713FE01233B703370794B1B7899
:1058900023B3032323707A4BDA780ABB814B0122AE
:1058A0001A706BE605F093F8734B794A1B6812681F
:1058B000C31A9342BCD988F8009005F088F86B6A47
:1058C000C01AB0F5E15F05D90123237001F00AFF8A
:1058D000754B186000237549EB70A6E70223D9E7E2
:1058E0001B7933B1624B22781B789A4201D0FFF7C3
:1058F0001FFAFFF709FB042341E65D4B1B78042BDD
:1059000001D0FFF715FA05F073F8052812DC684995
:105910005D48FEF79DFD674B65491B788DF80030AB
:1059200006A83C23002202F03BFD07A8FFF752FB2C
:10593000062324E605F05CF80F28E8DC534B5B688F
:105940002C2BE4DC5C495048FEF782FD5B4A78234F
:10595000202106A802F0E2F94F4B59491B788DF837
:10596000003003A83C2306AA02F01AFD04A8DDE7D4
:105970003F4B1B78062B01D0FFF7DAF9404D05F0BD
:1059800026F8504BEA7818609846002A3CD005F07B
:105990002FF82B7F984213D1FFF738FA05F028F83B
:1059A0002B7F984202D108B9FEF720FF01F09AFE42
:1059B000454B186005F00BF80723C8F80000DEE53A
:1059C000FEF714FFEAE72A4B1B78072B01D0FFF7FD
:1059D000AFF93E4B1D786DB93D4B3E4A1A6001F060
:1059E00081FE3D4B186002232370284B1D6101236B
:1059F000337034E601F076FE334B1B68C01A47F271
:105A0000305398427FF62BAE01F06CFE264B1860A7
:105A10000123B4E5164B1B78012B01D0FFF788F961
:105A200001F060FE204B1B6803F5EA4330338342EC
:105A3000BFF415AE124D04F0CAFF6B6AC01AB0F580
:105A4000E15F2C464ED904F0C2FFA0F561606862A8
:105A50002A4601212148FFF7E6FA0B482049FEF7C4
:105A60000EFD642002F0AEF9FFF7A0F9F7E500BFE4
:105A7000FCE4032027E4032028E403209CE5032022
:105A800048E50320F9DE0D00E0E5032080E4032073
:105A90000CE1032033DF0D0025E4032048DF0D0077
:105AA00000E50320FDE4032038E5032015DF0D00A9
:105AB00051DF0D0024E4032071DF0D007ADF0D00BB
:105AC0008ADF0D00C4E4032084E50320ABE4032057
:105AD00040E50320905F010044E50320ACE403208F
:105AE0009DDF0D0004F073FF2B6AC01AB0F5E15F73
:105AF000EB7819D953B1254B254A1B788DF8003026
:105B0000244B25491B782548FEF7D0FC4FF4FA605A
:105B100002F058F90023236104F059FF0123A0F596
:105B2000616020623B709FE72A69032A12DC53B14F
:105B3000164B1B4A1B788DF80030164B16491B7804
:105B40001648FEF7B3FC4FF4FA6002F03BF904F09C
:105B5000C1FC84E553B10D4B0D4A1B788DF8003024
:105B60000C4B0D491B780D48FEF7A0FC4FF4FA6072
:105B700002F028F900230B4A0B4823610121FFF7AB
:105B800052FA1E21094800F075FD68E526E403205D
:105B9000CADF0D0025E40320E9DF0D0000E5032046
:105BA000EFDF0D0048E50320ACE403202CE40320E4
:105BB0008842F8B504460D46164616D9904215D2CD
:105BC000A2F11406751AA1F114072C44B7421CD097
:105BD0002CB13146204604F09FFB337C23743046C1
:105BE00004F01EFB143E143CF0E70ED0B5420CD07E
:105BF0002CB12946204604F08FFB2B7C23742846C9
:105C000004F00EFB14351434F0E7F8BD2DE9F04133
:105C10000023C0E9003383604F689F4204460E466C
:105C200023DD4FF0140808FB07F002F057F8054693
:105C3000D8B1D4E9001208FB0212FFF7B9FF2068BF
:105C400002F054F82560A760D6E9007308FB0378DA
:105C5000B84508D03946284604F078FB3B7C2B74C5
:105C600014371435F4E7736863602046BDE8F081AB
:105C7000794B2DE9F04F00241C60784B784D1C7057
:105C8000784B794E4FF0010983F80090774B08224A
:105C900091B01A7005F092F8234622460D2105F0C6
:105CA00095F805F08BF823462246022105F096F878
:105CB0006F4B2C6064221C83DA616E4BAB60AC804E
:105CC000AC71022001F0C0FE32466B49284605F057
:105CD0009FF92146484601F0D7FE4946042001F0CD
:105CE000D9FC66486649A0F809400346021D43F8FE
:105CF000092B9C70634B43603246C0E9034480F833
:105D00001490047205F084F905F032F95E4D0146F5
:105D100023464FF40052284600F0AEFF5B4B2B6049
:105D200028465B4D5B49324605F072F95A494FF4FB
:105D30000062284601F084FA584B2B6032465849DD
:105D4000284605F065F905F013F9564D014669221C
:105D5000284600F037FA2846534D5449324605F09C
:105D600057F92146284602F0DBFC324650492846C6
:105D700005F04EF9CDE90344059404F063FF4D4D61
:105D80000DF12408824603A906A8FFF73FFFAB46A2
:105D900006A94046FFF73AFF474B4BF8043B0CAFD0
:105DA00041463846FFF732FF3A464946584603F027
:105DB0000DFD3846FFF724F94046FFF721F93F4B28
:105DC0002B60C5F820A006A8FFF71AF93C4B2B6002
:105DD00004F038FF4FF4165104F024FF03F09EF94D
:105DE000294603F085FC03A8FFF70AF93246354936
:105DF000284605F00DF9344B0C93344D344B2B6091
:105E000097E8030005F10C0388E8030093E803001A
:105E100087E8030098E8030083E803002D4B6B61DB
:105E2000AB690F932C4BAB612C4A2D492C712B463F
:105E3000AC6005F10800CDE900940E9401F0C2FBBE
:105E40003846FEF759FA27493246284605F0E0F869
:105E500011B0BDE8F08F00BF20E4032024E403204C
:105E600014E4032025E40320D0E3032026E40320E8
:105E700080E403200000FFFFDD420D0068E4032002
:105E800031410D0010000300ACE403207CE00D0064
:105E900000E5032099410D0000F4032098E00D0077
:105EA00071410D002CE40320BCE4032085610D004A
:105EB00041870D00C8E403204CE00D0098E70D0079
:105EC00064E00D0095420D00E1400D004CE403201C
:105ED00038E00D00F9400D00F5400D00C1410D0006
:105EE00040771B000D430D0008B5002001F06EFE49
:105EF00028B101F043FE80F00100C0B208BD0120CE
:105F0000FCE70000000000002DE9F047C8B0804623
:105F100001F034FE10B1002001F050FE002001F02D
:105F2000F1FB4FF0000A814647F22F560027002070
:105F300001F0E8FBB0EB090461EB0A05AF4208BFD2
:105F4000A64205D3FFF7D0FF10B901F007FEEEE738
:105F5000FFF7CAFFD8F800000A2203A906F0DEFD09
:105F600000F10C03DBB2182B48D845B207EE905A6B
:105F7000274BB8EEE70A012483ED050A04F0BEFBC7
:105F8000244B1C7004F05CFD064604F020FD301A22
:105F900005F09EF91CA3D3E9002305F02DFB1E4A52
:105FA000CDE900010A211D4801F0B8FE01F0E6FD2F
:105FB00010B32B461A4A1B4D4FF48071002608A8D7
:105FC00001F0ACFE8DF8006017492B78174808AA3D
:105FD000FEF76CFA04F0FBFC0246C31704A804F0B9
:105FE000F3FB8DF800602B78049A0F490F48FEF7F9
:105FF0005DFA04A804F014F9204600E0002048B03F
:10600000BDE8F087AFF30080000000000020AC4046
:1060100048E5032078E50320EFDE0D00A1E403202E
:10602000E4E00D0088E5032036DE0D0000E50320E6
:1060300038B504F0E9FC054604F0FAFC044604F027
:10604000EFFC231F062B0ED9E31E082B0DD80138B9
:106050002D1A04D50B2C14BF0020012038BD072DAC
:1060600003DD032CF7E70120F8E70020F6E7000046
:1060700070B52DED028BC8B0054604F0A8FC0A22CD
:10608000044603A9286806F049FDC3B2022B59D87B
:1060900043B208EE103AB8EEC88AB0EE480A04F0EF
:1060A0004DFB2D4B83ED068A2C4B01221A7018EE06
:1060B000100A05F01FF92A4ACDE900014FF480715A
:1060C00008A801F02BFE04F065FC28B1FFF7B0FF33
:1060D000002834D004F050FB04F0B2FC054604F074
:1060E00076FC281A05F0F4F819A3D3E9002305F08B
:1060F00083FA1C4ACDE900010A211B4801F00EFE7B
:1061000001F03CFDC8B1194D19491A4800268DF817
:1061100000602B7808AAFEF7C9F92246E31704A805
:1061200004F052FB8DF800602B78049A1049114856
:10613000FEF7BCF904A804F073F8012003E004F0B2
:1061400027FBC9E7002048B0BDEC028B70BD00BF43
:10615000000000000020AC4048E5032078E5032063
:10616000F8E00D00EFDE0D00A1E4032088E5032038
:1061700036DE0D0000E50320014B01221A70704746
:1061800088E50320704710B52021044604F045FF40
:10619000204610BD0EB410B58DB00FAA016852F89C
:1061A000044B039200232020CDE90403CDE90042F3
:1061B000012004AA01F01EFC0DB0BDE8104003B0A0
:1061C0007047000010B50272FF2242810022C0E930
:1061D000032242610276C261024A034C1060C0E9A8
:1061E000004110BD90E5032058E30D002DE9F84370
:1061F0009DF820800446894616461F46B8F1000FD8
:1062000002D0406802F0DAFB217A606802F0B3FB4A
:106210006068036849469B6898476068002102F0FF
:10622000C9FB054600BB0123217A60683A4602F0AB
:1062300090FB8742034609D13744BE421CD06068B8
:1062400003685B69984706F8010BF6E70B490C48B1
:106250004A46FEF714F9B8F1000F02D0606802F068
:10626000B6FB2846BDE8F8830346064904484A467B
:10627000FEF705F90025EEE70125ECE709E10D0041
:106280008CE503202EE10D0007B500930123FFF7F5
:10629000ADFF03B05DF804FB73B54389FF2B0446E3
:1062A00010D0194E194D01F01DFAB0F57A7F09D2C0
:1062B000608904F003FE012804D031462846FEF729
:1062C000C7F8F0E701230DF1070228212046FFF768
:1062D000DBFF30B90D480E49FEF7BAF8002002B0D6
:1062E00070BD9DF80730182BF4D101230DF1070282
:1062F00029212046FFF7C8FF0028EBD09DF8073082
:10630000052BE7D1EBE700BF52E10D008CE5032040
:1063100067E10D0007B5134600228DF807200DF147
:106320000702FFF7B1FF9DF8070003B05DF804FB1B
:106330002DE9F0419DF8188004460F4615461E468B
:10634000B8F1000F02D0406802F038FB217A606893
:1063500002F011FB6068036839469B6898472E4439
:10636000B542606805D0036815F8011B9B68984723
:10637000F6E7012102F01EFB034670B10849094807
:106380003A46FEF77CF80025B8F1000F02D06068AD
:1063900002F01DFB2846BDE8F0810125F4E700BFAF
:1063A00074E10D008CE503201FB58DF80F200093DC
:1063B0000DF10F020123FFF7BBFF05B05DF804FBF1
:1063C000F8B50A460C4605461A491B48FEF740F840
:1063D000002CB8BFEC687CB9012322461B2128465B
:1063E000FFF7E2FF1549024606461348FFF7D2FEC3
:1063F000EC606C613046F8BD032C19DDA7101F2F2F
:10640000A8BF1F27BA0062F07C020123D2B21B2171
:106410002846FFF7C9FF3A4603460949064606489B
:10642000FFF7B8FE4FF4FA635F43EC606F61E1E79A
:106430000127E7E799E10D008CE50320A3E10D00BA
:10644000BFE10D000B4607490246086848B1002B22
:1064500008BFB2F5006F04D1C36813B10021FFF784
:10646000AFBF704790E503202DE9FF419DF82880DC
:10647000054616461F46B8F1000F04D0406801914A
:1064800002F09CFA0199019100230DF10F022846B8
:10649000FFF7FAFE044660B19DF80F3003EA0602EA
:1064A0003A43934205D0019900232846FFF77CFF29
:1064B0000446B8F1000F02D0686802F088FA20465E
:1064C00004B0BDE8F08113B514460DF10702FFF7E3
:1064D000DBFE28B19DF807301C420CBF01200020D4
:1064E00002B010BD13B514460DF10702FFF7CCFE44
:1064F00028B19DF807301C4214BF0120002002B0D3
:1065000010BD07B5D2430093D2B20023FFF7ACFF12
:1065100003B05DF804FB000037B501230DF107025D
:106520000F210446FFF7B0FE054638B91E491F4843
:10653000AD22FDF7A4FF284603B030BD9DF807301B
:1065400013F0200F4FF001030BD02022E3610F2145
:106550002046FFF7D6FF164A16491448FDF778FF84
:10656000E9E7082217212046FFF7BCFF18B10223F4
:10657000114AE361F0E79DF807301A0709D50323B4
:10658000E361082201230F212046FFF7BAFF0B4ADF
:10659000E2E75B07CFD50422E26101230F21204609
:1065A000FFF7AFFF064AD7E712E20D008CE50320A4
:1065B000E3E10D0031E20D00ECE10D00FCE10D0026
:1065C0000CE20D0007B500931346FF22FFF74CFFC6
:1065D00003B05DF804FB0000F8B50F461646012332
:1065E00000220F210546FFF7DFFE044638B94FF4BD
:1065F00025721E491E48FDF742FF2046F8BD0123C3
:10660000232218212846FFF7CFFE044610B940F296
:106610009B22EEE7FF2FA8BFFF27012FB8BF01275E
:106620000123FAB219212846FFF7BEFE044610B92D
:106630004FF42A72DDE70123082212212846FFF7D2
:10664000C1FF044610B940F2AF22D2E7002E4FF04E
:10665000010314BF8322822218212846FFF7A4FEDB
:1066600004460028C9D140F2B922C2E742E20D0037
:106670008CE503202DE9F7430A4605460F464F48AF
:106680004F49FDF7E5FE00212846FFF799FE044635
:1066900048B940F2F7124B494848FDF7F0FE204652
:1066A00003B0BDE8F08301231A4630212846FFF7E6
:1066B00089FF044610B940F20522ECE710220123BD
:1066C00011462846FFF71DFF044610B94FF4037228
:1066D000E1E70123262213212846FFF765FE044641
:1066E00010B940F21322D6E7012600963346FC2269
:1066F00011212846FFF7B8FE044610B940F21B22CC
:10670000C9E7002239462846FFF766FF044610B95C
:1067100040F22222BFE7009602237722102128466A
:10672000FFF7A2FE044610B940F22B22B3E733462E
:1067300004221C212846FFF745FF044610B940F209
:106740003222A8E700961823E32211212846FFF7FA
:106750008BFE044610B940F239229CE73346C02232
:1067600017212846FFF720FE044610B94FF4107297
:1067700091E700F0B7FFDFF85490DFF840804FF466
:106780007A7106464F4300F0ADFF801BB8420ED22F
:10679000012217212846FFF7BDFD49460246404623
:1067A000FDF756FE4FF47A7001F00CFBEBE706495B
:1067B0000248FDF764FE03F08DFE70E78CE50320D0
:1067C0006DE20D0062E20D0093E20D007EE20D002D
:1067D0002DE9F3479DF828A005460C4691461F4633
:1067E000BAF1000F02D0406802F0E8F807B3202F9A
:1067F0003E4628BF20267F2C26D83319802B01D96E
:10680000C4F18006012304223F212846FFF779FEC8
:10681000002364F07F0100934A463346C9B22846FC
:10682000FFF7E4FC804628B13444BF1BB144DDE7E8
:106830004FF00108BAF1000F02D0686802F0C7F803
:10684000404602B0BDE8F087012304223F212846DC
:10685000FFF7B8FEDCE72DE9F3479DF828A00546D1
:106860000C4691461F46BAF1000F02D0406802F074
:10687000A5F807B31F2F3E4628BF1F267F2C26D81A
:106880003319802B01D9C4F18006012304223F2152
:106890002846FFF736FE002364F07F0100934A4646
:1068A0003346C9B22846FFF743FD804628B1344439
:1068B000BF1BB144DDE74FF00108BAF1000F02D071
:1068C000686802F084F8404602B0BDE8F087012312
:1068D00004223F212846FFF775FEDCE730B585B07E
:1068E0000D68D1E9043203954D6802958D680195D4
:1068F000C96800910133044902F26C72044603F046
:106900005BFD204605B030BDA5E20D0003110A2253
:1069100000F00F0002FB0300704738B50446007812
:106920001546FFF7F3FF08606078FFF7EFFF486058
:10693000A078FFF7EBFF8860E078FFF7E7FFC8601B
:106940002079FFF7E3FF013808612DB9651D28782C
:10695000FFF7DCFF886138BD6079FFF7D7FF64304F
:10696000A51D4861F3E7000070B5012388B00D460E
:106970001A4610210446FFF7A6FDF0B108230126B0
:10698000204600960DEB03020021FFF72FFC044682
:1069900098B1324629460DF10900FFF7BEFF04A861
:1069A000FFF79CFF0848049A0849FDF751FD04A829
:1069B00003F036FC204608B070BD24220021284692
:1069C00005F0FCF80024F5E78CE50320C3E20D0098
:1069D00030B58BB00D4601A9FFF7C6FF044620B1C4
:1069E00001A801F0DBF9C5E9000120460BB030BD7C
:1069F00010B5044688B011B1406801F08DFF204603
:106A0000FFF74AFC70B32046FFF786FD01231A46C4
:106A100010212046FFF757FDD8B103F0BBFFC0B9E6
:106A200002A92046FFF7D4FFDDE9020103F0B8FE1A
:106A30000F4B10491B68009304A8DDE9022303F003
:106A400067FF0D48049A0D49FDF702FD04A803F005
:106A5000E7FB0B4A002300214FF4006001F00CF823
:106A600008B010BD07490448FDF709FDF1E700BF74
:106A7000E8E1032034E603208CE50320D1E20D0099
:106A800045640D00EEE20D000A2290FBF2F302FBDA
:106A9000130093FBF2F102FB113140EA0110C0B286
:106AA000704770B5054600680C461646FFF7ECFFC8
:106AB00020706868FFF7E8FF6070A868FFF7E4FFE0
:106AC000A070E868FFF7E0FFE07028690130FFF789
:106AD000DBFF20712EB9661DA869FFF7D5FF307066
:106AE00070BD6A69642392FBF3F003FB1020FFF78B
:106AF000CBFFA61D6071EFE7F0B587B0054602A891
:106B000016460C46FFF7EAFE1E48029A1E49FDF79C
:106B10009FFC02A803F084FB16B1686801F04EFFE9
:106B2000204601220DF1090100278DF80870FFF7BA
:106B3000B8FF01231A4610212846FFF743FD0446FB
:106B4000E8B1082300970DEB030239462846FFF70A
:106B5000EFFB044660B101231A4610212846FFF7D7
:106B6000D0FC16B1686801F032FF204607B0F0BDD6
:106B70004FF48D7205490348FDF781FCF1E74FF4AE
:106B80008F72F7E78CE5032006E30D0014E30D0098
:106B900013B504466846CDE9002304F0D5FF9DF8FF
:106BA000102001462046FFF7A7FF02B010BD0000ED
:106BB000F0B5057E89B0044675BB03F0EBFE58B313
:106BC0000026002704A92846CDE9046701F006F84D
:106BD00010B30125257603F0FAFE00950246C3178F
:106BE0002046CDE90223FFF7D3FF02A92046CDE9D5
:106BF0000267FFF7EDFE124B12491B68009304A8D1
:106C0000DDE9022303F084FE0F48049A0F49FDF7E3
:106C10001FFC04A803F004FB636973B100F062FD7C
:106C20002369C01A6369984207D300F05BFD4FF0F7
:106C3000FF3120612046FFF7C3FB09B0F0BD00BF64
:106C4000E8E1032034E603208CE503202FE30D0068
:106C5000014B024A1A6070478CE5032045E30D00A2
:106C6000704710B51021044604F0D7F9204610BD36
:106C70000368C9B29B68184730B5034DC0E90223C9
:106C8000C0E9005130BD00BF9CE30D00406801F039
:106C900043BE10B50446006801F099FE204610BDC1
:106CA0002DE9F0418AB004464068019001F086FE6B
:106CB0001E22002102A8A76804F080FF0026EFB181
:106CC00023681E2FB84628BF4FF01E08DD6802AAB1
:106CD000434631462046A847054658B90A480B495D
:106CE0003246FDF7B5FB01A8FFF7D3FF28460AB0EF
:106CF000BDE8F081A7EB08074644E0E701A8FFF7ED
:106D0000C8FF0125F2E700BFE0E5032068E30D00BE
:106D10002DE9F7430446406801900D4616461F468C
:106D200001F04CFEA7B1E168606841F0500101F04C
:106D300026FE290A6068FFF79BFF29466068FFF777
:106D400097FF6068002101F035FE48B1002400E0A3
:106D5000012401A8FFF79DFF204603B0BDE8F083A2
:106D6000202F217B6068B84628BF4FF02008012300
:106D7000424641F0500101F0ECFD04F0F9F80368DF
:106D80001B6998474045E1DB06EB080904F0F0F881
:106D900003685B69984706F8010B4E45F6D14544F8
:106DA000A7EB0807BEE72DE9F74F044640680190BE
:106DB0000E4690461D4601F001FE4FF00109B9F163
:106DC000000F2AD04DB3E168606841F0500101F036
:106DD000D6FD310A6068FFF74BFF60683146FFF768
:106DE00047FFA5F11E0A4746A6EB080B606817F897
:106DF000011B0368013D9B68984755450BEB07064F
:106E0000B84601D0002DF1D16068012101F0D2FD1A
:106E10000028D7D04FF00009D1E701A8FFF739FFCC
:106E2000484603B0BDE8F08F2DE9F0438BB00E4625
:106E300015468046406801901C4601F0BFFDAE42F9
:106E400029D2264425448CB11E2C2746D8F8003080
:106E500028BF1E27F61BD3F8089002AA3B463146EE
:106E60004046ED1BC84748B9002400E0012401A8B2
:106E7000FFF70FFF20460BB0BDE8F083D8F80030D5
:106E800002AAD3F80C9029463B464046C847002842
:106E9000EAD0E41BD7E7E9D9002CE7D0D8F80030D6
:106EA0001E2C274628BF1E27D3F8089002AA3B466F
:106EB00031464046C8470028D6D0D8F8003002AA4C
:106EC000D3F80C9029463B464046C8470028CBD013
:106ED0003E443D44E41BDFE7012A034602D1016042
:106EE00000207047022A04BFD1E90001C3E9000174
:106EF000F6E710B5012303748368044643B1C06804
:106F00009847012363740020BDE8104000F0B2BB35
:106F100000680028F5D083680BB904F084F8C368D2
:106F2000EEE710B442680346541001EB6200D2074A
:106F300048BF0A591B685DF8044B48BFD35818472F
:106F4000F7B50646002000F0B7FD012805D023491B
:106F50002348FDF794FA03B0F0BD86F8290006F146
:106F6000080000F04FFB0420FDF795F8054698B3A4
:106F70001C49142004F053F830B10023C0E9003359
:106F8000C0E90233037443742860A0B1164B17495B
:106F9000C0E902364FF40063CDE900030222144B2E
:106FA000043000F0F7FA30B92B681B7CA3B901203C
:106FB00000F088FBF8E72C6800232B6064B1276899
:106FC00037B13846FDF798F91021384604F025F816
:106FD0001421204604F021F87560BCE7B0E30D00F1
:106FE00094E50320E4E80D003B720D00D3E30D00AF
:106FF000F36E0D0047F23051084AC1600849026043
:107000000022C0E904120749C16107494260C0E992
:1070100008228161028580F82A207047B8E50D00BA
:1070200025740D00236F0D00D96E0D0010B5044BB3
:10703000044640F8103BFDF75FF9204610BD00BF45
:10704000B8E50D0010B5034B03600446FFF7EEFFF3
:10705000204610BDE0E50D0010B50446FFF7F2FF35
:107060002046382103F0D9FF204610BD806800F08B
:10707000D1BA806800F0D6BA10B504460068FFF7B0
:10708000F8FF204610BD13B504460190FFF7EEFF50
:10709000E36ADC88A4B20CB103F1080401A8FFF78D
:1070A000EBFF204602B010BD13B504460190FFF778
:1070B000DDFFE26A09480023D380E16A84F82830C2
:1070C00008316163636293880549D288FFF762F8EB
:1070D00001A8FFF7D1FF012002B010BD94E5032005
:1070E000E5E30D0013B504460190FFF7BFFFE36A27
:1070F00001A8DC88FFF7C0FF204602B010BD0000E9
:107100002DE9F047994686B090F829309DF838A0CF
:107110009DF83C8004460F46164613B903689B68E9
:107120009847394B3846002E08BF1E4604F0B9FD7B
:107130000546304604F0B5FD284400F10A05AB07CA
:107140001CBF25F0030504353346CDE90285CDE9A2
:10715000009A2E492E483A46FDF77AF9238E083BCD
:10716000AB4212D20024204606B0BDE8F087DB888F
:10717000012B47D005A8FFF77FFF236894F828105C
:107180009B69204698470028ECD020460594FFF7DD
:107190006DFFE36A218E626B1944891AA942E6D316
:1071A000D21A1C491A48FEF7F5FF636B48EA0A0831
:1071B00083F80480DD80C3F80090636B03F1080856
:1071C0003946404604F047FD404604F06AFD013070
:1071D0003146404404F03FFD636B1D44E36A656340
:1071E000DA88013292B2DA80616BE36A208E009015
:1071F000CB1A07480849FEF7CDFF012405A8FFF781
:107200003BFFB0E70024F9E761E70D0006E40D005D
:1072100094E5032047E40D0063E40D0008B504463F
:1072200000F11005A3690BB903F0FDFEE3692146E7
:107230002846984700F0B6F9F4E708B5FFF7EEFFE7
:1072400038B5034614460D46FFF7D4FE034A1A60CC
:107250000022DD621C865A63184638BDE0E50D0049
:1072600068B501F108050646284604F01AFD01300C
:107270000544284604F015FDF36A01302844C31A7A
:1072800013F003031CBFC3F10403C01868BD000062
:107290002DE9FF4704460F460390FFF7E7FEE56A36
:1072A000EB8805F10806002F34D0012B3BD931467D
:1072B0002046FFF7D5FF064631462046FFF7D0FFB0
:1072C000636BB4F8309019495B1B0193431B8046F4
:1072D00000933A46A0EB060A731B1548FEF75AFFC7
:1072E00005EB0902B2EB080203D04146304604F038
:1072F0004BFC636B0E48A3EB0A036363EA88013A15
:1073000092B2EA80616BE36ACB1A0A49FEF742FF48
:10731000012701E0002BCFD103A8FFF7ADFE3846CF
:1073200004B0BDE8F0870027F6E700BF90E40D0049
:1073300094E50320CFE40D002DE9F041C56A1D4F0F
:107340002B68BB4204461FD1AB88028E9BB293428E
:107350001AD1EA881849194892B2EE18FEF71AFFB6
:10736000E36A083363634FF00008EB88616B9BB2FC
:107370001FFA88F293420FD92046FFF771FFB042FF
:10738000606308F10108F0D92F60238EAB800023E1
:10739000EB80E36A08336363616BEA88E36A07485A
:1073A000CB1A92B20649FEF7F5FE2046BDE8F04141
:1073B000FFF7C6BD61AB9CD101E50D0094E503204C
:1073C00017E50D0010B5D1E9002386B00021044671
:1073D00004910AB9D90705D5CDE902230F4B0593CE
:1073E0000F4B049302AB93E803006A4682E8030064
:1073F00094E8030083E8030092E80300049A84E819
:107400000300A168A260059A04911846E168E26051
:107410000591FCF771FF204606B010BD236F0D00EB
:10742000D96E0D0007B5054B009369460023103057
:107430000193FFF7C7FF03B05DF804FB6D740D0007
:1074400013B5044600F04EF9636AC01AE368984227
:1074500008D3054B00936946002304F11000019303
:10746000FFF7B0FF02B010BD6D740D002DE9F041C3
:1074700090F82A3086B00446002B40D100F07EFB05
:1074800000283CD000F02EF9636AC01A40F2F133B4
:10749000984234D9236820465B699847054670B303
:1074A00000F10807012384F82830384604F0F9FB7E
:1074B00095F80480CDF8048001302B6827490093AB
:1074C0003E18334626483A46FCF7C2FF2B688DF833
:1074D00000803246394602A800F062FF029D6B78B8
:1074E00083B9012000F06EFC94F82830002BF5D110
:1074F0001C491B48FCF7ACFF03A8FDF76BFD06B069
:10750000BDE8F081002000F0C7FA20B16B7813B914
:1075100000F024FBFAE72B78012B0FD11249104819
:10752000FCF796FF236800219B69204698470023BB
:1075300084F8283000F0D6F86062DDE7E2680B4995
:107540000748FCF785FF0A4B049304A9002304F1C4
:1075500010000593FFF736FFE9E700BF38E50D009F
:1075600094E5032059E50D006AE50D0081E50D0065
:1075700041740D00014B024A1A60704794E50320E4
:10758000A6E50D0008B5024B1B685B6C019308BDB6
:107590007402030008B5024B1B685B68019308BDC9
:1075A0004802030008B5024B1B68DB68019308BD65
:1075B0004802030008B5024B1B68DB69019308BD54
:1075C0004802030008B5024B1B681B6A019308BD03
:1075D0004802030008B5024B1B685B6A019308BDB3
:1075E0004802030008B5024B1B689B6A019308BD63
:1075F0004802030008B5024B1B68DB6A019308BD13
:107600004802030008B5024B1B681B6B019308BDC1
:107610004802030008B5024B1B689B6B019308BD31
:107620004802030008B5024B1B681B6C019308BDA0
:107630004802030008B5024B1B685B6C019308BD50
:107640004802030008B5024B1B689B6C019308BD00
:107650004802030008B5024B1B68DB6C019308BDB0
:107660004802030008B5024B1B685B6D019308BD1F
:107670004802030008B5024B1B68DB6E019308BD8E
:107680004802030008B5024B1B681B6F019308BD3D
:107690004802030008B5024B1B685B6E019308BDEE
:1076A0003402030008B5024B1B68DB6E019308BD72
:1076B0003402030008B5024B1B685B68019308BDE8
:1076C0001802030008B5024B1B689B68019308BDB4
:1076D0001802030008B5024B1B68DB68019308BD64
:1076E0001802030008B5024B1B685B69019308BDD3
:1076F0001802030008B5024B1B689B6D019308BD7F
:107700001802030008B5024B1B68DB6D019308BD2E
:107710001802030008B5024B1B685B6E019308BD9D
:107720001802030008B5024B1B689B6E019308BD4D
:107730001802030008B5024B1B685B68019308BD83
:107740002C02030008B5024B1B689B68019308BD1F
:107750002C02030008B5024B1B68DB68019308BDCF
:107760002C02030008B5024B1B681B69019308BD7E
:107770002C02030008B5024B1B685B69019308BD2E
:107780002C02030008B5024B1B681B6B019308BD5C
:107790002C02030008B5024B1B68DB68019308BD8F
:1077A0002802030008B5024B1B689B69019308BDC2
:1077B0002802030008B5024B1B68DB69019308BD72
:1077C0002802030008B5024B1B681B6A019308BD21
:1077D0002802030008B5024B1B685B6A019308BDD1
:1077E0002802030008B5024B1B689B6A019308BD81
:1077F0002802030008B5024B1B68DB6A019308BD31
:107800002802030008B5024B1B681B6B019308BDDF
:107810002802030008B5024B1B685B6B019308BD8F
:107820002802030008B5024B1B681B6C019308BDBE
:107830002802030008B5024B1B689B6C019308BD2E
:107840002802030008B5024B1B68DB6C019308BDDE
:107850002802030008B5024B1B681B6D019308BD8D
:107860002802030008B5024B1B685B69019308BD41
:107870006402030008B5024B1B689B68019308BDB6
:107880006802030008B5024B1B68DB68019308BD62
:107890006802030008B5024B1B68DB69019308BD51
:1078A0003002030008B5024B1B681B6A019308BD38
:1078B0003002030008B5024B1B681B68019308BD2A
:1078C0003C02030008B5024B1B689B68019308BD8E
:1078D0003C02030008B5024B1B68DB68019308BD3E
:1078E0003C02030008B5024B1B681B69019308BDED
:1078F0003C02030008B5024B1B685B69019308BD9D
:107900003C02030008B5024B1B689B69019308BD4C
:107910003C02030008B5024B1B68DB69019308BDFC
:107920003C02030008B5024B1B681B6A019308BDAB
:107930003C02030008B5024B1B689B6A019308BD1B
:107940003C02030008B5024B1B68DB6A019308BDCB
:107950003C02030008B5024B1B681B68019308BD7D
:107960004C02030008B5024B1B685B68019308BD1D
:107970004C02030008B5024B1B689B68019308BDCD
:107980004C02030008B5024B1B681B69019308BD3C
:107990004C02030008B5024B1B685B69019308BDEC
:1079A0004C02030008B5024B1B689B69019308BD9C
:1079B0004C02030008B5024B1B68DB69019308BD4C
:1079C0004C02030008B5024B1B681B6A019308BDFB
:1079D0004C02030008B5024B1B685B6B019308BDAA
:1079E0006002030008B5024B1B681B6D019308BDC4
:1079F0006002030008B5024B1B685B6D019308BD74
:107A00006002030008B5024B1B68DB6E019308BDE2
:107A10006002030008B5024B1B681B6F019308BD91
:107A20006002030008B5034B1B68D3F8983001933C
:107A300008BD00006002030008B5024B1B681B680C
:107A4000019308BD2002030008B5024B1B685B6868
:107A5000019308BD2002030008B5024B1B685B6957
:107A6000019308BD2002030008B5024B1B689B6907
:107A7000019308BD2002030008B5024B1B681B6A76
:107A8000019308BD2002030008B5024B1B68DB6AA6
:107A9000019308BD2002030008B5024B1B68DB6C94
:107AA000019308BD2002030008B5024B1B685B6D03
:107AB000019308BD2002030008B5024B1B689B6DB3
:107AC000019308BD2002030008B5024B1B68DB6D63
:107AD000019308BD2002030008B5034B1B68D3F8CF
:107AE0008830019308BD00002002030008B5034B55
:107AF0001B68D3F89430019308BD000020020300F6
:107B000008B5034B1B68D3F8A830019308BD0000EB
:107B10002002030008B5034B1B68D3F8AC30019377
:107B200008BD00002002030008B5034B1B68D3F812
:107B3000B030019308BD00002002030008B5024BDD
:107B40001B681B68019308BD4402030008B5024B83
:107B50001B685B68019308BD4402030008B5024B33
:107B60001B689B68019308BD4402030008B5024BE3
:107B70001B68DB68019308BD4402030008B5024B93
:107B80001B685B69019308BD4402030008B5024B02
:107B90001B68DB69019308BD4402030008B5024B72
:107BA0001B681B6A019308BD4402030008B5024B21
:107BB0001B685B6A019308BD4402030008B5024BD1
:107BC0001B68DB6A019308BD4402030008B5024B41
:107BD0001B681B6B019308BD4402030008B5024BF0
:107BE0001B685B6B019308BD4402030008B5024BA0
:107BF0001B689B6B019308BD4402030008B5024B50
:107C00001B68DB6B019308BD4402030008B5024BFF
:107C10001B685B6C019308BD4402030008B5024B6E
:107C20001B685B68019308BD4002030008B5024B66
:107C30001B689B68019308BD4002030008B5024B16
:107C40001B68DB68019308BD4002030008B5024BC6
:107C50001B681B69019308BD4002030008B5024B75
:107C60001B685B69019308BD4002030008B5024B25
:107C70001B689B69019308BD4002030008B5024BD5
:107C80001B68DB69019308BD4002030008B5024B85
:107C90001B681B6A019308BD4002030008B5024B34
:107CA0001B681B6B019308BD4002030008B5024B23
:107CB0001B685B6B019308BD4002030008B5024BD3
:107CC0001B681B6C019308BD4002030008B5024B02
:107CD0001B685B6C019308BD4002030008B5024BB2
:107CE0001B681B68019308BD1C02030008B5024B0A
:107CF0001B685B68019308BD1C02030008B5024BBA
:107D00001B689B68019308BD1C02030008B5024B69
:107D10001B681B69019308BD1C02030008B5024BD8
:107D20001B68DB69019308BD1C02030008B5024B08
:107D30001B685B6A019308BD1C02030008B5024B77
:107D40001B68DB6A019308BD1C02030008B5024BE7
:107D50001B681B6B019308BD1C02030008B5024B96
:107D60001B685B6C019308BD1C02030008B5024B45
:107D70001B689B6C019308BD1C02030008B5024BF5
:107D80001B68DB6C019308BD1C02030008B5024BA5
:107D90001B681B6D019308BD1C02030008B5024B54
:107DA0001B685B6D019308BD1C0203008A4210B57D
:107DB00007D0029C401AE41A6043521A90FBF2F07A
:107DC000184410BD0021FFF747BE10B58368044674
:107DD0000BB903F028F9C3689847A3681BB10322C5
:107DE00021462046984720461021BDE8104003F068
:107DF00014B910B50446006808B1FFF723FC20460B
:107E000010BD0B68036013B15A6801325A607047A5
:107E100010B5064C002320462360FFF70BFC2046DC
:107E2000034A0449BDE8104003F0F2B898E5032086
:107E3000D0E30320F37D0D00002240681146FFF7D8
:107E400005BF002240681146FFF720BF00224068AE
:107E50001146FFF72BBF40680022FFF71FBF4068A5
:107E6000002281F00101FFF709BF002340681A4694
:107E70001946FFF7F3BE002240681146FFF7D6BE51
:107E8000406800220221FFF7D9BE002340681A464D
:107E9000FFF7C4BEF0B51B4B036000250F46283327
:107EA0001826C0E9025589B0436032462946044687
:107EB000103003F083FE78682A462946FFF7C6FE95
:107EC00018B9A060204609B0F0BD2946324602A884
:107ED000CDE9005503F072FE02A96846ADF80860CE
:107EE000FFF750FB10B10123A360EBE7009B019A61
:107EF000A360E2600BB90223A36002A9204600F050
:107F0000AEF8DFE744E60D00084B10B52824224602
:107F10001846002103F052FE054B04804FF0FF325B
:107F2000426004225A60034A1A6010BDA4E503208F
:107F30009CE5032008E60D007047007D704710B5F2
:107F40002821044603F069F8204610BD037D7BB16B
:107F5000C369002B0CDB07EE903A9FED077AF8EE31
:107F6000E77A87EE870ADFED057A20EE270A704769
:107F7000BFEE000A704700BF00FF7F470000C84205
:107F8000037D63B18369B3F1004F08D007EE903AE7
:107F90009FED047AF8EEE77A87EE870A70479FED47
:107FA000020A70470000C84200000000037D7BB158
:107FB000436A002B0CDB07EE903A9FED077AF8EE50
:107FC000E77A87EE870ADFED057A20EE270A704709
:107FD000BFEE000A704700BF00FF7F470000C842A5
:107FE000037D63B1036AB3F1004F08D007EE903A06
:107FF0009FED047AF8EEE77A87EE870A70479FEDE7
:10800000020A70470000C8420000000070B50C1E54
:1080100006460ADA2D2102F07CF8614205460A2262
:10802000304602F08FF8284470BD21460025F6E75F
:1080300070B50C46054681682046FFF7E7FF2C2106
:108040000646204602F065F8E96806442046FFF738
:10805000DDFF304470BDA0F10400FFF7E9BF30B58B
:108060000D4600F110040FCD0FC495E8030084E81D
:108070000300012030BD70470020704710B510216B
:10808000044602F0CAFF204610BD08B5FFF7F6FF10
:1080900008BD30B500224FF69C74026084808D8844
:1080A0008C800C68858004600A6030BD10B5044681
:1080B0000068FFF71BFE204610BD38B5C468F4B158
:1080C0002378022B03D104F10C00FFF7EFFF656862
:1080D00035B12846FCF710F91021284602F09DFF23
:1080E000A56835B12846FCF707F91021284602F0AB
:1080F00094FF20461421BDE8384002F08EBF38BD01
:1081000010B588B00446684602F0D5F8694604A860
:1081100002F01CF904A8A047044604A802F080F865
:10812000684602F07DF8204608B010BD1FB5002358
:10813000CDE90201019210241A4669461846ADF8AD
:108140000230ADF80040FFF701FD04B010BD1FB5CF
:108150000C23ADF8043003688DF80630037A8DF8EF
:108160000730436802930021437AADF80D1001A84F
:108170008DF80F108DF80C30FFF748FD05B05DF855
:1081800004FB1FB50C22ADF8042002688DF8062010
:10819000027A8DF80720426802920023427A8DF815
:1081A0000C20194601AA0220ADF80D308DF80F30D1
:1081B000FFF71CFD05B05DF804FB73B50E460446E1
:1081C00056F8043B00930D4601A83146FFF719FE0F
:1081D000019A009B6260236001A800230193009331
:1081E000FCF7F8FE3046FCF7F5FE2846082102F0C1
:1081F00014FF204602B070BD13B50B460246D0E90D
:1082000000016C4684E8030093E8030082E8030061
:1082100094E8030083E8030002B010BD826810B543
:108220000AB902F000FFBDE81040C368184708B55E
:10823000006800F11001FFF7F1FF08BD826810B57A
:108240000AB902F0F0FEBDE81040C368184708B54F
:10825000006800F11001FFF7F1FF08BD38B50023F9
:108260000446036010200D46FBF715FF28B10123DB
:10827000C0E90133024B0360C5602060204638BD71
:1082800078E60D0038B5002383608B6804460D4600
:108290002BB102229847EB68E360AB68A3602046ED
:1082A00038BD0000F0B589B004686846FFF7F1FEFC
:1082B0004FF00203D4E84F2F002A03D1C4E8413F16
:1082C0000029F7D125D104F10C0569462846FFF7AE
:1082D000E0FEBFF35B8F01236370002004F108030D
:1082E000BFF35B8F53E8006F43E80002002AF9D127
:1082F000BFF35B8F6EB1FFF7CFFB78B129463046F5
:10830000FFF78CFF3046FBF7F7FF1021304602F0F5
:1083100084FE6846FFF7CAFE09B0F0BD314602A8E8
:10832000FFF7B0FFE068B4F9105008B103F09CFC0F
:1083300006901020ADF81C50FBF7ADFE0546E8B1E5
:10834000002787601820FBF7A6FE044688B1014687
:10835000876002A8FFF750FF049BA268A360059BFB
:10836000049206A9E268E36004F110000592FFF7A9
:1083700090FE084BEB60084B2C60AB6006A8FFF743
:1083800095FE02A8FBF7B8FF002229460348FFF735
:108390008BFBB7E72F820D00C5840D00CB7D0D0050
:1083A0002DE9F0478AB005469DF848900C461746DF
:1083B0009846FFF7E3FB07AE824638BB4FF62E73B5
:1083C000059005A93046ADF81830FFF762FE14207D
:1083D000FBF761FE044648B1022303700123C0E9A4
:1083E00001AA437031460C30FFF753FE2846214660
:1083F00040F8044BFFF732FF3046FFF757FE05A861
:10840000FFF754FE28460AB0BDE8F0870C234FF072
:10841000000A1420CDE908AA0793FBF73CFE0146A9
:1084200028B1C0E901AA80F800A080F801A004A842
:108430000391FFF713FF224B08930820FBF72BFE55
:10844000824628B1039B40F8043B04A9FFF7D9FCFE
:1084500000965FFA89F3424639462046CDF824A0BB
:10846000FFF79CFBB8B9039B5B7803F0FF0293B95D
:108470004FF69C7305A903A80592ADF81830FFF7D5
:1084800011FF05A8FFF712FE05A80999FFF795FE51
:1084900006A8FCF79FFD039B059304A906A8FFF718
:1084A000B0FC059B069A2B606A60002306A8069321
:1084B0000593FCF78FFD04A8FCF78CFDA2E700BF35
:1084C00089850D00022AF8B5054607D0032A18D081
:1084D000012A01D10B6803600020F8BD18200E6846
:1084E000FBF7D9FD044650B13146FFF7CBFE3069AA
:1084F000B6F9147008B103F0B7FB2061A7822C60B5
:10850000EAE70468002CE7D004F11000FFF7CEFD85
:108510002046FBF7F1FE1821204602F07EFDDBE746
:1085200038B5002383608B6804460D462BB10222C8
:108530009847EB68E360AB68A360204638BD022A29
:1085400070B5044607D0032A12D0012A01D10B6866
:108550000360002070BD14200E68FBF79CFD0546EB
:1085600020B13146FFF7DCFF337C2B742560F0E748
:108570000468002CEDD02046FBF7BEFE14212046F7
:1085800002F04BFDE5E70000F0B589B004460D466A
:1085900001A81146FFF711FEA4B124B21DB128466F
:1085A00003F062FB054601A803A90395ADF810404E
:1085B000FFF778FE03A8FFF779FD02A8FCF70AFD94
:1085C00009B0F0BD019D0123D5E84F2F002A03D14A
:1085D000C5E8413F0029F7D1EFD12B73BFF35B8F83
:1085E0006B702B1DBFF35B8F53E8006F43E80042B5
:1085F000002AF9D1BFF35B8F002EDED02046FFF7B3
:108600004BFA074660B105F10C013046FFF716FE44
:108610003046FBF771FE1021304602F0FEFCCCE73D
:10862000314603A8FFF77CFF2B7B8DF81C30102010
:10863000FBF731FD0546D0B187601420FBF72BFD19
:10864000044678B18760014603A8FFF7D5FD059B76
:10865000A268A360069B0592E268E3609DF81C3067
:1086600006922374064BEB60064B2C60AB6003A8AC
:10867000FBF742FE002229460348FFF715FAC7E739
:108680004F820D003F850D00CB7D0D00002240681C
:108690001146FFF7FBBA002240681146FFF706BB00
:1086A00040680022FFF7FABA4068002281F0010119
:1086B000FFF7E4BA002340681A461946FFF7D6BA16
:1086C000002340681A461946FFF7C8BA00224068DE
:1086D0001146FFF7BBBA002240681146FFF7A6BA61
:1086E000406800220221FFF7A9BA002340681A4619
:1086F000FFF794BA024B03225A60024A1A6070478D
:10870000CCE5032094E60D00006800F057B910B5E1
:108710000446016002710AB1FFF7F6FF204610BD62
:1087200013B50446019102F04BFC019A0146204624
:10873000FFF7EDFF204602B010BD006800F047B91A
:1087400010B5037904460BB1FFF7F7FF204610BDC3
:108750002DE9FF4104460D4617461E46FFF7D4FF9C
:1087600036238DF800300023206801934FF0010874
:108770000A23694603938DF8088000F003F9206806
:10878000036829469B6898472068414600F012F923
:10879000054640B16FF09F052046FFF7CEFF284603
:1087A00004B0BDE8F081022320680193694600F01F
:1087B000B9F80228EED1206803685B6998473870E1
:1087C000206803685B6998473070E5E713460A46FE
:1087D0000C21FFF7BDBF2DE9FF41164604461D469B
:1087E0000F46FFF791FF36238DF8003000232068F5
:1087F00001934FF001080A23694603938DF808801E
:1088000000F0C0F82068036839469B6898472068E4
:10881000036831469B6898472068036829469B682F
:1088200098474146206800F0C5F8002820460CBF54
:1088300000256FF09F05FFF780FF284604B0BDE8D4
:10884000F08108B5402200230621FFF7C4FF00EAAB
:10885000E07008BD37B50546FFF756FF00230DF160
:1088600007020DF1060128468DF806308DF8073015
:10887000FFF7ACFF041E0BDB9DF807309DF80620C8
:1088800003F07F030C212846FFF7A5FF00EAE07400
:108890002846FFF752FF204603B030BD7047F8B5B9
:1088A000064615460C468F18BC4206D0336814F8AD
:1088B000011B9B6830469847F6E72846F8BD007CC8
:1088C0000022FEF77FBF007C0021FEF783BF007C03
:1088D0000021FEF787BF007C0021FEF78BBF007CE4
:1088E0000021FEF78FBF10B51421044602F095FB5E
:1088F000204610BD10B54FF47A7304460846002197
:10890000C4E90113034B236020741146FEF78AFF6C
:10891000204610BDD0E60D000023007C1A46194603
:10892000FEF738BF7FB500221423CDE90122ADF850
:1089300004300B788DF808304B680393CB680493B0
:10894000007C0B7A059301A9FEF784FF07B05DF860
:1089500004FB1FB5003B8DF800104FF0640103913C
:1089600018BF0123694601928DF80830FFF7DAFF3E
:1089700005B05DF804FB007C0022FEF713BFC9B20E
:10898000FFF7F9BF7FB50023CDE901334A680392B1
:108990001423CA68ADF804300B7804920A7A059261
:1089A000007C8DF8083001AA1946FEF7FBFE07B0DF
:1089B0005DF804FB007C0022FEF7FCBE08B5002138
:1089C000007CFEF737FFB0FA80F0400908BD08B51B
:1089D0000021007CFEF736FFB0FA80F0400908BDA8
:1089E000704710B51821044602F017FB204610BD51
:1089F000F0B5037D062B8DB00E4600F104074FF055
:108A0000000412D000F1080515F8011D0A223046B5
:108A100001F098FBAF42044419D0002CF4D02E2171
:108A2000304601F076FB0444EEE72F236A463946D0
:108A30000A208DF80040FEF715FF684603F031F973
:108A400033680246DB68694630469847044620464C
:108A50000DB0F0BD10B5054B0446112240F8043BA3
:108A6000002103F0ABF8204610BD00BFF8E60D0072
:108A70000346074A10B543F8042B01F1100251F8E0
:108A8000044B43F8044B9142F9D10A781A7010BD97
:108A9000F8E60D0010B59DF8084044EA032343EAC8
:108AA000024242EA016104234160037510BD13B51F
:108AB000CB7800938B784A780978FFF7EBFF02B008
:108AC00010BD00F11003012213F8101C01291846F3
:108AD00008D153F8041C02EB4102013A03F11003E0
:108AE000F2D17047022904BF53F8041C5218F4E76E
:108AF0000EB4F0B588B000AF07F13405102155F879
:108B0000042B7A6004462B467818FD60FFF70EF9B7
:108B10000F287A681AD900F1080323F007036E467C
:108B2000ADEB030D411C2B466846FD60FFF7FEF8D8
:108B3000021E04DD236869469B6820469847B546B7
:108B40002037BD46BDE8F04003B070470028F7D09D
:108B5000236802469B6807F1100120469847EFE71B
:108B600010B5036804469B689847A368013BA3605F
:108B70002BB923682046DB68BDE81040184710BDBC
:108B800007B503688DF807109B6801220DF10701F6
:108B9000984703B05DF804FB38B50B6803604D6877
:108BA00043689D4204460CD015B16B6801336B607D
:108BB000606828B14368013B43600BB9FFF7D0FF01
:108BC0006560204638BD0B461146002210B5C0E94D
:108BD0000022044683600BB9204610BDFFF7DCFF7E
:108BE000FAE78368EBB11A78032A1AD8DFE802F0B3
:108BF0000417021B0520704702685B685268D05C4E
:108C00002D2812D0A0F13003092B0ED974280ED0D4
:108C100066280CD0A0F16E035842584170470620D8
:108C200070470020704704207047032070470220DF
:108C3000704710B50446FFF7D4FF02280ED0C31EBC
:108C4000DBB2012B14D82268A36850685B68BDE8CA
:108C500010400A220021184403F060BF2268A36874
:108C600052685B68D05CA0F174035842584110BD53
:108C70000020FCE738B50023C0E9003304460E4865
:108C8000C4E90203A9B10B78032B06D08BB9136892
:108C900058684B68C35C6E2B07D013684D685868E2
:108CA0008B6828445B1BA060E36011462046FFF7F9
:108CB00073FF204638BD00BF61E70D0038B50025C1
:108CC0000B46C0E90055C0E90255C0E90455044609
:108CD00011464BB11A78012A06D103F11002DB6864
:108CE00082604361FFF758FF204638BD10B54369E5
:108CF000044663B18068E060013B1030A0602061F1
:108D0000636113B1FFF7DDFEA060012000E01846AB
:108D100010BD10B57D210446FFF732FF01232371FA
:108D2000204610BD08B50379012B02D0022B04D0D8
:108D300008BD2C21FFF724FFFAE73A21FAE710B526
:108D40000446FFF7EFFF20467B21FFF719FF0023C2
:108D50002371204610BD000013B504460191FFF7B2
:108D6000E1FF2368019ADB68034920469847012305
:108D70002046237102B010BDA0E10D0013B50446DA
:108D80000191FFF7CFFF2368019ADB680349204672
:108D9000984701232046237102B010BD8FE30D00D8
:108DA0002DE9F0410D4617462221DFF8A080044648
:108DB0002F44FFF7E5FE2946BD422A4638D015F874
:108DC000016B222E03D05C2E01D01F2EF4D8236815
:108DD000521A9B68204698475C212046FFF7D0FE38
:108DE0000D2E0AD8072E1CD9A6F10803052B18D87A
:108DF000DFE803F00D0F11171315222E01D05C2EA2
:108E00000FD131462046FFF7BBFE2946D4E7622149
:108E1000F8E77421F6E76E21F4E76621F2E77221A4
:108E2000F0E723683246DB68414620469847ECE786
:108E30008D4204D023686A1A9B68204698472221F5
:108E40002046FFF79DFEBDE8F08100BF04E70D005E
:108E500013B50446CDE90021FFF764FF2046DDE9A4
:108E60000021FFF79DFF02232046237102B010BDB1
:108E700013B50446CDE90021FFF754FF2046DDE994
:108E80000021FFF78DFF01232046237102B010BDA2
:108E900080680368DB6818477047084611B10B68A3
:108EA0005B681847704770477047704738B504468D
:108EB0000D4600682E2102F0BAFE2368C31A2B600B
:108EC00023B1037803B1013023682060184638BD10
:108ED00010B50C21044602F0A0F8204610BD10B5D4
:108EE0000421044602F099F8204610BD10B5042173
:108EF000044602F092F8204610BD08B502F0A1FE2B
:108F0000B0FA80F0400908BD10B50C4601F09AFE99
:108F1000844210D001F00AFE844205D101F006FE21
:108F2000BDE8104001F0FFBD2CB1236820465B680E
:108F3000BDE81040184710BD13B50446084601911E
:108F400002F0AFFE01990246204602B0BDE8104093
:108F5000FFF78EBF13B504460846019102F0A1FE4B
:108F600023680199DB680246204602B0BDE8104044
:108F7000184707B503688DF80710DB6801220DF16B
:108F80000701984703B05DF804FB0EB403B503ABCB
:108F9000002153F8042B006A019301F0F1F802B0AC
:108FA0005DF804EB03B070472DE9F74FD0E9009569
:108FB0004FF0140808FB05F50093AB10184D174649
:108FC0005D434C46002D23DD6E1008FB06F004EBDC
:108FD000000A3A46BAF804B0205801915F4528BF0C
:108FE0005A4602F066FE0199012378B95F4503D124
:108FF000009A13703546E5E78CBF01200020002859
:10900000F8D0AE1B0AF11404013EF3E7C00FF6E7F7
:10901000A4EB09040248A410604303B0BDE8F08F3C
:10902000CDCCCCCC7FB50369067E01910BB301B3E7
:10903000002500F10C04039503A901A8FFF736FFF2
:109040000146B0B10DF10B03039A8DF80B50204689
:10905000FFF7AAFF9DF80B305BB12468142303FBD4
:10906000004000F10804B0F90630002BA8BFDEB2C2
:10907000E2E7304604B070BD10B50A4C2378BFF368
:109080005B8FDB070BD42046FBF716F838B1204680
:10909000FBF717F8044A0549054801F0B9FF0448F1
:1090A00010BD00BFD8E50320D0E30320A98E0D003A
:1090B000E0E1032010B50A4C2378BFF35B8FDB0798
:1090C0000BD42046FAF7F8FF38B12046FAF7F9FF3B
:1090D000044A0549054801F09BFF044810BD00BF44
:1090E000DCE50320D0E30320A78E0D00E4E103209C
:1090F00038B500250446C0E90055C0E9045585602F
:10910000856140F8245FFEF795FAFFF7B5FFE0614F
:10911000FFF7D0FF25732062204638BD10B50B4CF9
:109120002378BFF35B8FDB070ED42046FAF7C4FF2A
:1091300050B10748FFF7DCFF2046FAF7C2FF054AA7
:109140000549034801F064FF014810BDD4E5032040
:10915000E4E50320D0E30320B1950D00024A034962
:1091600003480023FEF756BC8D940D0019940D00A2
:1091700099930D0000231A4619461846FEF74ABC7B
:1091800037B50D6951F8043B0093044601A8FEF77A
:1091900038FE6A4629462046FFF715FD01A8FBF771
:1091A00019FF204603B030BD37B58D6851F8043B38
:1091B0000093044601A8FEF724FE6A46294620468D
:1091C000FFF77CFD01A8FBF705FF204603B030BD8B
:1091D00037B5CD6851F8043B0093044601A8FEF76B
:1091E00010FE6A4629462046FFF744FD01A8FBF71A
:1091F000F1FE204603B030BD70B58AB00D46014681
:1092000004A8FFF7D1FF144E04A8FFF76FFDE8B1E3
:1092100004A96846FFF7DCFF02983146FFF76DFEB0
:10922000044610B12C1E18BF012401A8FBF7D2FE82
:10923000002CE9D004A96846FFF7A2FF6846FFF7B3
:10924000F8FC286001A8FBF7C5FEDDE705A8FBF7E1
:10925000C1FE0AB070BD00BF0AE70D0037B50C466D
:1092600020461249154602F0ECFC48B901F0EAFC30
:109270004FF4165101F0D6FC01F0E4FC03B030BD10
:109280000B49204602F0DDFC70B94FF4165301A9DA
:1092900028460193FFF7B0FF01F048FC019901F067
:1092A0003FFC01F043FCE9E70020E7E70FE70D0092
:1092B00016E70D0070B5D0E900531426044606FBEE
:1092C0000356AE4205D005F10800FFF7F3FF143551
:1092D000F7E72068FEF70AFD204670BD70B5D0E9BB
:1092E0000053044605EB0316AE4204D0284600F0B6
:1092F00097FF1035F8E72068FEF7F8FC204670BDB0
:1093000010B504460C30FFF7D5FF2046FFF7E6FF07
:10931000204610BD10B5044B044640F8043BFFF74F
:10932000EFFF204610BD00BF4CE00D0010B5044615
:10933000FFF7F0FF2046242101F06FFE204610BD0C
:1093400010B5034B03600446FFF7E4FF204610BD51
:10935000B0E70D0010B50446FFF7F2FF20462421C8
:1093600001F05BFE204610BD0022C0E9002210B5CE
:1093700082600C6804604C6844608C680A604A60D3
:1093800084608A6010BD10B5036804461868FEF753
:1093900069F9204610BD00002DE9F04F87B08046E6
:1093A00003931C4B5B68C3F30803894616466BB9ED
:1093B000FFF7B4FE044600F12403406A0593FEF76C
:1093C00049F9237B2BB105A8FFF7DDFF07B0BDE806
:1093D000F08F01232373D4E900535FFA89F905EB79
:1093E000830AAA4512D055F8047B3146381DFFF791
:1093F00019FE8145F5D33B68039A0092D3F808B073
:109400004A46334641463846D847EAE700232373A5
:10941000D9E700BF00ED00E02DE9F74F9B461A4B5E
:109420005B68C3F308038046894616466BB9FFF7AD
:1094300075FE044600F12403406A0193FEF70AF921
:10944000237B2BB101A8FFF79EFF03B0BDE8F08F8F
:1094500001232373D4E90053F6B205EB830A554583
:109460000ED055F8047B5946381DFFF7DBFD8642C8
:10947000F5D33B684A46DB68414638469847EEE7F5
:1094800000232373DEE700BF00ED00E02DE9F34188
:10949000164B5B68C3F3080305460F461BBBFFF77B
:1094A0003DFE00F124030446406A0193FEF7D2F822
:1094B000D4E90063462406EB8308B04509D101A82E
:1094C000FFF761FFA542B4BF0020012002B0BDE854
:1094D000F08156F8040B39460430FFF7A3FD8442AF
:1094E000A8BF0446E9E70020F0E700BF00ED00E078
:1094F00070B50446D0E900020B4600EB82028242BE
:1095000007D001461D6851F8046BAE4203D00846EF
:10951000F5E7002070BD521A02F036FB6368013B8C
:1095200063600120F6E71FB500F124030446406A9A
:1095300001910393FEF78EF801A92046FFF7D8FFAB
:1095400018B163680BB9FFF715FE03A8FFF71BFFFF
:1095500004B010BD70B5D0E904561823044603FBCF
:109560000656AE4215D005F110012046FFF7C0FFA8
:1095700063680BB9FFF7FEFDE06929690368DB68E2
:109580009847696919B1206A0368DB6898471835FC
:10959000E7E7D4E90453182606FB0356AE4204D08D
:1095A000284600F03DFE1835F8E70023636170BDE2
:1095B00073B50446FFF7DEFD04F12403606A0193EE
:1095C000FEF748F82046FFF7C5FF01A8FFF7DBFECE
:1095D000606A08B1FEF736F8D4E90453182606FB92
:1095E0000356AE4204D0284600F01AFE1835F8E7BC
:1095F0002069FEF77BFB2068FEF778FB204602B06F
:1096000070BD8842F8B506460C46154627D99042EB
:1096100026D2A2F114056C1AA1F114070444002605
:10962000AF423DD0A4B12B682360AB88A380B5F9CD
:109630000630E380C4E902662661AB68A360AE60D1
:10964000E368EA68E260EB6023692A6922612B61C2
:1096500005F10800FFF72EFE143D143CE0E71FD093
:109660000027AC421CD0A6B123683360A388B38026
:10967000B4F90630F380C6E902773761A368B360B6
:10968000A760F368E268F260E360336922693261DF
:10969000236104F10800FFF70DFE14341436E0E7EF
:1096A000F8BDF8B5D0E901539D4204460E46174671
:1096B0000DDB0135002D006804DDA900FEF71EFB5F
:1096C00018B9F8BDFEF712FB00202060A5602568E0
:1096D000626805EB86019200A2EB8602081D02F08B
:1096E00053FA45F826706368013363600120E8E7A8
:1096F00037B500F124030446406A01930D46FDF797
:10970000A9FFD4E9003103EB810083421A460BD054
:109710001268AA4203F10403F7D101A8FFF733FE50
:109720000025284603B030BD2A462046FFF7B9FF82
:1097300005460028F1D06368012B01D1FFF70EFD2B
:1097400001A8FFF720FEECE78842F8B504460D4675
:10975000164614D9904213D2A2F11006751AA1F13F
:1097600010072C44B74218D01CB13146204600F0F7
:10977000D3FD304600F054FD103E103CF2E70CD013
:10978000B5420AD01CB12946204600F0C5FD284646
:1097900000F046FD10351034F2E7F8BD70B50E1E2E
:1097A000054611DD3001FEF799FA044658B1D5E9B6
:1097B000001201EB0212FFF7C7FF2868FEF796FAC6
:1097C0002C60AE60012070BD0024F6E72DE9F04F5B
:1097D000914697B000230391D9F804100C934622C8
:1097E0009942C0E90033C0E90233C0E90433CDE94E
:1097F0000A330446027623DCD9E90057142303FB1D
:109800000757AF423BD029460DA800F085FD0DA9B2
:1098100011A80B9E00F080FDDDE90B1399421BDAC5
:109820000A9B0B9A03EB061603EB0212314606F174
:109830001000FFF789FFEEB90B9B01330B9311E08A
:109840000AA8FFF7ABFF0028D6D10AA8FFF746FD0C
:10985000204617B0BDE8F08F01310AA8FFF79EFF40
:109860000028DDD111A800F0DBFC0DA800F0D8FC29
:109870001435C6E711A9304600F04EFDDCE700269E
:10988000CDE90D660F9637464FF0140ADDE90A233D
:109890009E4280F297803301D35808930BB901366A
:1098A000F4E70AFB06F3099702930DAD09A908A88E
:1098B000FFF7FCFA83460028F1D00146099A8DF89B
:1098C0001F700DF11F032846FFF76EFB9DF81F80E8
:1098D0000190B8F1000F66D1BDF82430ADF84830E2
:1098E000CDE913884FF6FF73CDF844B0ADF84A3098
:1098F000CDF85480D5E9013293421ADB03F1010B14
:10990000BBF1000F4ADD0AFB0BF0FEF7E7F904900C
:10991000002845D0D5E900120AFB0212FFF771FEBC
:10992000049B28680493FEF7E1F9049B2B60C5F8BB
:1099300008B0019BD5F800B06A680AFB03F30BEB93
:10994000030101F114000AFB02B204910593FFF731
:1099500058FE0499A9B1059B119A4BF80320BDF854
:1099600048308B80BDF94A30CB80C1E902770F6166
:10997000139B8B60149B1397CB60159B14970B6103
:1099800015976B6801336B6013A8FFF793FCB8F170
:10999000000F08D00DA8FFF78DFC56E74346C0E73F
:1099A0004FF00108F0E7019B2D680AFB0355089B67
:1099B0001B782BB9D9F80030029A13441B7CEB803A
:1099C000083573E72168226062686360A3680B92C0
:1099D0000C9A0C93E368A2600D9A0D932369E260E0
:1099E0000E9A0E93636922610F9A0F93039B0A915B
:1099F00062612376CEE700007FB50546094B45F846
:109A0000043B04460E4601A81146FCF7FFF801AAE4
:109A100031462846FFF7DAFE01A8FBF7F1FA2046A7
:109A200004B070BD4CE00D00F0B50F4687B026497C
:109A30000C9C384616461D4602F003F900BBE4B103
:109A400029466846FFF790FC2049242001F0E7FAF8
:109A5000054670B1694603A8FCF7D8F803AA314659
:109A60002846FFF7C9FF03A8FBF7CAFA184B2C6278
:109A70002B606846FBF7C4FA2C46204607B0F0BDC1
:109A80001449384602F0DDF8E0B9002CF5D029463B
:109A90006846FFF769FC0D49242001F0C0FA05462D
:109AA0000028E6D0694603A8FCF7B0F803AA3146BF
:109AB0002846FFF7A1FF03A8FBF7A2FA064B2B608D
:109AC0002C62D6E70024D8E71EE70D00E4E80D007D
:109AD000B0E70D0022E70D0098E70D00014B024AA8
